{
  "contractName": "BulkDistributor",
  "abi": [
    {
      "inputs": [
        {
          "internalType": "contract Product",
          "name": "productAddress",
          "type": "address"
        },
        {
          "internalType": "contract WineProducer",
          "name": "wineProducerAddress",
          "type": "address"
        }
      ],
      "payable": false,
      "stateMutability": "nonpayable",
      "type": "constructor"
    },
    {
      "anonymous": false,
      "inputs": [
        {
          "indexed": false,
          "internalType": "uint256",
          "name": "productId",
          "type": "uint256"
        }
      ],
      "name": "buyWine",
      "type": "event"
    },
    {
      "anonymous": false,
      "inputs": [
        {
          "indexed": false,
          "internalType": "uint256",
          "name": "productId",
          "type": "uint256"
        }
      ],
      "name": "dispatchWine",
      "type": "event"
    },
    {
      "anonymous": false,
      "inputs": [
        {
          "indexed": false,
          "internalType": "uint256",
          "name": "productId",
          "type": "uint256"
        }
      ],
      "name": "wineReceived",
      "type": "event"
    },
    {
      "constant": false,
      "inputs": [
        {
          "internalType": "uint256",
          "name": "productId",
          "type": "uint256"
        },
        {
          "internalType": "string",
          "name": "dispatchDate",
          "type": "string"
        }
      ],
      "name": "buyWineFromWineProducer",
      "outputs": [],
      "payable": true,
      "stateMutability": "payable",
      "type": "function"
    },
    {
      "constant": false,
      "inputs": [
        {
          "internalType": "uint256",
          "name": "productId",
          "type": "uint256"
        },
        {
          "internalType": "string",
          "name": "currentLocation",
          "type": "string"
        },
        {
          "internalType": "string",
          "name": "arrivalDate",
          "type": "string"
        }
      ],
      "name": "receiveWine",
      "outputs": [],
      "payable": false,
      "stateMutability": "nonpayable",
      "type": "function"
    },
    {
      "constant": false,
      "inputs": [
        {
          "internalType": "uint256",
          "name": "productId",
          "type": "uint256"
        }
      ],
      "name": "materialReadyToShip",
      "outputs": [],
      "payable": false,
      "stateMutability": "nonpayable",
      "type": "function"
    },
    {
      "constant": false,
      "inputs": [
        {
          "internalType": "uint256",
          "name": "productId",
          "type": "uint256"
        },
        {
          "internalType": "string",
          "name": "newDisbatchDate",
          "type": "string"
        },
        {
          "internalType": "address",
          "name": "transitCellarAddress",
          "type": "address"
        },
        {
          "internalType": "address",
          "name": "transitCellarContractAddress",
          "type": "address"
        }
      ],
      "name": "disbatchWineToTransitCellar",
      "outputs": [],
      "payable": false,
      "stateMutability": "nonpayable",
      "type": "function"
    }
  ],
  "bytecode": "0x608060405233600260006101000a81548173ffffffffffffffffffffffffffffffffffffffff021916908373ffffffffffffffffffffffffffffffffffffffff16021790555034801561005157600080fd5b506040516123563803806123568339818101604052604081101561007457600080fd5b810190808051906020019092919080519060200190929190505050816000806101000a81548173ffffffffffffffffffffffffffffffffffffffff021916908373ffffffffffffffffffffffffffffffffffffffff16021790555080600160006101000a81548173ffffffffffffffffffffffffffffffffffffffff021916908373ffffffffffffffffffffffffffffffffffffffff1602179055505050612235806101216000396000f3fe60806040526004361061003f5760003560e01c8063ac4ce13114610044578063c520924c1461007f578063dd76e545146101e8578063f8b0139d146102fa575b600080fd5b34801561005057600080fd5b5061007d6004803603602081101561006757600080fd5b81019080803590602001909291905050506103bf565b005b34801561008b57600080fd5b506101e6600480360360608110156100a257600080fd5b8101908080359060200190929190803590602001906401000000008111156100c957600080fd5b8201836020820111156100db57600080fd5b803590602001918460018302840111640100000000831117156100fd57600080fd5b91908080601f016020809104026020016040519081016040528093929190818152602001838380828437600081840152601f19601f8201169050808301925050505050505091929192908035906020019064010000000081111561016057600080fd5b82018360208201111561017257600080fd5b8035906020019184600183028401116401000000008311171561019457600080fd5b91908080601f016020809104026020016040519081016040528093929190818152602001838380828437600081840152601f19601f82011690508083019250505050505050919291929050505061064a565b005b3480156101f457600080fd5b506102f86004803603608081101561020b57600080fd5b81019080803590602001909291908035906020019064010000000081111561023257600080fd5b82018360208201111561024457600080fd5b8035906020019184600183028401116401000000008311171561026657600080fd5b91908080601f016020809104026020016040519081016040528093929190818152602001838380828437600081840152601f19601f820116905080830192505050505050509192919290803573ffffffffffffffffffffffffffffffffffffffff169060200190929190803573ffffffffffffffffffffffffffffffffffffffff169060200190929190505050611130565b005b6103bd6004803603604081101561031057600080fd5b81019080803590602001909291908035906020019064010000000081111561033757600080fd5b82018360208201111561034957600080fd5b8035906020019184600183028401116401000000008311171561036b57600080fd5b91908080601f016020809104026020016040519081016040528093929190818152602001838380828437600081840152601f19601f820116905080830192505050505050509192919290505050611d6b565b005b803373ffffffffffffffffffffffffffffffffffffffff166000809054906101000a900473ffffffffffffffffffffffffffffffffffffffff1673ffffffffffffffffffffffffffffffffffffffff16637ace341b836040518263ffffffff1660e01b81526004018082815260200191505060206040518083038186803b15801561044957600080fd5b505afa15801561045d573d6000803e3d6000fd5b505050506040513d602081101561047357600080fd5b810190808051906020019092919050505073ffffffffffffffffffffffffffffffffffffffff16146104a457600080fd5b600015156000809054906101000a900473ffffffffffffffffffffffffffffffffffffffff1673ffffffffffffffffffffffffffffffffffffffff166340889b4f846040518263ffffffff1660e01b81526004018082815260200191505060206040518083038186803b15801561051a57600080fd5b505afa15801561052e573d6000803e3d6000fd5b505050506040513d602081101561054457600080fd5b81019080805190602001909291905050501515146105ad576040517f08c379a00000000000000000000000000000000000000000000000000000000081526004018080602001828103825260258152602001806121ba6025913960400191505060405180910390fd5b6000809054906101000a900473ffffffffffffffffffffffffffffffffffffffff1673ffffffffffffffffffffffffffffffffffffffff16633d30ffb88360016040518363ffffffff1660e01b8152600401808381526020018215151515815260200192505050600060405180830381600087803b15801561062e57600080fd5b505af1158015610642573d6000803e3d6000fd5b505050505050565b823373ffffffffffffffffffffffffffffffffffffffff166000809054906101000a900473ffffffffffffffffffffffffffffffffffffffff1673ffffffffffffffffffffffffffffffffffffffff16637ace341b836040518263ffffffff1660e01b81526004018082815260200191505060206040518083038186803b1580156106d457600080fd5b505afa1580156106e8573d6000803e3d6000fd5b505050506040513d60208110156106fe57600080fd5b810190808051906020019092919050505073ffffffffffffffffffffffffffffffffffffffff161461072f57600080fd5b600015156000809054906101000a900473ffffffffffffffffffffffffffffffffffffffff1673ffffffffffffffffffffffffffffffffffffffff16631becaefb866040518263ffffffff1660e01b81526004018082815260200191505060206040518083038186803b1580156107a557600080fd5b505afa1580156107b9573d6000803e3d6000fd5b505050506040513d60208110156107cf57600080fd5b81019080805190602001909291905050501515146107ec57600080fd5b3073ffffffffffffffffffffffffffffffffffffffff166000809054906101000a900473ffffffffffffffffffffffffffffffffffffffff1673ffffffffffffffffffffffffffffffffffffffff16630772c45e866040518263ffffffff1660e01b81526004018082815260200191505060206040518083038186803b15801561087557600080fd5b505afa158015610889573d6000803e3d6000fd5b505050506040513d602081101561089f57600080fd5b810190808051906020019092919050505073ffffffffffffffffffffffffffffffffffffffff16146108d057600080fd5b600115156000809054906101000a900473ffffffffffffffffffffffffffffffffffffffff1673ffffffffffffffffffffffffffffffffffffffff166340889b4f866040518263ffffffff1660e01b81526004018082815260200191505060206040518083038186803b15801561094657600080fd5b505afa15801561095a573d6000803e3d6000fd5b505050506040513d602081101561097057600080fd5b810190808051906020019092919050505015151461098d57600080fd5b60608060606000809054906101000a900473ffffffffffffffffffffffffffffffffffffffff1673ffffffffffffffffffffffffffffffffffffffff166323bb1835886040518263ffffffff1660e01b81526004018082815260200191505060006040518083038186803b158015610a0457600080fd5b505afa158015610a18573d6000803e3d6000fd5b505050506040513d6000823e3d601f19601f820116820180604052506060811015610a4257600080fd5b8101908080516040519392919084640100000000821115610a6257600080fd5b83820191506020820185811115610a7857600080fd5b8251866001820283011164010000000082111715610a9557600080fd5b8083526020830192505050908051906020019080838360005b83811015610ac9578082015181840152602081019050610aae565b50505050905090810190601f168015610af65780820380516001836020036101000a031916815260200191505b5060405260200180516040519392919084640100000000821115610b1957600080fd5b83820191506020820185811115610b2f57600080fd5b8251866001820283011164010000000082111715610b4c57600080fd5b8083526020830192505050908051906020019080838360005b83811015610b80578082015181840152602081019050610b65565b50505050905090810190601f168015610bad5780820380516001836020036101000a031916815260200191505b5060405260200180516040519392919084640100000000821115610bd057600080fd5b83820191506020820185811115610be657600080fd5b8251866001820283011164010000000082111715610c0357600080fd5b8083526020830192505050908051906020019080838360005b83811015610c37578082015181840152602081019050610c1c565b50505050905090810190601f168015610c645780820380516001836020036101000a031916815260200191505b506040525050509250925092506000809054906101000a900473ffffffffffffffffffffffffffffffffffffffff1673ffffffffffffffffffffffffffffffffffffffff1663d88ee329888585856040518563ffffffff1660e01b815260040180858152602001806020018060200180602001848103845287818151815260200191508051906020019080838360005b83811015610d0f578082015181840152602081019050610cf4565b50505050905090810190601f168015610d3c5780820380516001836020036101000a031916815260200191505b50848103835286818151815260200191508051906020019080838360005b83811015610d75578082015181840152602081019050610d5a565b50505050905090810190601f168015610da25780820380516001836020036101000a031916815260200191505b50848103825285818151815260200191508051906020019080838360005b83811015610ddb578082015181840152602081019050610dc0565b50505050905090810190601f168015610e085780820380516001836020036101000a031916815260200191505b50975050505050505050600060405180830381600087803b158015610e2c57600080fd5b505af1158015610e40573d6000803e3d6000fd5b505050506000809054906101000a900473ffffffffffffffffffffffffffffffffffffffff1673ffffffffffffffffffffffffffffffffffffffff1663809db2f88888886040518463ffffffff1660e01b815260040180848152602001806020018060200180602001848103845286818151815260200191508051906020019080838360005b83811015610ee1578082015181840152602081019050610ec6565b50505050905090810190601f168015610f0e5780820380516001836020036101000a031916815260200191505b50848103835260008152602001602001848103825285818151815260200191508051906020019080838360005b83811015610f56578082015181840152602081019050610f3b565b50505050905090810190601f168015610f835780820380516001836020036101000a031916815260200191505b509650505050505050600060405180830381600087803b158015610fa657600080fd5b505af1158015610fba573d6000803e3d6000fd5b505050506000809054906101000a900473ffffffffffffffffffffffffffffffffffffffff1673ffffffffffffffffffffffffffffffffffffffff1663dcd9d2cb8860016040518363ffffffff1660e01b8152600401808381526020018215151515815260200192505050600060405180830381600087803b15801561103f57600080fd5b505af1158015611053573d6000803e3d6000fd5b505050506000809054906101000a900473ffffffffffffffffffffffffffffffffffffffff1673ffffffffffffffffffffffffffffffffffffffff16633d30ffb88860006040518363ffffffff1660e01b8152600401808381526020018215151515815260200192505050600060405180830381600087803b1580156110d857600080fd5b505af11580156110ec573d6000803e3d6000fd5b505050507f2ffc48f4ae90072b45426bc482d9ae940d820e9532910a3ca1d051006e3284d1876040518082815260200191505060405180910390a150505050505050565b833373ffffffffffffffffffffffffffffffffffffffff166000809054906101000a900473ffffffffffffffffffffffffffffffffffffffff1673ffffffffffffffffffffffffffffffffffffffff16637ace341b836040518263ffffffff1660e01b81526004018082815260200191505060206040518083038186803b1580156111ba57600080fd5b505afa1580156111ce573d6000803e3d6000fd5b505050506040513d60208110156111e457600080fd5b810190808051906020019092919050505073ffffffffffffffffffffffffffffffffffffffff161461121557600080fd5b600115156000809054906101000a900473ffffffffffffffffffffffffffffffffffffffff1673ffffffffffffffffffffffffffffffffffffffff166340889b4f876040518263ffffffff1660e01b81526004018082815260200191505060206040518083038186803b15801561128b57600080fd5b505afa15801561129f573d6000803e3d6000fd5b505050506040513d60208110156112b557600080fd5b810190808051906020019092919050505015151461133b576040517f08c379a000000000000000000000000000000000000000000000000000000000815260040180806020018281038252601e8152602001807f50726f64756374206e6f7420726561647920666f72207368697070696e67000081525060200191505060405180910390fd5b3073ffffffffffffffffffffffffffffffffffffffff166000809054906101000a900473ffffffffffffffffffffffffffffffffffffffff1673ffffffffffffffffffffffffffffffffffffffff16630772c45e876040518263ffffffff1660e01b81526004018082815260200191505060206040518083038186803b1580156113c457600080fd5b505afa1580156113d8573d6000803e3d6000fd5b505050506040513d60208110156113ee57600080fd5b810190808051906020019092919050505073ffffffffffffffffffffffffffffffffffffffff161461141f57600080fd5b6000809054906101000a900473ffffffffffffffffffffffffffffffffffffffff1673ffffffffffffffffffffffffffffffffffffffff16630cc91022866000809054906101000a900473ffffffffffffffffffffffffffffffffffffffff1673ffffffffffffffffffffffffffffffffffffffff16637ace341b896040518263ffffffff1660e01b81526004018082815260200191505060206040518083038186803b1580156114cf57600080fd5b505afa1580156114e3573d6000803e3d6000fd5b505050506040513d60208110156114f957600080fd5b81019080805190602001909291905050506040518363ffffffff1660e01b8152600401808381526020018273ffffffffffffffffffffffffffffffffffffffff1673ffffffffffffffffffffffffffffffffffffffff16815260200192505050600060405180830381600087803b15801561157357600080fd5b505af1158015611587573d6000803e3d6000fd5b505050506000809054906101000a900473ffffffffffffffffffffffffffffffffffffffff1673ffffffffffffffffffffffffffffffffffffffff16636c125a6b86856040518363ffffffff1660e01b8152600401808381526020018273ffffffffffffffffffffffffffffffffffffffff1673ffffffffffffffffffffffffffffffffffffffff16815260200192505050600060405180830381600087803b15801561163357600080fd5b505af1158015611647573d6000803e3d6000fd5b505050506000809054906101000a900473ffffffffffffffffffffffffffffffffffffffff1673ffffffffffffffffffffffffffffffffffffffff166391f4caca866000809054906101000a900473ffffffffffffffffffffffffffffffffffffffff1673ffffffffffffffffffffffffffffffffffffffff16630772c45e896040518263ffffffff1660e01b81526004018082815260200191505060206040518083038186803b1580156116fb57600080fd5b505afa15801561170f573d6000803e3d6000fd5b505050506040513d602081101561172557600080fd5b81019080805190602001909291905050506040518363ffffffff1660e01b8152600401808381526020018273ffffffffffffffffffffffffffffffffffffffff1673ffffffffffffffffffffffffffffffffffffffff16815260200192505050600060405180830381600087803b15801561179f57600080fd5b505af11580156117b3573d6000803e3d6000fd5b505050506000809054906101000a900473ffffffffffffffffffffffffffffffffffffffff1673ffffffffffffffffffffffffffffffffffffffff166358ff352a86846040518363ffffffff1660e01b8152600401808381526020018273ffffffffffffffffffffffffffffffffffffffff1673ffffffffffffffffffffffffffffffffffffffff16815260200192505050600060405180830381600087803b15801561185f57600080fd5b505af1158015611873573d6000803e3d6000fd5b505050506060806000809054906101000a900473ffffffffffffffffffffffffffffffffffffffff1673ffffffffffffffffffffffffffffffffffffffff166323bb1835886040518263ffffffff1660e01b81526004018082815260200191505060006040518083038186803b1580156118ec57600080fd5b505afa158015611900573d6000803e3d6000fd5b505050506040513d6000823e3d601f19601f82011682018060405250606081101561192a57600080fd5b810190808051604051939291908464010000000082111561194a57600080fd5b8382019150602082018581111561196057600080fd5b825186600182028301116401000000008211171561197d57600080fd5b8083526020830192505050908051906020019080838360005b838110156119b1578082015181840152602081019050611996565b50505050905090810190601f1680156119de5780820380516001836020036101000a031916815260200191505b5060405260200180516040519392919084640100000000821115611a0157600080fd5b83820191506020820185811115611a1757600080fd5b8251866001820283011164010000000082111715611a3457600080fd5b8083526020830192505050908051906020019080838360005b83811015611a68578082015181840152602081019050611a4d565b50505050905090810190601f168015611a955780820380516001836020036101000a031916815260200191505b5060405260200180516040519392919084640100000000821115611ab857600080fd5b83820191506020820185811115611ace57600080fd5b8251866001820283011164010000000082111715611aeb57600080fd5b8083526020830192505050908051906020019080838360005b83811015611b1f578082015181840152602081019050611b04565b50505050905090810190601f168015611b4c5780820380516001836020036101000a031916815260200191505b5060405250505092505091506000809054906101000a900473ffffffffffffffffffffffffffffffffffffffff1673ffffffffffffffffffffffffffffffffffffffff1663809db2f8888489856040518563ffffffff1660e01b815260040180858152602001806020018060200180602001848103845287818151815260200191508051906020019080838360005b83811015611bf6578082015181840152602081019050611bdb565b50505050905090810190601f168015611c235780820380516001836020036101000a031916815260200191505b50848103835286818151815260200191508051906020019080838360005b83811015611c5c578082015181840152602081019050611c41565b50505050905090810190601f168015611c895780820380516001836020036101000a031916815260200191505b50848103825285818151815260200191508051906020019080838360005b83811015611cc2578082015181840152602081019050611ca7565b50505050905090810190601f168015611cef5780820380516001836020036101000a031916815260200191505b50975050505050505050600060405180830381600087803b158015611d1357600080fd5b505af1158015611d27573d6000803e3d6000fd5b505050507f06d92c795d22bc2c448932e4aa8aca41db236001c756fef4e4d242c3e3c2e6d5876040518082815260200191505060405180910390a150505050505050565b60008060009054906101000a900473ffffffffffffffffffffffffffffffffffffffff1673ffffffffffffffffffffffffffffffffffffffff1663fe73e86c846040518263ffffffff1660e01b81526004018082815260200191505060206040518083038186803b158015611ddf57600080fd5b505afa158015611df3573d6000803e3d6000fd5b505050506040513d6020811015611e0957600080fd5b81019080805190602001909291905050506000809054906101000a900473ffffffffffffffffffffffffffffffffffffffff1673ffffffffffffffffffffffffffffffffffffffff166364c0e52f856040518263ffffffff1660e01b81526004018082815260200191505060206040518083038186803b158015611e8c57600080fd5b505afa158015611ea0573d6000803e3d6000fd5b505050506040513d6020811015611eb657600080fd5b8101908080519060200190929190505050029050803411611f22576040517f08c379a00000000000000000000000000000000000000000000000000000000081526004018080602001828103825260228152602001806121df6022913960400191505060405180910390fd5b60008060009054906101000a900473ffffffffffffffffffffffffffffffffffffffff1673ffffffffffffffffffffffffffffffffffffffff16637ace341b856040518263ffffffff1660e01b81526004018082815260200191505060206040518083038186803b158015611f9657600080fd5b505afa158015611faa573d6000803e3d6000fd5b505050506040513d6020811015611fc057600080fd5b810190808051906020019092919050505090508073ffffffffffffffffffffffffffffffffffffffff166108fc839081150290604051600060405180830381858888f19350505050158015612019573d6000803e3d6000fd5b50600160009054906101000a900473ffffffffffffffffffffffffffffffffffffffff1673ffffffffffffffffffffffffffffffffffffffff16632d6a0f94858533306040518563ffffffff1660e01b815260040180858152602001806020018473ffffffffffffffffffffffffffffffffffffffff1673ffffffffffffffffffffffffffffffffffffffff1681526020018373ffffffffffffffffffffffffffffffffffffffff1673ffffffffffffffffffffffffffffffffffffffff168152602001828103825285818151815260200191508051906020019080838360005b838110156121155780820151818401526020810190506120fa565b50505050905090810190601f1680156121425780820380516001836020036101000a031916815260200191505b5095505050505050600060405180830381600087803b15801561216457600080fd5b505af1158015612178573d6000803e3d6000fd5b505050507fcbcf23490ae6632fac22b556d6ce185e17c3f9b407892b6b2263979df21a60a6846040518082815260200191505060405180910390a15050505056fe50726f6475637420697320616c726561647920726561647920666f72207368697070696e67496e737566666963656e7420616d6f756e7420746f20627579207468652077696e65a265627a7a72315820924b198c2ae2eb16f99aa002401038c1816fecf6d43f934f2c7b5ca894b090c964736f6c63430005100032",
  "source": "pragma solidity ^0.5.0;\r\n\r\nimport \"./Product.sol\";\r\nimport \"./WineProducer.sol\";\r\n\r\ncontract BulkDistributor {\r\n\r\n    //variables\r\n    Product productContract;\r\n    WineProducer wineProducerContract;\r\n    address owner = msg.sender;\r\n\r\n    constructor(Product productAddress, WineProducer wineProducerAddress) public {\r\n        productContract = productAddress;\r\n        wineProducerContract = wineProducerAddress;\r\n    }\r\n\r\n    //events\r\n    event buyWine(uint productId);\r\n    event wineReceived(uint productId);\r\n    event dispatchWine(uint productId);\r\n\r\n    //modifiers\r\n    modifier ownerOnly(uint256 productId) {\r\n        require(productContract.getCurrentOwner(productId) == msg.sender);\r\n        _;\r\n    }\r\n\r\n\r\n    //buy\r\n    function buyWineFromWineProducer(uint256 productId, string memory dispatchDate) public payable {\r\n        uint256 productPrice = productContract.getUnitPrice(productId) * productContract.getBatchQuantity(productId);\r\n        require(msg.value > productPrice, \"Insufficent amount to buy the wine\");\r\n        address payable targetAddress = address(uint160(productContract.getCurrentOwner(productId)));\r\n        targetAddress.transfer(productPrice);\r\n\r\n        wineProducerContract.disbatchWineToBulkDistributor(productId, dispatchDate, msg.sender, address(this));\r\n        emit buyWine(productId);\r\n\r\n    }\r\n\r\n    //Receive From Wine Producer\r\n    function receiveWine(\r\n        uint256 productId,\r\n        string memory currentLocation,\r\n        string memory arrivalDate\r\n    ) public ownerOnly(productId) {\r\n        require(productContract.getReceived(productId) == false);\r\n        require(productContract.getCurrentContractAddress(productId) == address(this));\r\n        require(productContract.getReadyToShip(productId) == true);\r\n        (string memory location, string memory dispatchDate, string memory prevArrivalDate) = productContract.getCurrentLocation(productId);\r\n        productContract.addPreviousLocation(productId, location, dispatchDate, prevArrivalDate);\r\n        productContract.setCurrentLocation(productId, currentLocation, \"\", arrivalDate);\r\n\r\n        productContract.setReceived(productId, true);\r\n        productContract.setReadyToShip(productId, false);\r\n\r\n        emit wineReceived(productId);\r\n    }\r\n\r\n    function materialReadyToShip(uint256 productId) public ownerOnly(productId) {\r\n        require(productContract.getReadyToShip(productId) == false, \"Product is already ready for shipping\");\r\n        productContract.setReadyToShip(productId, true);\r\n    }\r\n\r\n    //dispatch to Transit Cellar\r\n    function disbatchWineToTransitCellar(uint256 productId, string memory newDisbatchDate, address transitCellarAddress, address transitCellarContractAddress) public ownerOnly(productId) {\r\n        require(productContract.getReadyToShip(productId) == true, \"Product not ready for shipping\");\r\n        require(productContract.getCurrentContractAddress(productId) == address(this));\r\n\r\n        productContract.setPreviousOwner(productId, productContract.getCurrentOwner(productId));\r\n        productContract.setCurrentOwner(productId, transitCellarAddress);\r\n\r\n        productContract.setPreviousContractAddress(productId, productContract.getCurrentContractAddress(productId));\r\n        productContract.setCurrentContractAddress(productId,transitCellarContractAddress);\r\n\r\n        (string memory location, ,string memory arrivalDate) = productContract.getCurrentLocation(productId);\r\n        productContract.setCurrentLocation(productId, location, newDisbatchDate, arrivalDate);\r\n        \r\n        emit dispatchWine(productId);\r\n    }\r\n}\r\n",
  "sourcePath": "C:\\Users\\YC\\Documents\\shino\\IS4302\\Wine-Supplychain-Blockchain\\contracts\\BulkDistributor.sol",
  "compiler": {
    "name": "solc",
    "version": "0.5.16+commit.9c3226ce.Emscripten.clang"
  },
  "schemaVersion": "3.4.11",
  "updatedAt": "2023-04-03T06:49:53.209Z",
  "networkType": "ethereum",
  "devdoc": {
    "methods": {}
  },
  "userdoc": {
    "methods": {}
  }
}