{
  "contractName": "FillerPacker",
  "abi": [
    {
      "inputs": [
        {
          "internalType": "contract Product",
          "name": "productContractAddress",
          "type": "address"
        },
        {
          "internalType": "contract TransitCellar",
          "name": "transitCellarAddress",
          "type": "address"
        }
      ],
      "payable": false,
      "stateMutability": "nonpayable",
      "type": "constructor"
    },
    {
      "anonymous": false,
      "inputs": [
        {
          "indexed": false,
          "internalType": "uint256",
          "name": "productId",
          "type": "uint256"
        }
      ],
      "name": "wineBought",
      "type": "event"
    },
    {
      "anonymous": false,
      "inputs": [
        {
          "indexed": false,
          "internalType": "uint256",
          "name": "productId",
          "type": "uint256"
        }
      ],
      "name": "wineDispatched",
      "type": "event"
    },
    {
      "anonymous": false,
      "inputs": [
        {
          "indexed": false,
          "internalType": "uint256",
          "name": "productId",
          "type": "uint256"
        }
      ],
      "name": "wineLabelled",
      "type": "event"
    },
    {
      "anonymous": false,
      "inputs": [
        {
          "indexed": false,
          "internalType": "uint256",
          "name": "productId",
          "type": "uint256"
        }
      ],
      "name": "winePackaged",
      "type": "event"
    },
    {
      "anonymous": false,
      "inputs": [
        {
          "indexed": false,
          "internalType": "uint256",
          "name": "productId",
          "type": "uint256"
        }
      ],
      "name": "wineReceived",
      "type": "event"
    },
    {
      "anonymous": false,
      "inputs": [
        {
          "indexed": false,
          "internalType": "uint256",
          "name": "productId",
          "type": "uint256"
        }
      ],
      "name": "wineRefunded",
      "type": "event"
    },
    {
      "anonymous": false,
      "inputs": [
        {
          "indexed": false,
          "internalType": "uint256",
          "name": "productId",
          "type": "uint256"
        }
      ],
      "name": "wineRemoved",
      "type": "event"
    },
    {
      "anonymous": false,
      "inputs": [
        {
          "indexed": false,
          "internalType": "uint256",
          "name": "productId",
          "type": "uint256"
        }
      ],
      "name": "wineReturned",
      "type": "event"
    },
    {
      "constant": true,
      "inputs": [],
      "name": "getOwner",
      "outputs": [
        {
          "internalType": "address",
          "name": "",
          "type": "address"
        }
      ],
      "payable": false,
      "stateMutability": "view",
      "type": "function"
    },
    {
      "constant": true,
      "inputs": [
        {
          "internalType": "uint256",
          "name": "productId",
          "type": "uint256"
        }
      ],
      "name": "getPackagingDetails",
      "outputs": [
        {
          "internalType": "string",
          "name": "",
          "type": "string"
        }
      ],
      "payable": false,
      "stateMutability": "view",
      "type": "function"
    },
    {
      "constant": true,
      "inputs": [
        {
          "internalType": "uint256",
          "name": "productId",
          "type": "uint256"
        }
      ],
      "name": "getLabelDetails",
      "outputs": [
        {
          "internalType": "string",
          "name": "",
          "type": "string"
        }
      ],
      "payable": false,
      "stateMutability": "view",
      "type": "function"
    },
    {
      "constant": false,
      "inputs": [
        {
          "internalType": "uint256",
          "name": "productId",
          "type": "uint256"
        },
        {
          "internalType": "string",
          "name": "dispatchDate",
          "type": "string"
        }
      ],
      "name": "buyWineFromTransitCellar",
      "outputs": [],
      "payable": true,
      "stateMutability": "payable",
      "type": "function"
    },
    {
      "constant": false,
      "inputs": [
        {
          "internalType": "uint256",
          "name": "productId",
          "type": "uint256"
        },
        {
          "internalType": "string",
          "name": "currentLocation",
          "type": "string"
        },
        {
          "internalType": "string",
          "name": "arrivalDate",
          "type": "string"
        }
      ],
      "name": "receiveWineFromTransitCellar",
      "outputs": [],
      "payable": false,
      "stateMutability": "nonpayable",
      "type": "function"
    },
    {
      "constant": false,
      "inputs": [
        {
          "internalType": "uint256",
          "name": "productId",
          "type": "uint256"
        }
      ],
      "name": "returnWine",
      "outputs": [],
      "payable": true,
      "stateMutability": "payable",
      "type": "function"
    },
    {
      "constant": false,
      "inputs": [
        {
          "internalType": "uint256",
          "name": "productId",
          "type": "uint256"
        }
      ],
      "name": "refundFillerPacker",
      "outputs": [],
      "payable": true,
      "stateMutability": "payable",
      "type": "function"
    },
    {
      "constant": false,
      "inputs": [
        {
          "internalType": "uint256",
          "name": "productId",
          "type": "uint256"
        }
      ],
      "name": "removeWine",
      "outputs": [],
      "payable": false,
      "stateMutability": "nonpayable",
      "type": "function"
    },
    {
      "constant": false,
      "inputs": [
        {
          "internalType": "uint256",
          "name": "productId",
          "type": "uint256"
        },
        {
          "internalType": "string",
          "name": "packagingDetail",
          "type": "string"
        }
      ],
      "name": "packageWine",
      "outputs": [],
      "payable": false,
      "stateMutability": "nonpayable",
      "type": "function"
    },
    {
      "constant": false,
      "inputs": [
        {
          "internalType": "uint256",
          "name": "productId",
          "type": "uint256"
        },
        {
          "internalType": "string",
          "name": "labelDetail",
          "type": "string"
        }
      ],
      "name": "labelWine",
      "outputs": [],
      "payable": false,
      "stateMutability": "nonpayable",
      "type": "function"
    },
    {
      "constant": false,
      "inputs": [
        {
          "internalType": "uint256",
          "name": "productId",
          "type": "uint256"
        }
      ],
      "name": "materialReadyToShip",
      "outputs": [],
      "payable": false,
      "stateMutability": "nonpayable",
      "type": "function"
    },
    {
      "constant": false,
      "inputs": [
        {
          "internalType": "uint256",
          "name": "productId",
          "type": "uint256"
        },
        {
          "internalType": "string",
          "name": "dispatchDate",
          "type": "string"
        },
        {
          "internalType": "address",
          "name": "newOwner",
          "type": "address"
        },
        {
          "internalType": "address",
          "name": "newContractAddress",
          "type": "address"
        }
      ],
      "name": "dispatchWineToGoodsDistributor",
      "outputs": [],
      "payable": false,
      "stateMutability": "nonpayable",
      "type": "function"
    }
  ],
  "bytecode": "0x608060405233600260006101000a81548173ffffffffffffffffffffffffffffffffffffffff021916908373ffffffffffffffffffffffffffffffffffffffff16021790555034801561005157600080fd5b506040516139593803806139598339818101604052604081101561007457600080fd5b810190808051906020019092919080519060200190929190505050816000806101000a81548173ffffffffffffffffffffffffffffffffffffffff021916908373ffffffffffffffffffffffffffffffffffffffff16021790555080600160006101000a81548173ffffffffffffffffffffffffffffffffffffffff021916908373ffffffffffffffffffffffffffffffffffffffff1602179055505050613838806101216000396000f3fe6080604052600436106100a75760003560e01c80639571e8e4116100645780639571e8e41461044e578063a51fd8451461047c578063ac4ce1311461054e578063b623451214610589578063cd058d581461065b578063e4885ba91461076d576100a7565b80631495ef7b146100ac57806315bb1441146100da5780634d0d5948146101155780637d1816031461027e578063893d20e8146103325780638e90e3e914610389575b600080fd5b6100d8600480360360208110156100c257600080fd5b8101908080359060200190929190505050610821565b005b3480156100e657600080fd5b50610113600480360360208110156100fd57600080fd5b8101908080359060200190929190505050610d5d565b005b34801561012157600080fd5b5061027c6004803603606081101561013857600080fd5b81019080803590602001909291908035906020019064010000000081111561015f57600080fd5b82018360208201111561017157600080fd5b8035906020019184600183028401116401000000008311171561019357600080fd5b91908080601f016020809104026020016040519081016040528093929190818152602001838380828437600081840152601f19601f820116905080830192505050505050509192919290803590602001906401000000008111156101f657600080fd5b82018360208201111561020857600080fd5b8035906020019184600183028401116401000000008311171561022a57600080fd5b91908080601f016020809104026020016040519081016040528093929190818152602001838380828437600081840152601f19601f820116905080830192505050505050509192919290505050610f09565b005b34801561028a57600080fd5b506102b7600480360360208110156102a157600080fd5b81019080803590602001909291905050506119ef565b6040518080602001828103825283818151815260200191508051906020019080838360005b838110156102f75780820151818401526020810190506102dc565b50505050905090810190601f1680156103245780820380516001836020036101000a031916815260200191505b509250505060405180910390f35b34801561033e57600080fd5b50610347611aa4565b604051808273ffffffffffffffffffffffffffffffffffffffff1673ffffffffffffffffffffffffffffffffffffffff16815260200191505060405180910390f35b61044c6004803603604081101561039f57600080fd5b8101908080359060200190929190803590602001906401000000008111156103c657600080fd5b8201836020820111156103d857600080fd5b803590602001918460018302840111640100000000831117156103fa57600080fd5b91908080601f016020809104026020016040519081016040528093929190818152602001838380828437600081840152601f19601f820116905080830192505050505050509192919290505050611ace565b005b61047a6004803603602081101561046457600080fd5b8101908080359060200190929190505050611f1c565b005b34801561048857600080fd5b5061054c6004803603604081101561049f57600080fd5b8101908080359060200190929190803590602001906401000000008111156104c657600080fd5b8201836020820111156104d857600080fd5b803590602001918460018302840111640100000000831117156104fa57600080fd5b91908080601f016020809104026020016040519081016040528093929190818152602001838380828437600081840152601f19601f82011690508083019250505050505050919291929050505061261a565b005b34801561055a57600080fd5b506105876004803603602081101561057157600080fd5b810190808035906020019092919050505061267d565b005b34801561059557600080fd5b50610659600480360360408110156105ac57600080fd5b8101908080359060200190929190803590602001906401000000008111156105d357600080fd5b8201836020820111156105e557600080fd5b8035906020019184600183028401116401000000008311171561060757600080fd5b91908080601f016020809104026020016040519081016040528093929190818152602001838380828437600081840152601f19601f820116905080830192505050505050509192919290505050612908565b005b34801561066757600080fd5b5061076b6004803603608081101561067e57600080fd5b8101908080359060200190929190803590602001906401000000008111156106a557600080fd5b8201836020820111156106b757600080fd5b803590602001918460018302840111640100000000831117156106d957600080fd5b91908080601f016020809104026020016040519081016040528093929190818152602001838380828437600081840152601f19601f820116905080830192505050505050509192919290803573ffffffffffffffffffffffffffffffffffffffff169060200190929190803573ffffffffffffffffffffffffffffffffffffffff16906020019092919050505061296b565b005b34801561077957600080fd5b506107a66004803603602081101561079057600080fd5b810190808035906020019092919050505061363f565b6040518080602001828103825283818151815260200191508051906020019080838360005b838110156107e65780820151818401526020810190506107cb565b50505050905090810190601f1680156108135780820380516001836020036101000a031916815260200191505b509250505060405180910390f35b803373ffffffffffffffffffffffffffffffffffffffff166000809054906101000a900473ffffffffffffffffffffffffffffffffffffffff1673ffffffffffffffffffffffffffffffffffffffff16637ace341b836040518263ffffffff1660e01b81526004018082815260200191505060206040518083038186803b1580156108ab57600080fd5b505afa1580156108bf573d6000803e3d6000fd5b505050506040513d60208110156108d557600080fd5b810190808051906020019092919050505073ffffffffffffffffffffffffffffffffffffffff161461090657600080fd5b3373ffffffffffffffffffffffffffffffffffffffff166000809054906101000a900473ffffffffffffffffffffffffffffffffffffffff1673ffffffffffffffffffffffffffffffffffffffff16637ace341b846040518263ffffffff1660e01b81526004018082815260200191505060206040518083038186803b15801561098f57600080fd5b505afa1580156109a3573d6000803e3d6000fd5b505050506040513d60208110156109b957600080fd5b810190808051906020019092919050505073ffffffffffffffffffffffffffffffffffffffff1614610a53576040517f08c379a00000000000000000000000000000000000000000000000000000000081526004018080602001828103825260168152602001807f556e61626c6520746f20726566756e64206974656d730000000000000000000081525060200191505060405180910390fd5b60008060009054906101000a900473ffffffffffffffffffffffffffffffffffffffff1673ffffffffffffffffffffffffffffffffffffffff1663fe73e86c846040518263ffffffff1660e01b81526004018082815260200191505060206040518083038186803b158015610ac757600080fd5b505afa158015610adb573d6000803e3d6000fd5b505050506040513d6020811015610af157600080fd5b81019080805190602001909291905050506000809054906101000a900473ffffffffffffffffffffffffffffffffffffffff1673ffffffffffffffffffffffffffffffffffffffff166364c0e52f856040518263ffffffff1660e01b81526004018082815260200191505060206040518083038186803b158015610b7457600080fd5b505afa158015610b88573d6000803e3d6000fd5b505050506040513d6020811015610b9e57600080fd5b810190808051906020019092919050505002905080341015610c28576040517f08c379a000000000000000000000000000000000000000000000000000000000815260040180806020018281038252601d8152602001807f496e737566666963656e7420616d6f756e7420666f7220726566756e6400000081525060200191505060405180910390fd5b60008060009054906101000a900473ffffffffffffffffffffffffffffffffffffffff1673ffffffffffffffffffffffffffffffffffffffff16637ace341b856040518263ffffffff1660e01b81526004018082815260200191505060206040518083038186803b158015610c9c57600080fd5b505afa158015610cb0573d6000803e3d6000fd5b505050506040513d6020811015610cc657600080fd5b810190808051906020019092919050505090508073ffffffffffffffffffffffffffffffffffffffff166108fc839081150290604051600060405180830381858888f19350505050158015610d1f573d6000803e3d6000fd5b507f74a82779032dc0d4e4f33201b54462b87864a2f492866a347556163e1688a169846040518082815260200191505060405180910390a150505050565b803373ffffffffffffffffffffffffffffffffffffffff166000809054906101000a900473ffffffffffffffffffffffffffffffffffffffff1673ffffffffffffffffffffffffffffffffffffffff16637ace341b836040518263ffffffff1660e01b81526004018082815260200191505060206040518083038186803b158015610de757600080fd5b505afa158015610dfb573d6000803e3d6000fd5b505050506040513d6020811015610e1157600080fd5b810190808051906020019092919050505073ffffffffffffffffffffffffffffffffffffffff1614610e4257600080fd5b6000809054906101000a900473ffffffffffffffffffffffffffffffffffffffff1673ffffffffffffffffffffffffffffffffffffffff16635ee95cae836040518263ffffffff1660e01b815260040180828152602001915050600060405180830381600087803b158015610eb657600080fd5b505af1158015610eca573d6000803e3d6000fd5b505050507fa75642e219535e71f3332decace37ca196480295106318c0be229f8a4f4ae4f1826040518082815260200191505060405180910390a15050565b823373ffffffffffffffffffffffffffffffffffffffff166000809054906101000a900473ffffffffffffffffffffffffffffffffffffffff1673ffffffffffffffffffffffffffffffffffffffff16637ace341b836040518263ffffffff1660e01b81526004018082815260200191505060206040518083038186803b158015610f9357600080fd5b505afa158015610fa7573d6000803e3d6000fd5b505050506040513d6020811015610fbd57600080fd5b810190808051906020019092919050505073ffffffffffffffffffffffffffffffffffffffff1614610fee57600080fd5b600015156000809054906101000a900473ffffffffffffffffffffffffffffffffffffffff1673ffffffffffffffffffffffffffffffffffffffff16631becaefb866040518263ffffffff1660e01b81526004018082815260200191505060206040518083038186803b15801561106457600080fd5b505afa158015611078573d6000803e3d6000fd5b505050506040513d602081101561108e57600080fd5b81019080805190602001909291905050501515146110ab57600080fd5b3073ffffffffffffffffffffffffffffffffffffffff166000809054906101000a900473ffffffffffffffffffffffffffffffffffffffff1673ffffffffffffffffffffffffffffffffffffffff16630772c45e866040518263ffffffff1660e01b81526004018082815260200191505060206040518083038186803b15801561113457600080fd5b505afa158015611148573d6000803e3d6000fd5b505050506040513d602081101561115e57600080fd5b810190808051906020019092919050505073ffffffffffffffffffffffffffffffffffffffff161461118f57600080fd5b600115156000809054906101000a900473ffffffffffffffffffffffffffffffffffffffff1673ffffffffffffffffffffffffffffffffffffffff166340889b4f866040518263ffffffff1660e01b81526004018082815260200191505060206040518083038186803b15801561120557600080fd5b505afa158015611219573d6000803e3d6000fd5b505050506040513d602081101561122f57600080fd5b810190808051906020019092919050505015151461124c57600080fd5b60608060606000809054906101000a900473ffffffffffffffffffffffffffffffffffffffff1673ffffffffffffffffffffffffffffffffffffffff166323bb1835886040518263ffffffff1660e01b81526004018082815260200191505060006040518083038186803b1580156112c357600080fd5b505afa1580156112d7573d6000803e3d6000fd5b505050506040513d6000823e3d601f19601f82011682018060405250606081101561130157600080fd5b810190808051604051939291908464010000000082111561132157600080fd5b8382019150602082018581111561133757600080fd5b825186600182028301116401000000008211171561135457600080fd5b8083526020830192505050908051906020019080838360005b8381101561138857808201518184015260208101905061136d565b50505050905090810190601f1680156113b55780820380516001836020036101000a031916815260200191505b50604052602001805160405193929190846401000000008211156113d857600080fd5b838201915060208201858111156113ee57600080fd5b825186600182028301116401000000008211171561140b57600080fd5b8083526020830192505050908051906020019080838360005b8381101561143f578082015181840152602081019050611424565b50505050905090810190601f16801561146c5780820380516001836020036101000a031916815260200191505b506040526020018051604051939291908464010000000082111561148f57600080fd5b838201915060208201858111156114a557600080fd5b82518660018202830111640100000000821117156114c257600080fd5b8083526020830192505050908051906020019080838360005b838110156114f65780820151818401526020810190506114db565b50505050905090810190601f1680156115235780820380516001836020036101000a031916815260200191505b506040525050509250925092506000809054906101000a900473ffffffffffffffffffffffffffffffffffffffff1673ffffffffffffffffffffffffffffffffffffffff1663d88ee329888585856040518563ffffffff1660e01b815260040180858152602001806020018060200180602001848103845287818151815260200191508051906020019080838360005b838110156115ce5780820151818401526020810190506115b3565b50505050905090810190601f1680156115fb5780820380516001836020036101000a031916815260200191505b50848103835286818151815260200191508051906020019080838360005b83811015611634578082015181840152602081019050611619565b50505050905090810190601f1680156116615780820380516001836020036101000a031916815260200191505b50848103825285818151815260200191508051906020019080838360005b8381101561169a57808201518184015260208101905061167f565b50505050905090810190601f1680156116c75780820380516001836020036101000a031916815260200191505b50975050505050505050600060405180830381600087803b1580156116eb57600080fd5b505af11580156116ff573d6000803e3d6000fd5b505050506000809054906101000a900473ffffffffffffffffffffffffffffffffffffffff1673ffffffffffffffffffffffffffffffffffffffff1663809db2f88888886040518463ffffffff1660e01b815260040180848152602001806020018060200180602001848103845286818151815260200191508051906020019080838360005b838110156117a0578082015181840152602081019050611785565b50505050905090810190601f1680156117cd5780820380516001836020036101000a031916815260200191505b50848103835260008152602001602001848103825285818151815260200191508051906020019080838360005b838110156118155780820151818401526020810190506117fa565b50505050905090810190601f1680156118425780820380516001836020036101000a031916815260200191505b509650505050505050600060405180830381600087803b15801561186557600080fd5b505af1158015611879573d6000803e3d6000fd5b505050506000809054906101000a900473ffffffffffffffffffffffffffffffffffffffff1673ffffffffffffffffffffffffffffffffffffffff1663dcd9d2cb8860016040518363ffffffff1660e01b8152600401808381526020018215151515815260200192505050600060405180830381600087803b1580156118fe57600080fd5b505af1158015611912573d6000803e3d6000fd5b505050506000809054906101000a900473ffffffffffffffffffffffffffffffffffffffff1673ffffffffffffffffffffffffffffffffffffffff16633d30ffb88860006040518363ffffffff1660e01b8152600401808381526020018215151515815260200192505050600060405180830381600087803b15801561199757600080fd5b505af11580156119ab573d6000803e3d6000fd5b505050507f2ffc48f4ae90072b45426bc482d9ae940d820e9532910a3ca1d051006e3284d1876040518082815260200191505060405180910390a150505050505050565b6060600460008381526020019081526020016000208054600181600116156101000203166002900480601f016020809104026020016040519081016040528092919081815260200182805460018160011615610100020316600290048015611a985780601f10611a6d57610100808354040283529160200191611a98565b820191906000526020600020905b815481529060010190602001808311611a7b57829003601f168201915b50505050509050919050565b6000600260009054906101000a900473ffffffffffffffffffffffffffffffffffffffff16905090565b60008060009054906101000a900473ffffffffffffffffffffffffffffffffffffffff1673ffffffffffffffffffffffffffffffffffffffff1663fe73e86c846040518263ffffffff1660e01b81526004018082815260200191505060206040518083038186803b158015611b4257600080fd5b505afa158015611b56573d6000803e3d6000fd5b505050506040513d6020811015611b6c57600080fd5b81019080805190602001909291905050506000809054906101000a900473ffffffffffffffffffffffffffffffffffffffff1673ffffffffffffffffffffffffffffffffffffffff166364c0e52f856040518263ffffffff1660e01b81526004018082815260200191505060206040518083038186803b158015611bef57600080fd5b505afa158015611c03573d6000803e3d6000fd5b505050506040513d6020811015611c1957600080fd5b8101908080519060200190929190505050029050803411611c85576040517f08c379a00000000000000000000000000000000000000000000000000000000081526004018080602001828103825260228152602001806137e26022913960400191505060405180910390fd5b60008060009054906101000a900473ffffffffffffffffffffffffffffffffffffffff1673ffffffffffffffffffffffffffffffffffffffff16637ace341b856040518263ffffffff1660e01b81526004018082815260200191505060206040518083038186803b158015611cf957600080fd5b505afa158015611d0d573d6000803e3d6000fd5b505050506040513d6020811015611d2357600080fd5b810190808051906020019092919050505090508073ffffffffffffffffffffffffffffffffffffffff166108fc839081150290604051600060405180830381858888f19350505050158015611d7c573d6000803e3d6000fd5b50600160009054906101000a900473ffffffffffffffffffffffffffffffffffffffff1673ffffffffffffffffffffffffffffffffffffffff1663d485dda9858533306040518563ffffffff1660e01b815260040180858152602001806020018473ffffffffffffffffffffffffffffffffffffffff1673ffffffffffffffffffffffffffffffffffffffff1681526020018373ffffffffffffffffffffffffffffffffffffffff1673ffffffffffffffffffffffffffffffffffffffff168152602001828103825285818151815260200191508051906020019080838360005b83811015611e78578082015181840152602081019050611e5d565b50505050905090810190601f168015611ea55780820380516001836020036101000a031916815260200191505b5095505050505050600060405180830381600087803b158015611ec757600080fd5b505af1158015611edb573d6000803e3d6000fd5b505050507f3caacae9c8658b0489b04f3b2986b004a74567399a7055a37dfb6bc893eccc66846040518082815260200191505060405180910390a150505050565b600115156000809054906101000a900473ffffffffffffffffffffffffffffffffffffffff1673ffffffffffffffffffffffffffffffffffffffff16631becaefb836040518263ffffffff1660e01b81526004018082815260200191505060206040518083038186803b158015611f9257600080fd5b505afa158015611fa6573d6000803e3d6000fd5b505050506040513d6020811015611fbc57600080fd5b8101908080519060200190929190505050151514612025576040517f08c379a000000000000000000000000000000000000000000000000000000000815260040180806020018281038252602381526020018061379a6023913960400191505060405180910390fd5b60008060009054906101000a900473ffffffffffffffffffffffffffffffffffffffff1673ffffffffffffffffffffffffffffffffffffffff166256856a836040518263ffffffff1660e01b81526004018082815260200191505060206040518083038186803b15801561209857600080fd5b505afa1580156120ac573d6000803e3d6000fd5b505050506040513d60208110156120c257600080fd5b8101908080519060200190929190505050905060008060009054906101000a900473ffffffffffffffffffffffffffffffffffffffff1673ffffffffffffffffffffffffffffffffffffffff16635e478e6c846040518263ffffffff1660e01b81526004018082815260200191505060206040518083038186803b15801561214957600080fd5b505afa15801561215d573d6000803e3d6000fd5b505050506040513d602081101561217357600080fd5b810190808051906020019092919050505090506000809054906101000a900473ffffffffffffffffffffffffffffffffffffffff1673ffffffffffffffffffffffffffffffffffffffff16630cc91022846000809054906101000a900473ffffffffffffffffffffffffffffffffffffffff1673ffffffffffffffffffffffffffffffffffffffff16637ace341b876040518263ffffffff1660e01b81526004018082815260200191505060206040518083038186803b15801561223657600080fd5b505afa15801561224a573d6000803e3d6000fd5b505050506040513d602081101561226057600080fd5b81019080805190602001909291905050506040518363ffffffff1660e01b8152600401808381526020018273ffffffffffffffffffffffffffffffffffffffff1673ffffffffffffffffffffffffffffffffffffffff16815260200192505050600060405180830381600087803b1580156122da57600080fd5b505af11580156122ee573d6000803e3d6000fd5b505050506000809054906101000a900473ffffffffffffffffffffffffffffffffffffffff1673ffffffffffffffffffffffffffffffffffffffff166391f4caca846000809054906101000a900473ffffffffffffffffffffffffffffffffffffffff1673ffffffffffffffffffffffffffffffffffffffff16630772c45e876040518263ffffffff1660e01b81526004018082815260200191505060206040518083038186803b1580156123a257600080fd5b505afa1580156123b6573d6000803e3d6000fd5b505050506040513d60208110156123cc57600080fd5b81019080805190602001909291905050506040518363ffffffff1660e01b8152600401808381526020018273ffffffffffffffffffffffffffffffffffffffff1673ffffffffffffffffffffffffffffffffffffffff16815260200192505050600060405180830381600087803b15801561244657600080fd5b505af115801561245a573d6000803e3d6000fd5b505050506000809054906101000a900473ffffffffffffffffffffffffffffffffffffffff1673ffffffffffffffffffffffffffffffffffffffff166358ff352a84836040518363ffffffff1660e01b8152600401808381526020018273ffffffffffffffffffffffffffffffffffffffff1673ffffffffffffffffffffffffffffffffffffffff16815260200192505050600060405180830381600087803b15801561250657600080fd5b505af115801561251a573d6000803e3d6000fd5b505050506000809054906101000a900473ffffffffffffffffffffffffffffffffffffffff1673ffffffffffffffffffffffffffffffffffffffff16636c125a6b84846040518363ffffffff1660e01b8152600401808381526020018273ffffffffffffffffffffffffffffffffffffffff1673ffffffffffffffffffffffffffffffffffffffff16815260200192505050600060405180830381600087803b1580156125c657600080fd5b505af11580156125da573d6000803e3d6000fd5b505050507ff8ba9c01761e6df504ed06e2b35d20469f35c5efb98e72d57a731ce75b361b2a836040518082815260200191505060405180910390a1505050565b806003600084815260200190815260200160002090805190602001906126419291906136f4565b507f2cb39ac10184e8e50ccf204a3a429ea923d2ef344f82b5ab88b43be5908d1db8826040518082815260200191505060405180910390a15050565b803373ffffffffffffffffffffffffffffffffffffffff166000809054906101000a900473ffffffffffffffffffffffffffffffffffffffff1673ffffffffffffffffffffffffffffffffffffffff16637ace341b836040518263ffffffff1660e01b81526004018082815260200191505060206040518083038186803b15801561270757600080fd5b505afa15801561271b573d6000803e3d6000fd5b505050506040513d602081101561273157600080fd5b810190808051906020019092919050505073ffffffffffffffffffffffffffffffffffffffff161461276257600080fd5b600015156000809054906101000a900473ffffffffffffffffffffffffffffffffffffffff1673ffffffffffffffffffffffffffffffffffffffff166340889b4f846040518263ffffffff1660e01b81526004018082815260200191505060206040518083038186803b1580156127d857600080fd5b505afa1580156127ec573d6000803e3d6000fd5b505050506040513d602081101561280257600080fd5b810190808051906020019092919050505015151461286b576040517f08c379a00000000000000000000000000000000000000000000000000000000081526004018080602001828103825260258152602001806137bd6025913960400191505060405180910390fd5b6000809054906101000a900473ffffffffffffffffffffffffffffffffffffffff1673ffffffffffffffffffffffffffffffffffffffff16633d30ffb88360016040518363ffffffff1660e01b8152600401808381526020018215151515815260200192505050600060405180830381600087803b1580156128ec57600080fd5b505af1158015612900573d6000803e3d6000fd5b505050505050565b8060046000848152602001908152602001600020908051906020019061292f9291906136f4565b507f7a00c0371e0cb33ea2cd9bf7f9e3cdc5de8f632981233ab788bd359771b2de50826040518082815260200191505060405180910390a15050565b833373ffffffffffffffffffffffffffffffffffffffff166000809054906101000a900473ffffffffffffffffffffffffffffffffffffffff1673ffffffffffffffffffffffffffffffffffffffff16637ace341b836040518263ffffffff1660e01b81526004018082815260200191505060206040518083038186803b1580156129f557600080fd5b505afa158015612a09573d6000803e3d6000fd5b505050506040513d6020811015612a1f57600080fd5b810190808051906020019092919050505073ffffffffffffffffffffffffffffffffffffffff1614612a5057600080fd5b600115156000809054906101000a900473ffffffffffffffffffffffffffffffffffffffff1673ffffffffffffffffffffffffffffffffffffffff166340889b4f876040518263ffffffff1660e01b81526004018082815260200191505060206040518083038186803b158015612ac657600080fd5b505afa158015612ada573d6000803e3d6000fd5b505050506040513d6020811015612af057600080fd5b8101908080519060200190929190505050151514612b76576040517f08c379a000000000000000000000000000000000000000000000000000000000815260040180806020018281038252601e8152602001807f50726f64756374206e6f7420726561647920666f72207368697070696e67000081525060200191505060405180910390fd5b3073ffffffffffffffffffffffffffffffffffffffff166000809054906101000a900473ffffffffffffffffffffffffffffffffffffffff1673ffffffffffffffffffffffffffffffffffffffff16630772c45e876040518263ffffffff1660e01b81526004018082815260200191505060206040518083038186803b158015612bff57600080fd5b505afa158015612c13573d6000803e3d6000fd5b505050506040513d6020811015612c2957600080fd5b810190808051906020019092919050505073ffffffffffffffffffffffffffffffffffffffff1614612c5a57600080fd5b6060806000809054906101000a900473ffffffffffffffffffffffffffffffffffffffff1673ffffffffffffffffffffffffffffffffffffffff166323bb1835886040518263ffffffff1660e01b81526004018082815260200191505060006040518083038186803b158015612ccf57600080fd5b505afa158015612ce3573d6000803e3d6000fd5b505050506040513d6000823e3d601f19601f820116820180604052506060811015612d0d57600080fd5b8101908080516040519392919084640100000000821115612d2d57600080fd5b83820191506020820185811115612d4357600080fd5b8251866001820283011164010000000082111715612d6057600080fd5b8083526020830192505050908051906020019080838360005b83811015612d94578082015181840152602081019050612d79565b50505050905090810190601f168015612dc15780820380516001836020036101000a031916815260200191505b5060405260200180516040519392919084640100000000821115612de457600080fd5b83820191506020820185811115612dfa57600080fd5b8251866001820283011164010000000082111715612e1757600080fd5b8083526020830192505050908051906020019080838360005b83811015612e4b578082015181840152602081019050612e30565b50505050905090810190601f168015612e785780820380516001836020036101000a031916815260200191505b5060405260200180516040519392919084640100000000821115612e9b57600080fd5b83820191506020820185811115612eb157600080fd5b8251866001820283011164010000000082111715612ece57600080fd5b8083526020830192505050908051906020019080838360005b83811015612f02578082015181840152602081019050612ee7565b50505050905090810190601f168015612f2f5780820380516001836020036101000a031916815260200191505b5060405250505092505091506000809054906101000a900473ffffffffffffffffffffffffffffffffffffffff1673ffffffffffffffffffffffffffffffffffffffff1663809db2f8888489856040518563ffffffff1660e01b815260040180858152602001806020018060200180602001848103845287818151815260200191508051906020019080838360005b83811015612fd9578082015181840152602081019050612fbe565b50505050905090810190601f1680156130065780820380516001836020036101000a031916815260200191505b50848103835286818151815260200191508051906020019080838360005b8381101561303f578082015181840152602081019050613024565b50505050905090810190601f16801561306c5780820380516001836020036101000a031916815260200191505b50848103825285818151815260200191508051906020019080838360005b838110156130a557808201518184015260208101905061308a565b50505050905090810190601f1680156130d25780820380516001836020036101000a031916815260200191505b50975050505050505050600060405180830381600087803b1580156130f657600080fd5b505af115801561310a573d6000803e3d6000fd5b505050506000809054906101000a900473ffffffffffffffffffffffffffffffffffffffff1673ffffffffffffffffffffffffffffffffffffffff16630cc91022886000809054906101000a900473ffffffffffffffffffffffffffffffffffffffff1673ffffffffffffffffffffffffffffffffffffffff16637ace341b8b6040518263ffffffff1660e01b81526004018082815260200191505060206040518083038186803b1580156131be57600080fd5b505afa1580156131d2573d6000803e3d6000fd5b505050506040513d60208110156131e857600080fd5b81019080805190602001909291905050506040518363ffffffff1660e01b8152600401808381526020018273ffffffffffffffffffffffffffffffffffffffff1673ffffffffffffffffffffffffffffffffffffffff16815260200192505050600060405180830381600087803b15801561326257600080fd5b505af1158015613276573d6000803e3d6000fd5b505050506000809054906101000a900473ffffffffffffffffffffffffffffffffffffffff1673ffffffffffffffffffffffffffffffffffffffff166391f4caca886000809054906101000a900473ffffffffffffffffffffffffffffffffffffffff1673ffffffffffffffffffffffffffffffffffffffff16630772c45e8b6040518263ffffffff1660e01b81526004018082815260200191505060206040518083038186803b15801561332a57600080fd5b505afa15801561333e573d6000803e3d6000fd5b505050506040513d602081101561335457600080fd5b81019080805190602001909291905050506040518363ffffffff1660e01b8152600401808381526020018273ffffffffffffffffffffffffffffffffffffffff1673ffffffffffffffffffffffffffffffffffffffff16815260200192505050600060405180830381600087803b1580156133ce57600080fd5b505af11580156133e2573d6000803e3d6000fd5b505050506000809054906101000a900473ffffffffffffffffffffffffffffffffffffffff1673ffffffffffffffffffffffffffffffffffffffff166358ff352a88866040518363ffffffff1660e01b8152600401808381526020018273ffffffffffffffffffffffffffffffffffffffff1673ffffffffffffffffffffffffffffffffffffffff16815260200192505050600060405180830381600087803b15801561348e57600080fd5b505af11580156134a2573d6000803e3d6000fd5b505050506000809054906101000a900473ffffffffffffffffffffffffffffffffffffffff1673ffffffffffffffffffffffffffffffffffffffff1663dcd9d2cb8860006040518363ffffffff1660e01b8152600401808381526020018215151515815260200192505050600060405180830381600087803b15801561352757600080fd5b505af115801561353b573d6000803e3d6000fd5b505050506000809054906101000a900473ffffffffffffffffffffffffffffffffffffffff1673ffffffffffffffffffffffffffffffffffffffff16636c125a6b88876040518363ffffffff1660e01b8152600401808381526020018273ffffffffffffffffffffffffffffffffffffffff1673ffffffffffffffffffffffffffffffffffffffff16815260200192505050600060405180830381600087803b1580156135e757600080fd5b505af11580156135fb573d6000803e3d6000fd5b505050507f10bc26283615ecfc30c957d932f4d6a3cca612fac49c29fdfce4b676596b503a876040518082815260200191505060405180910390a150505050505050565b6060600360008381526020019081526020016000208054600181600116156101000203166002900480601f0160208091040260200160405190810160405280929190818152602001828054600181600116156101000203166002900480156136e85780601f106136bd576101008083540402835291602001916136e8565b820191906000526020600020905b8154815290600101906020018083116136cb57829003601f168201915b50505050509050919050565b828054600181600116156101000203166002900490600052602060002090601f016020900481019282601f1061373557805160ff1916838001178555613763565b82800160010185558215613763579182015b82811115613762578251825591602001919060010190613747565b5b5090506137709190613774565b5090565b61379691905b8082111561379257600081600090555060010161377a565b5090565b9056fe57696e65206973206e6f742079657420726563656976656420666f722072657475726e50726f6475637420697320616c726561647920726561647920666f72207368697070696e67496e737566666963656e7420616d6f756e7420746f20627579207468652077696e65a265627a7a7231582082ff11e515c2d910a6d6592d6866bca7f431604493501a31672fd030be3a103164736f6c63430005100032",
  "source": "pragma solidity ^0.5.0;\r\n\r\nimport \"./Product.sol\";\r\nimport \"./TransitCellar.sol\";\r\n\r\ncontract FillerPacker {\r\n    \r\n    //variables\r\n    Product productContract;\r\n    TransitCellar transitCellarContract;\r\n    address owner = msg.sender;\r\n    mapping(uint256 => string) private packagingDetails; // Packaging details of each product\r\n    mapping(uint256 => string) private labelDetails; // Label details of each product\r\n\r\n    constructor(Product productContractAddress, TransitCellar transitCellarAddress) public {\r\n        productContract = productContractAddress;\r\n        transitCellarContract = transitCellarAddress;\r\n    }\r\n\r\n    //events\r\n    event wineBought(uint productId);\r\n    event wineReceived(uint productId);\r\n    event winePackaged(uint productId); \r\n    event wineLabelled(uint productId); \r\n    event wineDispatched(uint productId);\r\n    event wineReturned(uint productId);\r\n    event wineRemoved(uint productId);\r\n    event wineRefunded(uint productId);\r\n\r\n    //modifiers\r\n    modifier ownerOnly(uint256 productId) {\r\n        require(productContract.getCurrentOwner(productId) == msg.sender);\r\n        _;\r\n    }\r\n\r\n    //methods\r\n    function getOwner() public view returns(address) {\r\n       return owner;\r\n    }\r\n\r\n    function getPackagingDetails(uint256 productId) public view returns(string memory) {\r\n       return packagingDetails[productId];\r\n    }\r\n\r\n    function getLabelDetails(uint256 productId) public view returns(string memory) {\r\n       return labelDetails[productId];\r\n    }\r\n\r\n    //Buy wine from transit cellar\r\n    function buyWineFromTransitCellar(uint256 productId, string memory dispatchDate) public payable {\r\n        uint256 productPrice = productContract.getUnitPrice(productId) * productContract.getBatchQuantity(productId);\r\n        require(msg.value > productPrice, \"Insufficent amount to buy the wine\");\r\n        address payable targetAddress = address(uint160(productContract.getCurrentOwner(productId)));\r\n        targetAddress.transfer(productPrice);\r\n\r\n        transitCellarContract.dispatchWineToFillerPacker(productId, dispatchDate, msg.sender, address(this));\r\n        emit wineBought(productId);\r\n    }\r\n\r\n    //Receive wine from transit cellar\r\n    function receiveWineFromTransitCellar(uint256 productId, string memory currentLocation, string memory arrivalDate) public ownerOnly(productId) {\r\n        require(productContract.getReceived(productId) == false);\r\n        require(productContract.getCurrentContractAddress(productId) == address(this));\r\n        require(productContract.getReadyToShip(productId) == true);\r\n        (string memory location, string memory dispatchDate, string memory prevArrivalDate) = productContract.getCurrentLocation(productId);\r\n        productContract.addPreviousLocation(productId, location, dispatchDate, prevArrivalDate);\r\n        productContract.setCurrentLocation(productId, currentLocation, \"\", arrivalDate);\r\n        \r\n        productContract.setReceived(productId, true);\r\n        productContract.setReadyToShip(productId, false);\r\n        \r\n        emit wineReceived(productId);\r\n    }\r\n\r\n     //Return wine to transit cellar\r\n     function returnWine(uint256 productId) public payable {\r\n\r\n        require(productContract.getReceived(productId) == true, \"Wine is not yet received for return\");\r\n        \r\n        address prevOwner = productContract.getPreviousOwner(productId);\r\n        address prevContractAddress = productContract.getPreviousContractAddress(productId);\r\n\r\n        productContract.setPreviousOwner(productId, productContract.getCurrentOwner(productId));\r\n        productContract.setPreviousContractAddress(productId, productContract.getCurrentContractAddress(productId));\r\n        productContract.setCurrentContractAddress(productId, prevContractAddress);\r\n        productContract.setCurrentOwner(productId, prevOwner);\r\n\r\n        emit wineReturned(productId);\r\n    }\r\n\r\n    //Refund money to goods distributor\r\n    function refundFillerPacker(uint256 productId) public payable ownerOnly(productId) {\r\n\r\n        require(productContract.getCurrentOwner(productId) == msg.sender, \"Unable to refund items\");\r\n\r\n        //Transfer back the amt\r\n        uint256 productPrice = productContract.getUnitPrice(productId) * productContract.getBatchQuantity(productId);\r\n        require(msg.value >= productPrice, \"Insufficent amount for refund\");\r\n        address payable targetAddress = address(uint160(productContract.getCurrentOwner(productId)));\r\n        targetAddress.transfer(productPrice);\r\n\r\n        emit wineRefunded(productId);\r\n    }\r\n\r\n    //Remove wine from products\r\n    function removeWine(uint256 productId) public ownerOnly(productId) {\r\n        productContract.removeProduct(productId);\r\n        emit wineRemoved(productId);\r\n    }\r\n\r\n    //Package wine and store packaging details\r\n    function packageWine(uint256 productId, string memory packagingDetail) public {\r\n        packagingDetails[productId] = packagingDetail;\r\n        emit winePackaged(productId);\r\n    }\r\n\r\n    //Label wine and store labelling details\r\n    function labelWine(uint256 productId, string memory labelDetail) public {\r\n        labelDetails[productId] = labelDetail;\r\n        emit wineLabelled(productId);\r\n    }\r\n\r\n    //Set wine as ready to ship to goods distributor\r\n    function materialReadyToShip(uint256 productId) public ownerOnly(productId) {\r\n        require(productContract.getReadyToShip(productId) == false, \"Product is already ready for shipping\");\r\n        productContract.setReadyToShip(productId, true);\r\n    }\r\n\r\n    //Dispatch wine to goods distributor\r\n    function dispatchWineToGoodsDistributor(uint256 productId, string memory dispatchDate, address newOwner, address newContractAddress) public ownerOnly(productId) {\r\n        require(productContract.getReadyToShip(productId) == true, \"Product not ready for shipping\");\r\n        require(productContract.getCurrentContractAddress(productId) == address(this));\r\n        (string memory location, , string memory arrivalDate) = productContract.getCurrentLocation(productId);\r\n        productContract.setCurrentLocation(productId, location, dispatchDate, arrivalDate);\r\n        productContract.setPreviousOwner(productId, productContract.getCurrentOwner(productId));\r\n        productContract.setPreviousContractAddress(productId, productContract.getCurrentContractAddress(productId));    \r\n        productContract.setCurrentContractAddress(productId, newContractAddress);\r\n        productContract.setReceived(productId, false);\r\n        productContract.setCurrentOwner(productId, newOwner);\r\n        \r\n        emit wineDispatched(productId);\r\n    }\r\n}",
  "sourcePath": "C:\\Users\\YC\\Documents\\shino\\IS4302\\Wine-Supplychain-Blockchain\\contracts\\FillerPacker.sol",
  "compiler": {
    "name": "solc",
    "version": "0.5.16+commit.9c3226ce.Emscripten.clang"
  },
  "schemaVersion": "3.4.11",
  "updatedAt": "2023-04-08T09:43:33.018Z",
  "networkType": "ethereum",
  "devdoc": {
    "methods": {}
  },
  "userdoc": {
    "methods": {}
  }
}