{
  "contractName": "FillerPacker",
  "abi": [
    {
      "inputs": [
        {
          "internalType": "contract Product",
          "name": "productContractAddress",
          "type": "address"
        },
        {
          "internalType": "contract TransitCellar",
          "name": "transitCellarAddress",
          "type": "address"
        }
      ],
      "payable": false,
      "stateMutability": "nonpayable",
      "type": "constructor"
    },
    {
      "anonymous": false,
      "inputs": [
        {
          "indexed": false,
          "internalType": "uint256",
          "name": "productId",
          "type": "uint256"
        }
      ],
      "name": "wineBought",
      "type": "event"
    },
    {
      "anonymous": false,
      "inputs": [
        {
          "indexed": false,
          "internalType": "uint256",
          "name": "productId",
          "type": "uint256"
        }
      ],
      "name": "wineDispatched",
      "type": "event"
    },
    {
      "anonymous": false,
      "inputs": [
        {
          "indexed": false,
          "internalType": "uint256",
          "name": "productId",
          "type": "uint256"
        }
      ],
      "name": "wineLabelled",
      "type": "event"
    },
    {
      "anonymous": false,
      "inputs": [
        {
          "indexed": false,
          "internalType": "uint256",
          "name": "productId",
          "type": "uint256"
        }
      ],
      "name": "winePackaged",
      "type": "event"
    },
    {
      "anonymous": false,
      "inputs": [
        {
          "indexed": false,
          "internalType": "uint256",
          "name": "productId",
          "type": "uint256"
        }
      ],
      "name": "wineReceived",
      "type": "event"
    },
    {
      "anonymous": false,
      "inputs": [
        {
          "indexed": false,
          "internalType": "uint256",
          "name": "productId",
          "type": "uint256"
        }
      ],
      "name": "wineReturned",
      "type": "event"
    },
    {
      "constant": true,
      "inputs": [],
      "name": "getOwner",
      "outputs": [
        {
          "internalType": "address",
          "name": "",
          "type": "address"
        }
      ],
      "payable": false,
      "stateMutability": "view",
      "type": "function"
    },
    {
      "constant": true,
      "inputs": [
        {
          "internalType": "uint256",
          "name": "productId",
          "type": "uint256"
        }
      ],
      "name": "getPackagingDetails",
      "outputs": [
        {
          "internalType": "string",
          "name": "",
          "type": "string"
        }
      ],
      "payable": false,
      "stateMutability": "view",
      "type": "function"
    },
    {
      "constant": true,
      "inputs": [
        {
          "internalType": "uint256",
          "name": "productId",
          "type": "uint256"
        }
      ],
      "name": "getLabelDetails",
      "outputs": [
        {
          "internalType": "string",
          "name": "",
          "type": "string"
        }
      ],
      "payable": false,
      "stateMutability": "view",
      "type": "function"
    },
    {
      "constant": false,
      "inputs": [
        {
          "internalType": "uint256",
          "name": "productId",
          "type": "uint256"
        },
        {
          "internalType": "string",
          "name": "dispatchDate",
          "type": "string"
        }
      ],
      "name": "buyWineFromTransitCellar",
      "outputs": [],
      "payable": true,
      "stateMutability": "payable",
      "type": "function"
    },
    {
      "constant": false,
      "inputs": [
        {
          "internalType": "uint256",
          "name": "productId",
          "type": "uint256"
        },
        {
          "internalType": "string",
          "name": "currentLocation",
          "type": "string"
        },
        {
          "internalType": "string",
          "name": "arrivalDate",
          "type": "string"
        }
      ],
      "name": "receiveWineFromTransitCellar",
      "outputs": [],
      "payable": false,
      "stateMutability": "nonpayable",
      "type": "function"
    },
    {
      "constant": false,
      "inputs": [
        {
          "internalType": "uint256",
          "name": "productId",
          "type": "uint256"
        }
      ],
      "name": "returnWine",
      "outputs": [],
      "payable": true,
      "stateMutability": "payable",
      "type": "function"
    },
    {
      "constant": false,
      "inputs": [
        {
          "internalType": "uint256",
          "name": "productId",
          "type": "uint256"
        },
        {
          "internalType": "string",
          "name": "packagingDetail",
          "type": "string"
        }
      ],
      "name": "packageWine",
      "outputs": [],
      "payable": false,
      "stateMutability": "nonpayable",
      "type": "function"
    },
    {
      "constant": false,
      "inputs": [
        {
          "internalType": "uint256",
          "name": "productId",
          "type": "uint256"
        },
        {
          "internalType": "string",
          "name": "labelDetail",
          "type": "string"
        }
      ],
      "name": "labelWine",
      "outputs": [],
      "payable": false,
      "stateMutability": "nonpayable",
      "type": "function"
    },
    {
      "constant": false,
      "inputs": [
        {
          "internalType": "uint256",
          "name": "productId",
          "type": "uint256"
        }
      ],
      "name": "materialReadyToShip",
      "outputs": [],
      "payable": false,
      "stateMutability": "nonpayable",
      "type": "function"
    },
    {
      "constant": false,
      "inputs": [
        {
          "internalType": "uint256",
          "name": "productId",
          "type": "uint256"
        },
        {
          "internalType": "string",
          "name": "dispatchDate",
          "type": "string"
        },
        {
          "internalType": "address",
          "name": "newOwner",
          "type": "address"
        },
        {
          "internalType": "address",
          "name": "newContractAddress",
          "type": "address"
        }
      ],
      "name": "dispatchWineToGoodsDistributor",
      "outputs": [],
      "payable": false,
      "stateMutability": "nonpayable",
      "type": "function"
    }
  ],
  "bytecode": "0x608060405233600260006101000a81548173ffffffffffffffffffffffffffffffffffffffff021916908373ffffffffffffffffffffffffffffffffffffffff16021790555034801561005157600080fd5b506040516131f23803806131f28339818101604052604081101561007457600080fd5b810190808051906020019092919080519060200190929190505050816000806101000a81548173ffffffffffffffffffffffffffffffffffffffff021916908373ffffffffffffffffffffffffffffffffffffffff16021790555080600160006101000a81548173ffffffffffffffffffffffffffffffffffffffff021916908373ffffffffffffffffffffffffffffffffffffffff16021790555050506130d1806101216000396000f3fe6080604052600436106100915760003560e01c8063a51fd84511610059578063a51fd845146103fd578063ac4ce131146104cf578063b62345121461050a578063cd058d58146105dc578063e4885ba9146106ee57610091565b80634d0d5948146100965780637d181603146101ff578063893d20e8146102b35780638e90e3e91461030a5780639571e8e4146103cf575b600080fd5b3480156100a257600080fd5b506101fd600480360360608110156100b957600080fd5b8101908080359060200190929190803590602001906401000000008111156100e057600080fd5b8201836020820111156100f257600080fd5b8035906020019184600183028401116401000000008311171561011457600080fd5b91908080601f016020809104026020016040519081016040528093929190818152602001838380828437600081840152601f19601f8201169050808301925050505050505091929192908035906020019064010000000081111561017757600080fd5b82018360208201111561018957600080fd5b803590602001918460018302840111640100000000831117156101ab57600080fd5b91908080601f016020809104026020016040519081016040528093929190818152602001838380828437600081840152601f19601f8201169050808301925050505050505091929192905050506107a2565b005b34801561020b57600080fd5b506102386004803603602081101561022257600080fd5b8101908080359060200190929190505050611288565b6040518080602001828103825283818151815260200191508051906020019080838360005b8381101561027857808201518184015260208101905061025d565b50505050905090810190601f1680156102a55780820380516001836020036101000a031916815260200191505b509250505060405180910390f35b3480156102bf57600080fd5b506102c861133d565b604051808273ffffffffffffffffffffffffffffffffffffffff1673ffffffffffffffffffffffffffffffffffffffff16815260200191505060405180910390f35b6103cd6004803603604081101561032057600080fd5b81019080803590602001909291908035906020019064010000000081111561034757600080fd5b82018360208201111561035957600080fd5b8035906020019184600183028401116401000000008311171561037b57600080fd5b91908080601f016020809104026020016040519081016040528093929190818152602001838380828437600081840152601f19601f820116905080830192505050505050509192919290505050611367565b005b6103fb600480360360208110156103e557600080fd5b81019080803590602001909291905050506117b5565b005b34801561040957600080fd5b506104cd6004803603604081101561042057600080fd5b81019080803590602001909291908035906020019064010000000081111561044757600080fd5b82018360208201111561045957600080fd5b8035906020019184600183028401116401000000008311171561047b57600080fd5b91908080601f016020809104026020016040519081016040528093929190818152602001838380828437600081840152601f19601f820116905080830192505050505050509192919290505050612217565b005b3480156104db57600080fd5b50610508600480360360208110156104f257600080fd5b810190808035906020019092919050505061227a565b005b34801561051657600080fd5b506105da6004803603604081101561052d57600080fd5b81019080803590602001909291908035906020019064010000000081111561055457600080fd5b82018360208201111561056657600080fd5b8035906020019184600183028401116401000000008311171561058857600080fd5b91908080601f016020809104026020016040519081016040528093929190818152602001838380828437600081840152601f19601f820116905080830192505050505050509192919290505050612505565b005b3480156105e857600080fd5b506106ec600480360360808110156105ff57600080fd5b81019080803590602001909291908035906020019064010000000081111561062657600080fd5b82018360208201111561063857600080fd5b8035906020019184600183028401116401000000008311171561065a57600080fd5b91908080601f016020809104026020016040519081016040528093929190818152602001838380828437600081840152601f19601f820116905080830192505050505050509192919290803573ffffffffffffffffffffffffffffffffffffffff169060200190929190803573ffffffffffffffffffffffffffffffffffffffff169060200190929190505050612568565b005b3480156106fa57600080fd5b506107276004803603602081101561071157600080fd5b8101908080359060200190929190505050612ed8565b6040518080602001828103825283818151815260200191508051906020019080838360005b8381101561076757808201518184015260208101905061074c565b50505050905090810190601f1680156107945780820380516001836020036101000a031916815260200191505b509250505060405180910390f35b823373ffffffffffffffffffffffffffffffffffffffff166000809054906101000a900473ffffffffffffffffffffffffffffffffffffffff1673ffffffffffffffffffffffffffffffffffffffff16637ace341b836040518263ffffffff1660e01b81526004018082815260200191505060206040518083038186803b15801561082c57600080fd5b505afa158015610840573d6000803e3d6000fd5b505050506040513d602081101561085657600080fd5b810190808051906020019092919050505073ffffffffffffffffffffffffffffffffffffffff161461088757600080fd5b600015156000809054906101000a900473ffffffffffffffffffffffffffffffffffffffff1673ffffffffffffffffffffffffffffffffffffffff16631becaefb866040518263ffffffff1660e01b81526004018082815260200191505060206040518083038186803b1580156108fd57600080fd5b505afa158015610911573d6000803e3d6000fd5b505050506040513d602081101561092757600080fd5b810190808051906020019092919050505015151461094457600080fd5b3073ffffffffffffffffffffffffffffffffffffffff166000809054906101000a900473ffffffffffffffffffffffffffffffffffffffff1673ffffffffffffffffffffffffffffffffffffffff16630772c45e866040518263ffffffff1660e01b81526004018082815260200191505060206040518083038186803b1580156109cd57600080fd5b505afa1580156109e1573d6000803e3d6000fd5b505050506040513d60208110156109f757600080fd5b810190808051906020019092919050505073ffffffffffffffffffffffffffffffffffffffff1614610a2857600080fd5b600115156000809054906101000a900473ffffffffffffffffffffffffffffffffffffffff1673ffffffffffffffffffffffffffffffffffffffff166340889b4f866040518263ffffffff1660e01b81526004018082815260200191505060206040518083038186803b158015610a9e57600080fd5b505afa158015610ab2573d6000803e3d6000fd5b505050506040513d6020811015610ac857600080fd5b8101908080519060200190929190505050151514610ae557600080fd5b60608060606000809054906101000a900473ffffffffffffffffffffffffffffffffffffffff1673ffffffffffffffffffffffffffffffffffffffff166323bb1835886040518263ffffffff1660e01b81526004018082815260200191505060006040518083038186803b158015610b5c57600080fd5b505afa158015610b70573d6000803e3d6000fd5b505050506040513d6000823e3d601f19601f820116820180604052506060811015610b9a57600080fd5b8101908080516040519392919084640100000000821115610bba57600080fd5b83820191506020820185811115610bd057600080fd5b8251866001820283011164010000000082111715610bed57600080fd5b8083526020830192505050908051906020019080838360005b83811015610c21578082015181840152602081019050610c06565b50505050905090810190601f168015610c4e5780820380516001836020036101000a031916815260200191505b5060405260200180516040519392919084640100000000821115610c7157600080fd5b83820191506020820185811115610c8757600080fd5b8251866001820283011164010000000082111715610ca457600080fd5b8083526020830192505050908051906020019080838360005b83811015610cd8578082015181840152602081019050610cbd565b50505050905090810190601f168015610d055780820380516001836020036101000a031916815260200191505b5060405260200180516040519392919084640100000000821115610d2857600080fd5b83820191506020820185811115610d3e57600080fd5b8251866001820283011164010000000082111715610d5b57600080fd5b8083526020830192505050908051906020019080838360005b83811015610d8f578082015181840152602081019050610d74565b50505050905090810190601f168015610dbc5780820380516001836020036101000a031916815260200191505b506040525050509250925092506000809054906101000a900473ffffffffffffffffffffffffffffffffffffffff1673ffffffffffffffffffffffffffffffffffffffff1663d88ee329888585856040518563ffffffff1660e01b815260040180858152602001806020018060200180602001848103845287818151815260200191508051906020019080838360005b83811015610e67578082015181840152602081019050610e4c565b50505050905090810190601f168015610e945780820380516001836020036101000a031916815260200191505b50848103835286818151815260200191508051906020019080838360005b83811015610ecd578082015181840152602081019050610eb2565b50505050905090810190601f168015610efa5780820380516001836020036101000a031916815260200191505b50848103825285818151815260200191508051906020019080838360005b83811015610f33578082015181840152602081019050610f18565b50505050905090810190601f168015610f605780820380516001836020036101000a031916815260200191505b50975050505050505050600060405180830381600087803b158015610f8457600080fd5b505af1158015610f98573d6000803e3d6000fd5b505050506000809054906101000a900473ffffffffffffffffffffffffffffffffffffffff1673ffffffffffffffffffffffffffffffffffffffff1663809db2f88888886040518463ffffffff1660e01b815260040180848152602001806020018060200180602001848103845286818151815260200191508051906020019080838360005b8381101561103957808201518184015260208101905061101e565b50505050905090810190601f1680156110665780820380516001836020036101000a031916815260200191505b50848103835260008152602001602001848103825285818151815260200191508051906020019080838360005b838110156110ae578082015181840152602081019050611093565b50505050905090810190601f1680156110db5780820380516001836020036101000a031916815260200191505b509650505050505050600060405180830381600087803b1580156110fe57600080fd5b505af1158015611112573d6000803e3d6000fd5b505050506000809054906101000a900473ffffffffffffffffffffffffffffffffffffffff1673ffffffffffffffffffffffffffffffffffffffff1663dcd9d2cb8860016040518363ffffffff1660e01b8152600401808381526020018215151515815260200192505050600060405180830381600087803b15801561119757600080fd5b505af11580156111ab573d6000803e3d6000fd5b505050506000809054906101000a900473ffffffffffffffffffffffffffffffffffffffff1673ffffffffffffffffffffffffffffffffffffffff16633d30ffb88860006040518363ffffffff1660e01b8152600401808381526020018215151515815260200192505050600060405180830381600087803b15801561123057600080fd5b505af1158015611244573d6000803e3d6000fd5b505050507f2ffc48f4ae90072b45426bc482d9ae940d820e9532910a3ca1d051006e3284d1876040518082815260200191505060405180910390a150505050505050565b6060600460008381526020019081526020016000208054600181600116156101000203166002900480601f0160208091040260200160405190810160405280929190818152602001828054600181600116156101000203166002900480156113315780601f1061130657610100808354040283529160200191611331565b820191906000526020600020905b81548152906001019060200180831161131457829003601f168201915b50505050509050919050565b6000600260009054906101000a900473ffffffffffffffffffffffffffffffffffffffff16905090565b60008060009054906101000a900473ffffffffffffffffffffffffffffffffffffffff1673ffffffffffffffffffffffffffffffffffffffff1663fe73e86c846040518263ffffffff1660e01b81526004018082815260200191505060206040518083038186803b1580156113db57600080fd5b505afa1580156113ef573d6000803e3d6000fd5b505050506040513d602081101561140557600080fd5b81019080805190602001909291905050506000809054906101000a900473ffffffffffffffffffffffffffffffffffffffff1673ffffffffffffffffffffffffffffffffffffffff166364c0e52f856040518263ffffffff1660e01b81526004018082815260200191505060206040518083038186803b15801561148857600080fd5b505afa15801561149c573d6000803e3d6000fd5b505050506040513d60208110156114b257600080fd5b810190808051906020019092919050505002905080341161151e576040517f08c379a000000000000000000000000000000000000000000000000000000000815260040180806020018281038252602281526020018061307b6022913960400191505060405180910390fd5b60008060009054906101000a900473ffffffffffffffffffffffffffffffffffffffff1673ffffffffffffffffffffffffffffffffffffffff16637ace341b856040518263ffffffff1660e01b81526004018082815260200191505060206040518083038186803b15801561159257600080fd5b505afa1580156115a6573d6000803e3d6000fd5b505050506040513d60208110156115bc57600080fd5b810190808051906020019092919050505090508073ffffffffffffffffffffffffffffffffffffffff166108fc839081150290604051600060405180830381858888f19350505050158015611615573d6000803e3d6000fd5b50600160009054906101000a900473ffffffffffffffffffffffffffffffffffffffff1673ffffffffffffffffffffffffffffffffffffffff1663d485dda9858533306040518563ffffffff1660e01b815260040180858152602001806020018473ffffffffffffffffffffffffffffffffffffffff1673ffffffffffffffffffffffffffffffffffffffff1681526020018373ffffffffffffffffffffffffffffffffffffffff1673ffffffffffffffffffffffffffffffffffffffff168152602001828103825285818151815260200191508051906020019080838360005b838110156117115780820151818401526020810190506116f6565b50505050905090810190601f16801561173e5780820380516001836020036101000a031916815260200191505b5095505050505050600060405180830381600087803b15801561176057600080fd5b505af1158015611774573d6000803e3d6000fd5b505050507f3caacae9c8658b0489b04f3b2986b004a74567399a7055a37dfb6bc893eccc66846040518082815260200191505060405180910390a150505050565b600115156000809054906101000a900473ffffffffffffffffffffffffffffffffffffffff1673ffffffffffffffffffffffffffffffffffffffff16631becaefb836040518263ffffffff1660e01b81526004018082815260200191505060206040518083038186803b15801561182b57600080fd5b505afa15801561183f573d6000803e3d6000fd5b505050506040513d602081101561185557600080fd5b81019080805190602001909291905050501515146118be576040517f08c379a00000000000000000000000000000000000000000000000000000000081526004018080602001828103825260238152602001806130336023913960400191505060405180910390fd5b3373ffffffffffffffffffffffffffffffffffffffff166000809054906101000a900473ffffffffffffffffffffffffffffffffffffffff1673ffffffffffffffffffffffffffffffffffffffff166256856a836040518263ffffffff1660e01b81526004018082815260200191505060206040518083038186803b15801561194657600080fd5b505afa15801561195a573d6000803e3d6000fd5b505050506040513d602081101561197057600080fd5b810190808051906020019092919050505073ffffffffffffffffffffffffffffffffffffffff1614611a0a576040517f08c379a00000000000000000000000000000000000000000000000000000000081526004018080602001828103825260168152602001807f556e61626c6520746f20726566756e64206974656d730000000000000000000081525060200191505060405180910390fd5b60008060009054906101000a900473ffffffffffffffffffffffffffffffffffffffff1673ffffffffffffffffffffffffffffffffffffffff1663fe73e86c836040518263ffffffff1660e01b81526004018082815260200191505060206040518083038186803b158015611a7e57600080fd5b505afa158015611a92573d6000803e3d6000fd5b505050506040513d6020811015611aa857600080fd5b81019080805190602001909291905050506000809054906101000a900473ffffffffffffffffffffffffffffffffffffffff1673ffffffffffffffffffffffffffffffffffffffff166364c0e52f846040518263ffffffff1660e01b81526004018082815260200191505060206040518083038186803b158015611b2b57600080fd5b505afa158015611b3f573d6000803e3d6000fd5b505050506040513d6020811015611b5557600080fd5b810190808051906020019092919050505002905080341015611bdf576040517f08c379a000000000000000000000000000000000000000000000000000000000815260040180806020018281038252601d8152602001807f496e737566666963656e7420616d6f756e7420666f7220726566756e6400000081525060200191505060405180910390fd5b60008060009054906101000a900473ffffffffffffffffffffffffffffffffffffffff1673ffffffffffffffffffffffffffffffffffffffff16637ace341b846040518263ffffffff1660e01b81526004018082815260200191505060206040518083038186803b158015611c5357600080fd5b505afa158015611c67573d6000803e3d6000fd5b505050506040513d6020811015611c7d57600080fd5b810190808051906020019092919050505090508073ffffffffffffffffffffffffffffffffffffffff166108fc839081150290604051600060405180830381858888f19350505050158015611cd6573d6000803e3d6000fd5b506000809054906101000a900473ffffffffffffffffffffffffffffffffffffffff1673ffffffffffffffffffffffffffffffffffffffff16630cc91022846000809054906101000a900473ffffffffffffffffffffffffffffffffffffffff1673ffffffffffffffffffffffffffffffffffffffff16637ace341b876040518263ffffffff1660e01b81526004018082815260200191505060206040518083038186803b158015611d8757600080fd5b505afa158015611d9b573d6000803e3d6000fd5b505050506040513d6020811015611db157600080fd5b81019080805190602001909291905050506040518363ffffffff1660e01b8152600401808381526020018273ffffffffffffffffffffffffffffffffffffffff1673ffffffffffffffffffffffffffffffffffffffff16815260200192505050600060405180830381600087803b158015611e2b57600080fd5b505af1158015611e3f573d6000803e3d6000fd5b505050506000809054906101000a900473ffffffffffffffffffffffffffffffffffffffff1673ffffffffffffffffffffffffffffffffffffffff16636c125a6b84336040518363ffffffff1660e01b8152600401808381526020018273ffffffffffffffffffffffffffffffffffffffff1673ffffffffffffffffffffffffffffffffffffffff16815260200192505050600060405180830381600087803b158015611eeb57600080fd5b505af1158015611eff573d6000803e3d6000fd5b505050506000809054906101000a900473ffffffffffffffffffffffffffffffffffffffff1673ffffffffffffffffffffffffffffffffffffffff166391f4caca846000809054906101000a900473ffffffffffffffffffffffffffffffffffffffff1673ffffffffffffffffffffffffffffffffffffffff16630772c45e876040518263ffffffff1660e01b81526004018082815260200191505060206040518083038186803b158015611fb357600080fd5b505afa158015611fc7573d6000803e3d6000fd5b505050506040513d6020811015611fdd57600080fd5b81019080805190602001909291905050506040518363ffffffff1660e01b8152600401808381526020018273ffffffffffffffffffffffffffffffffffffffff1673ffffffffffffffffffffffffffffffffffffffff16815260200192505050600060405180830381600087803b15801561205757600080fd5b505af115801561206b573d6000803e3d6000fd5b505050506000809054906101000a900473ffffffffffffffffffffffffffffffffffffffff1673ffffffffffffffffffffffffffffffffffffffff166358ff352a846000809054906101000a900473ffffffffffffffffffffffffffffffffffffffff1673ffffffffffffffffffffffffffffffffffffffff16635e478e6c876040518263ffffffff1660e01b81526004018082815260200191505060206040518083038186803b15801561211f57600080fd5b505afa158015612133573d6000803e3d6000fd5b505050506040513d602081101561214957600080fd5b81019080805190602001909291905050506040518363ffffffff1660e01b8152600401808381526020018273ffffffffffffffffffffffffffffffffffffffff1673ffffffffffffffffffffffffffffffffffffffff16815260200192505050600060405180830381600087803b1580156121c357600080fd5b505af11580156121d7573d6000803e3d6000fd5b505050507ff8ba9c01761e6df504ed06e2b35d20469f35c5efb98e72d57a731ce75b361b2a836040518082815260200191505060405180910390a1505050565b8060036000848152602001908152602001600020908051906020019061223e929190612f8d565b507f2cb39ac10184e8e50ccf204a3a429ea923d2ef344f82b5ab88b43be5908d1db8826040518082815260200191505060405180910390a15050565b803373ffffffffffffffffffffffffffffffffffffffff166000809054906101000a900473ffffffffffffffffffffffffffffffffffffffff1673ffffffffffffffffffffffffffffffffffffffff16637ace341b836040518263ffffffff1660e01b81526004018082815260200191505060206040518083038186803b15801561230457600080fd5b505afa158015612318573d6000803e3d6000fd5b505050506040513d602081101561232e57600080fd5b810190808051906020019092919050505073ffffffffffffffffffffffffffffffffffffffff161461235f57600080fd5b600015156000809054906101000a900473ffffffffffffffffffffffffffffffffffffffff1673ffffffffffffffffffffffffffffffffffffffff166340889b4f846040518263ffffffff1660e01b81526004018082815260200191505060206040518083038186803b1580156123d557600080fd5b505afa1580156123e9573d6000803e3d6000fd5b505050506040513d60208110156123ff57600080fd5b8101908080519060200190929190505050151514612468576040517f08c379a00000000000000000000000000000000000000000000000000000000081526004018080602001828103825260258152602001806130566025913960400191505060405180910390fd5b6000809054906101000a900473ffffffffffffffffffffffffffffffffffffffff1673ffffffffffffffffffffffffffffffffffffffff16633d30ffb88360016040518363ffffffff1660e01b8152600401808381526020018215151515815260200192505050600060405180830381600087803b1580156124e957600080fd5b505af11580156124fd573d6000803e3d6000fd5b505050505050565b8060046000848152602001908152602001600020908051906020019061252c929190612f8d565b507f7a00c0371e0cb33ea2cd9bf7f9e3cdc5de8f632981233ab788bd359771b2de50826040518082815260200191505060405180910390a15050565b833373ffffffffffffffffffffffffffffffffffffffff166000809054906101000a900473ffffffffffffffffffffffffffffffffffffffff1673ffffffffffffffffffffffffffffffffffffffff16637ace341b836040518263ffffffff1660e01b81526004018082815260200191505060206040518083038186803b1580156125f257600080fd5b505afa158015612606573d6000803e3d6000fd5b505050506040513d602081101561261c57600080fd5b810190808051906020019092919050505073ffffffffffffffffffffffffffffffffffffffff161461264d57600080fd5b600115156000809054906101000a900473ffffffffffffffffffffffffffffffffffffffff1673ffffffffffffffffffffffffffffffffffffffff166340889b4f876040518263ffffffff1660e01b81526004018082815260200191505060206040518083038186803b1580156126c357600080fd5b505afa1580156126d7573d6000803e3d6000fd5b505050506040513d60208110156126ed57600080fd5b8101908080519060200190929190505050151514612773576040517f08c379a000000000000000000000000000000000000000000000000000000000815260040180806020018281038252601e8152602001807f50726f64756374206e6f7420726561647920666f72207368697070696e67000081525060200191505060405180910390fd5b3073ffffffffffffffffffffffffffffffffffffffff166000809054906101000a900473ffffffffffffffffffffffffffffffffffffffff1673ffffffffffffffffffffffffffffffffffffffff16630772c45e876040518263ffffffff1660e01b81526004018082815260200191505060206040518083038186803b1580156127fc57600080fd5b505afa158015612810573d6000803e3d6000fd5b505050506040513d602081101561282657600080fd5b810190808051906020019092919050505073ffffffffffffffffffffffffffffffffffffffff161461285757600080fd5b6060806000809054906101000a900473ffffffffffffffffffffffffffffffffffffffff1673ffffffffffffffffffffffffffffffffffffffff166323bb1835886040518263ffffffff1660e01b81526004018082815260200191505060006040518083038186803b1580156128cc57600080fd5b505afa1580156128e0573d6000803e3d6000fd5b505050506040513d6000823e3d601f19601f82011682018060405250606081101561290a57600080fd5b810190808051604051939291908464010000000082111561292a57600080fd5b8382019150602082018581111561294057600080fd5b825186600182028301116401000000008211171561295d57600080fd5b8083526020830192505050908051906020019080838360005b83811015612991578082015181840152602081019050612976565b50505050905090810190601f1680156129be5780820380516001836020036101000a031916815260200191505b50604052602001805160405193929190846401000000008211156129e157600080fd5b838201915060208201858111156129f757600080fd5b8251866001820283011164010000000082111715612a1457600080fd5b8083526020830192505050908051906020019080838360005b83811015612a48578082015181840152602081019050612a2d565b50505050905090810190601f168015612a755780820380516001836020036101000a031916815260200191505b5060405260200180516040519392919084640100000000821115612a9857600080fd5b83820191506020820185811115612aae57600080fd5b8251866001820283011164010000000082111715612acb57600080fd5b8083526020830192505050908051906020019080838360005b83811015612aff578082015181840152602081019050612ae4565b50505050905090810190601f168015612b2c5780820380516001836020036101000a031916815260200191505b5060405250505092505091506000809054906101000a900473ffffffffffffffffffffffffffffffffffffffff1673ffffffffffffffffffffffffffffffffffffffff1663809db2f8888489856040518563ffffffff1660e01b815260040180858152602001806020018060200180602001848103845287818151815260200191508051906020019080838360005b83811015612bd6578082015181840152602081019050612bbb565b50505050905090810190601f168015612c035780820380516001836020036101000a031916815260200191505b50848103835286818151815260200191508051906020019080838360005b83811015612c3c578082015181840152602081019050612c21565b50505050905090810190601f168015612c695780820380516001836020036101000a031916815260200191505b50848103825285818151815260200191508051906020019080838360005b83811015612ca2578082015181840152602081019050612c87565b50505050905090810190601f168015612ccf5780820380516001836020036101000a031916815260200191505b50975050505050505050600060405180830381600087803b158015612cf357600080fd5b505af1158015612d07573d6000803e3d6000fd5b505050506000809054906101000a900473ffffffffffffffffffffffffffffffffffffffff1673ffffffffffffffffffffffffffffffffffffffff16635f19c9b78887876040518463ffffffff1660e01b8152600401808481526020018373ffffffffffffffffffffffffffffffffffffffff1673ffffffffffffffffffffffffffffffffffffffff1681526020018273ffffffffffffffffffffffffffffffffffffffff1673ffffffffffffffffffffffffffffffffffffffff1681526020019350505050600060405180830381600087803b158015612de757600080fd5b505af1158015612dfb573d6000803e3d6000fd5b505050506000809054906101000a900473ffffffffffffffffffffffffffffffffffffffff1673ffffffffffffffffffffffffffffffffffffffff1663dcd9d2cb8860006040518363ffffffff1660e01b8152600401808381526020018215151515815260200192505050600060405180830381600087803b158015612e8057600080fd5b505af1158015612e94573d6000803e3d6000fd5b505050507f10bc26283615ecfc30c957d932f4d6a3cca612fac49c29fdfce4b676596b503a876040518082815260200191505060405180910390a150505050505050565b6060600360008381526020019081526020016000208054600181600116156101000203166002900480601f016020809104026020016040519081016040528092919081815260200182805460018160011615610100020316600290048015612f815780601f10612f5657610100808354040283529160200191612f81565b820191906000526020600020905b815481529060010190602001808311612f6457829003601f168201915b50505050509050919050565b828054600181600116156101000203166002900490600052602060002090601f016020900481019282601f10612fce57805160ff1916838001178555612ffc565b82800160010185558215612ffc579182015b82811115612ffb578251825591602001919060010190612fe0565b5b509050613009919061300d565b5090565b61302f91905b8082111561302b576000816000905550600101613013565b5090565b9056fe57696e65206973206e6f742079657420726563656976656420666f722072657475726e50726f6475637420697320616c726561647920726561647920666f72207368697070696e67496e737566666963656e7420616d6f756e7420746f20627579207468652077696e65a265627a7a72315820776378b87c65eb6aea4258e969db09bf06a44832df0ad71470ddb5dbde5c073f64736f6c63430005100032",
  "source": "pragma solidity ^0.5.0;\n\nimport \"./Product.sol\";\nimport \"./TransitCellar.sol\";\n\ncontract FillerPacker {\n    \n    //variables\n    Product productContract;\n    TransitCellar transitCellarContract;\n    address owner = msg.sender;\n    mapping(uint256 => string) private packagingDetails; // Packaging details of each product\n    mapping(uint256 => string) private labelDetails; // Label details of each product\n\n    constructor(Product productContractAddress, TransitCellar transitCellarAddress) public {\n        productContract = productContractAddress;\n        transitCellarContract = transitCellarAddress;\n    }\n\n    //events\n    event wineBought(uint productId);\n    event wineReceived(uint productId);\n    event winePackaged(uint productId); \n    event wineLabelled(uint productId); \n    event wineDispatched(uint productId);\n    event wineReturned(uint productId);\n\n    //modifiers\n    modifier ownerOnly(uint256 productId) {\n        require(productContract.getCurrentOwner(productId) == msg.sender);\n        _;\n    }\n\n    //methods\n    function getOwner() public view returns(address) {\n       return owner;\n    }\n\n    function getPackagingDetails(uint256 productId) public view returns(string memory) {\n       return packagingDetails[productId];\n    }\n\n    function getLabelDetails(uint256 productId) public view returns(string memory) {\n       return labelDetails[productId];\n    }\n\n    //Buy wine from transit cellar\n    function buyWineFromTransitCellar(uint256 productId, string memory dispatchDate) public payable {\n        uint256 productPrice = productContract.getUnitPrice(productId) * productContract.getBatchQuantity(productId);\n        require(msg.value > productPrice, \"Insufficent amount to buy the wine\");\n        address payable targetAddress = address(uint160(productContract.getCurrentOwner(productId)));\n        targetAddress.transfer(productPrice);\n\n        transitCellarContract.dispatchWineToFillerPacker(productId, dispatchDate, msg.sender, address(this));\n        emit wineBought(productId);\n    }\n\n    //Receive wine from transit cellar\n    function receiveWineFromTransitCellar(uint256 productId, string memory currentLocation, string memory arrivalDate) public ownerOnly(productId) {\n        require(productContract.getReceived(productId) == false);\n        require(productContract.getCurrentContractAddress(productId) == address(this));\n        require(productContract.getReadyToShip(productId) == true);\n        (string memory location, string memory dispatchDate, string memory prevArrivalDate) = productContract.getCurrentLocation(productId);\n        productContract.addPreviousLocation(productId, location, dispatchDate, prevArrivalDate);\n        productContract.setCurrentLocation(productId, currentLocation, \"\", arrivalDate);\n        \n        productContract.setReceived(productId, true);\n        productContract.setReadyToShip(productId, false);\n        \n        emit wineReceived(productId);\n    }\n\n     //Return wine to bulk distributor\n     function returnWine(uint256 productId) public payable {\n\n        require(productContract.getReceived(productId) == true, \"Wine is not yet received for return\");\n        require(productContract.getPreviousOwner(productId) == msg.sender, \"Unable to refund items\");\n\n        uint256 productPrice = productContract.getUnitPrice(productId) * productContract.getBatchQuantity(productId);\n        require(msg.value >= productPrice, \"Insufficent amount for refund\");\n        address payable targetAddress = address(uint160(productContract.getCurrentOwner(productId)));\n        targetAddress.transfer(productPrice);\n\n        productContract.setPreviousOwner(productId, productContract.getCurrentOwner(productId));\n        productContract.setCurrentOwner(productId, msg.sender);\n        productContract.setPreviousContractAddress(productId, productContract.getCurrentContractAddress(productId));\n        productContract.setCurrentContractAddress(productId, productContract.getPreviousContractAddress(productId));\n\n        emit wineReturned(productId);\n    }\n\n    //Package wine and store packaging details\n    function packageWine(uint256 productId, string memory packagingDetail) public {\n        packagingDetails[productId] = packagingDetail;\n        emit winePackaged(productId);\n    }\n\n    //Label wine and store labelling details\n    function labelWine(uint256 productId, string memory labelDetail) public {\n        labelDetails[productId] = labelDetail;\n        emit wineLabelled(productId);\n    }\n\n    //Set wine as ready to ship to goods distributor\n    function materialReadyToShip(uint256 productId) public ownerOnly(productId) {\n        require(productContract.getReadyToShip(productId) == false, \"Product is already ready for shipping\");\n        productContract.setReadyToShip(productId, true);\n    }\n\n    //Dispatch wine to goods distributor\n    function dispatchWineToGoodsDistributor(uint256 productId, string memory dispatchDate, address newOwner, address newContractAddress) public ownerOnly(productId) {\n        require(productContract.getReadyToShip(productId) == true, \"Product not ready for shipping\");\n        require(productContract.getCurrentContractAddress(productId) == address(this));\n        (string memory location, , string memory arrivalDate) = productContract.getCurrentLocation(productId);\n        productContract.setCurrentLocation(productId, location, dispatchDate, arrivalDate);\n        \n        productContract.transferProduct(productId, newOwner, newContractAddress);\n\n        productContract.setReceived(productId, false);\n        \n        emit wineDispatched(productId);\n    }\n}",
  "sourcePath": "/Users/jarrentoh/Documents/GitHub/Wine Supplychain Blockchain/contracts/FillerPacker.sol",
  "compiler": {
    "name": "solc",
    "version": "0.5.16+commit.9c3226ce.Emscripten.clang"
  },
  "schemaVersion": "3.4.11",
  "updatedAt": "2023-04-07T15:15:08.818Z",
  "networkType": "ethereum",
  "devdoc": {
    "methods": {}
  },
  "userdoc": {
    "methods": {}
  }
}