{
  "contractName": "FillerPacker",
  "abi": [
    {
      "anonymous": false,
      "inputs": [
        {
          "indexed": false,
          "internalType": "uint256",
          "name": "productId",
          "type": "uint256"
        }
      ],
      "name": "wineDispatched",
      "type": "event"
    },
    {
      "anonymous": false,
      "inputs": [
        {
          "indexed": false,
          "internalType": "uint256",
          "name": "productId",
          "type": "uint256"
        }
      ],
      "name": "wineLabelled",
      "type": "event"
    },
    {
      "anonymous": false,
      "inputs": [
        {
          "indexed": false,
          "internalType": "uint256",
          "name": "productId",
          "type": "uint256"
        }
      ],
      "name": "winePackaged",
      "type": "event"
    },
    {
      "anonymous": false,
      "inputs": [
        {
          "indexed": false,
          "internalType": "uint256",
          "name": "productId",
          "type": "uint256"
        }
      ],
      "name": "wineReceived",
      "type": "event"
    },
    {
      "constant": true,
      "inputs": [
        {
          "internalType": "uint256",
          "name": "productId",
          "type": "uint256"
        }
      ],
      "name": "getPackagingDetails",
      "outputs": [
        {
          "internalType": "string",
          "name": "",
          "type": "string"
        }
      ],
      "payable": false,
      "stateMutability": "view",
      "type": "function"
    },
    {
      "constant": true,
      "inputs": [
        {
          "internalType": "uint256",
          "name": "productId",
          "type": "uint256"
        }
      ],
      "name": "getLabelDetails",
      "outputs": [
        {
          "internalType": "string",
          "name": "",
          "type": "string"
        }
      ],
      "payable": false,
      "stateMutability": "view",
      "type": "function"
    },
    {
      "constant": false,
      "inputs": [
        {
          "internalType": "uint256",
          "name": "productId",
          "type": "uint256"
        },
        {
          "internalType": "string",
          "name": "currentLocation",
          "type": "string"
        },
        {
          "internalType": "string",
          "name": "arrivalDate",
          "type": "string"
        }
      ],
      "name": "receiveWineFromTransitCellar",
      "outputs": [],
      "payable": false,
      "stateMutability": "nonpayable",
      "type": "function"
    },
    {
      "constant": false,
      "inputs": [
        {
          "internalType": "uint256",
          "name": "productId",
          "type": "uint256"
        },
        {
          "internalType": "string",
          "name": "packagingDetail",
          "type": "string"
        }
      ],
      "name": "packageWine",
      "outputs": [],
      "payable": false,
      "stateMutability": "nonpayable",
      "type": "function"
    },
    {
      "constant": false,
      "inputs": [
        {
          "internalType": "uint256",
          "name": "productId",
          "type": "uint256"
        },
        {
          "internalType": "string",
          "name": "labelDetail",
          "type": "string"
        }
      ],
      "name": "labelWine",
      "outputs": [],
      "payable": false,
      "stateMutability": "nonpayable",
      "type": "function"
    }
  ],
  "bytecode": "0x608060405234801561001057600080fd5b50610f89806100206000396000f3fe608060405234801561001057600080fd5b50600436106100575760003560e01c80634d0d59481461005c5780637d181603146101b8578063a51fd8451461025f578063b623451214610324578063e4885ba9146103e9575b600080fd5b6101b66004803603606081101561007257600080fd5b81019080803590602001909291908035906020019064010000000081111561009957600080fd5b8201836020820111156100ab57600080fd5b803590602001918460018302840111640100000000831117156100cd57600080fd5b91908080601f016020809104026020016040519081016040528093929190818152602001838380828437600081840152601f19601f8201169050808301925050505050505091929192908035906020019064010000000081111561013057600080fd5b82018360208201111561014257600080fd5b8035906020019184600183028401116401000000008311171561016457600080fd5b91908080601f016020809104026020016040519081016040528093929190818152602001838380828437600081840152601f19601f820116905080830192505050505050509192919290505050610490565b005b6101e4600480360360208110156101ce57600080fd5b8101908080359060200190929190505050610c7f565b6040518080602001828103825283818151815260200191508051906020019080838360005b83811015610224578082015181840152602081019050610209565b50505050905090810190601f1680156102515780820380516001836020036101000a031916815260200191505b509250505060405180910390f35b6103226004803603604081101561027557600080fd5b81019080803590602001909291908035906020019064010000000081111561029c57600080fd5b8201836020820111156102ae57600080fd5b803590602001918460018302840111640100000000831117156102d057600080fd5b91908080601f016020809104026020016040519081016040528093929190818152602001838380828437600081840152601f19601f820116905080830192505050505050509192919290505050610d34565b005b6103e76004803603604081101561033a57600080fd5b81019080803590602001909291908035906020019064010000000081111561036157600080fd5b82018360208201111561037357600080fd5b8035906020019184600183028401116401000000008311171561039557600080fd5b91908080601f016020809104026020016040519081016040528093929190818152602001838380828437600081840152601f19601f820116905080830192505050505050509192919290505050610d97565b005b610415600480360360208110156103ff57600080fd5b8101908080359060200190929190505050610dfa565b6040518080602001828103825283818151815260200191508051906020019080838360005b8381101561045557808201518184015260208101905061043a565b50505050905090810190601f1680156104825780820380516001836020036101000a031916815260200191505b509250505060405180910390f35b823373ffffffffffffffffffffffffffffffffffffffff166000809054906101000a900473ffffffffffffffffffffffffffffffffffffffff1673ffffffffffffffffffffffffffffffffffffffff16637ace341b836040518263ffffffff1660e01b81526004018082815260200191505060206040518083038186803b15801561051a57600080fd5b505afa15801561052e573d6000803e3d6000fd5b505050506040513d602081101561054457600080fd5b810190808051906020019092919050505073ffffffffffffffffffffffffffffffffffffffff161461057557600080fd5b60608060606000809054906101000a900473ffffffffffffffffffffffffffffffffffffffff1673ffffffffffffffffffffffffffffffffffffffff166323bb1835886040518263ffffffff1660e01b81526004018082815260200191505060006040518083038186803b1580156105ec57600080fd5b505afa158015610600573d6000803e3d6000fd5b505050506040513d6000823e3d601f19601f82011682018060405250606081101561062a57600080fd5b810190808051604051939291908464010000000082111561064a57600080fd5b8382019150602082018581111561066057600080fd5b825186600182028301116401000000008211171561067d57600080fd5b8083526020830192505050908051906020019080838360005b838110156106b1578082015181840152602081019050610696565b50505050905090810190601f1680156106de5780820380516001836020036101000a031916815260200191505b506040526020018051604051939291908464010000000082111561070157600080fd5b8382019150602082018581111561071757600080fd5b825186600182028301116401000000008211171561073457600080fd5b8083526020830192505050908051906020019080838360005b8381101561076857808201518184015260208101905061074d565b50505050905090810190601f1680156107955780820380516001836020036101000a031916815260200191505b50604052602001805160405193929190846401000000008211156107b857600080fd5b838201915060208201858111156107ce57600080fd5b82518660018202830111640100000000821117156107eb57600080fd5b8083526020830192505050908051906020019080838360005b8381101561081f578082015181840152602081019050610804565b50505050905090810190601f16801561084c5780820380516001836020036101000a031916815260200191505b506040525050509250925092506000809054906101000a900473ffffffffffffffffffffffffffffffffffffffff1673ffffffffffffffffffffffffffffffffffffffff1663d88ee329888585856040518563ffffffff1660e01b815260040180858152602001806020018060200180602001848103845287818151815260200191508051906020019080838360005b838110156108f75780820151818401526020810190506108dc565b50505050905090810190601f1680156109245780820380516001836020036101000a031916815260200191505b50848103835286818151815260200191508051906020019080838360005b8381101561095d578082015181840152602081019050610942565b50505050905090810190601f16801561098a5780820380516001836020036101000a031916815260200191505b50848103825285818151815260200191508051906020019080838360005b838110156109c35780820151818401526020810190506109a8565b50505050905090810190601f1680156109f05780820380516001836020036101000a031916815260200191505b50975050505050505050600060405180830381600087803b158015610a1457600080fd5b505af1158015610a28573d6000803e3d6000fd5b505050506000809054906101000a900473ffffffffffffffffffffffffffffffffffffffff1673ffffffffffffffffffffffffffffffffffffffff1663809db2f88888886040518463ffffffff1660e01b815260040180848152602001806020018060200180602001848103845286818151815260200191508051906020019080838360005b83811015610ac9578082015181840152602081019050610aae565b50505050905090810190601f168015610af65780820380516001836020036101000a031916815260200191505b50848103835260008152602001602001848103825285818151815260200191508051906020019080838360005b83811015610b3e578082015181840152602081019050610b23565b50505050905090810190601f168015610b6b5780820380516001836020036101000a031916815260200191505b509650505050505050600060405180830381600087803b158015610b8e57600080fd5b505af1158015610ba2573d6000803e3d6000fd5b505050506000809054906101000a900473ffffffffffffffffffffffffffffffffffffffff1673ffffffffffffffffffffffffffffffffffffffff1663dcd9d2cb8860016040518363ffffffff1660e01b8152600401808381526020018215151515815260200192505050600060405180830381600087803b158015610c2757600080fd5b505af1158015610c3b573d6000803e3d6000fd5b505050507f2ffc48f4ae90072b45426bc482d9ae940d820e9532910a3ca1d051006e3284d1876040518082815260200191505060405180910390a150505050505050565b6060600260008381526020019081526020016000208054600181600116156101000203166002900480601f016020809104026020016040519081016040528092919081815260200182805460018160011615610100020316600290048015610d285780601f10610cfd57610100808354040283529160200191610d28565b820191906000526020600020905b815481529060010190602001808311610d0b57829003601f168201915b50505050509050919050565b80600160008481526020019081526020016000209080519060200190610d5b929190610eaf565b507f2cb39ac10184e8e50ccf204a3a429ea923d2ef344f82b5ab88b43be5908d1db8826040518082815260200191505060405180910390a15050565b80600260008481526020019081526020016000209080519060200190610dbe929190610eaf565b507f7a00c0371e0cb33ea2cd9bf7f9e3cdc5de8f632981233ab788bd359771b2de50826040518082815260200191505060405180910390a15050565b6060600160008381526020019081526020016000208054600181600116156101000203166002900480601f016020809104026020016040519081016040528092919081815260200182805460018160011615610100020316600290048015610ea35780601f10610e7857610100808354040283529160200191610ea3565b820191906000526020600020905b815481529060010190602001808311610e8657829003601f168201915b50505050509050919050565b828054600181600116156101000203166002900490600052602060002090601f016020900481019282601f10610ef057805160ff1916838001178555610f1e565b82800160010185558215610f1e579182015b82811115610f1d578251825591602001919060010190610f02565b5b509050610f2b9190610f2f565b5090565b610f5191905b80821115610f4d576000816000905550600101610f35565b5090565b9056fea265627a7a72315820d2c6976b8d153bbc2815ddf8e5273bbb4fd1257dca0f16134e94b5866be3ba5064736f6c63430005100032",
  "source": "pragma solidity ^0.5.0;\n\nimport \"./Product.sol\";\n\ncontract FillerPacker {\n    \n    //variables\n    Product productContract;\n    mapping(uint256 => string) private packagingDetails; // Packaging details of each product\n    mapping(uint256 => string) private labelDetails; // Label details of each product\n\n    //events\n    event wineReceived(uint productId);\n    event winePackaged(uint productId); \n    event wineLabelled(uint productId); \n    event wineDispatched(uint productId);\n\n    //modifiers\n    modifier ownerOnly(uint256 productId) {\n        require(productContract.getCurrentOwner(productId) == msg.sender);\n        _;\n    }\n\n    // modifier validProductId(uint256 productId) {\n    //     require(productId < productContract.noProduct);\n    //     _;\n    // }\n\n    //methods\n    // function getOwner() public view returns(address) {\n    //    return owner;\n    // }\n\n    function getPackagingDetails(uint256 productId) public view returns(string memory) {\n       return packagingDetails[productId];\n    }\n\n    function getLabelDetails(uint256 productId) public view returns(string memory) {\n       return labelDetails[productId];\n    }\n\n    // function getDispatchDetails(uint256 productId) public view  returns(string memory) {\n    //    return dispatchDates[productId];\n    // }\n\n    function receiveWineFromTransitCellar(uint256 productId, string memory currentLocation, string memory arrivalDate) public ownerOnly(productId) {\n        (string memory location, string memory dispatchDate, string memory prevArrivalDate) = productContract.getCurrentLocation(productId);\n        productContract.addPreviousLocation(productId, location, dispatchDate, prevArrivalDate);\n        productContract.setCurrentLocation(productId, currentLocation, \"\", arrivalDate);\n        \n        productContract.setReceived(productId, true);\n        \n        emit wineReceived(productId);\n    }\n\n    function packageWine(uint256 productId, string memory packagingDetail) public {\n        packagingDetails[productId] = packagingDetail;\n        emit winePackaged(productId);\n    }\n\n    function labelWine(uint256 productId, string memory labelDetail) public {\n        labelDetails[productId] = labelDetail;\n        emit wineLabelled(productId);\n    }\n\n    // function dispatchWineToGoodsDistributor(uint256 productId, string memory labelDetail, string memory dispatchDate, address newOwner, address newContractAddress) public ownerOnly(productId) {\n    //     (string memory location, string memory prevDispatchDate, string memory prevArrivalDate) = productContract.getCurrentLocation(productId);\n    //     productContract.addPreviousLocation(productId, location, dispatchDate, prevArrivalDate);\n    //     productContract.setCurrentLocation(productId, \"\", \"\", \"\");\n        \n    //     productContract.transferProduct(productId, newOwner, newContractAddress);\n\n    //     productContract.setReceived(productId, false);\n        \n    //     emit wineDispatched(productId);\n    // }\n}",
  "sourcePath": "/Users/jarrentoh/Documents/GitHub/Wine Supplychain Blockchain/contracts/FillerPacker.sol",
  "compiler": {
    "name": "solc",
    "version": "0.5.16+commit.9c3226ce.Emscripten.clang"
  },
  "schemaVersion": "3.4.11",
  "updatedAt": "2023-03-31T13:21:38.143Z",
  "devdoc": {
    "methods": {}
  },
  "userdoc": {
    "methods": {}
  }
}