{
  "contractName": "GoodsDistributor",
  "abi": [
    {
      "inputs": [
        {
          "internalType": "contract Product",
          "name": "productAddress",
          "type": "address"
        },
        {
          "internalType": "contract FillerPacker",
          "name": "fillerPackerAddress",
          "type": "address"
        }
      ],
      "payable": false,
      "stateMutability": "nonpayable",
      "type": "constructor"
    },
    {
      "anonymous": false,
      "inputs": [
        {
          "indexed": false,
          "internalType": "uint256",
          "name": "wineBatchId",
          "type": "uint256"
        }
      ],
      "name": "buyWineBatch",
      "type": "event"
    },
    {
      "anonymous": false,
      "inputs": [
        {
          "indexed": false,
          "internalType": "uint256",
          "name": "wineBatchId",
          "type": "uint256"
        }
      ],
      "name": "dispatchWineBatch",
      "type": "event"
    },
    {
      "anonymous": false,
      "inputs": [
        {
          "indexed": false,
          "internalType": "uint256",
          "name": "wineBatchId",
          "type": "uint256"
        }
      ],
      "name": "refundWine",
      "type": "event"
    },
    {
      "anonymous": false,
      "inputs": [
        {
          "indexed": false,
          "internalType": "uint256",
          "name": "wineBatchId",
          "type": "uint256"
        }
      ],
      "name": "returnedWine",
      "type": "event"
    },
    {
      "anonymous": false,
      "inputs": [
        {
          "indexed": false,
          "internalType": "uint256",
          "name": "wineBatchId",
          "type": "uint256"
        }
      ],
      "name": "wineBatchReceived",
      "type": "event"
    },
    {
      "anonymous": false,
      "inputs": [
        {
          "indexed": false,
          "internalType": "uint256",
          "name": "wineBatchId",
          "type": "uint256"
        }
      ],
      "name": "wineBatchRemoved",
      "type": "event"
    },
    {
      "constant": true,
      "inputs": [
        {
          "internalType": "uint256",
          "name": "",
          "type": "uint256"
        }
      ],
      "name": "wineBatchStorage",
      "outputs": [
        {
          "internalType": "uint256",
          "name": "",
          "type": "uint256"
        }
      ],
      "payable": false,
      "stateMutability": "view",
      "type": "function"
    },
    {
      "constant": false,
      "inputs": [
        {
          "internalType": "uint256",
          "name": "wineBatchId",
          "type": "uint256"
        }
      ],
      "name": "removeWineBatchFromStorage",
      "outputs": [],
      "payable": false,
      "stateMutability": "nonpayable",
      "type": "function"
    },
    {
      "constant": false,
      "inputs": [
        {
          "internalType": "uint256",
          "name": "productId",
          "type": "uint256"
        }
      ],
      "name": "materialReadyToShip",
      "outputs": [],
      "payable": false,
      "stateMutability": "nonpayable",
      "type": "function"
    },
    {
      "constant": false,
      "inputs": [
        {
          "internalType": "uint256",
          "name": "productId",
          "type": "uint256"
        },
        {
          "internalType": "string",
          "name": "dispatchDate",
          "type": "string"
        }
      ],
      "name": "buyWineFromFillerPacker",
      "outputs": [],
      "payable": true,
      "stateMutability": "payable",
      "type": "function"
    },
    {
      "constant": false,
      "inputs": [
        {
          "internalType": "uint256",
          "name": "productId",
          "type": "uint256"
        },
        {
          "internalType": "string",
          "name": "currentLocation",
          "type": "string"
        },
        {
          "internalType": "string",
          "name": "arrivalDate",
          "type": "string"
        }
      ],
      "name": "receiveWine",
      "outputs": [],
      "payable": false,
      "stateMutability": "nonpayable",
      "type": "function"
    },
    {
      "constant": false,
      "inputs": [
        {
          "internalType": "uint256",
          "name": "productId",
          "type": "uint256"
        }
      ],
      "name": "returnWine",
      "outputs": [],
      "payable": false,
      "stateMutability": "nonpayable",
      "type": "function"
    },
    {
      "constant": false,
      "inputs": [
        {
          "internalType": "uint256",
          "name": "productId",
          "type": "uint256"
        }
      ],
      "name": "refundWholesaler",
      "outputs": [],
      "payable": true,
      "stateMutability": "payable",
      "type": "function"
    },
    {
      "constant": false,
      "inputs": [
        {
          "internalType": "uint256",
          "name": "productId",
          "type": "uint256"
        },
        {
          "internalType": "string",
          "name": "newDisbatchDate",
          "type": "string"
        },
        {
          "internalType": "address",
          "name": "wholeSalerAddress",
          "type": "address"
        },
        {
          "internalType": "address",
          "name": "wholeSalerContractAddress",
          "type": "address"
        }
      ],
      "name": "dispatchWineToWholesaler",
      "outputs": [],
      "payable": false,
      "stateMutability": "nonpayable",
      "type": "function"
    },
    {
      "constant": false,
      "inputs": [
        {
          "internalType": "uint256",
          "name": "productId",
          "type": "uint256"
        }
      ],
      "name": "removeWineBatch",
      "outputs": [],
      "payable": false,
      "stateMutability": "nonpayable",
      "type": "function"
    }
  ],
  "bytecode": "0x608060405233600260006101000a81548173ffffffffffffffffffffffffffffffffffffffff021916908373ffffffffffffffffffffffffffffffffffffffff16021790555034801561005157600080fd5b506040516135d93803806135d98339818101604052604081101561007457600080fd5b810190808051906020019092919080519060200190929190505050816000806101000a81548173ffffffffffffffffffffffffffffffffffffffff021916908373ffffffffffffffffffffffffffffffffffffffff16021790555080600160006101000a81548173ffffffffffffffffffffffffffffffffffffffff021916908373ffffffffffffffffffffffffffffffffffffffff16021790555050506134b8806101216000396000f3fe6080604052600436106100865760003560e01c80639571e8e4116100595780639571e8e4146102625780639aa13ab01461029d578063ac4ce13114610362578063c0d7058e1461039d578063c520924c146103cb57610086565b806320a150021461008b5780633a4c3666146100c657806369d05d9514610101578063834162b814610150575b600080fd5b34801561009757600080fd5b506100c4600480360360208110156100ae57600080fd5b8101908080359060200190929190505050610534565b005b3480156100d257600080fd5b506100ff600480360360208110156100e957600080fd5b81019080803590602001909291905050506105c4565b005b34801561010d57600080fd5b5061013a6004803603602081101561012457600080fd5b81019080803590602001909291905050506107c0565b6040518082815260200191505060405180910390f35b34801561015c57600080fd5b506102606004803603608081101561017357600080fd5b81019080803590602001909291908035906020019064010000000081111561019a57600080fd5b8201836020820111156101ac57600080fd5b803590602001918460018302840111640100000000831117156101ce57600080fd5b91908080601f016020809104026020016040519081016040528093929190818152602001838380828437600081840152601f19601f820116905080830192505050505050509192919290803573ffffffffffffffffffffffffffffffffffffffff169060200190929190803573ffffffffffffffffffffffffffffffffffffffff1690602001909291905050506107e1565b005b34801561026e57600080fd5b5061029b6004803603602081101561028557600080fd5b8101908080359060200190929190505050611505565b005b610360600480360360408110156102b357600080fd5b8101908080359060200190929190803590602001906401000000008111156102da57600080fd5b8201836020820111156102ec57600080fd5b8035906020019184600183028401116401000000008311171561030e57600080fd5b91908080601f016020809104026020016040519081016040528093929190818152602001838380828437600081840152601f19601f820116905080830192505050505050509192919290505050611ce9565b005b34801561036e57600080fd5b5061039b6004803603602081101561038557600080fd5b8101908080359060200190929190505050612137565b005b6103c9600480360360208110156103b357600080fd5b81019080803590602001909291905050506123c2565b005b3480156103d757600080fd5b50610532600480360360608110156103ee57600080fd5b81019080803590602001909291908035906020019064010000000081111561041557600080fd5b82018360208201111561042757600080fd5b8035906020019184600183028401116401000000008311171561044957600080fd5b91908080601f016020809104026020016040519081016040528093929190818152602001838380828437600081840152601f19601f820116905080830192505050505050509192919290803590602001906401000000008111156104ac57600080fd5b8201836020820111156104be57600080fd5b803590602001918460018302840111640100000000831117156104e057600080fd5b91908080601f016020809104026020016040519081016040528093929190818152602001838380828437600081840152601f19601f8201169050808301925050505050505091929192905050506128fe565b005b6003805490508110610545576105c1565b60008190505b60016003805490500381101561059e576003600182018154811061056b57fe5b90600052602060002001546003828154811061058357fe5b9060005260206000200181905550808060010191505061054b565b5060038054806105aa57fe5b600190038181906000526020600020016000905590555b50565b803373ffffffffffffffffffffffffffffffffffffffff166000809054906101000a900473ffffffffffffffffffffffffffffffffffffffff1673ffffffffffffffffffffffffffffffffffffffff16637ace341b836040518263ffffffff1660e01b81526004018082815260200191505060206040518083038186803b15801561064e57600080fd5b505afa158015610662573d6000803e3d6000fd5b505050506040513d602081101561067857600080fd5b810190808051906020019092919050505073ffffffffffffffffffffffffffffffffffffffff16146106a957600080fd5b6000809054906101000a900473ffffffffffffffffffffffffffffffffffffffff1673ffffffffffffffffffffffffffffffffffffffff16635ee95cae836040518263ffffffff1660e01b815260040180828152602001915050600060405180830381600087803b15801561071d57600080fd5b505af1158015610731573d6000803e3d6000fd5b5050505060008090505b600160038054905003811161078457826003828154811061075857fe5b906000526020600020015414156107775761077281610534565b610784565b808060010191505061073b565b507f680c402b7e383a9857c95a3664d9a366c04ddf5c6336b11d0c0f8d6639ec3ddf826040518082815260200191505060405180910390a15050565b600381815481106107cd57fe5b906000526020600020016000915090505481565b833373ffffffffffffffffffffffffffffffffffffffff166000809054906101000a900473ffffffffffffffffffffffffffffffffffffffff1673ffffffffffffffffffffffffffffffffffffffff16637ace341b836040518263ffffffff1660e01b81526004018082815260200191505060206040518083038186803b15801561086b57600080fd5b505afa15801561087f573d6000803e3d6000fd5b505050506040513d602081101561089557600080fd5b810190808051906020019092919050505073ffffffffffffffffffffffffffffffffffffffff16146108c657600080fd5b600115156000809054906101000a900473ffffffffffffffffffffffffffffffffffffffff1673ffffffffffffffffffffffffffffffffffffffff166340889b4f876040518263ffffffff1660e01b81526004018082815260200191505060206040518083038186803b15801561093c57600080fd5b505afa158015610950573d6000803e3d6000fd5b505050506040513d602081101561096657600080fd5b81019080805190602001909291905050501515146109ec576040517f08c379a000000000000000000000000000000000000000000000000000000000815260040180806020018281038252601e8152602001807f50726f64756374206e6f7420726561647920666f72207368697070696e67000081525060200191505060405180910390fd5b3073ffffffffffffffffffffffffffffffffffffffff166000809054906101000a900473ffffffffffffffffffffffffffffffffffffffff1673ffffffffffffffffffffffffffffffffffffffff16630772c45e876040518263ffffffff1660e01b81526004018082815260200191505060206040518083038186803b158015610a7557600080fd5b505afa158015610a89573d6000803e3d6000fd5b505050506040513d6020811015610a9f57600080fd5b810190808051906020019092919050505073ffffffffffffffffffffffffffffffffffffffff1614610ad057600080fd5b6000809054906101000a900473ffffffffffffffffffffffffffffffffffffffff1673ffffffffffffffffffffffffffffffffffffffff16630cc91022866000809054906101000a900473ffffffffffffffffffffffffffffffffffffffff1673ffffffffffffffffffffffffffffffffffffffff16637ace341b896040518263ffffffff1660e01b81526004018082815260200191505060206040518083038186803b158015610b8057600080fd5b505afa158015610b94573d6000803e3d6000fd5b505050506040513d6020811015610baa57600080fd5b81019080805190602001909291905050506040518363ffffffff1660e01b8152600401808381526020018273ffffffffffffffffffffffffffffffffffffffff1673ffffffffffffffffffffffffffffffffffffffff16815260200192505050600060405180830381600087803b158015610c2457600080fd5b505af1158015610c38573d6000803e3d6000fd5b505050506000809054906101000a900473ffffffffffffffffffffffffffffffffffffffff1673ffffffffffffffffffffffffffffffffffffffff16636c125a6b86856040518363ffffffff1660e01b8152600401808381526020018273ffffffffffffffffffffffffffffffffffffffff1673ffffffffffffffffffffffffffffffffffffffff16815260200192505050600060405180830381600087803b158015610ce457600080fd5b505af1158015610cf8573d6000803e3d6000fd5b505050506000809054906101000a900473ffffffffffffffffffffffffffffffffffffffff1673ffffffffffffffffffffffffffffffffffffffff166391f4caca866000809054906101000a900473ffffffffffffffffffffffffffffffffffffffff1673ffffffffffffffffffffffffffffffffffffffff16630772c45e896040518263ffffffff1660e01b81526004018082815260200191505060206040518083038186803b158015610dac57600080fd5b505afa158015610dc0573d6000803e3d6000fd5b505050506040513d6020811015610dd657600080fd5b81019080805190602001909291905050506040518363ffffffff1660e01b8152600401808381526020018273ffffffffffffffffffffffffffffffffffffffff1673ffffffffffffffffffffffffffffffffffffffff16815260200192505050600060405180830381600087803b158015610e5057600080fd5b505af1158015610e64573d6000803e3d6000fd5b505050506000809054906101000a900473ffffffffffffffffffffffffffffffffffffffff1673ffffffffffffffffffffffffffffffffffffffff166358ff352a86846040518363ffffffff1660e01b8152600401808381526020018273ffffffffffffffffffffffffffffffffffffffff1673ffffffffffffffffffffffffffffffffffffffff16815260200192505050600060405180830381600087803b158015610f1057600080fd5b505af1158015610f24573d6000803e3d6000fd5b505050506000809054906101000a900473ffffffffffffffffffffffffffffffffffffffff1673ffffffffffffffffffffffffffffffffffffffff1663dcd9d2cb8660006040518363ffffffff1660e01b8152600401808381526020018215151515815260200192505050600060405180830381600087803b158015610fa957600080fd5b505af1158015610fbd573d6000803e3d6000fd5b505050506060806000809054906101000a900473ffffffffffffffffffffffffffffffffffffffff1673ffffffffffffffffffffffffffffffffffffffff166323bb1835886040518263ffffffff1660e01b81526004018082815260200191505060006040518083038186803b15801561103657600080fd5b505afa15801561104a573d6000803e3d6000fd5b505050506040513d6000823e3d601f19601f82011682018060405250606081101561107457600080fd5b810190808051604051939291908464010000000082111561109457600080fd5b838201915060208201858111156110aa57600080fd5b82518660018202830111640100000000821117156110c757600080fd5b8083526020830192505050908051906020019080838360005b838110156110fb5780820151818401526020810190506110e0565b50505050905090810190601f1680156111285780820380516001836020036101000a031916815260200191505b506040526020018051604051939291908464010000000082111561114b57600080fd5b8382019150602082018581111561116157600080fd5b825186600182028301116401000000008211171561117e57600080fd5b8083526020830192505050908051906020019080838360005b838110156111b2578082015181840152602081019050611197565b50505050905090810190601f1680156111df5780820380516001836020036101000a031916815260200191505b506040526020018051604051939291908464010000000082111561120257600080fd5b8382019150602082018581111561121857600080fd5b825186600182028301116401000000008211171561123557600080fd5b8083526020830192505050908051906020019080838360005b8381101561126957808201518184015260208101905061124e565b50505050905090810190601f1680156112965780820380516001836020036101000a031916815260200191505b5060405250505092505091506000809054906101000a900473ffffffffffffffffffffffffffffffffffffffff1673ffffffffffffffffffffffffffffffffffffffff1663809db2f8888489856040518563ffffffff1660e01b815260040180858152602001806020018060200180602001848103845287818151815260200191508051906020019080838360005b83811015611340578082015181840152602081019050611325565b50505050905090810190601f16801561136d5780820380516001836020036101000a031916815260200191505b50848103835286818151815260200191508051906020019080838360005b838110156113a657808201518184015260208101905061138b565b50505050905090810190601f1680156113d35780820380516001836020036101000a031916815260200191505b50848103825285818151815260200191508051906020019080838360005b8381101561140c5780820151818401526020810190506113f1565b50505050905090810190601f1680156114395780820380516001836020036101000a031916815260200191505b50975050505050505050600060405180830381600087803b15801561145d57600080fd5b505af1158015611471573d6000803e3d6000fd5b5050505060008090505b60016003805490500381116114c457876003828154811061149857fe5b906000526020600020015414156114b7576114b281610534565b6114c4565b808060010191505061147b565b507f2fda023771531aa0ea12022bd05b7436a0c3d513865b0e1affd697615d022399876040518082815260200191505060405180910390a150505050505050565b803373ffffffffffffffffffffffffffffffffffffffff166000809054906101000a900473ffffffffffffffffffffffffffffffffffffffff1673ffffffffffffffffffffffffffffffffffffffff16637ace341b836040518263ffffffff1660e01b81526004018082815260200191505060206040518083038186803b15801561158f57600080fd5b505afa1580156115a3573d6000803e3d6000fd5b505050506040513d60208110156115b957600080fd5b810190808051906020019092919050505073ffffffffffffffffffffffffffffffffffffffff16146115ea57600080fd5b600115156000809054906101000a900473ffffffffffffffffffffffffffffffffffffffff1673ffffffffffffffffffffffffffffffffffffffff16631becaefb846040518263ffffffff1660e01b81526004018082815260200191505060206040518083038186803b15801561166057600080fd5b505afa158015611674573d6000803e3d6000fd5b505050506040513d602081101561168a57600080fd5b81019080805190602001909291905050501515146116f3576040517f08c379a000000000000000000000000000000000000000000000000000000000815260040180806020018281038252602681526020018061345e6026913960400191505060405180910390fd5b60008060009054906101000a900473ffffffffffffffffffffffffffffffffffffffff1673ffffffffffffffffffffffffffffffffffffffff166256856a846040518263ffffffff1660e01b81526004018082815260200191505060206040518083038186803b15801561176657600080fd5b505afa15801561177a573d6000803e3d6000fd5b505050506040513d602081101561179057600080fd5b8101908080519060200190929190505050905060008060009054906101000a900473ffffffffffffffffffffffffffffffffffffffff1673ffffffffffffffffffffffffffffffffffffffff16635e478e6c856040518263ffffffff1660e01b81526004018082815260200191505060206040518083038186803b15801561181757600080fd5b505afa15801561182b573d6000803e3d6000fd5b505050506040513d602081101561184157600080fd5b810190808051906020019092919050505090506000809054906101000a900473ffffffffffffffffffffffffffffffffffffffff1673ffffffffffffffffffffffffffffffffffffffff16630cc91022856000809054906101000a900473ffffffffffffffffffffffffffffffffffffffff1673ffffffffffffffffffffffffffffffffffffffff16637ace341b886040518263ffffffff1660e01b81526004018082815260200191505060206040518083038186803b15801561190457600080fd5b505afa158015611918573d6000803e3d6000fd5b505050506040513d602081101561192e57600080fd5b81019080805190602001909291905050506040518363ffffffff1660e01b8152600401808381526020018273ffffffffffffffffffffffffffffffffffffffff1673ffffffffffffffffffffffffffffffffffffffff16815260200192505050600060405180830381600087803b1580156119a857600080fd5b505af11580156119bc573d6000803e3d6000fd5b505050506000809054906101000a900473ffffffffffffffffffffffffffffffffffffffff1673ffffffffffffffffffffffffffffffffffffffff166391f4caca856000809054906101000a900473ffffffffffffffffffffffffffffffffffffffff1673ffffffffffffffffffffffffffffffffffffffff16630772c45e886040518263ffffffff1660e01b81526004018082815260200191505060206040518083038186803b158015611a7057600080fd5b505afa158015611a84573d6000803e3d6000fd5b505050506040513d6020811015611a9a57600080fd5b81019080805190602001909291905050506040518363ffffffff1660e01b8152600401808381526020018273ffffffffffffffffffffffffffffffffffffffff1673ffffffffffffffffffffffffffffffffffffffff16815260200192505050600060405180830381600087803b158015611b1457600080fd5b505af1158015611b28573d6000803e3d6000fd5b505050506000809054906101000a900473ffffffffffffffffffffffffffffffffffffffff1673ffffffffffffffffffffffffffffffffffffffff166358ff352a85836040518363ffffffff1660e01b8152600401808381526020018273ffffffffffffffffffffffffffffffffffffffff1673ffffffffffffffffffffffffffffffffffffffff16815260200192505050600060405180830381600087803b158015611bd457600080fd5b505af1158015611be8573d6000803e3d6000fd5b505050506000809054906101000a900473ffffffffffffffffffffffffffffffffffffffff1673ffffffffffffffffffffffffffffffffffffffff16636c125a6b85846040518363ffffffff1660e01b8152600401808381526020018273ffffffffffffffffffffffffffffffffffffffff1673ffffffffffffffffffffffffffffffffffffffff16815260200192505050600060405180830381600087803b158015611c9457600080fd5b505af1158015611ca8573d6000803e3d6000fd5b505050507f5e9bb8415726e0b11d7b932dbb364eb215405ab788599166da87c7cb5ef7b589846040518082815260200191505060405180910390a150505050565b60008060009054906101000a900473ffffffffffffffffffffffffffffffffffffffff1673ffffffffffffffffffffffffffffffffffffffff1663fe73e86c846040518263ffffffff1660e01b81526004018082815260200191505060206040518083038186803b158015611d5d57600080fd5b505afa158015611d71573d6000803e3d6000fd5b505050506040513d6020811015611d8757600080fd5b81019080805190602001909291905050506000809054906101000a900473ffffffffffffffffffffffffffffffffffffffff1673ffffffffffffffffffffffffffffffffffffffff166364c0e52f856040518263ffffffff1660e01b81526004018082815260200191505060206040518083038186803b158015611e0a57600080fd5b505afa158015611e1e573d6000803e3d6000fd5b505050506040513d6020811015611e3457600080fd5b8101908080519060200190929190505050029050803411611ea0576040517f08c379a00000000000000000000000000000000000000000000000000000000081526004018080602001828103825260288152602001806134366028913960400191505060405180910390fd5b60008060009054906101000a900473ffffffffffffffffffffffffffffffffffffffff1673ffffffffffffffffffffffffffffffffffffffff16637ace341b856040518263ffffffff1660e01b81526004018082815260200191505060206040518083038186803b158015611f1457600080fd5b505afa158015611f28573d6000803e3d6000fd5b505050506040513d6020811015611f3e57600080fd5b810190808051906020019092919050505090508073ffffffffffffffffffffffffffffffffffffffff166108fc839081150290604051600060405180830381858888f19350505050158015611f97573d6000803e3d6000fd5b50600160009054906101000a900473ffffffffffffffffffffffffffffffffffffffff1673ffffffffffffffffffffffffffffffffffffffff1663cd058d58858533306040518563ffffffff1660e01b815260040180858152602001806020018473ffffffffffffffffffffffffffffffffffffffff1673ffffffffffffffffffffffffffffffffffffffff1681526020018373ffffffffffffffffffffffffffffffffffffffff1673ffffffffffffffffffffffffffffffffffffffff168152602001828103825285818151815260200191508051906020019080838360005b83811015612093578082015181840152602081019050612078565b50505050905090810190601f1680156120c05780820380516001836020036101000a031916815260200191505b5095505050505050600060405180830381600087803b1580156120e257600080fd5b505af11580156120f6573d6000803e3d6000fd5b505050507f434286dd36291b90fc7b06f317bad22bb01ad82e0c1cba3e5072588a10d97f15846040518082815260200191505060405180910390a150505050565b803373ffffffffffffffffffffffffffffffffffffffff166000809054906101000a900473ffffffffffffffffffffffffffffffffffffffff1673ffffffffffffffffffffffffffffffffffffffff16637ace341b836040518263ffffffff1660e01b81526004018082815260200191505060206040518083038186803b1580156121c157600080fd5b505afa1580156121d5573d6000803e3d6000fd5b505050506040513d60208110156121eb57600080fd5b810190808051906020019092919050505073ffffffffffffffffffffffffffffffffffffffff161461221c57600080fd5b600015156000809054906101000a900473ffffffffffffffffffffffffffffffffffffffff1673ffffffffffffffffffffffffffffffffffffffff166340889b4f846040518263ffffffff1660e01b81526004018082815260200191505060206040518083038186803b15801561229257600080fd5b505afa1580156122a6573d6000803e3d6000fd5b505050506040513d60208110156122bc57600080fd5b8101908080519060200190929190505050151514612325576040517f08c379a00000000000000000000000000000000000000000000000000000000081526004018080602001828103825260258152602001806134116025913960400191505060405180910390fd5b6000809054906101000a900473ffffffffffffffffffffffffffffffffffffffff1673ffffffffffffffffffffffffffffffffffffffff16633d30ffb88360016040518363ffffffff1660e01b8152600401808381526020018215151515815260200192505050600060405180830381600087803b1580156123a657600080fd5b505af11580156123ba573d6000803e3d6000fd5b505050505050565b803373ffffffffffffffffffffffffffffffffffffffff166000809054906101000a900473ffffffffffffffffffffffffffffffffffffffff1673ffffffffffffffffffffffffffffffffffffffff16637ace341b836040518263ffffffff1660e01b81526004018082815260200191505060206040518083038186803b15801561244c57600080fd5b505afa158015612460573d6000803e3d6000fd5b505050506040513d602081101561247657600080fd5b810190808051906020019092919050505073ffffffffffffffffffffffffffffffffffffffff16146124a757600080fd5b3373ffffffffffffffffffffffffffffffffffffffff166000809054906101000a900473ffffffffffffffffffffffffffffffffffffffff1673ffffffffffffffffffffffffffffffffffffffff16637ace341b846040518263ffffffff1660e01b81526004018082815260200191505060206040518083038186803b15801561253057600080fd5b505afa158015612544573d6000803e3d6000fd5b505050506040513d602081101561255a57600080fd5b810190808051906020019092919050505073ffffffffffffffffffffffffffffffffffffffff16146125f4576040517f08c379a00000000000000000000000000000000000000000000000000000000081526004018080602001828103825260168152602001807f556e61626c6520746f20726566756e64206974656d730000000000000000000081525060200191505060405180910390fd5b60008060009054906101000a900473ffffffffffffffffffffffffffffffffffffffff1673ffffffffffffffffffffffffffffffffffffffff1663fe73e86c846040518263ffffffff1660e01b81526004018082815260200191505060206040518083038186803b15801561266857600080fd5b505afa15801561267c573d6000803e3d6000fd5b505050506040513d602081101561269257600080fd5b81019080805190602001909291905050506000809054906101000a900473ffffffffffffffffffffffffffffffffffffffff1673ffffffffffffffffffffffffffffffffffffffff166364c0e52f856040518263ffffffff1660e01b81526004018082815260200191505060206040518083038186803b15801561271557600080fd5b505afa158015612729573d6000803e3d6000fd5b505050506040513d602081101561273f57600080fd5b8101908080519060200190929190505050029050803410156127c9576040517f08c379a000000000000000000000000000000000000000000000000000000000815260040180806020018281038252601d8152602001807f496e737566666963656e7420616d6f756e7420666f7220726566756e6400000081525060200191505060405180910390fd5b60008060009054906101000a900473ffffffffffffffffffffffffffffffffffffffff1673ffffffffffffffffffffffffffffffffffffffff16637ace341b856040518263ffffffff1660e01b81526004018082815260200191505060206040518083038186803b15801561283d57600080fd5b505afa158015612851573d6000803e3d6000fd5b505050506040513d602081101561286757600080fd5b810190808051906020019092919050505090508073ffffffffffffffffffffffffffffffffffffffff166108fc839081150290604051600060405180830381858888f193505050501580156128c0573d6000803e3d6000fd5b507f376a28bb6c0a24411101d750f324a0b9a737da52d836c5231fa9cf0448efefec846040518082815260200191505060405180910390a150505050565b823373ffffffffffffffffffffffffffffffffffffffff166000809054906101000a900473ffffffffffffffffffffffffffffffffffffffff1673ffffffffffffffffffffffffffffffffffffffff16637ace341b836040518263ffffffff1660e01b81526004018082815260200191505060206040518083038186803b15801561298857600080fd5b505afa15801561299c573d6000803e3d6000fd5b505050506040513d60208110156129b257600080fd5b810190808051906020019092919050505073ffffffffffffffffffffffffffffffffffffffff16146129e357600080fd5b600015156000809054906101000a900473ffffffffffffffffffffffffffffffffffffffff1673ffffffffffffffffffffffffffffffffffffffff16631becaefb866040518263ffffffff1660e01b81526004018082815260200191505060206040518083038186803b158015612a5957600080fd5b505afa158015612a6d573d6000803e3d6000fd5b505050506040513d6020811015612a8357600080fd5b8101908080519060200190929190505050151514612aa057600080fd5b3073ffffffffffffffffffffffffffffffffffffffff166000809054906101000a900473ffffffffffffffffffffffffffffffffffffffff1673ffffffffffffffffffffffffffffffffffffffff16630772c45e866040518263ffffffff1660e01b81526004018082815260200191505060206040518083038186803b158015612b2957600080fd5b505afa158015612b3d573d6000803e3d6000fd5b505050506040513d6020811015612b5357600080fd5b810190808051906020019092919050505073ffffffffffffffffffffffffffffffffffffffff1614612b8457600080fd5b600115156000809054906101000a900473ffffffffffffffffffffffffffffffffffffffff1673ffffffffffffffffffffffffffffffffffffffff166340889b4f866040518263ffffffff1660e01b81526004018082815260200191505060206040518083038186803b158015612bfa57600080fd5b505afa158015612c0e573d6000803e3d6000fd5b505050506040513d6020811015612c2457600080fd5b8101908080519060200190929190505050151514612c4157600080fd5b60608060606000809054906101000a900473ffffffffffffffffffffffffffffffffffffffff1673ffffffffffffffffffffffffffffffffffffffff166323bb1835886040518263ffffffff1660e01b81526004018082815260200191505060006040518083038186803b158015612cb857600080fd5b505afa158015612ccc573d6000803e3d6000fd5b505050506040513d6000823e3d601f19601f820116820180604052506060811015612cf657600080fd5b8101908080516040519392919084640100000000821115612d1657600080fd5b83820191506020820185811115612d2c57600080fd5b8251866001820283011164010000000082111715612d4957600080fd5b8083526020830192505050908051906020019080838360005b83811015612d7d578082015181840152602081019050612d62565b50505050905090810190601f168015612daa5780820380516001836020036101000a031916815260200191505b5060405260200180516040519392919084640100000000821115612dcd57600080fd5b83820191506020820185811115612de357600080fd5b8251866001820283011164010000000082111715612e0057600080fd5b8083526020830192505050908051906020019080838360005b83811015612e34578082015181840152602081019050612e19565b50505050905090810190601f168015612e615780820380516001836020036101000a031916815260200191505b5060405260200180516040519392919084640100000000821115612e8457600080fd5b83820191506020820185811115612e9a57600080fd5b8251866001820283011164010000000082111715612eb757600080fd5b8083526020830192505050908051906020019080838360005b83811015612eeb578082015181840152602081019050612ed0565b50505050905090810190601f168015612f185780820380516001836020036101000a031916815260200191505b506040525050509250925092506000809054906101000a900473ffffffffffffffffffffffffffffffffffffffff1673ffffffffffffffffffffffffffffffffffffffff1663d88ee329888585856040518563ffffffff1660e01b815260040180858152602001806020018060200180602001848103845287818151815260200191508051906020019080838360005b83811015612fc3578082015181840152602081019050612fa8565b50505050905090810190601f168015612ff05780820380516001836020036101000a031916815260200191505b50848103835286818151815260200191508051906020019080838360005b8381101561302957808201518184015260208101905061300e565b50505050905090810190601f1680156130565780820380516001836020036101000a031916815260200191505b50848103825285818151815260200191508051906020019080838360005b8381101561308f578082015181840152602081019050613074565b50505050905090810190601f1680156130bc5780820380516001836020036101000a031916815260200191505b50975050505050505050600060405180830381600087803b1580156130e057600080fd5b505af11580156130f4573d6000803e3d6000fd5b505050506000809054906101000a900473ffffffffffffffffffffffffffffffffffffffff1673ffffffffffffffffffffffffffffffffffffffff1663809db2f88888886040518463ffffffff1660e01b815260040180848152602001806020018060200180602001848103845286818151815260200191508051906020019080838360005b8381101561319557808201518184015260208101905061317a565b50505050905090810190601f1680156131c25780820380516001836020036101000a031916815260200191505b50848103835260008152602001602001848103825285818151815260200191508051906020019080838360005b8381101561320a5780820151818401526020810190506131ef565b50505050905090810190601f1680156132375780820380516001836020036101000a031916815260200191505b509650505050505050600060405180830381600087803b15801561325a57600080fd5b505af115801561326e573d6000803e3d6000fd5b505050506000809054906101000a900473ffffffffffffffffffffffffffffffffffffffff1673ffffffffffffffffffffffffffffffffffffffff1663dcd9d2cb8860016040518363ffffffff1660e01b8152600401808381526020018215151515815260200192505050600060405180830381600087803b1580156132f357600080fd5b505af1158015613307573d6000803e3d6000fd5b505050506000809054906101000a900473ffffffffffffffffffffffffffffffffffffffff1673ffffffffffffffffffffffffffffffffffffffff16633d30ffb88860006040518363ffffffff1660e01b8152600401808381526020018215151515815260200192505050600060405180830381600087803b15801561338c57600080fd5b505af11580156133a0573d6000803e3d6000fd5b5050505060038790806001815401808255809150509060018203906000526020600020016000909192909190915055507fc1f2690fd8f216be0a3ee31ec6b5d017d09403438e6e7be6d655350d5a63a461876040518082815260200191505060405180910390a15050505050505056fe50726f6475637420697320616c726561647920726561647920666f72207368697070696e67496e737566666963656e7420616d6f756e7420746f20627579207468652077696e6520626174636850726f64756374206973206e6f742079657420726563656976656420666f722072657475726ea265627a7a72315820ad698a852d52077faf7621d15773b4112d2029377391eb9e8b64cc4c2bdb3edb64736f6c63430005100032",
  "source": "pragma solidity ^0.5.0;\r\n\r\nimport \"./Product.sol\";\r\nimport \"./FillerPacker.sol\";\r\n\r\ncontract GoodsDistributor {\r\n\r\n    Product productContract;\r\n    FillerPacker fillerPackerContract; \r\n    address owner = msg.sender;\r\n\r\n    // events\r\n    event buyWineBatch(uint wineBatchId);\r\n    event wineBatchReceived(uint256 wineBatchId);\r\n    event dispatchWineBatch(uint256 wineBatchId);\r\n    event returnedWine(uint256 wineBatchId);\r\n    event refundWine(uint256 wineBatchId);\r\n    event wineBatchRemoved(uint256 wineBatchId);\r\n\r\n    uint256[] public wineBatchStorage;\r\n\r\n    //modifiers\r\n    modifier ownerOnly(uint256 productId) {\r\n        require(productContract.getCurrentOwner(productId) == msg.sender);\r\n        _;\r\n    }\r\n\r\n    constructor(Product productAddress, FillerPacker fillerPackerAddress) public {\r\n        productContract = productAddress;\r\n        fillerPackerContract = fillerPackerAddress;\r\n    }\r\n\r\n    function removeWineBatchFromStorage(uint wineBatchId) public {\r\n        if (wineBatchId >= wineBatchStorage.length) return;\r\n\r\n        for (uint i = wineBatchId; i<wineBatchStorage.length-1; i++){\r\n            wineBatchStorage[i] = wineBatchStorage[i+1];\r\n        }\r\n        wineBatchStorage.pop();\r\n    }\r\n\r\n    function materialReadyToShip(uint256 productId) public ownerOnly(productId) {\r\n        require(productContract.getReadyToShip(productId) == false, \"Product is already ready for shipping\");\r\n        productContract.setReadyToShip(productId, true);\r\n    }\r\n\r\n    //buy wine batch from fillerpacker\r\n    function buyWineFromFillerPacker(uint256 productId, string memory dispatchDate) public payable {\r\n        uint256 productPrice = productContract.getUnitPrice(productId) * productContract.getBatchQuantity(productId);\r\n        require(msg.value > productPrice, \"Insufficent amount to buy the wine batch\");\r\n        address payable targetAddress = address(uint160(productContract.getCurrentOwner(productId)));\r\n        targetAddress.transfer(productPrice);\r\n\r\n        fillerPackerContract.dispatchWineToGoodsDistributor(productId, dispatchDate, msg.sender, address(this));\r\n        emit buyWineBatch(productId);\r\n    }\r\n\r\n    //Receive From fillerpacker\r\n    function receiveWine(\r\n        uint256 productId,\r\n        string memory currentLocation,\r\n        string memory arrivalDate\r\n    ) public ownerOnly(productId) {\r\n        require(productContract.getReceived(productId) == false);\r\n        require(productContract.getCurrentContractAddress(productId) == address(this));\r\n        require(productContract.getReadyToShip(productId) == true);\r\n        (string memory location, string memory dispatchDate, string memory prevArrivalDate) = productContract.getCurrentLocation(productId);\r\n        productContract.addPreviousLocation(productId, location, dispatchDate, prevArrivalDate);\r\n        productContract.setCurrentLocation(productId, currentLocation, \"\", arrivalDate);\r\n\r\n        productContract.setReceived(productId, true);\r\n        productContract.setReadyToShip(productId, false);\r\n\r\n        wineBatchStorage.push(productId);\r\n\r\n        emit wineBatchReceived(productId);\r\n    }\r\n\r\n    function returnWine(uint256 productId) public ownerOnly(productId) {\r\n\r\n        require(productContract.getReceived(productId) == true, \"Product is not yet received for return\");\r\n\r\n        address prevOwner = productContract.getPreviousOwner(productId);\r\n        address prevContractAddress = productContract.getPreviousContractAddress(productId);\r\n\r\n        productContract.setPreviousOwner(productId, productContract.getCurrentOwner(productId));\r\n        productContract.setPreviousContractAddress(productId, productContract.getCurrentContractAddress(productId));\r\n        productContract.setCurrentContractAddress(productId, prevContractAddress);\r\n        productContract.setCurrentOwner(productId, prevOwner);\r\n\r\n        emit returnedWine(productId);\r\n    }\r\n\r\n    function refundWholesaler(uint256 productId) public payable ownerOnly(productId) {\r\n\r\n        require(productContract.getCurrentOwner(productId) == msg.sender, \"Unable to refund items\");\r\n\r\n        //Transfer back the amt\r\n        uint256 productPrice = productContract.getUnitPrice(productId) * productContract.getBatchQuantity(productId);\r\n        require(msg.value >= productPrice, \"Insufficent amount for refund\");\r\n        address payable targetAddress = address(uint160(productContract.getCurrentOwner(productId)));\r\n        targetAddress.transfer(productPrice);\r\n\r\n        emit refundWine(productId);\r\n    }\r\n\r\n    //dispatch to wholesaler\r\n    function dispatchWineToWholesaler(uint256 productId, string memory newDisbatchDate, address wholeSalerAddress, address wholeSalerContractAddress) public ownerOnly(productId) {\r\n        require(productContract.getReadyToShip(productId) == true, \"Product not ready for shipping\");\r\n        require(productContract.getCurrentContractAddress(productId) == address(this));\r\n\r\n        productContract.setPreviousOwner(productId, productContract.getCurrentOwner(productId));\r\n        productContract.setCurrentOwner(productId, wholeSalerAddress);\r\n\r\n        productContract.setPreviousContractAddress(productId, productContract.getCurrentContractAddress(productId));\r\n        productContract.setCurrentContractAddress(productId, wholeSalerContractAddress);\r\n        \r\n        productContract.setReceived(productId, false); //set received to false before sending\r\n\r\n        (string memory location, ,string memory arrivalDate) = productContract.getCurrentLocation(productId);\r\n        productContract.setCurrentLocation(productId, location, newDisbatchDate, arrivalDate);\r\n\r\n        //remove wine batch with productId from storage\r\n        for (uint i = 0; i <= wineBatchStorage.length - 1; i++) {\r\n            if (wineBatchStorage[i] == productId) {\r\n                removeWineBatchFromStorage(i);\r\n                break;\r\n            }\r\n        }\r\n       \r\n        emit dispatchWineBatch(productId);\r\n    }\r\n\r\n    function removeWineBatch(uint256 productId) public ownerOnly(productId) {\r\n        productContract.removeProduct(productId);\r\n        for (uint256 i = 0; i <= wineBatchStorage.length - 1; i++) {\r\n            if (wineBatchStorage[i] == productId) {\r\n                removeWineBatchFromStorage(i);\r\n                break;\r\n            }\r\n        }\r\n        emit wineBatchRemoved(productId);\r\n    }\r\n}\r\n",
  "sourcePath": "C:\\Users\\YC\\Documents\\shino\\IS4302\\Wine-Supplychain-Blockchain\\contracts\\GoodsDistributor.sol",
  "compiler": {
    "name": "solc",
    "version": "0.5.16+commit.9c3226ce.Emscripten.clang"
  },
  "schemaVersion": "3.4.11",
  "updatedAt": "2023-04-08T10:22:42.500Z",
  "devdoc": {
    "methods": {}
  },
  "userdoc": {
    "methods": {}
  }
}