{
  "contractName": "GoodsDistributor",
  "abi": [
    {
      "inputs": [
        {
          "internalType": "contract Product",
          "name": "productAddress",
          "type": "address"
        },
        {
          "internalType": "contract FillerPacker",
          "name": "fillerPackerAddress",
          "type": "address"
        }
      ],
      "payable": false,
      "stateMutability": "nonpayable",
      "type": "constructor"
    },
    {
      "anonymous": false,
      "inputs": [
        {
          "indexed": false,
          "internalType": "uint256",
          "name": "wineBatchId",
          "type": "uint256"
        }
      ],
      "name": "buyWineBatch",
      "type": "event"
    },
    {
      "anonymous": false,
      "inputs": [
        {
          "indexed": false,
          "internalType": "uint256",
          "name": "wineBatchId",
          "type": "uint256"
        }
      ],
      "name": "dispatchWineBatch",
      "type": "event"
    },
    {
      "anonymous": false,
      "inputs": [
        {
          "indexed": false,
          "internalType": "uint256",
          "name": "wineBatchId",
          "type": "uint256"
        }
      ],
      "name": "refundWine",
      "type": "event"
    },
    {
      "anonymous": false,
      "inputs": [
        {
          "indexed": false,
          "internalType": "uint256",
          "name": "wineBatchId",
          "type": "uint256"
        }
      ],
      "name": "returnedWine",
      "type": "event"
    },
    {
      "anonymous": false,
      "inputs": [
        {
          "indexed": false,
          "internalType": "uint256",
          "name": "wineBatchId",
          "type": "uint256"
        }
      ],
      "name": "wineBatchReceived",
      "type": "event"
    },
    {
      "constant": true,
      "inputs": [
        {
          "internalType": "uint256",
          "name": "",
          "type": "uint256"
        }
      ],
      "name": "wineBatchStorage",
      "outputs": [
        {
          "internalType": "uint256",
          "name": "",
          "type": "uint256"
        }
      ],
      "payable": false,
      "stateMutability": "view",
      "type": "function"
    },
    {
      "constant": false,
      "inputs": [
        {
          "internalType": "uint256",
          "name": "wineBatchId",
          "type": "uint256"
        }
      ],
      "name": "removeWineBatchFromStorage",
      "outputs": [],
      "payable": false,
      "stateMutability": "nonpayable",
      "type": "function"
    },
    {
      "constant": false,
      "inputs": [
        {
          "internalType": "uint256",
          "name": "productId",
          "type": "uint256"
        }
      ],
      "name": "materialReadyToShip",
      "outputs": [],
      "payable": false,
      "stateMutability": "nonpayable",
      "type": "function"
    },
    {
      "constant": false,
      "inputs": [
        {
          "internalType": "uint256",
          "name": "productId",
          "type": "uint256"
        },
        {
          "internalType": "string",
          "name": "dispatchDate",
          "type": "string"
        }
      ],
      "name": "buyWineFromFillerPacker",
      "outputs": [],
      "payable": true,
      "stateMutability": "payable",
      "type": "function"
    },
    {
      "constant": false,
      "inputs": [
        {
          "internalType": "uint256",
          "name": "productId",
          "type": "uint256"
        },
        {
          "internalType": "string",
          "name": "currentLocation",
          "type": "string"
        },
        {
          "internalType": "string",
          "name": "arrivalDate",
          "type": "string"
        }
      ],
      "name": "receiveWine",
      "outputs": [],
      "payable": false,
      "stateMutability": "nonpayable",
      "type": "function"
    },
    {
      "constant": false,
      "inputs": [
        {
          "internalType": "uint256",
          "name": "productId",
          "type": "uint256"
        }
      ],
      "name": "returnWine",
      "outputs": [],
      "payable": false,
      "stateMutability": "nonpayable",
      "type": "function"
    },
    {
      "constant": false,
      "inputs": [
        {
          "internalType": "uint256",
          "name": "productId",
          "type": "uint256"
        }
      ],
      "name": "refundWholesaler",
      "outputs": [],
      "payable": true,
      "stateMutability": "payable",
      "type": "function"
    },
    {
      "constant": false,
      "inputs": [
        {
          "internalType": "uint256",
          "name": "productId",
          "type": "uint256"
        },
        {
          "internalType": "string",
          "name": "newDisbatchDate",
          "type": "string"
        },
        {
          "internalType": "address",
          "name": "wholeSalerAddress",
          "type": "address"
        },
        {
          "internalType": "address",
          "name": "wholeSalerContractAddress",
          "type": "address"
        }
      ],
      "name": "disbatchWineToWholesaler",
      "outputs": [],
      "payable": false,
      "stateMutability": "nonpayable",
      "type": "function"
    }
  ],
  "bytecode": "0x608060405233600260006101000a81548173ffffffffffffffffffffffffffffffffffffffff021916908373ffffffffffffffffffffffffffffffffffffffff16021790555034801561005157600080fd5b506040516132ff3803806132ff8339818101604052604081101561007457600080fd5b810190808051906020019092919080519060200190929190505050816000806101000a81548173ffffffffffffffffffffffffffffffffffffffff021916908373ffffffffffffffffffffffffffffffffffffffff16021790555080600160006101000a81548173ffffffffffffffffffffffffffffffffffffffff021916908373ffffffffffffffffffffffffffffffffffffffff16021790555050506131de806101216000396000f3fe60806040526004361061007b5760003560e01c8063a4ac02391161004e578063a4ac02391461020a578063ac4ce1311461031c578063c0d7058e14610357578063c520924c146103855761007b565b806320a150021461008057806369d05d95146100bb5780639571e8e41461010a5780639aa13ab014610145575b600080fd5b34801561008c57600080fd5b506100b9600480360360208110156100a357600080fd5b81019080803590602001909291905050506104ee565b005b3480156100c757600080fd5b506100f4600480360360208110156100de57600080fd5b810190808035906020019092919050505061057e565b6040518082815260200191505060405180910390f35b34801561011657600080fd5b506101436004803603602081101561012d57600080fd5b810190808035906020019092919050505061059f565b005b6102086004803603604081101561015b57600080fd5b81019080803590602001909291908035906020019064010000000081111561018257600080fd5b82018360208201111561019457600080fd5b803590602001918460018302840111640100000000831117156101b657600080fd5b91908080601f016020809104026020016040519081016040528093929190818152602001838380828437600081840152601f19601f820116905080830192505050505050509192919290505050610d83565b005b34801561021657600080fd5b5061031a6004803603608081101561022d57600080fd5b81019080803590602001909291908035906020019064010000000081111561025457600080fd5b82018360208201111561026657600080fd5b8035906020019184600183028401116401000000008311171561028857600080fd5b91908080601f016020809104026020016040519081016040528093929190818152602001838380828437600081840152601f19601f820116905080830192505050505050509192919290803573ffffffffffffffffffffffffffffffffffffffff169060200190929190803573ffffffffffffffffffffffffffffffffffffffff1690602001909291905050506111d1565b005b34801561032857600080fd5b506103556004803603602081101561033f57600080fd5b8101908080359060200190929190505050611e5d565b005b6103836004803603602081101561036d57600080fd5b81019080803590602001909291905050506120e8565b005b34801561039157600080fd5b506104ec600480360360608110156103a857600080fd5b8101908080359060200190929190803590602001906401000000008111156103cf57600080fd5b8201836020820111156103e157600080fd5b8035906020019184600183028401116401000000008311171561040357600080fd5b91908080601f016020809104026020016040519081016040528093929190818152602001838380828437600081840152601f19601f8201169050808301925050505050505091929192908035906020019064010000000081111561046657600080fd5b82018360208201111561047857600080fd5b8035906020019184600183028401116401000000008311171561049a57600080fd5b91908080601f016020809104026020016040519081016040528093929190818152602001838380828437600081840152601f19601f820116905080830192505050505050509192919290505050612624565b005b60038054905081106104ff5761057b565b60008190505b600160038054905003811015610558576003600182018154811061052557fe5b90600052602060002001546003828154811061053d57fe5b90600052602060002001819055508080600101915050610505565b50600380548061056457fe5b600190038181906000526020600020016000905590555b50565b6003818154811061058b57fe5b906000526020600020016000915090505481565b803373ffffffffffffffffffffffffffffffffffffffff166000809054906101000a900473ffffffffffffffffffffffffffffffffffffffff1673ffffffffffffffffffffffffffffffffffffffff16637ace341b836040518263ffffffff1660e01b81526004018082815260200191505060206040518083038186803b15801561062957600080fd5b505afa15801561063d573d6000803e3d6000fd5b505050506040513d602081101561065357600080fd5b810190808051906020019092919050505073ffffffffffffffffffffffffffffffffffffffff161461068457600080fd5b600115156000809054906101000a900473ffffffffffffffffffffffffffffffffffffffff1673ffffffffffffffffffffffffffffffffffffffff16631becaefb846040518263ffffffff1660e01b81526004018082815260200191505060206040518083038186803b1580156106fa57600080fd5b505afa15801561070e573d6000803e3d6000fd5b505050506040513d602081101561072457600080fd5b810190808051906020019092919050505015151461078d576040517f08c379a00000000000000000000000000000000000000000000000000000000081526004018080602001828103825260268152602001806131846026913960400191505060405180910390fd5b60008060009054906101000a900473ffffffffffffffffffffffffffffffffffffffff1673ffffffffffffffffffffffffffffffffffffffff166256856a846040518263ffffffff1660e01b81526004018082815260200191505060206040518083038186803b15801561080057600080fd5b505afa158015610814573d6000803e3d6000fd5b505050506040513d602081101561082a57600080fd5b8101908080519060200190929190505050905060008060009054906101000a900473ffffffffffffffffffffffffffffffffffffffff1673ffffffffffffffffffffffffffffffffffffffff16635e478e6c856040518263ffffffff1660e01b81526004018082815260200191505060206040518083038186803b1580156108b157600080fd5b505afa1580156108c5573d6000803e3d6000fd5b505050506040513d60208110156108db57600080fd5b810190808051906020019092919050505090506000809054906101000a900473ffffffffffffffffffffffffffffffffffffffff1673ffffffffffffffffffffffffffffffffffffffff16630cc91022856000809054906101000a900473ffffffffffffffffffffffffffffffffffffffff1673ffffffffffffffffffffffffffffffffffffffff16637ace341b886040518263ffffffff1660e01b81526004018082815260200191505060206040518083038186803b15801561099e57600080fd5b505afa1580156109b2573d6000803e3d6000fd5b505050506040513d60208110156109c857600080fd5b81019080805190602001909291905050506040518363ffffffff1660e01b8152600401808381526020018273ffffffffffffffffffffffffffffffffffffffff1673ffffffffffffffffffffffffffffffffffffffff16815260200192505050600060405180830381600087803b158015610a4257600080fd5b505af1158015610a56573d6000803e3d6000fd5b505050506000809054906101000a900473ffffffffffffffffffffffffffffffffffffffff1673ffffffffffffffffffffffffffffffffffffffff166391f4caca856000809054906101000a900473ffffffffffffffffffffffffffffffffffffffff1673ffffffffffffffffffffffffffffffffffffffff16630772c45e886040518263ffffffff1660e01b81526004018082815260200191505060206040518083038186803b158015610b0a57600080fd5b505afa158015610b1e573d6000803e3d6000fd5b505050506040513d6020811015610b3457600080fd5b81019080805190602001909291905050506040518363ffffffff1660e01b8152600401808381526020018273ffffffffffffffffffffffffffffffffffffffff1673ffffffffffffffffffffffffffffffffffffffff16815260200192505050600060405180830381600087803b158015610bae57600080fd5b505af1158015610bc2573d6000803e3d6000fd5b505050506000809054906101000a900473ffffffffffffffffffffffffffffffffffffffff1673ffffffffffffffffffffffffffffffffffffffff166358ff352a85836040518363ffffffff1660e01b8152600401808381526020018273ffffffffffffffffffffffffffffffffffffffff1673ffffffffffffffffffffffffffffffffffffffff16815260200192505050600060405180830381600087803b158015610c6e57600080fd5b505af1158015610c82573d6000803e3d6000fd5b505050506000809054906101000a900473ffffffffffffffffffffffffffffffffffffffff1673ffffffffffffffffffffffffffffffffffffffff16636c125a6b85846040518363ffffffff1660e01b8152600401808381526020018273ffffffffffffffffffffffffffffffffffffffff1673ffffffffffffffffffffffffffffffffffffffff16815260200192505050600060405180830381600087803b158015610d2e57600080fd5b505af1158015610d42573d6000803e3d6000fd5b505050507f5e9bb8415726e0b11d7b932dbb364eb215405ab788599166da87c7cb5ef7b589846040518082815260200191505060405180910390a150505050565b60008060009054906101000a900473ffffffffffffffffffffffffffffffffffffffff1673ffffffffffffffffffffffffffffffffffffffff1663fe73e86c846040518263ffffffff1660e01b81526004018082815260200191505060206040518083038186803b158015610df757600080fd5b505afa158015610e0b573d6000803e3d6000fd5b505050506040513d6020811015610e2157600080fd5b81019080805190602001909291905050506000809054906101000a900473ffffffffffffffffffffffffffffffffffffffff1673ffffffffffffffffffffffffffffffffffffffff166364c0e52f856040518263ffffffff1660e01b81526004018082815260200191505060206040518083038186803b158015610ea457600080fd5b505afa158015610eb8573d6000803e3d6000fd5b505050506040513d6020811015610ece57600080fd5b8101908080519060200190929190505050029050803411610f3a576040517f08c379a000000000000000000000000000000000000000000000000000000000815260040180806020018281038252602881526020018061315c6028913960400191505060405180910390fd5b60008060009054906101000a900473ffffffffffffffffffffffffffffffffffffffff1673ffffffffffffffffffffffffffffffffffffffff16637ace341b856040518263ffffffff1660e01b81526004018082815260200191505060206040518083038186803b158015610fae57600080fd5b505afa158015610fc2573d6000803e3d6000fd5b505050506040513d6020811015610fd857600080fd5b810190808051906020019092919050505090508073ffffffffffffffffffffffffffffffffffffffff166108fc839081150290604051600060405180830381858888f19350505050158015611031573d6000803e3d6000fd5b50600160009054906101000a900473ffffffffffffffffffffffffffffffffffffffff1673ffffffffffffffffffffffffffffffffffffffff1663cd058d58858533306040518563ffffffff1660e01b815260040180858152602001806020018473ffffffffffffffffffffffffffffffffffffffff1673ffffffffffffffffffffffffffffffffffffffff1681526020018373ffffffffffffffffffffffffffffffffffffffff1673ffffffffffffffffffffffffffffffffffffffff168152602001828103825285818151815260200191508051906020019080838360005b8381101561112d578082015181840152602081019050611112565b50505050905090810190601f16801561115a5780820380516001836020036101000a031916815260200191505b5095505050505050600060405180830381600087803b15801561117c57600080fd5b505af1158015611190573d6000803e3d6000fd5b505050507f434286dd36291b90fc7b06f317bad22bb01ad82e0c1cba3e5072588a10d97f15846040518082815260200191505060405180910390a150505050565b833373ffffffffffffffffffffffffffffffffffffffff166000809054906101000a900473ffffffffffffffffffffffffffffffffffffffff1673ffffffffffffffffffffffffffffffffffffffff16637ace341b836040518263ffffffff1660e01b81526004018082815260200191505060206040518083038186803b15801561125b57600080fd5b505afa15801561126f573d6000803e3d6000fd5b505050506040513d602081101561128557600080fd5b810190808051906020019092919050505073ffffffffffffffffffffffffffffffffffffffff16146112b657600080fd5b600115156000809054906101000a900473ffffffffffffffffffffffffffffffffffffffff1673ffffffffffffffffffffffffffffffffffffffff166340889b4f876040518263ffffffff1660e01b81526004018082815260200191505060206040518083038186803b15801561132c57600080fd5b505afa158015611340573d6000803e3d6000fd5b505050506040513d602081101561135657600080fd5b81019080805190602001909291905050501515146113dc576040517f08c379a000000000000000000000000000000000000000000000000000000000815260040180806020018281038252601e8152602001807f50726f64756374206e6f7420726561647920666f72207368697070696e67000081525060200191505060405180910390fd5b3073ffffffffffffffffffffffffffffffffffffffff166000809054906101000a900473ffffffffffffffffffffffffffffffffffffffff1673ffffffffffffffffffffffffffffffffffffffff16630772c45e876040518263ffffffff1660e01b81526004018082815260200191505060206040518083038186803b15801561146557600080fd5b505afa158015611479573d6000803e3d6000fd5b505050506040513d602081101561148f57600080fd5b810190808051906020019092919050505073ffffffffffffffffffffffffffffffffffffffff16146114c057600080fd5b6000809054906101000a900473ffffffffffffffffffffffffffffffffffffffff1673ffffffffffffffffffffffffffffffffffffffff16630cc91022866000809054906101000a900473ffffffffffffffffffffffffffffffffffffffff1673ffffffffffffffffffffffffffffffffffffffff16637ace341b896040518263ffffffff1660e01b81526004018082815260200191505060206040518083038186803b15801561157057600080fd5b505afa158015611584573d6000803e3d6000fd5b505050506040513d602081101561159a57600080fd5b81019080805190602001909291905050506040518363ffffffff1660e01b8152600401808381526020018273ffffffffffffffffffffffffffffffffffffffff1673ffffffffffffffffffffffffffffffffffffffff16815260200192505050600060405180830381600087803b15801561161457600080fd5b505af1158015611628573d6000803e3d6000fd5b505050506000809054906101000a900473ffffffffffffffffffffffffffffffffffffffff1673ffffffffffffffffffffffffffffffffffffffff16636c125a6b86856040518363ffffffff1660e01b8152600401808381526020018273ffffffffffffffffffffffffffffffffffffffff1673ffffffffffffffffffffffffffffffffffffffff16815260200192505050600060405180830381600087803b1580156116d457600080fd5b505af11580156116e8573d6000803e3d6000fd5b505050506000809054906101000a900473ffffffffffffffffffffffffffffffffffffffff1673ffffffffffffffffffffffffffffffffffffffff166391f4caca866000809054906101000a900473ffffffffffffffffffffffffffffffffffffffff1673ffffffffffffffffffffffffffffffffffffffff16630772c45e896040518263ffffffff1660e01b81526004018082815260200191505060206040518083038186803b15801561179c57600080fd5b505afa1580156117b0573d6000803e3d6000fd5b505050506040513d60208110156117c657600080fd5b81019080805190602001909291905050506040518363ffffffff1660e01b8152600401808381526020018273ffffffffffffffffffffffffffffffffffffffff1673ffffffffffffffffffffffffffffffffffffffff16815260200192505050600060405180830381600087803b15801561184057600080fd5b505af1158015611854573d6000803e3d6000fd5b505050506000809054906101000a900473ffffffffffffffffffffffffffffffffffffffff1673ffffffffffffffffffffffffffffffffffffffff166358ff352a86846040518363ffffffff1660e01b8152600401808381526020018273ffffffffffffffffffffffffffffffffffffffff1673ffffffffffffffffffffffffffffffffffffffff16815260200192505050600060405180830381600087803b15801561190057600080fd5b505af1158015611914573d6000803e3d6000fd5b505050506060806000809054906101000a900473ffffffffffffffffffffffffffffffffffffffff1673ffffffffffffffffffffffffffffffffffffffff166323bb1835886040518263ffffffff1660e01b81526004018082815260200191505060006040518083038186803b15801561198d57600080fd5b505afa1580156119a1573d6000803e3d6000fd5b505050506040513d6000823e3d601f19601f8201168201806040525060608110156119cb57600080fd5b81019080805160405193929190846401000000008211156119eb57600080fd5b83820191506020820185811115611a0157600080fd5b8251866001820283011164010000000082111715611a1e57600080fd5b8083526020830192505050908051906020019080838360005b83811015611a52578082015181840152602081019050611a37565b50505050905090810190601f168015611a7f5780820380516001836020036101000a031916815260200191505b5060405260200180516040519392919084640100000000821115611aa257600080fd5b83820191506020820185811115611ab857600080fd5b8251866001820283011164010000000082111715611ad557600080fd5b8083526020830192505050908051906020019080838360005b83811015611b09578082015181840152602081019050611aee565b50505050905090810190601f168015611b365780820380516001836020036101000a031916815260200191505b5060405260200180516040519392919084640100000000821115611b5957600080fd5b83820191506020820185811115611b6f57600080fd5b8251866001820283011164010000000082111715611b8c57600080fd5b8083526020830192505050908051906020019080838360005b83811015611bc0578082015181840152602081019050611ba5565b50505050905090810190601f168015611bed5780820380516001836020036101000a031916815260200191505b5060405250505092505091506000809054906101000a900473ffffffffffffffffffffffffffffffffffffffff1673ffffffffffffffffffffffffffffffffffffffff1663809db2f8888489856040518563ffffffff1660e01b815260040180858152602001806020018060200180602001848103845287818151815260200191508051906020019080838360005b83811015611c97578082015181840152602081019050611c7c565b50505050905090810190601f168015611cc45780820380516001836020036101000a031916815260200191505b50848103835286818151815260200191508051906020019080838360005b83811015611cfd578082015181840152602081019050611ce2565b50505050905090810190601f168015611d2a5780820380516001836020036101000a031916815260200191505b50848103825285818151815260200191508051906020019080838360005b83811015611d63578082015181840152602081019050611d48565b50505050905090810190601f168015611d905780820380516001836020036101000a031916815260200191505b50975050505050505050600060405180830381600087803b158015611db457600080fd5b505af1158015611dc8573d6000803e3d6000fd5b5050505060008090505b600160038054905003811015611e1c578760038281548110611df057fe5b90600052602060002001541415611e0f57611e0a816104ee565b611e1c565b8080600101915050611dd2565b507f2fda023771531aa0ea12022bd05b7436a0c3d513865b0e1affd697615d022399876040518082815260200191505060405180910390a150505050505050565b803373ffffffffffffffffffffffffffffffffffffffff166000809054906101000a900473ffffffffffffffffffffffffffffffffffffffff1673ffffffffffffffffffffffffffffffffffffffff16637ace341b836040518263ffffffff1660e01b81526004018082815260200191505060206040518083038186803b158015611ee757600080fd5b505afa158015611efb573d6000803e3d6000fd5b505050506040513d6020811015611f1157600080fd5b810190808051906020019092919050505073ffffffffffffffffffffffffffffffffffffffff1614611f4257600080fd5b600015156000809054906101000a900473ffffffffffffffffffffffffffffffffffffffff1673ffffffffffffffffffffffffffffffffffffffff166340889b4f846040518263ffffffff1660e01b81526004018082815260200191505060206040518083038186803b158015611fb857600080fd5b505afa158015611fcc573d6000803e3d6000fd5b505050506040513d6020811015611fe257600080fd5b810190808051906020019092919050505015151461204b576040517f08c379a00000000000000000000000000000000000000000000000000000000081526004018080602001828103825260258152602001806131376025913960400191505060405180910390fd5b6000809054906101000a900473ffffffffffffffffffffffffffffffffffffffff1673ffffffffffffffffffffffffffffffffffffffff16633d30ffb88360016040518363ffffffff1660e01b8152600401808381526020018215151515815260200192505050600060405180830381600087803b1580156120cc57600080fd5b505af11580156120e0573d6000803e3d6000fd5b505050505050565b803373ffffffffffffffffffffffffffffffffffffffff166000809054906101000a900473ffffffffffffffffffffffffffffffffffffffff1673ffffffffffffffffffffffffffffffffffffffff16637ace341b836040518263ffffffff1660e01b81526004018082815260200191505060206040518083038186803b15801561217257600080fd5b505afa158015612186573d6000803e3d6000fd5b505050506040513d602081101561219c57600080fd5b810190808051906020019092919050505073ffffffffffffffffffffffffffffffffffffffff16146121cd57600080fd5b3373ffffffffffffffffffffffffffffffffffffffff166000809054906101000a900473ffffffffffffffffffffffffffffffffffffffff1673ffffffffffffffffffffffffffffffffffffffff16637ace341b846040518263ffffffff1660e01b81526004018082815260200191505060206040518083038186803b15801561225657600080fd5b505afa15801561226a573d6000803e3d6000fd5b505050506040513d602081101561228057600080fd5b810190808051906020019092919050505073ffffffffffffffffffffffffffffffffffffffff161461231a576040517f08c379a00000000000000000000000000000000000000000000000000000000081526004018080602001828103825260168152602001807f556e61626c6520746f20726566756e64206974656d730000000000000000000081525060200191505060405180910390fd5b60008060009054906101000a900473ffffffffffffffffffffffffffffffffffffffff1673ffffffffffffffffffffffffffffffffffffffff1663fe73e86c846040518263ffffffff1660e01b81526004018082815260200191505060206040518083038186803b15801561238e57600080fd5b505afa1580156123a2573d6000803e3d6000fd5b505050506040513d60208110156123b857600080fd5b81019080805190602001909291905050506000809054906101000a900473ffffffffffffffffffffffffffffffffffffffff1673ffffffffffffffffffffffffffffffffffffffff166364c0e52f856040518263ffffffff1660e01b81526004018082815260200191505060206040518083038186803b15801561243b57600080fd5b505afa15801561244f573d6000803e3d6000fd5b505050506040513d602081101561246557600080fd5b8101908080519060200190929190505050029050803410156124ef576040517f08c379a000000000000000000000000000000000000000000000000000000000815260040180806020018281038252601d8152602001807f496e737566666963656e7420616d6f756e7420666f7220726566756e6400000081525060200191505060405180910390fd5b60008060009054906101000a900473ffffffffffffffffffffffffffffffffffffffff1673ffffffffffffffffffffffffffffffffffffffff16637ace341b856040518263ffffffff1660e01b81526004018082815260200191505060206040518083038186803b15801561256357600080fd5b505afa158015612577573d6000803e3d6000fd5b505050506040513d602081101561258d57600080fd5b810190808051906020019092919050505090508073ffffffffffffffffffffffffffffffffffffffff166108fc839081150290604051600060405180830381858888f193505050501580156125e6573d6000803e3d6000fd5b507f376a28bb6c0a24411101d750f324a0b9a737da52d836c5231fa9cf0448efefec846040518082815260200191505060405180910390a150505050565b823373ffffffffffffffffffffffffffffffffffffffff166000809054906101000a900473ffffffffffffffffffffffffffffffffffffffff1673ffffffffffffffffffffffffffffffffffffffff16637ace341b836040518263ffffffff1660e01b81526004018082815260200191505060206040518083038186803b1580156126ae57600080fd5b505afa1580156126c2573d6000803e3d6000fd5b505050506040513d60208110156126d857600080fd5b810190808051906020019092919050505073ffffffffffffffffffffffffffffffffffffffff161461270957600080fd5b600015156000809054906101000a900473ffffffffffffffffffffffffffffffffffffffff1673ffffffffffffffffffffffffffffffffffffffff16631becaefb866040518263ffffffff1660e01b81526004018082815260200191505060206040518083038186803b15801561277f57600080fd5b505afa158015612793573d6000803e3d6000fd5b505050506040513d60208110156127a957600080fd5b81019080805190602001909291905050501515146127c657600080fd5b3073ffffffffffffffffffffffffffffffffffffffff166000809054906101000a900473ffffffffffffffffffffffffffffffffffffffff1673ffffffffffffffffffffffffffffffffffffffff16630772c45e866040518263ffffffff1660e01b81526004018082815260200191505060206040518083038186803b15801561284f57600080fd5b505afa158015612863573d6000803e3d6000fd5b505050506040513d602081101561287957600080fd5b810190808051906020019092919050505073ffffffffffffffffffffffffffffffffffffffff16146128aa57600080fd5b600115156000809054906101000a900473ffffffffffffffffffffffffffffffffffffffff1673ffffffffffffffffffffffffffffffffffffffff166340889b4f866040518263ffffffff1660e01b81526004018082815260200191505060206040518083038186803b15801561292057600080fd5b505afa158015612934573d6000803e3d6000fd5b505050506040513d602081101561294a57600080fd5b810190808051906020019092919050505015151461296757600080fd5b60608060606000809054906101000a900473ffffffffffffffffffffffffffffffffffffffff1673ffffffffffffffffffffffffffffffffffffffff166323bb1835886040518263ffffffff1660e01b81526004018082815260200191505060006040518083038186803b1580156129de57600080fd5b505afa1580156129f2573d6000803e3d6000fd5b505050506040513d6000823e3d601f19601f820116820180604052506060811015612a1c57600080fd5b8101908080516040519392919084640100000000821115612a3c57600080fd5b83820191506020820185811115612a5257600080fd5b8251866001820283011164010000000082111715612a6f57600080fd5b8083526020830192505050908051906020019080838360005b83811015612aa3578082015181840152602081019050612a88565b50505050905090810190601f168015612ad05780820380516001836020036101000a031916815260200191505b5060405260200180516040519392919084640100000000821115612af357600080fd5b83820191506020820185811115612b0957600080fd5b8251866001820283011164010000000082111715612b2657600080fd5b8083526020830192505050908051906020019080838360005b83811015612b5a578082015181840152602081019050612b3f565b50505050905090810190601f168015612b875780820380516001836020036101000a031916815260200191505b5060405260200180516040519392919084640100000000821115612baa57600080fd5b83820191506020820185811115612bc057600080fd5b8251866001820283011164010000000082111715612bdd57600080fd5b8083526020830192505050908051906020019080838360005b83811015612c11578082015181840152602081019050612bf6565b50505050905090810190601f168015612c3e5780820380516001836020036101000a031916815260200191505b506040525050509250925092506000809054906101000a900473ffffffffffffffffffffffffffffffffffffffff1673ffffffffffffffffffffffffffffffffffffffff1663d88ee329888585856040518563ffffffff1660e01b815260040180858152602001806020018060200180602001848103845287818151815260200191508051906020019080838360005b83811015612ce9578082015181840152602081019050612cce565b50505050905090810190601f168015612d165780820380516001836020036101000a031916815260200191505b50848103835286818151815260200191508051906020019080838360005b83811015612d4f578082015181840152602081019050612d34565b50505050905090810190601f168015612d7c5780820380516001836020036101000a031916815260200191505b50848103825285818151815260200191508051906020019080838360005b83811015612db5578082015181840152602081019050612d9a565b50505050905090810190601f168015612de25780820380516001836020036101000a031916815260200191505b50975050505050505050600060405180830381600087803b158015612e0657600080fd5b505af1158015612e1a573d6000803e3d6000fd5b505050506000809054906101000a900473ffffffffffffffffffffffffffffffffffffffff1673ffffffffffffffffffffffffffffffffffffffff1663809db2f88888886040518463ffffffff1660e01b815260040180848152602001806020018060200180602001848103845286818151815260200191508051906020019080838360005b83811015612ebb578082015181840152602081019050612ea0565b50505050905090810190601f168015612ee85780820380516001836020036101000a031916815260200191505b50848103835260008152602001602001848103825285818151815260200191508051906020019080838360005b83811015612f30578082015181840152602081019050612f15565b50505050905090810190601f168015612f5d5780820380516001836020036101000a031916815260200191505b509650505050505050600060405180830381600087803b158015612f8057600080fd5b505af1158015612f94573d6000803e3d6000fd5b505050506000809054906101000a900473ffffffffffffffffffffffffffffffffffffffff1673ffffffffffffffffffffffffffffffffffffffff1663dcd9d2cb8860016040518363ffffffff1660e01b8152600401808381526020018215151515815260200192505050600060405180830381600087803b15801561301957600080fd5b505af115801561302d573d6000803e3d6000fd5b505050506000809054906101000a900473ffffffffffffffffffffffffffffffffffffffff1673ffffffffffffffffffffffffffffffffffffffff16633d30ffb88860006040518363ffffffff1660e01b8152600401808381526020018215151515815260200192505050600060405180830381600087803b1580156130b257600080fd5b505af11580156130c6573d6000803e3d6000fd5b5050505060038790806001815401808255809150509060018203906000526020600020016000909192909190915055507fc1f2690fd8f216be0a3ee31ec6b5d017d09403438e6e7be6d655350d5a63a461876040518082815260200191505060405180910390a15050505050505056fe50726f6475637420697320616c726561647920726561647920666f72207368697070696e67496e737566666963656e7420616d6f756e7420746f20627579207468652077696e6520626174636850726f64756374206973206e6f742079657420726563656976656420666f722072657475726ea265627a7a72315820bdcdfbab4dbd5c0b31f178b97e914b1cc91ddddde314c2d51e18c22acc643c0b64736f6c63430005100032",
  "source": "pragma solidity ^0.5.0;\r\n\r\nimport \"./Product.sol\";\r\nimport \"./FillerPacker.sol\";\r\n\r\ncontract GoodsDistributor {\r\n\r\n    Product productContract;\r\n    FillerPacker fillerPackerContract; \r\n    address owner = msg.sender;\r\n\r\n    // events\r\n    event buyWineBatch(uint wineBatchId);\r\n    event wineBatchReceived(uint256 wineBatchId);\r\n    event dispatchWineBatch(uint256 wineBatchId);\r\n    event returnedWine(uint256 wineBatchId);\r\n    event refundWine(uint256 wineBatchId);\r\n\r\n    uint256[] public wineBatchStorage;\r\n\r\n    //modifiers\r\n    modifier ownerOnly(uint256 productId) {\r\n        require(productContract.getCurrentOwner(productId) == msg.sender);\r\n        _;\r\n    }\r\n\r\n    constructor(Product productAddress, FillerPacker fillerPackerAddress) public {\r\n        productContract = productAddress;\r\n        fillerPackerContract = fillerPackerAddress;\r\n    }\r\n\r\n    function removeWineBatchFromStorage(uint wineBatchId) public {\r\n        if (wineBatchId >= wineBatchStorage.length) return;\r\n\r\n        for (uint i = wineBatchId; i<wineBatchStorage.length-1; i++){\r\n            wineBatchStorage[i] = wineBatchStorage[i+1];\r\n        }\r\n        wineBatchStorage.pop();\r\n    }\r\n\r\n    function materialReadyToShip(uint256 productId) public ownerOnly(productId) {\r\n        require(productContract.getReadyToShip(productId) == false, \"Product is already ready for shipping\");\r\n        productContract.setReadyToShip(productId, true);\r\n    }\r\n\r\n    //buy wine batch from fillerpacker\r\n    function buyWineFromFillerPacker(uint256 productId, string memory dispatchDate) public payable {\r\n        uint256 productPrice = productContract.getUnitPrice(productId) * productContract.getBatchQuantity(productId);\r\n        require(msg.value > productPrice, \"Insufficent amount to buy the wine batch\");\r\n        address payable targetAddress = address(uint160(productContract.getCurrentOwner(productId)));\r\n        targetAddress.transfer(productPrice);\r\n\r\n        fillerPackerContract.dispatchWineToGoodsDistributor(productId, dispatchDate, msg.sender, address(this));\r\n        emit buyWineBatch(productId);\r\n    }\r\n\r\n    //Receive From fillerpacker\r\n    function receiveWine(\r\n        uint256 productId,\r\n        string memory currentLocation,\r\n        string memory arrivalDate\r\n    ) public ownerOnly(productId) {\r\n        require(productContract.getReceived(productId) == false);\r\n        require(productContract.getCurrentContractAddress(productId) == address(this));\r\n        require(productContract.getReadyToShip(productId) == true);\r\n        (string memory location, string memory dispatchDate, string memory prevArrivalDate) = productContract.getCurrentLocation(productId);\r\n        productContract.addPreviousLocation(productId, location, dispatchDate, prevArrivalDate);\r\n        productContract.setCurrentLocation(productId, currentLocation, \"\", arrivalDate);\r\n\r\n        productContract.setReceived(productId, true);\r\n        productContract.setReadyToShip(productId, false);\r\n\r\n        wineBatchStorage.push(productId);\r\n\r\n        emit wineBatchReceived(productId);\r\n    }\r\n\r\n    function returnWine(uint256 productId) public ownerOnly(productId) {\r\n\r\n        require(productContract.getReceived(productId) == true, \"Product is not yet received for return\");\r\n\r\n        address prevOwner = productContract.getPreviousOwner(productId);\r\n        address prevContractAddress = productContract.getPreviousContractAddress(productId);\r\n\r\n        productContract.setPreviousOwner(productId, productContract.getCurrentOwner(productId));\r\n        productContract.setPreviousContractAddress(productId, productContract.getCurrentContractAddress(productId));\r\n        productContract.setCurrentContractAddress(productId, prevContractAddress);\r\n        productContract.setCurrentOwner(productId, prevOwner);\r\n\r\n        emit returnedWine(productId);\r\n    }\r\n\r\n    function refundWholesaler(uint256 productId) public payable ownerOnly(productId) {\r\n\r\n        require(productContract.getCurrentOwner(productId) == msg.sender, \"Unable to refund items\");\r\n\r\n        //Transfer back the amt\r\n        uint256 productPrice = productContract.getUnitPrice(productId) * productContract.getBatchQuantity(productId);\r\n        require(msg.value >= productPrice, \"Insufficent amount for refund\");\r\n        address payable targetAddress = address(uint160(productContract.getCurrentOwner(productId)));\r\n        targetAddress.transfer(productPrice);\r\n\r\n        emit refundWine(productId);\r\n    }\r\n\r\n    //dispatch to wholesaler\r\n    function disbatchWineToWholesaler(uint256 productId, string memory newDisbatchDate, address wholeSalerAddress, address wholeSalerContractAddress) public ownerOnly(productId) {\r\n        require(productContract.getReadyToShip(productId) == true, \"Product not ready for shipping\");\r\n        require(productContract.getCurrentContractAddress(productId) == address(this));\r\n\r\n        productContract.setPreviousOwner(productId, productContract.getCurrentOwner(productId));\r\n        productContract.setCurrentOwner(productId, wholeSalerAddress);\r\n\r\n        productContract.setPreviousContractAddress(productId, productContract.getCurrentContractAddress(productId));\r\n        productContract.setCurrentContractAddress(productId, wholeSalerContractAddress);\r\n\r\n        (string memory location, ,string memory arrivalDate) = productContract.getCurrentLocation(productId);\r\n        productContract.setCurrentLocation(productId, location, newDisbatchDate, arrivalDate);\r\n\r\n        //remove wine batch with productId from storage\r\n        for (uint i = 0; i < wineBatchStorage.length - 1; i++) {\r\n            if (wineBatchStorage[i] == productId) {\r\n                removeWineBatchFromStorage(i);\r\n                break;\r\n            }\r\n        }\r\n       \r\n        emit dispatchWineBatch(productId);\r\n    }\r\n}\r\n",
  "sourcePath": "C:\\Users\\YC\\Documents\\shino\\IS4302\\Wine-Supplychain-Blockchain\\contracts\\GoodsDistributor.sol",
  "compiler": {
    "name": "solc",
    "version": "0.5.16+commit.9c3226ce.Emscripten.clang"
  },
  "schemaVersion": "3.4.11",
  "updatedAt": "2023-04-08T09:43:33.041Z",
  "networkType": "ethereum",
  "devdoc": {
    "methods": {}
  },
  "userdoc": {
    "methods": {}
  }
}