{
  "contractName": "GoodsDistributor",
  "abi": [
    {
      "anonymous": false,
      "inputs": [
        {
          "indexed": false,
          "internalType": "uint256",
          "name": "distributorId",
          "type": "uint256"
        }
      ],
      "name": "addedGoodsDistributor",
      "type": "event"
    },
    {
      "anonymous": false,
      "inputs": [
        {
          "indexed": false,
          "internalType": "uint256",
          "name": "wineBatchId",
          "type": "uint256"
        },
        {
          "indexed": false,
          "internalType": "string",
          "name": "newLabel",
          "type": "string"
        },
        {
          "indexed": false,
          "internalType": "address",
          "name": "goodsDistributor",
          "type": "address"
        }
      ],
      "name": "changeLabel",
      "type": "event"
    },
    {
      "anonymous": false,
      "inputs": [
        {
          "indexed": false,
          "internalType": "uint256",
          "name": "wineBatchId",
          "type": "uint256"
        },
        {
          "indexed": false,
          "internalType": "address",
          "name": "goodsDistributor",
          "type": "address"
        }
      ],
      "name": "receivedWineBatch",
      "type": "event"
    },
    {
      "anonymous": false,
      "inputs": [
        {
          "indexed": false,
          "internalType": "uint256",
          "name": "distributorId",
          "type": "uint256"
        }
      ],
      "name": "removedGoodsDistributor",
      "type": "event"
    },
    {
      "anonymous": false,
      "inputs": [
        {
          "indexed": false,
          "internalType": "uint256",
          "name": "wineBatchId",
          "type": "uint256"
        },
        {
          "indexed": false,
          "internalType": "address",
          "name": "wholeSaler",
          "type": "address"
        }
      ],
      "name": "sentWineBatch",
      "type": "event"
    },
    {
      "constant": true,
      "inputs": [
        {
          "internalType": "uint256",
          "name": "",
          "type": "uint256"
        }
      ],
      "name": "goodsDistributors",
      "outputs": [
        {
          "internalType": "address",
          "name": "",
          "type": "address"
        }
      ],
      "payable": false,
      "stateMutability": "view",
      "type": "function"
    },
    {
      "constant": true,
      "inputs": [],
      "name": "numOfGoodsDistributor",
      "outputs": [
        {
          "internalType": "uint256",
          "name": "",
          "type": "uint256"
        }
      ],
      "payable": false,
      "stateMutability": "view",
      "type": "function"
    },
    {
      "constant": true,
      "inputs": [
        {
          "internalType": "uint256",
          "name": "",
          "type": "uint256"
        }
      ],
      "name": "wineBatchLabel",
      "outputs": [
        {
          "internalType": "string",
          "name": "",
          "type": "string"
        }
      ],
      "payable": false,
      "stateMutability": "view",
      "type": "function"
    },
    {
      "constant": true,
      "inputs": [
        {
          "internalType": "uint256",
          "name": "",
          "type": "uint256"
        }
      ],
      "name": "wineBatchRecieve",
      "outputs": [
        {
          "internalType": "uint256",
          "name": "",
          "type": "uint256"
        }
      ],
      "payable": false,
      "stateMutability": "view",
      "type": "function"
    },
    {
      "constant": true,
      "inputs": [
        {
          "internalType": "uint256",
          "name": "",
          "type": "uint256"
        }
      ],
      "name": "wineBatchRelabel",
      "outputs": [
        {
          "internalType": "address",
          "name": "",
          "type": "address"
        }
      ],
      "payable": false,
      "stateMutability": "view",
      "type": "function"
    },
    {
      "constant": true,
      "inputs": [
        {
          "internalType": "uint256",
          "name": "",
          "type": "uint256"
        }
      ],
      "name": "wineBatchSent",
      "outputs": [
        {
          "internalType": "uint256",
          "name": "",
          "type": "uint256"
        }
      ],
      "payable": false,
      "stateMutability": "view",
      "type": "function"
    },
    {
      "constant": true,
      "inputs": [
        {
          "internalType": "uint256",
          "name": "",
          "type": "uint256"
        }
      ],
      "name": "wineBatchStorage",
      "outputs": [
        {
          "internalType": "uint256",
          "name": "",
          "type": "uint256"
        }
      ],
      "payable": false,
      "stateMutability": "view",
      "type": "function"
    },
    {
      "constant": false,
      "inputs": [
        {
          "internalType": "address",
          "name": "accountNumber",
          "type": "address"
        }
      ],
      "name": "addGoodsDistributor",
      "outputs": [
        {
          "internalType": "uint256",
          "name": "",
          "type": "uint256"
        }
      ],
      "payable": false,
      "stateMutability": "nonpayable",
      "type": "function"
    },
    {
      "constant": true,
      "inputs": [
        {
          "internalType": "address",
          "name": "accountNumber",
          "type": "address"
        }
      ],
      "name": "checkGoodsDistributorExist",
      "outputs": [
        {
          "internalType": "bool",
          "name": "",
          "type": "bool"
        }
      ],
      "payable": false,
      "stateMutability": "view",
      "type": "function"
    },
    {
      "constant": false,
      "inputs": [
        {
          "internalType": "address",
          "name": "accountNumber",
          "type": "address"
        }
      ],
      "name": "removeGoodsDistributor",
      "outputs": [
        {
          "internalType": "bool",
          "name": "",
          "type": "bool"
        }
      ],
      "payable": false,
      "stateMutability": "nonpayable",
      "type": "function"
    },
    {
      "constant": true,
      "inputs": [
        {
          "internalType": "address",
          "name": "accountNumber",
          "type": "address"
        }
      ],
      "name": "isGoodsDistributor",
      "outputs": [
        {
          "internalType": "bool",
          "name": "",
          "type": "bool"
        }
      ],
      "payable": false,
      "stateMutability": "view",
      "type": "function"
    },
    {
      "constant": false,
      "inputs": [
        {
          "internalType": "uint256",
          "name": "wineBatchId",
          "type": "uint256"
        },
        {
          "internalType": "string",
          "name": "newLabel",
          "type": "string"
        },
        {
          "internalType": "address",
          "name": "accountNumber",
          "type": "address"
        }
      ],
      "name": "relabelWineBatch",
      "outputs": [],
      "payable": false,
      "stateMutability": "nonpayable",
      "type": "function"
    },
    {
      "constant": false,
      "inputs": [
        {
          "internalType": "uint256",
          "name": "wineBatchId",
          "type": "uint256"
        },
        {
          "internalType": "address",
          "name": "goodsDistributor",
          "type": "address"
        }
      ],
      "name": "sendWineToWholeSaler",
      "outputs": [],
      "payable": false,
      "stateMutability": "nonpayable",
      "type": "function"
    }
  ],
  "bytecode": "0x6080604052600060015534801561001557600080fd5b50610fd1806100256000396000f3fe608060405234801561001057600080fd5b50600436106100ce5760003560e01c8063b4106a901161008c578063babaa12f11610066578063babaa12f14610410578063c1416d011461047e578063c2edd707146104d6578063fc4741dd14610532576100ce565b8063b4106a90146102bf578063b465699a146103a4578063b4cb615e146103f2576100ce565b8062e91304146100d35780631eb1dab114610115578063625919c91461018357806369d05d95146101df5780637386a0ea146102215780639357ecf314610263575b600080fd5b6100ff600480360360208110156100e957600080fd5b81019080803590602001909291905050506105d9565b6040518082815260200191505060405180910390f35b6101416004803603602081101561012b57600080fd5b81019080803590602001909291905050506105f1565b604051808273ffffffffffffffffffffffffffffffffffffffff1673ffffffffffffffffffffffffffffffffffffffff16815260200191505060405180910390f35b6101c56004803603602081101561019957600080fd5b81019080803573ffffffffffffffffffffffffffffffffffffffff169060200190929190505050610624565b604051808215151515815260200191505060405180910390f35b61020b600480360360208110156101f557600080fd5b81019080803590602001909291905050506107ac565b6040518082815260200191505060405180910390f35b61024d6004803603602081101561023757600080fd5b81019080803590602001909291905050506107cd565b6040518082815260200191505060405180910390f35b6102a56004803603602081101561027957600080fd5b81019080803573ffffffffffffffffffffffffffffffffffffffff1690602001909291905050506107e5565b604051808215151515815260200191505060405180910390f35b6103a2600480360360608110156102d557600080fd5b8101908080359060200190929190803590602001906401000000008111156102fc57600080fd5b82018360208201111561030e57600080fd5b8035906020019184600183028401116401000000008311171561033057600080fd5b91908080601f016020809104026020016040519081016040528093929190818152602001838380828437600081840152601f19601f820116905080830192505050505050509192919290803573ffffffffffffffffffffffffffffffffffffffff16906020019092919050505061088a565b005b6103f0600480360360408110156103ba57600080fd5b8101908080359060200190929190803573ffffffffffffffffffffffffffffffffffffffff169060200190929190505050610a46565b005b6103fa610c6e565b6040518082815260200191505060405180910390f35b61043c6004803603602081101561042657600080fd5b8101908080359060200190929190505050610c74565b604051808273ffffffffffffffffffffffffffffffffffffffff1673ffffffffffffffffffffffffffffffffffffffff16815260200191505060405180910390f35b6104c06004803603602081101561049457600080fd5b81019080803573ffffffffffffffffffffffffffffffffffffffff169060200190929190505050610ca7565b6040518082815260200191505060405180910390f35b610518600480360360208110156104ec57600080fd5b81019080803573ffffffffffffffffffffffffffffffffffffffff169060200190929190505050610dcc565b604051808215151515815260200191505060405180910390f35b61055e6004803603602081101561054857600080fd5b8101908080359060200190929190505050610df5565b6040518080602001828103825283818151815260200191508051906020019080838360005b8381101561059e578082015181840152602081019050610583565b50505050905090810190601f1680156105cb5780820380516001836020036101000a031916815260200191505b509250505060405180910390f35b60046020528060005260406000206000915090505481565b60026020528060005260406000206000915054906101000a900473ffffffffffffffffffffffffffffffffffffffff1681565b600060011515610633836107e5565b15151461068b576040517f08c379a0000000000000000000000000000000000000000000000000000000008152600401808060200182810382526021815260200180610f4b6021913960400191505060405180910390fd5b600080905060008090505b600154811161076e578373ffffffffffffffffffffffffffffffffffffffff166002600083815260200190815260200160002060009054906101000a900473ffffffffffffffffffffffffffffffffffffffff1673ffffffffffffffffffffffffffffffffffffffff1614156107615760006002600083815260200190815260200160002060006101000a81548173ffffffffffffffffffffffffffffffffffffffff021916908373ffffffffffffffffffffffffffffffffffffffff16021790555080915061076e565b8080600101915050610696565b507f595c7550c655b6e98cc6142e53222e4f41bf444893a1089386181ffafa63624b816040518082815260200191505060405180910390a150919050565b600781815481106107b957fe5b906000526020600020016000915090505481565b60056020528060005260406000206000915090505481565b60008060015411156108805760008090505b600154811161087e578273ffffffffffffffffffffffffffffffffffffffff166002600083815260200190815260200160002060009054906101000a900473ffffffffffffffffffffffffffffffffffffffff1673ffffffffffffffffffffffffffffffffffffffff161415610871576001915050610885565b80806001019150506107f7565b505b600090505b919050565b6001151561089782610dcc565b1515146108ef576040517f08c379a0000000000000000000000000000000000000000000000000000000008152600401808060200182810382526031815260200180610f6c6031913960400191505060405180910390fd5b81600360008581526020019081526020016000209080519060200190610916929190610ea5565b50806006600085815260200190815260200160002060006101000a81548173ffffffffffffffffffffffffffffffffffffffff021916908373ffffffffffffffffffffffffffffffffffffffff1602179055507fd13afe08aa1094e556973aead925066d029d8e586fa2462d79f73020cfd064f683838360405180848152602001806020018373ffffffffffffffffffffffffffffffffffffffff1673ffffffffffffffffffffffffffffffffffffffff168152602001828103825284818151815260200191508051906020019080838360005b83811015610a055780820151818401526020810190506109ea565b50505050905090810190601f168015610a325780820380516001836020036101000a031916815260200191505b5094505050505060405180910390a1505050565b6000809054906101000a900473ffffffffffffffffffffffffffffffffffffffff1673ffffffffffffffffffffffffffffffffffffffff166391f4caca83306040518363ffffffff1660e01b8152600401808381526020018273ffffffffffffffffffffffffffffffffffffffff1673ffffffffffffffffffffffffffffffffffffffff16815260200192505050600060405180830381600087803b158015610aee57600080fd5b505af1158015610b02573d6000803e3d6000fd5b5050505060008090505b600780549050811015610b65578260078281548110610b2757fe5b90600052602060002001541415610b585760078181548110610b4557fe5b9060005260206000200160009055610b65565b8080600101915050610b0c565b506000809054906101000a900473ffffffffffffffffffffffffffffffffffffffff1673ffffffffffffffffffffffffffffffffffffffff1663dcd9d2cb8360006040518363ffffffff1660e01b8152600401808381526020018215151515815260200192505050600060405180830381600087803b158015610be757600080fd5b505af1158015610bfb573d6000803e3d6000fd5b505050507fb2122ff15547cdb1fe5075c369845d88c44cf9acc941c4e7988f54a3695cb76d8282604051808381526020018273ffffffffffffffffffffffffffffffffffffffff1673ffffffffffffffffffffffffffffffffffffffff1681526020019250505060405180910390a15050565b60015481565b60066020528060005260406000206000915054906101000a900473ffffffffffffffffffffffffffffffffffffffff1681565b6000801515610cb5836107e5565b151514610d2a576040517f08c379a00000000000000000000000000000000000000000000000000000000081526004018080602001828103825260208152602001807f476f6f6473206469737472696275746f7220616c72656164792065786973742181525060200191505060405180910390fd5b8160026000600154815260200190815260200160002060006101000a81548173ffffffffffffffffffffffffffffffffffffffff021916908373ffffffffffffffffffffffffffffffffffffffff1602179055507f40ddaeabea9b487d82ed84cb8a931826829f07793d9f674f57dc6daa1c552c556001546040518082815260200191505060405180910390a160018060008282540192505081905550919050565b600080610dd8836107e5565b90508015610dea576001915050610df0565b60009150505b919050565b60036020528060005260406000206000915090508054600181600116156101000203166002900480601f016020809104026020016040519081016040528092919081815260200182805460018160011615610100020316600290048015610e9d5780601f10610e7257610100808354040283529160200191610e9d565b820191906000526020600020905b815481529060010190602001808311610e8057829003601f168201915b505050505081565b828054600181600116156101000203166002900490600052602060002090601f016020900481019282601f10610ee657805160ff1916838001178555610f14565b82800160010185558215610f14579182015b82811115610f13578251825591602001919060010190610ef8565b5b509050610f219190610f25565b5090565b610f4791905b80821115610f43576000816000905550600101610f2b565b5090565b9056fe476f6f6473206469737472696275746f7220646f6573206e6f7420657869737421526571756972657320676f6f6473206469737472696275746f7220746f2072656c6162656c2077696e6520626174636821a265627a7a72315820b8602798764a529828a976f007699532b8bd427a97f82a6aab64ff26bd516c9264736f6c63430005100032",
  "source": "pragma solidity ^0.5.0;\n\nimport \"./Product.sol\";\n\ncontract GoodsDistributor {\n    event receivedWineBatch(uint256 wineBatchId, address goodsDistributor);\n    event sentWineBatch(uint256 wineBatchId, address wholeSaler);\n    event changeLabel(\n        uint256 wineBatchId,\n        string newLabel,\n        address goodsDistributor\n    );\n    event addedGoodsDistributor(uint256 distributorId);\n    event removedGoodsDistributor(uint256 distributorId);\n\n    Product productContract;\n    //FillerPacker fillerPackerContract;\n    uint256 public numOfGoodsDistributor = 0;\n    mapping(uint256 => address) public goodsDistributors; //mapping the id of the goods distributors to their addresses\n    mapping(uint256 => string) public wineBatchLabel;\n    mapping(uint256 => uint256) public wineBatchRecieve; //mapping the id of the wine batch recieved and the id of the goods distributor recieving the wine batch\n    mapping(uint256 => uint256) public wineBatchSent; //mapping the id of the wine batch sent and the id of the goods distributor sending the wine batch\n    mapping(uint256 => address) public wineBatchRelabel; //mapping the id of the wine batch and the address of the goods distributor who relabeled the wine batch\n    uint256[] public wineBatchStorage;\n\n    //function to add a new goods distributor\n    function addGoodsDistributor(\n        address accountNumber\n    ) public returns (uint256) {\n        require(\n            checkGoodsDistributorExist(accountNumber) == false,\n            \"Goods distributor already exist!\"\n        );\n        goodsDistributors[numOfGoodsDistributor] = accountNumber;\n        emit addedGoodsDistributor(numOfGoodsDistributor);\n        numOfGoodsDistributor += 1;\n    }\n\n    //check whether goods distributor already exist. Returns true if exist and false otherwise\n    function checkGoodsDistributorExist(\n        address accountNumber\n    ) public view returns (bool) {\n        if (numOfGoodsDistributor > 0) {\n            for (uint i = 0; i <= numOfGoodsDistributor; i++) {\n                if (goodsDistributors[i] == accountNumber) {\n                    return true;\n                }\n            }\n        }\n        return false;\n    }\n\n    function removeGoodsDistributor(\n        address accountNumber\n    ) public returns (bool) {\n        require(\n            checkGoodsDistributorExist(accountNumber) == true,\n            \"Goods distributor does not exist!\"\n        );\n        uint256 removedId = 0;\n        for (uint i = 0; i <= numOfGoodsDistributor; i++) {\n            if (goodsDistributors[i] == accountNumber) {\n                goodsDistributors[i] = address(0);\n                removedId = i;\n                break;\n            }\n        }\n        emit removedGoodsDistributor(removedId);\n    }\n\n    function isGoodsDistributor(\n        address accountNumber\n    ) public view returns (bool) {\n        bool exist = checkGoodsDistributorExist(accountNumber);\n        if (exist) {\n            return true;\n        } else {\n            return false;\n        }\n    }\n\n    function relabelWineBatch(\n        uint256 wineBatchId,\n        string memory newLabel,\n        address accountNumber\n    ) public {\n        require(\n            isGoodsDistributor(accountNumber) == true,\n            \"Requires goods distributor to relabel wine batch!\"\n        );\n        wineBatchLabel[wineBatchId] = newLabel;\n        wineBatchRelabel[wineBatchId] = accountNumber;\n        emit changeLabel(wineBatchId, newLabel, accountNumber);\n    }\n\n    // function receiveWineBatchFromFiller(\n    //     uint256 wineBatchId,\n    //     address goodsDistributor,\n    //     string memory newLocation,\n    //     string memory newDisbatchDate,\n    //     string memory newExpectedArrivalDate,\n    //     string memory newArrivalDate,\n    //     string memory prevLocation, \n    //     string memory prevDisbatchDate, \n    //     string memory prevExpectedArrivalDate, \n    //     string memory prevArrivalDate\n    // ) public payable {\n    //     require(\n    //         msg.value == productContract.getUnitPrice(wineBatchId),\n    //         \"Insufficient payment!\"\n    //     );\n    //     //fillerPackerContract.sendWineToGoodsDistributor(wineBatchId);\n    //     productContract.setCurrentLocation(\n    //         wineBatchId,\n    //         newLocation,\n    //         newDisbatchDate,\n    //         newExpectedArrivalDate,\n    //         newArrivalDate\n    //     );\n    //     productContract.addPreviousLocation(\n    //         wineBatchId,\n    //         prevLocation,\n    //         prevDisbatchDate,\n    //         prevExpectedArrivalDate,\n    //         prevArrivalDate\n    //     );\n    //     productContract.setCurrentContractAddress(wineBatchId, address(this));\n    //     productContract.setReceived(wineBatchId, true);\n    //     wineBatchStorage.push(wineBatchId);\n    //     emit receivedWineBatch(wineBatchId, goodsDistributor);\n    // }\n\n    function sendWineToWholeSaler(uint256 wineBatchId, address goodsDistributor) public{\n        productContract.setPreviousContractAddress(wineBatchId, address(this));\n        for (uint i = 0; i < wineBatchStorage.length; i++) {\n            if (wineBatchStorage[i] == wineBatchId) {\n                delete wineBatchStorage[i];\n                break;\n            }\n        }\n        productContract.setReceived(wineBatchId, false);\n        emit sentWineBatch(wineBatchId, goodsDistributor);\n    }\n}\n",
  "sourcePath": "/Users/jarrentoh/Documents/GitHub/Wine Supplychain Blockchain/contracts/GoodsDistributor.sol",
  "compiler": {
    "name": "solc",
    "version": "0.5.16+commit.9c3226ce.Emscripten.clang"
  },
  "schemaVersion": "3.4.11",
  "updatedAt": "2023-04-01T03:41:16.881Z",
  "networkType": "ethereum",
  "devdoc": {
    "methods": {}
  },
  "userdoc": {
    "methods": {}
  }
}