{
  "contractName": "Product",
  "abi": [
    {
      "anonymous": false,
      "inputs": [
        {
          "indexed": false,
          "internalType": "uint256",
          "name": "newProductId",
          "type": "uint256"
        },
        {
          "indexed": false,
          "internalType": "string",
          "name": "name",
          "type": "string"
        },
        {
          "indexed": false,
          "internalType": "address",
          "name": "currentContractAddress",
          "type": "address"
        }
      ],
      "name": "ProductCreated",
      "type": "event"
    },
    {
      "constant": true,
      "inputs": [],
      "name": "noLocation",
      "outputs": [
        {
          "internalType": "uint256",
          "name": "",
          "type": "uint256"
        }
      ],
      "payable": false,
      "stateMutability": "view",
      "type": "function"
    },
    {
      "constant": true,
      "inputs": [],
      "name": "noProduct",
      "outputs": [
        {
          "internalType": "uint256",
          "name": "",
          "type": "uint256"
        }
      ],
      "payable": false,
      "stateMutability": "view",
      "type": "function"
    },
    {
      "constant": false,
      "inputs": [
        {
          "internalType": "string",
          "name": "name",
          "type": "string"
        },
        {
          "internalType": "address",
          "name": "currentContractAddress",
          "type": "address"
        },
        {
          "internalType": "string",
          "name": "placeOfOrigin",
          "type": "string"
        },
        {
          "internalType": "string",
          "name": "productionDate",
          "type": "string"
        },
        {
          "internalType": "string",
          "name": "expirationDate",
          "type": "string"
        },
        {
          "internalType": "uint256",
          "name": "unitQuantity",
          "type": "uint256"
        },
        {
          "internalType": "string",
          "name": "unitQuantityType",
          "type": "string"
        },
        {
          "internalType": "uint256",
          "name": "batchQuantity",
          "type": "uint256"
        },
        {
          "internalType": "uint256",
          "name": "unitPrice",
          "type": "uint256"
        },
        {
          "internalType": "string",
          "name": "category",
          "type": "string"
        },
        {
          "internalType": "string",
          "name": "currentPhysicalLocation",
          "type": "string"
        }
      ],
      "name": "createProduct",
      "outputs": [
        {
          "internalType": "uint256",
          "name": "",
          "type": "uint256"
        }
      ],
      "payable": false,
      "stateMutability": "nonpayable",
      "type": "function"
    },
    {
      "constant": false,
      "inputs": [
        {
          "internalType": "uint256",
          "name": "mainProductId",
          "type": "uint256"
        },
        {
          "internalType": "uint256",
          "name": "productId",
          "type": "uint256"
        }
      ],
      "name": "addComponentProduct",
      "outputs": [],
      "payable": false,
      "stateMutability": "nonpayable",
      "type": "function"
    },
    {
      "constant": false,
      "inputs": [
        {
          "internalType": "uint256",
          "name": "productId",
          "type": "uint256"
        },
        {
          "internalType": "address",
          "name": "newOwner",
          "type": "address"
        },
        {
          "internalType": "address",
          "name": "newContractAdddress",
          "type": "address"
        }
      ],
      "name": "transferProduct",
      "outputs": [],
      "payable": false,
      "stateMutability": "nonpayable",
      "type": "function"
    },
    {
      "constant": false,
      "inputs": [
        {
          "internalType": "uint256",
          "name": "productId",
          "type": "uint256"
        }
      ],
      "name": "removeProduct",
      "outputs": [],
      "payable": false,
      "stateMutability": "nonpayable",
      "type": "function"
    },
    {
      "constant": true,
      "inputs": [
        {
          "internalType": "uint256",
          "name": "productId",
          "type": "uint256"
        }
      ],
      "name": "getProductName",
      "outputs": [
        {
          "internalType": "string",
          "name": "",
          "type": "string"
        }
      ],
      "payable": false,
      "stateMutability": "view",
      "type": "function"
    },
    {
      "constant": true,
      "inputs": [
        {
          "internalType": "uint256",
          "name": "productId",
          "type": "uint256"
        }
      ],
      "name": "getCurrentOwner",
      "outputs": [
        {
          "internalType": "address",
          "name": "",
          "type": "address"
        }
      ],
      "payable": false,
      "stateMutability": "view",
      "type": "function"
    },
    {
      "constant": false,
      "inputs": [
        {
          "internalType": "uint256",
          "name": "productId",
          "type": "uint256"
        },
        {
          "internalType": "address",
          "name": "newOwner",
          "type": "address"
        }
      ],
      "name": "setCurrentOwner",
      "outputs": [],
      "payable": false,
      "stateMutability": "nonpayable",
      "type": "function"
    },
    {
      "constant": true,
      "inputs": [
        {
          "internalType": "uint256",
          "name": "productId",
          "type": "uint256"
        }
      ],
      "name": "getCurrentContractAddress",
      "outputs": [
        {
          "internalType": "address",
          "name": "",
          "type": "address"
        }
      ],
      "payable": false,
      "stateMutability": "view",
      "type": "function"
    },
    {
      "constant": false,
      "inputs": [
        {
          "internalType": "uint256",
          "name": "productId",
          "type": "uint256"
        },
        {
          "internalType": "address",
          "name": "newContractAddress",
          "type": "address"
        }
      ],
      "name": "setCurrentContractAddress",
      "outputs": [],
      "payable": false,
      "stateMutability": "nonpayable",
      "type": "function"
    },
    {
      "constant": true,
      "inputs": [
        {
          "internalType": "uint256",
          "name": "productId",
          "type": "uint256"
        }
      ],
      "name": "getPreviousOwner",
      "outputs": [
        {
          "internalType": "address",
          "name": "",
          "type": "address"
        }
      ],
      "payable": false,
      "stateMutability": "view",
      "type": "function"
    },
    {
      "constant": false,
      "inputs": [
        {
          "internalType": "uint256",
          "name": "productId",
          "type": "uint256"
        },
        {
          "internalType": "address",
          "name": "newPreviousOwner",
          "type": "address"
        }
      ],
      "name": "setPreviousOwner",
      "outputs": [],
      "payable": false,
      "stateMutability": "nonpayable",
      "type": "function"
    },
    {
      "constant": true,
      "inputs": [
        {
          "internalType": "uint256",
          "name": "productId",
          "type": "uint256"
        }
      ],
      "name": "getPreviousContractAddress",
      "outputs": [
        {
          "internalType": "address",
          "name": "",
          "type": "address"
        }
      ],
      "payable": false,
      "stateMutability": "view",
      "type": "function"
    },
    {
      "constant": false,
      "inputs": [
        {
          "internalType": "uint256",
          "name": "productId",
          "type": "uint256"
        },
        {
          "internalType": "address",
          "name": "newPreviousContractAddress",
          "type": "address"
        }
      ],
      "name": "setPreviousContractAddress",
      "outputs": [],
      "payable": false,
      "stateMutability": "nonpayable",
      "type": "function"
    },
    {
      "constant": true,
      "inputs": [
        {
          "internalType": "uint256",
          "name": "productId",
          "type": "uint256"
        }
      ],
      "name": "getPlaceOfOrigin",
      "outputs": [
        {
          "internalType": "string",
          "name": "",
          "type": "string"
        }
      ],
      "payable": false,
      "stateMutability": "view",
      "type": "function"
    },
    {
      "constant": false,
      "inputs": [
        {
          "internalType": "uint256",
          "name": "productId",
          "type": "uint256"
        },
        {
          "internalType": "string",
          "name": "newPlaceOfOrigin",
          "type": "string"
        }
      ],
      "name": "setPlaceOfOrigin",
      "outputs": [],
      "payable": false,
      "stateMutability": "nonpayable",
      "type": "function"
    },
    {
      "constant": true,
      "inputs": [
        {
          "internalType": "uint256",
          "name": "productId",
          "type": "uint256"
        }
      ],
      "name": "getProductionDate",
      "outputs": [
        {
          "internalType": "string",
          "name": "",
          "type": "string"
        }
      ],
      "payable": false,
      "stateMutability": "view",
      "type": "function"
    },
    {
      "constant": false,
      "inputs": [
        {
          "internalType": "uint256",
          "name": "productId",
          "type": "uint256"
        },
        {
          "internalType": "string",
          "name": "newProductionDate",
          "type": "string"
        }
      ],
      "name": "setProductionDate",
      "outputs": [],
      "payable": false,
      "stateMutability": "nonpayable",
      "type": "function"
    },
    {
      "constant": true,
      "inputs": [
        {
          "internalType": "uint256",
          "name": "productId",
          "type": "uint256"
        }
      ],
      "name": "getExpirationDate",
      "outputs": [
        {
          "internalType": "string",
          "name": "",
          "type": "string"
        }
      ],
      "payable": false,
      "stateMutability": "view",
      "type": "function"
    },
    {
      "constant": false,
      "inputs": [
        {
          "internalType": "uint256",
          "name": "productId",
          "type": "uint256"
        },
        {
          "internalType": "string",
          "name": "newExpirationDate",
          "type": "string"
        }
      ],
      "name": "setExpirationDate",
      "outputs": [],
      "payable": false,
      "stateMutability": "nonpayable",
      "type": "function"
    },
    {
      "constant": true,
      "inputs": [
        {
          "internalType": "uint256",
          "name": "productId",
          "type": "uint256"
        }
      ],
      "name": "getUnitQuantity",
      "outputs": [
        {
          "internalType": "uint256",
          "name": "",
          "type": "uint256"
        }
      ],
      "payable": false,
      "stateMutability": "view",
      "type": "function"
    },
    {
      "constant": false,
      "inputs": [
        {
          "internalType": "uint256",
          "name": "productId",
          "type": "uint256"
        },
        {
          "internalType": "uint256",
          "name": "newUnitQuantity",
          "type": "uint256"
        }
      ],
      "name": "setUnitQuantity",
      "outputs": [],
      "payable": false,
      "stateMutability": "nonpayable",
      "type": "function"
    },
    {
      "constant": true,
      "inputs": [
        {
          "internalType": "uint256",
          "name": "productId",
          "type": "uint256"
        }
      ],
      "name": "getUnitQuantityType",
      "outputs": [
        {
          "internalType": "string",
          "name": "",
          "type": "string"
        }
      ],
      "payable": false,
      "stateMutability": "view",
      "type": "function"
    },
    {
      "constant": false,
      "inputs": [
        {
          "internalType": "uint256",
          "name": "productId",
          "type": "uint256"
        },
        {
          "internalType": "string",
          "name": "newUnitQuantityType",
          "type": "string"
        }
      ],
      "name": "setUnitQuantityType",
      "outputs": [],
      "payable": false,
      "stateMutability": "nonpayable",
      "type": "function"
    },
    {
      "constant": true,
      "inputs": [
        {
          "internalType": "uint256",
          "name": "productId",
          "type": "uint256"
        }
      ],
      "name": "getBatchQuantity",
      "outputs": [
        {
          "internalType": "uint256",
          "name": "",
          "type": "uint256"
        }
      ],
      "payable": false,
      "stateMutability": "view",
      "type": "function"
    },
    {
      "constant": false,
      "inputs": [
        {
          "internalType": "uint256",
          "name": "productId",
          "type": "uint256"
        },
        {
          "internalType": "uint256",
          "name": "newBatchQuantity",
          "type": "uint256"
        }
      ],
      "name": "setBatchQuantity",
      "outputs": [],
      "payable": false,
      "stateMutability": "nonpayable",
      "type": "function"
    },
    {
      "constant": true,
      "inputs": [
        {
          "internalType": "uint256",
          "name": "productId",
          "type": "uint256"
        }
      ],
      "name": "getUnitPrice",
      "outputs": [
        {
          "internalType": "uint256",
          "name": "",
          "type": "uint256"
        }
      ],
      "payable": false,
      "stateMutability": "view",
      "type": "function"
    },
    {
      "constant": false,
      "inputs": [
        {
          "internalType": "uint256",
          "name": "productId",
          "type": "uint256"
        },
        {
          "internalType": "uint256",
          "name": "newUnitPrice",
          "type": "uint256"
        }
      ],
      "name": "setUnitPrice",
      "outputs": [],
      "payable": false,
      "stateMutability": "nonpayable",
      "type": "function"
    },
    {
      "constant": true,
      "inputs": [
        {
          "internalType": "uint256",
          "name": "productId",
          "type": "uint256"
        }
      ],
      "name": "getCategory",
      "outputs": [
        {
          "internalType": "string",
          "name": "",
          "type": "string"
        }
      ],
      "payable": false,
      "stateMutability": "view",
      "type": "function"
    },
    {
      "constant": false,
      "inputs": [
        {
          "internalType": "uint256",
          "name": "productId",
          "type": "uint256"
        },
        {
          "internalType": "string",
          "name": "newCategory",
          "type": "string"
        }
      ],
      "name": "setCategory",
      "outputs": [],
      "payable": false,
      "stateMutability": "nonpayable",
      "type": "function"
    },
    {
      "constant": true,
      "inputs": [
        {
          "internalType": "uint256",
          "name": "productId",
          "type": "uint256"
        }
      ],
      "name": "getReceived",
      "outputs": [
        {
          "internalType": "bool",
          "name": "",
          "type": "bool"
        }
      ],
      "payable": false,
      "stateMutability": "view",
      "type": "function"
    },
    {
      "constant": false,
      "inputs": [
        {
          "internalType": "uint256",
          "name": "productId",
          "type": "uint256"
        },
        {
          "internalType": "bool",
          "name": "newReceived",
          "type": "bool"
        }
      ],
      "name": "setReceived",
      "outputs": [],
      "payable": false,
      "stateMutability": "nonpayable",
      "type": "function"
    },
    {
      "constant": true,
      "inputs": [
        {
          "internalType": "uint256",
          "name": "productId",
          "type": "uint256"
        }
      ],
      "name": "getUsed",
      "outputs": [
        {
          "internalType": "bool",
          "name": "",
          "type": "bool"
        }
      ],
      "payable": false,
      "stateMutability": "view",
      "type": "function"
    },
    {
      "constant": false,
      "inputs": [
        {
          "internalType": "uint256",
          "name": "productId",
          "type": "uint256"
        },
        {
          "internalType": "bool",
          "name": "used",
          "type": "bool"
        }
      ],
      "name": "setUsed",
      "outputs": [],
      "payable": false,
      "stateMutability": "nonpayable",
      "type": "function"
    },
    {
      "constant": true,
      "inputs": [
        {
          "internalType": "uint256",
          "name": "productId",
          "type": "uint256"
        },
        {
          "internalType": "uint256",
          "name": "index",
          "type": "uint256"
        }
      ],
      "name": "getPreviousLocation",
      "outputs": [
        {
          "internalType": "string",
          "name": "",
          "type": "string"
        },
        {
          "internalType": "string",
          "name": "",
          "type": "string"
        },
        {
          "internalType": "string",
          "name": "",
          "type": "string"
        }
      ],
      "payable": false,
      "stateMutability": "view",
      "type": "function"
    },
    {
      "constant": false,
      "inputs": [
        {
          "internalType": "uint256",
          "name": "productId",
          "type": "uint256"
        },
        {
          "internalType": "string",
          "name": "prevLocation",
          "type": "string"
        },
        {
          "internalType": "string",
          "name": "prevDisbatchDate",
          "type": "string"
        },
        {
          "internalType": "string",
          "name": "prevArrivalDate",
          "type": "string"
        }
      ],
      "name": "addPreviousLocation",
      "outputs": [],
      "payable": false,
      "stateMutability": "nonpayable",
      "type": "function"
    },
    {
      "constant": true,
      "inputs": [
        {
          "internalType": "uint256",
          "name": "productId",
          "type": "uint256"
        }
      ],
      "name": "getCurrentLocation",
      "outputs": [
        {
          "internalType": "string",
          "name": "",
          "type": "string"
        },
        {
          "internalType": "string",
          "name": "",
          "type": "string"
        },
        {
          "internalType": "string",
          "name": "",
          "type": "string"
        }
      ],
      "payable": false,
      "stateMutability": "view",
      "type": "function"
    },
    {
      "constant": false,
      "inputs": [
        {
          "internalType": "uint256",
          "name": "productId",
          "type": "uint256"
        },
        {
          "internalType": "string",
          "name": "newLocation",
          "type": "string"
        },
        {
          "internalType": "string",
          "name": "newDisbatchDate",
          "type": "string"
        },
        {
          "internalType": "string",
          "name": "newArrivalDate",
          "type": "string"
        }
      ],
      "name": "setCurrentLocation",
      "outputs": [],
      "payable": false,
      "stateMutability": "nonpayable",
      "type": "function"
    },
    {
      "constant": true,
      "inputs": [
        {
          "internalType": "uint256",
          "name": "productId",
          "type": "uint256"
        }
      ],
      "name": "getReadyToShip",
      "outputs": [
        {
          "internalType": "bool",
          "name": "",
          "type": "bool"
        }
      ],
      "payable": false,
      "stateMutability": "view",
      "type": "function"
    },
    {
      "constant": false,
      "inputs": [
        {
          "internalType": "uint256",
          "name": "productId",
          "type": "uint256"
        },
        {
          "internalType": "bool",
          "name": "shipStatus",
          "type": "bool"
        }
      ],
      "name": "setReadyToShip",
      "outputs": [],
      "payable": false,
      "stateMutability": "nonpayable",
      "type": "function"
    }
  ],
  "bytecode": "0x6080604052336000806101000a81548173ffffffffffffffffffffffffffffffffffffffff021916908373ffffffffffffffffffffffffffffffffffffffff1602179055506000600155600060025534801561005a57600080fd5b5061449e8061006a6000396000f3fe608060405234801561001057600080fd5b50600436106102525760003560e01c80636caff5dc11610146578063c272137c116100c3578063d845000111610087578063d845000114611899578063d88ee32914611940578063dc63383914611b33578063dcd9d2cb14611b6b578063f3052d2614611ba5578063fe73e86c14611c4c57610252565b8063c272137c14611217578063cb090a271461125d578063cd70eb7f14611322578063cf42316d146117ba578063d38aaa5c146117f257610252565b8063881dad941161010a578063881dad941461103f57806391f4caca1461105d5780639a154635146110ab5780639e62e79514611152578063a86fd8cf146111f957610252565b80636caff5dc14610c1a5780636d12687414610c545780637ace341b14610d19578063809db2f814610d8757806387f31bef14610f7a57610252565b806343c92b6a116101d45780635ee95cae116101985780635ee95cae146109655780635f19c9b71461099357806364c0e52f14610a01578063650a48c614610a435780636c125a6b14610bcc57610252565b806343c92b6a146106e7578063555cde1c146107ac57806358ff352a146108715780635b6f6a3b146108bf5780635e478e6c146108f757610252565b80632364d78b1161021b5780632364d78b1461040957806323bb18351461044157806326437c48146105c05780633d30ffb81461066757806340889b4f146106a157610252565b806256856a146102575780630772c45e146102c55780630cc91022146103335780631861d02e146103815780631becaefb146103c3575b600080fd5b6102836004803603602081101561026d57600080fd5b8101908080359060200190929190505050611c8e565b604051808273ffffffffffffffffffffffffffffffffffffffff1673ffffffffffffffffffffffffffffffffffffffff16815260200191505060405180910390f35b6102f1600480360360208110156102db57600080fd5b8101908080359060200190929190505050611cde565b604051808273ffffffffffffffffffffffffffffffffffffffff1673ffffffffffffffffffffffffffffffffffffffff16815260200191505060405180910390f35b61037f6004803603604081101561034957600080fd5b8101908080359060200190929190803573ffffffffffffffffffffffffffffffffffffffff169060200190929190505050611d2e565b005b6103ad6004803603602081101561039757600080fd5b8101908080359060200190929190505050611e07565b6040518082815260200191505060405180910390f35b6103ef600480360360208110156103d957600080fd5b8101908080359060200190929190505050611e37565b604051808215151515815260200191505060405180910390f35b61043f6004803603604081101561041f57600080fd5b810190808035906020019092919080359060200190929190505050611e74565b005b61046d6004803603602081101561045757600080fd5b8101908080359060200190929190505050611f13565b60405180806020018060200180602001848103845287818151815260200191508051906020019080838360005b838110156104b557808201518184015260208101905061049a565b50505050905090810190601f1680156104e25780820380516001836020036101000a031916815260200191505b50848103835286818151815260200191508051906020019080838360005b8381101561051b578082015181840152602081019050610500565b50505050905090810190601f1680156105485780820380516001836020036101000a031916815260200191505b50848103825285818151815260200191508051906020019080838360005b83811015610581578082015181840152602081019050610566565b50505050905090810190601f1680156105ae5780820380516001836020036101000a031916815260200191505b50965050505050505060405180910390f35b6105ec600480360360208110156105d657600080fd5b8101908080359060200190929190505050612154565b6040518080602001828103825283818151815260200191508051906020019080838360005b8381101561062c578082015181840152602081019050610611565b50505050905090810190601f1680156106595780820380516001836020036101000a031916815260200191505b509250505060405180910390f35b61069f6004803603604081101561067d57600080fd5b810190808035906020019092919080351515906020019092919050505061221c565b005b6106cd600480360360208110156106b757600080fd5b81019080803590602001909291905050506122ce565b604051808215151515815260200191505060405180910390f35b6107aa600480360360408110156106fd57600080fd5b81019080803590602001909291908035906020019064010000000081111561072457600080fd5b82018360208201111561073657600080fd5b8035906020019184600183028401116401000000008311171561075857600080fd5b91908080601f016020809104026020016040519081016040528093929190818152602001838380828437600081840152601f19601f820116905080830192505050505050509192919290505050612367565b005b61086f600480360360408110156107c257600080fd5b8101908080359060200190929190803590602001906401000000008111156107e957600080fd5b8201836020820111156107fb57600080fd5b8035906020019184600183028401116401000000008311171561081d57600080fd5b91908080601f016020809104026020016040519081016040528093929190818152602001838380828437600081840152601f19601f820116905080830192505050505050509192919290505050612416565b005b6108bd6004803603604081101561088757600080fd5b8101908080359060200190929190803573ffffffffffffffffffffffffffffffffffffffff1690602001909291905050506124c5565b005b6108f5600480360360408110156108d557600080fd5b81019080803590602001909291908035906020019092919050505061259e565b005b6109236004803603602081101561090d57600080fd5b810190808035906020019092919050505061263d565b604051808273ffffffffffffffffffffffffffffffffffffffff1673ffffffffffffffffffffffffffffffffffffffff16815260200191505060405180910390f35b6109916004803603602081101561097b57600080fd5b810190808035906020019092919050505061268d565b005b6109ff600480360360608110156109a957600080fd5b8101908080359060200190929190803573ffffffffffffffffffffffffffffffffffffffff169060200190929190803573ffffffffffffffffffffffffffffffffffffffff1690602001909291905050506128d5565b005b610a2d60048036036020811015610a1757600080fd5b8101908080359060200190929190505050612b1a565b6040518082815260200191505060405180910390f35b610a7960048036036040811015610a5957600080fd5b810190808035906020019092919080359060200190929190505050612b4a565b60405180806020018060200180602001848103845287818151815260200191508051906020019080838360005b83811015610ac1578082015181840152602081019050610aa6565b50505050905090810190601f168015610aee5780820380516001836020036101000a031916815260200191505b50848103835286818151815260200191508051906020019080838360005b83811015610b27578082015181840152602081019050610b0c565b50505050905090810190601f168015610b545780820380516001836020036101000a031916815260200191505b50848103825285818151815260200191508051906020019080838360005b83811015610b8d578082015181840152602081019050610b72565b50505050905090810190601f168015610bba5780820380516001836020036101000a031916815260200191505b50965050505050505060405180910390f35b610c1860048036036040811015610be257600080fd5b8101908080359060200190929190803573ffffffffffffffffffffffffffffffffffffffff169060200190929190505050612e91565b005b610c5260048036036040811015610c3057600080fd5b8101908080359060200190929190803515159060200190929190505050612f6a565b005b610d1760048036036040811015610c6a57600080fd5b810190808035906020019092919080359060200190640100000000811115610c9157600080fd5b820183602082011115610ca357600080fd5b80359060200191846001830284011164010000000083111715610cc557600080fd5b91908080601f016020809104026020016040519081016040528093929190818152602001838380828437600081840152601f19601f82011690508083019250505050505050919291929050505061301c565b005b610d4560048036036020811015610d2f57600080fd5b81019080803590602001909291905050506130cb565b604051808273ffffffffffffffffffffffffffffffffffffffff1673ffffffffffffffffffffffffffffffffffffffff16815260200191505060405180910390f35b610f7860048036036080811015610d9d57600080fd5b810190808035906020019092919080359060200190640100000000811115610dc457600080fd5b820183602082011115610dd657600080fd5b80359060200191846001830284011164010000000083111715610df857600080fd5b91908080601f016020809104026020016040519081016040528093929190818152602001838380828437600081840152601f19601f82011690508083019250505050505050919291929080359060200190640100000000811115610e5b57600080fd5b820183602082011115610e6d57600080fd5b80359060200191846001830284011164010000000083111715610e8f57600080fd5b91908080601f016020809104026020016040519081016040528093929190818152602001838380828437600081840152601f19601f82011690508083019250505050505050919291929080359060200190640100000000811115610ef257600080fd5b820183602082011115610f0457600080fd5b80359060200191846001830284011164010000000083111715610f2657600080fd5b91908080601f016020809104026020016040519081016040528093929190818152602001838380828437600081840152601f19601f82011690508083019250505050505050919291929050505061311b565b005b61103d60048036036040811015610f9057600080fd5b810190808035906020019092919080359060200190640100000000811115610fb757600080fd5b820183602082011115610fc957600080fd5b80359060200191846001830284011164010000000083111715610feb57600080fd5b91908080601f016020809104026020016040519081016040528093929190818152602001838380828437600081840152601f19601f82011690508083019250505050505050919291929050505061322c565b005b6110476132db565b6040518082815260200191505060405180910390f35b6110a96004803603604081101561107357600080fd5b8101908080359060200190929190803573ffffffffffffffffffffffffffffffffffffffff1690602001909291905050506132e1565b005b6110d7600480360360208110156110c157600080fd5b81019080803590602001909291905050506133ba565b6040518080602001828103825283818151815260200191508051906020019080838360005b838110156111175780820151818401526020810190506110fc565b50505050905090810190601f1680156111445780820380516001836020036101000a031916815260200191505b509250505060405180910390f35b61117e6004803603602081101561116857600080fd5b8101908080359060200190929190505050613482565b6040518080602001828103825283818151815260200191508051906020019080838360005b838110156111be5780820151818401526020810190506111a3565b50505050905090810190601f1680156111eb5780820380516001836020036101000a031916815260200191505b509250505060405180910390f35b61120161354a565b6040518082815260200191505060405180910390f35b6112436004803603602081101561122d57600080fd5b8101908080359060200190929190505050613550565b604051808215151515815260200191505060405180910390f35b6113206004803603604081101561127357600080fd5b81019080803590602001909291908035906020019064010000000081111561129a57600080fd5b8201836020820111156112ac57600080fd5b803590602001918460018302840111640100000000831117156112ce57600080fd5b91908080601f016020809104026020016040519081016040528093929190818152602001838380828437600081840152601f19601f82011690508083019250505050505050919291929050505061358d565b005b6117a4600480360361016081101561133957600080fd5b810190808035906020019064010000000081111561135657600080fd5b82018360208201111561136857600080fd5b8035906020019184600183028401116401000000008311171561138a57600080fd5b91908080601f016020809104026020016040519081016040528093929190818152602001838380828437600081840152601f19601f820116905080830192505050505050509192919290803573ffffffffffffffffffffffffffffffffffffffff1690602001909291908035906020019064010000000081111561140d57600080fd5b82018360208201111561141f57600080fd5b8035906020019184600183028401116401000000008311171561144157600080fd5b91908080601f016020809104026020016040519081016040528093929190818152602001838380828437600081840152601f19601f820116905080830192505050505050509192919290803590602001906401000000008111156114a457600080fd5b8201836020820111156114b657600080fd5b803590602001918460018302840111640100000000831117156114d857600080fd5b91908080601f016020809104026020016040519081016040528093929190818152602001838380828437600081840152601f19601f8201169050808301925050505050505091929192908035906020019064010000000081111561153b57600080fd5b82018360208201111561154d57600080fd5b8035906020019184600183028401116401000000008311171561156f57600080fd5b91908080601f016020809104026020016040519081016040528093929190818152602001838380828437600081840152601f19601f82011690508083019250505050505050919291929080359060200190929190803590602001906401000000008111156115dc57600080fd5b8201836020820111156115ee57600080fd5b8035906020019184600183028401116401000000008311171561161057600080fd5b91908080601f016020809104026020016040519081016040528093929190818152602001838380828437600081840152601f19601f82011690508083019250505050505050919291929080359060200190929190803590602001909291908035906020019064010000000081111561168757600080fd5b82018360208201111561169957600080fd5b803590602001918460018302840111640100000000831117156116bb57600080fd5b91908080601f016020809104026020016040519081016040528093929190818152602001838380828437600081840152601f19601f8201169050808301925050505050505091929192908035906020019064010000000081111561171e57600080fd5b82018360208201111561173057600080fd5b8035906020019184600183028401116401000000008311171561175257600080fd5b91908080601f016020809104026020016040519081016040528093929190818152602001838380828437600081840152601f19601f82011690508083019250505050505050919291929050505061363c565b6040518082815260200191505060405180910390f35b6117f0600480360360408110156117d057600080fd5b810190808035906020019092919080359060200190929190505050613c8d565b005b61181e6004803603602081101561180857600080fd5b8101908080359060200190929190505050613d51565b6040518080602001828103825283818151815260200191508051906020019080838360005b8381101561185e578082015181840152602081019050611843565b50505050905090810190601f16801561188b5780820380516001836020036101000a031916815260200191505b509250505060405180910390f35b6118c5600480360360208110156118af57600080fd5b8101908080359060200190929190505050613e19565b6040518080602001828103825283818151815260200191508051906020019080838360005b838110156119055780820151818401526020810190506118ea565b50505050905090810190601f1680156119325780820380516001836020036101000a031916815260200191505b509250505060405180910390f35b611b316004803603608081101561195657600080fd5b81019080803590602001909291908035906020019064010000000081111561197d57600080fd5b82018360208201111561198f57600080fd5b803590602001918460018302840111640100000000831117156119b157600080fd5b91908080601f016020809104026020016040519081016040528093929190818152602001838380828437600081840152601f19601f82011690508083019250505050505050919291929080359060200190640100000000811115611a1457600080fd5b820183602082011115611a2657600080fd5b80359060200191846001830284011164010000000083111715611a4857600080fd5b91908080601f016020809104026020016040519081016040528093929190818152602001838380828437600081840152601f19601f82011690508083019250505050505050919291929080359060200190640100000000811115611aab57600080fd5b820183602082011115611abd57600080fd5b80359060200191846001830284011164010000000083111715611adf57600080fd5b91908080601f016020809104026020016040519081016040528093929190818152602001838380828437600081840152601f19601f820116905080830192505050505050509192919290505050613ee1565b005b611b6960048036036040811015611b4957600080fd5b810190808035906020019092919080359060200190929190505050614045565b005b611ba360048036036040811015611b8157600080fd5b81019080803590602001909291908035151590602001909291905050506140e4565b005b611bd160048036036020811015611bbb57600080fd5b8101908080359060200190929190505050614196565b6040518080602001828103825283818151815260200191508051906020019080838360005b83811015611c11578082015181840152602081019050611bf6565b50505050905090810190601f168015611c3e5780820380516001836020036101000a031916815260200191505b509250505060405180910390f35b611c7860048036036020811015611c6257600080fd5b810190808035906020019092919050505061425e565b6040518082815260200191505060405180910390f35b6000816001548110611c9f57600080fd5b6003600084815260200190815260200160002060050160009054906101000a900473ffffffffffffffffffffffffffffffffffffffff16915050919050565b6000816001548110611cef57600080fd5b6003600084815260200190815260200160002060040160009054906101000a900473ffffffffffffffffffffffffffffffffffffffff16915050919050565b813373ffffffffffffffffffffffffffffffffffffffff166003600083815260200190815260200160002060030160009054906101000a900473ffffffffffffffffffffffffffffffffffffffff1673ffffffffffffffffffffffffffffffffffffffff1614611d9d57600080fd5b826001548110611dac57600080fd5b826003600086815260200190815260200160002060050160006101000a81548173ffffffffffffffffffffffffffffffffffffffff021916908373ffffffffffffffffffffffffffffffffffffffff16021790555050505050565b6000816001548110611e1857600080fd5b60036000848152602001908152602001600020600a0154915050919050565b6000816001548110611e4857600080fd5b60036000848152602001908152602001600020600f0160009054906101000a900460ff16915050919050565b813373ffffffffffffffffffffffffffffffffffffffff166003600083815260200190815260200160002060030160009054906101000a900473ffffffffffffffffffffffffffffffffffffffff1673ffffffffffffffffffffffffffffffffffffffff1614611ee357600080fd5b826001548110611ef257600080fd5b8260036000868152602001908152602001600020600c018190555050505050565b6060806060836001548110611f2757600080fd5b600360008681526020019081526020016000206011016000016003600087815260200190815260200160002060110160010160036000888152602001908152602001600020601101600201828054600181600116156101000203166002900480601f0160208091040260200160405190810160405280929190818152602001828054600181600116156101000203166002900480156120075780601f10611fdc57610100808354040283529160200191612007565b820191906000526020600020905b815481529060010190602001808311611fea57829003601f168201915b50505050509250818054600181600116156101000203166002900480601f0160208091040260200160405190810160405280929190818152602001828054600181600116156101000203166002900480156120a35780601f10612078576101008083540402835291602001916120a3565b820191906000526020600020905b81548152906001019060200180831161208657829003601f168201915b50505050509150808054600181600116156101000203166002900480601f01602080910402602001604051908101604052809291908181526020018280546001816001161561010002031660029004801561213f5780601f106121145761010080835404028352916020019161213f565b820191906000526020600020905b81548152906001019060200180831161212257829003601f168201915b50505050509050935093509350509193909250565b606081600154811061216557600080fd5b600360008481526020019081526020016000206008018054600181600116156101000203166002900480601f01602080910402602001604051908101604052809291908181526020018280546001816001161561010002031660029004801561220f5780601f106121e45761010080835404028352916020019161220f565b820191906000526020600020905b8154815290600101906020018083116121f257829003601f168201915b5050505050915050919050565b813373ffffffffffffffffffffffffffffffffffffffff166003600083815260200190815260200160002060030160009054906101000a900473ffffffffffffffffffffffffffffffffffffffff1673ffffffffffffffffffffffffffffffffffffffff161461228b57600080fd5b82600154811061229a57600080fd5b826003600086815260200190815260200160002060140160006101000a81548160ff02191690831515021790555050505050565b6000813373ffffffffffffffffffffffffffffffffffffffff166003600083815260200190815260200160002060030160009054906101000a900473ffffffffffffffffffffffffffffffffffffffff1673ffffffffffffffffffffffffffffffffffffffff161461233f57600080fd5b6003600084815260200190815260200160002060140160009054906101000a90505050919050565b813373ffffffffffffffffffffffffffffffffffffffff166003600083815260200190815260200160002060030160009054906101000a900473ffffffffffffffffffffffffffffffffffffffff1673ffffffffffffffffffffffffffffffffffffffff16146123d657600080fd5b8260015481106123e557600080fd5b8260036000868152602001908152602001600020600901908051906020019061240f92919061428e565b5050505050565b813373ffffffffffffffffffffffffffffffffffffffff166003600083815260200190815260200160002060030160009054906101000a900473ffffffffffffffffffffffffffffffffffffffff1673ffffffffffffffffffffffffffffffffffffffff161461248557600080fd5b82600154811061249457600080fd5b8260036000868152602001908152602001600020600b0190805190602001906124be92919061428e565b5050505050565b813373ffffffffffffffffffffffffffffffffffffffff166003600083815260200190815260200160002060030160009054906101000a900473ffffffffffffffffffffffffffffffffffffffff1673ffffffffffffffffffffffffffffffffffffffff161461253457600080fd5b82600154811061254357600080fd5b826003600086815260200190815260200160002060040160006101000a81548173ffffffffffffffffffffffffffffffffffffffff021916908373ffffffffffffffffffffffffffffffffffffffff16021790555050505050565b813373ffffffffffffffffffffffffffffffffffffffff166003600083815260200190815260200160002060030160009054906101000a900473ffffffffffffffffffffffffffffffffffffffff1673ffffffffffffffffffffffffffffffffffffffff161461260d57600080fd5b82600154811061261c57600080fd5b8260036000868152602001908152602001600020600a018190555050505050565b600081600154811061264e57600080fd5b6003600084815260200190815260200160002060060160009054906101000a900473ffffffffffffffffffffffffffffffffffffffff16915050919050565b803373ffffffffffffffffffffffffffffffffffffffff166003600083815260200190815260200160002060030160009054906101000a900473ffffffffffffffffffffffffffffffffffffffff1673ffffffffffffffffffffffffffffffffffffffff16146126fc57600080fd5b81600154811061270b57600080fd5b600360008481526020019081526020016000206000808201600061272f919061430e565b6001820160009055600282016000612747919061432f565b6003820160006101000a81549073ffffffffffffffffffffffffffffffffffffffff02191690556004820160006101000a81549073ffffffffffffffffffffffffffffffffffffffff02191690556005820160006101000a81549073ffffffffffffffffffffffffffffffffffffffff02191690556006820160006101000a81549073ffffffffffffffffffffffffffffffffffffffff02191690556007820160006127f3919061432f565b600882016000612803919061432f565b600982016000612813919061432f565b600a820160009055600b8201600061282b919061432f565b600c820160009055600d820160009055600e8201600061284b919061432f565b600f820160006101000a81549060ff0219169055600f820160016101000a81549060ff0219169055601082016000612883919061430e565b6011820160008082016000612898919061432f565b6001820160006128a8919061432f565b6002820160006128b8919061432f565b50506014820160006101000a81549060ff02191690555050505050565b823373ffffffffffffffffffffffffffffffffffffffff166003600083815260200190815260200160002060030160009054906101000a900473ffffffffffffffffffffffffffffffffffffffff1673ffffffffffffffffffffffffffffffffffffffff161461294457600080fd5b83600154811061295357600080fd5b6003600086815260200190815260200160002060030160009054906101000a900473ffffffffffffffffffffffffffffffffffffffff166003600087815260200190815260200160002060050160006101000a81548173ffffffffffffffffffffffffffffffffffffffff021916908373ffffffffffffffffffffffffffffffffffffffff160217905550836003600087815260200190815260200160002060030160006101000a81548173ffffffffffffffffffffffffffffffffffffffff021916908373ffffffffffffffffffffffffffffffffffffffff1602179055506003600086815260200190815260200160002060040160009054906101000a900473ffffffffffffffffffffffffffffffffffffffff166003600087815260200190815260200160002060060160006101000a81548173ffffffffffffffffffffffffffffffffffffffff021916908373ffffffffffffffffffffffffffffffffffffffff160217905550826003600087815260200190815260200160002060040160006101000a81548173ffffffffffffffffffffffffffffffffffffffff021916908373ffffffffffffffffffffffffffffffffffffffff1602179055505050505050565b6000816001548110612b2b57600080fd5b60036000848152602001908152602001600020600d0154915050919050565b6060806060846001548110612b5e57600080fd5b60036000878152602001908152602001600020601001805490508510612bec576040517f08c379a000000000000000000000000000000000000000000000000000000000815260040180806020018281038252600d8152602001807f496e76616c696420696e6465780000000000000000000000000000000000000081525060200191505060405180910390fd5b60046000600360008981526020019081526020016000206010018781548110612c1157fe5b9060005260206000200154815260200190815260200160002060000160046000600360008a81526020019081526020016000206010018881548110612c5257fe5b9060005260206000200154815260200190815260200160002060010160046000600360008b81526020019081526020016000206010018981548110612c9357fe5b90600052602060002001548152602001908152602001600020600201828054600181600116156101000203166002900480601f016020809104026020016040519081016040528092919081815260200182805460018160011615610100020316600290048015612d445780601f10612d1957610100808354040283529160200191612d44565b820191906000526020600020905b815481529060010190602001808311612d2757829003601f168201915b50505050509250818054600181600116156101000203166002900480601f016020809104026020016040519081016040528092919081815260200182805460018160011615610100020316600290048015612de05780601f10612db557610100808354040283529160200191612de0565b820191906000526020600020905b815481529060010190602001808311612dc357829003601f168201915b50505050509150808054600181600116156101000203166002900480601f016020809104026020016040519081016040528092919081815260200182805460018160011615610100020316600290048015612e7c5780601f10612e5157610100808354040283529160200191612e7c565b820191906000526020600020905b815481529060010190602001808311612e5f57829003601f168201915b50505050509050935093509350509250925092565b813373ffffffffffffffffffffffffffffffffffffffff166003600083815260200190815260200160002060030160009054906101000a900473ffffffffffffffffffffffffffffffffffffffff1673ffffffffffffffffffffffffffffffffffffffff1614612f0057600080fd5b826001548110612f0f57600080fd5b826003600086815260200190815260200160002060030160006101000a81548173ffffffffffffffffffffffffffffffffffffffff021916908373ffffffffffffffffffffffffffffffffffffffff16021790555050505050565b813373ffffffffffffffffffffffffffffffffffffffff166003600083815260200190815260200160002060030160009054906101000a900473ffffffffffffffffffffffffffffffffffffffff1673ffffffffffffffffffffffffffffffffffffffff1614612fd957600080fd5b826001548110612fe857600080fd5b8260036000868152602001908152602001600020600f0160016101000a81548160ff02191690831515021790555050505050565b813373ffffffffffffffffffffffffffffffffffffffff166003600083815260200190815260200160002060030160009054906101000a900473ffffffffffffffffffffffffffffffffffffffff1673ffffffffffffffffffffffffffffffffffffffff161461308b57600080fd5b82600154811061309a57600080fd5b826003600086815260200190815260200160002060080190805190602001906130c492919061428e565b5050505050565b60008160015481106130dc57600080fd5b6003600084815260200190815260200160002060030160009054906101000a900473ffffffffffffffffffffffffffffffffffffffff16915050919050565b833373ffffffffffffffffffffffffffffffffffffffff166003600083815260200190815260200160002060030160009054906101000a900473ffffffffffffffffffffffffffffffffffffffff1673ffffffffffffffffffffffffffffffffffffffff161461318a57600080fd5b84600154811061319957600080fd5b6040518060600160405280868152602001858152602001848152506003600088815260200190815260200160002060110160008201518160000190805190602001906131e6929190614377565b506020820151816001019080519060200190613203929190614377565b506040820151816002019080519060200190613220929190614377565b50905050505050505050565b813373ffffffffffffffffffffffffffffffffffffffff166003600083815260200190815260200160002060030160009054906101000a900473ffffffffffffffffffffffffffffffffffffffff1673ffffffffffffffffffffffffffffffffffffffff161461329b57600080fd5b8260015481106132aa57600080fd5b826003600086815260200190815260200160002060070190805190602001906132d492919061428e565b5050505050565b60015481565b813373ffffffffffffffffffffffffffffffffffffffff166003600083815260200190815260200160002060030160009054906101000a900473ffffffffffffffffffffffffffffffffffffffff1673ffffffffffffffffffffffffffffffffffffffff161461335057600080fd5b82600154811061335f57600080fd5b826003600086815260200190815260200160002060060160006101000a81548173ffffffffffffffffffffffffffffffffffffffff021916908373ffffffffffffffffffffffffffffffffffffffff16021790555050505050565b60608160015481106133cb57600080fd5b600360008481526020019081526020016000206007018054600181600116156101000203166002900480601f0160208091040260200160405190810160405280929190818152602001828054600181600116156101000203166002900480156134755780601f1061344a57610100808354040283529160200191613475565b820191906000526020600020905b81548152906001019060200180831161345857829003601f168201915b5050505050915050919050565b606081600154811061349357600080fd5b600360008481526020019081526020016000206002018054600181600116156101000203166002900480601f01602080910402602001604051908101604052809291908181526020018280546001816001161561010002031660029004801561353d5780601f106135125761010080835404028352916020019161353d565b820191906000526020600020905b81548152906001019060200180831161352057829003601f168201915b5050505050915050919050565b60025481565b600081600154811061356157600080fd5b60036000848152602001908152602001600020600f0160019054906101000a900460ff16915050919050565b813373ffffffffffffffffffffffffffffffffffffffff166003600083815260200190815260200160002060030160009054906101000a900473ffffffffffffffffffffffffffffffffffffffff1673ffffffffffffffffffffffffffffffffffffffff16146135fc57600080fd5b82600154811061360b57600080fd5b8260036000868152602001908152602001600020600e01908051906020019061363592919061428e565b5050505050565b6000808c51116136b4576040517f08c379a00000000000000000000000000000000000000000000000000000000081526004018080602001828103825260148152602001807f4e616d652063616e6e6f7420626520656d70747900000000000000000000000081525060200191505060405180910390fd5b60006001600081548092919060010191905055905060405180610280016040528060006040519080825280602002602001820160405280156137055781602001602082028038833980820191505090505b5081526020018281526020018e81526020013373ffffffffffffffffffffffffffffffffffffffff1681526020018d73ffffffffffffffffffffffffffffffffffffffff168152602001600073ffffffffffffffffffffffffffffffffffffffff168152602001600073ffffffffffffffffffffffffffffffffffffffff1681526020018c81526020018b81526020018a815260200189815260200188815260200187815260200186815260200185815260200160001515815260200160001515815260200160006040519080825280602002602001820160405280156137fb5781602001602082028038833980820191505090505b50815260200160405180606001604052808681526020016040518060400160405280600481526020017f6e756c6c0000000000000000000000000000000000000000000000000000000081525081526020016040518060400160405280600481526020017f6e756c6c000000000000000000000000000000000000000000000000000000008152508152508152602001600015158152506003600083815260200190815260200160002060008201518160000190805190602001906138c19291906143f7565b506020820151816001015560408201518160020190805190602001906138e8929190614377565b5060608201518160030160006101000a81548173ffffffffffffffffffffffffffffffffffffffff021916908373ffffffffffffffffffffffffffffffffffffffff16021790555060808201518160040160006101000a81548173ffffffffffffffffffffffffffffffffffffffff021916908373ffffffffffffffffffffffffffffffffffffffff16021790555060a08201518160050160006101000a81548173ffffffffffffffffffffffffffffffffffffffff021916908373ffffffffffffffffffffffffffffffffffffffff16021790555060c08201518160060160006101000a81548173ffffffffffffffffffffffffffffffffffffffff021916908373ffffffffffffffffffffffffffffffffffffffff16021790555060e0820151816007019080519060200190613a21929190614377565b50610100820151816008019080519060200190613a3f929190614377565b50610120820151816009019080519060200190613a5d929190614377565b5061014082015181600a015561016082015181600b019080519060200190613a86929190614377565b5061018082015181600c01556101a082015181600d01556101c082015181600e019080519060200190613aba929190614377565b506101e082015181600f0160006101000a81548160ff02191690831515021790555061020082015181600f0160016101000a81548160ff021916908315150217905550610220820151816010019080519060200190613b1a9291906143f7565b50610240820151816011016000820151816000019080519060200190613b41929190614377565b506020820151816001019080519060200190613b5e929190614377565b506040820151816002019080519060200190613b7b929190614377565b5050506102608201518160140160006101000a81548160ff0219169083151502179055509050507faf6ffb6277511513e7d579327cc1fc57f0266df2fb11a60b13487b8c9cd2c388818e3360405180848152602001806020018373ffffffffffffffffffffffffffffffffffffffff1673ffffffffffffffffffffffffffffffffffffffff168152602001828103825284818151815260200191508051906020019080838360005b83811015613c3e578082015181840152602081019050613c23565b50505050905090810190601f168015613c6b5780820380516001836020036101000a031916815260200191505b5094505050505060405180910390a1809150509b9a5050505050505050505050565b803373ffffffffffffffffffffffffffffffffffffffff166003600083815260200190815260200160002060030160009054906101000a900473ffffffffffffffffffffffffffffffffffffffff1673ffffffffffffffffffffffffffffffffffffffff1614613cfc57600080fd5b816001548110613d0b57600080fd5b6003600085815260200190815260200160002060000183908060018154018082558091505090600182039060005260206000200160009091929091909150555050505050565b6060816001548110613d6257600080fd5b600360008481526020019081526020016000206009018054600181600116156101000203166002900480601f016020809104026020016040519081016040528092919081815260200182805460018160011615610100020316600290048015613e0c5780601f10613de157610100808354040283529160200191613e0c565b820191906000526020600020905b815481529060010190602001808311613def57829003601f168201915b5050505050915050919050565b6060816001548110613e2a57600080fd5b60036000848152602001908152602001600020600b018054600181600116156101000203166002900480601f016020809104026020016040519081016040528092919081815260200182805460018160011615610100020316600290048015613ed45780601f10613ea957610100808354040283529160200191613ed4565b820191906000526020600020905b815481529060010190602001808311613eb757829003601f168201915b5050505050915050919050565b833373ffffffffffffffffffffffffffffffffffffffff166003600083815260200190815260200160002060030160009054906101000a900473ffffffffffffffffffffffffffffffffffffffff1673ffffffffffffffffffffffffffffffffffffffff1614613f5057600080fd5b846001548110613f5f57600080fd5b600060026000815480929190600101919050559050604051806060016040528087815260200186815260200185815250600460008381526020019081526020016000206000820151816000019080519060200190613fbe929190614377565b506020820151816001019080519060200190613fdb929190614377565b506040820151816002019080519060200190613ff8929190614377565b509050506003600088815260200190815260200160002060100181908060018154018082558091505090600182039060005260206000200160009091929091909150555050505050505050565b813373ffffffffffffffffffffffffffffffffffffffff166003600083815260200190815260200160002060030160009054906101000a900473ffffffffffffffffffffffffffffffffffffffff1673ffffffffffffffffffffffffffffffffffffffff16146140b457600080fd5b8260015481106140c357600080fd5b8260036000868152602001908152602001600020600d018190555050505050565b813373ffffffffffffffffffffffffffffffffffffffff166003600083815260200190815260200160002060030160009054906101000a900473ffffffffffffffffffffffffffffffffffffffff1673ffffffffffffffffffffffffffffffffffffffff161461415357600080fd5b82600154811061416257600080fd5b8260036000868152602001908152602001600020600f0160006101000a81548160ff02191690831515021790555050505050565b60608160015481106141a757600080fd5b60036000848152602001908152602001600020600e018054600181600116156101000203166002900480601f0160208091040260200160405190810160405280929190818152602001828054600181600116156101000203166002900480156142515780601f1061422657610100808354040283529160200191614251565b820191906000526020600020905b81548152906001019060200180831161423457829003601f168201915b5050505050915050919050565b600081600154811061426f57600080fd5b60036000848152602001908152602001600020600c0154915050919050565b828054600181600116156101000203166002900490600052602060002090601f016020900481019282601f106142cf57805160ff19168380011785556142fd565b828001600101855582156142fd579182015b828111156142fc5782518255916020019190600101906142e1565b5b50905061430a9190614444565b5090565b508054600082559060005260206000209081019061432c9190614444565b50565b50805460018160011615610100020316600290046000825580601f106143555750614374565b601f0160209004906000526020600020908101906143739190614444565b5b50565b828054600181600116156101000203166002900490600052602060002090601f016020900481019282601f106143b857805160ff19168380011785556143e6565b828001600101855582156143e6579182015b828111156143e55782518255916020019190600101906143ca565b5b5090506143f39190614444565b5090565b828054828255906000526020600020908101928215614433579160200282015b82811115614432578251825591602001919060010190614417565b5b5090506144409190614444565b5090565b61446691905b8082111561446257600081600090555060010161444a565b5090565b9056fea265627a7a7231582001684e3aeeb86fd75f18b487da57208e9848dc403a92f491b58638577eaca6ef64736f6c63430005100032",
  "source": "pragma solidity ^0.5.0;\n\ncontract Product {\n    address contractOwner = msg.sender;\n    //struct\n    struct product {\n        uint256[] componentProductIds;\n        uint256 productId;\n        string name;\n        address currentOwner;\n        address currentContractAddress;\n        address previousOwner;\n        address previousContractAddress;\n        string placeOfOrigin;\n        string productionDate;\n        string expirationDate;\n        uint256 unitQuantity;\n        string unitQuantityType;\n        uint256 batchQuantity;\n        uint256 unitPrice;\n        string category;\n        bool received;\n        bool used;\n        uint256[] previousLocationIds;\n        productLocation currentLocation;\n        bool readyToShip;\n    }\n\n    struct productLocation {\n        string location;\n        string disbatchDate;\n        string arrivalDate;\n    }\n\n    //variables\n    uint256 public noProduct = 0;\n    uint256 public noLocation = 0;\n    mapping(uint256 => product) private products;\n    mapping(uint256 => productLocation) private location;\n\n    //Events\n    event ProductCreated(\n        uint256 newProductId,\n        string name,\n        address currentContractAddress\n    );\n\n    //modifiers\n    modifier ownerOnly(uint256 productId) {\n        require(products[productId].currentOwner == msg.sender);\n        _;\n    }\n\n    modifier validProductId(uint256 productId) {\n        require(productId < noProduct);\n        _;\n    }\n\n    //methods\n    function createProduct(\n        string memory name,\n        address currentContractAddress,\n        string memory placeOfOrigin,\n        string memory productionDate,\n        string memory expirationDate,\n        uint256 unitQuantity,\n        string memory unitQuantityType,\n        uint256 batchQuantity,\n        uint256 unitPrice,\n        string memory category,\n        string memory currentPhysicalLocation\n    ) public returns (uint256) {\n        require(bytes(name).length > 0, \"Name cannot be empty\");\n\n        //create new product\n        uint256 newProductId = noProduct++;\n        products[newProductId] = product({\n            componentProductIds: new uint256[](0),\n            productId: newProductId,\n            name: name,\n            currentOwner: msg.sender,\n            currentContractAddress: currentContractAddress,\n            previousOwner: address(0),\n            previousContractAddress: address(0),\n            placeOfOrigin: placeOfOrigin,\n            productionDate: productionDate,\n            expirationDate: expirationDate,\n            unitQuantity: unitQuantity,\n            unitQuantityType: unitQuantityType,\n            batchQuantity: batchQuantity,\n            unitPrice: unitPrice,\n            category: category,\n            received: false,\n            used: false,\n            previousLocationIds: new uint256[](0),\n            currentLocation: productLocation({\n                location: currentPhysicalLocation,\n                disbatchDate: \"null\",\n                arrivalDate: \"null\"\n            }),\n            readyToShip: false\n        });\n        emit ProductCreated(newProductId, name, msg.sender);\n        return newProductId;\n    }\n\n    function addComponentProduct(\n        uint256 mainProductId,\n        uint256 productId\n    ) public ownerOnly(productId) validProductId(productId) {\n        products[mainProductId].componentProductIds.push(productId);\n    }\n\n    //transfer ownership when it moves from one entity to another entity in the supplychain\n    function transferProduct(\n        uint256 productId,\n        address newOwner,\n        address newContractAdddress\n    ) public ownerOnly(productId) validProductId(productId) {\n        products[productId].previousOwner = products[productId].currentOwner;\n        products[productId].currentOwner = newOwner;\n\n        products[productId].previousContractAddress = products[productId]\n            .currentContractAddress;\n        products[productId].currentContractAddress = newContractAdddress;\n    }\n\n    function removeProduct(\n        uint256 productId\n    ) public ownerOnly(productId) validProductId(productId) {\n        delete products[productId];\n    }\n\n    function getProductName(\n        uint256 productId\n    ) public view validProductId(productId) returns (string memory) {\n        return products[productId].name;\n    }\n\n    function getCurrentOwner(\n        uint256 productId\n    ) public view validProductId(productId) returns (address) {\n        return products[productId].currentOwner;\n    }\n\n    function setCurrentOwner(\n        uint256 productId,\n        address newOwner\n    ) public ownerOnly(productId) validProductId(productId) {\n        products[productId].currentOwner = newOwner;\n    }\n\n    function getCurrentContractAddress(\n        uint256 productId\n    ) public view validProductId(productId) returns (address) {\n        return products[productId].currentContractAddress;\n    }\n\n    function setCurrentContractAddress(\n        uint256 productId,\n        address newContractAddress\n    ) public ownerOnly(productId) validProductId(productId) {\n        products[productId].currentContractAddress = newContractAddress;\n    }\n\n    function getPreviousOwner(\n        uint256 productId\n    ) public view validProductId(productId) returns (address) {\n        return products[productId].previousOwner;\n    }\n\n    function setPreviousOwner(\n        uint256 productId,\n        address newPreviousOwner\n    ) public ownerOnly(productId) validProductId(productId) {\n        products[productId].previousOwner = newPreviousOwner;\n    }\n\n    function getPreviousContractAddress(\n        uint256 productId\n    ) public view validProductId(productId) returns (address) {\n        return products[productId].previousContractAddress;\n    }\n\n    function setPreviousContractAddress(\n        uint256 productId,\n        address newPreviousContractAddress\n    ) public ownerOnly(productId) validProductId(productId) {\n        products[productId]\n            .previousContractAddress = newPreviousContractAddress;\n    }\n\n    function getPlaceOfOrigin(\n        uint256 productId\n    ) public view validProductId(productId) returns (string memory) {\n        return products[productId].placeOfOrigin;\n    }\n\n    function setPlaceOfOrigin(\n        uint256 productId,\n        string memory newPlaceOfOrigin\n    ) public ownerOnly(productId) validProductId(productId) {\n        products[productId].placeOfOrigin = newPlaceOfOrigin;\n    }\n\n    function getProductionDate(\n        uint256 productId\n    ) public view validProductId(productId) returns (string memory) {\n        return products[productId].productionDate;\n    }\n\n    function setProductionDate(\n        uint256 productId,\n        string memory newProductionDate\n    ) public ownerOnly(productId) validProductId(productId) {\n        products[productId].productionDate = newProductionDate;\n    }\n\n    function getExpirationDate(\n        uint256 productId\n    ) public view validProductId(productId) returns (string memory) {\n        return products[productId].expirationDate;\n    }\n\n    function setExpirationDate(\n        uint256 productId,\n        string memory newExpirationDate\n    ) public ownerOnly(productId) validProductId(productId) {\n        products[productId].expirationDate = newExpirationDate;\n    }\n\n    function getUnitQuantity(\n        uint256 productId\n    ) public view validProductId(productId) returns (uint256) {\n        return products[productId].unitQuantity;\n    }\n\n    function setUnitQuantity(\n        uint256 productId,\n        uint256 newUnitQuantity\n    ) public ownerOnly(productId) validProductId(productId) {\n        products[productId].unitQuantity = newUnitQuantity;\n    }\n\n    function getUnitQuantityType(\n        uint256 productId\n    ) public view validProductId(productId) returns (string memory) {\n        return products[productId].unitQuantityType;\n    }\n\n    function setUnitQuantityType(\n        uint256 productId,\n        string memory newUnitQuantityType\n    ) public ownerOnly(productId) validProductId(productId) {\n        products[productId].unitQuantityType = newUnitQuantityType;\n    }\n\n    function getBatchQuantity(\n        uint256 productId\n    ) public view validProductId(productId) returns (uint256) {\n        return products[productId].batchQuantity;\n    }\n\n    function setBatchQuantity(\n        uint256 productId,\n        uint256 newBatchQuantity\n    ) public ownerOnly(productId) validProductId(productId) {\n        products[productId].batchQuantity = newBatchQuantity;\n    }\n\n    function getUnitPrice(\n        uint256 productId\n    ) public view validProductId(productId) returns (uint256) {\n        return products[productId].unitPrice;\n    }\n\n    function setUnitPrice(\n        uint256 productId,\n        uint256 newUnitPrice\n    ) public ownerOnly(productId) validProductId(productId) {\n        products[productId].unitPrice = newUnitPrice;\n    }\n\n    function getCategory(\n        uint256 productId\n    ) public view validProductId(productId) returns (string memory) {\n        return products[productId].category;\n    }\n\n    function setCategory(\n        uint256 productId,\n        string memory newCategory\n    ) public ownerOnly(productId) validProductId(productId) {\n        products[productId].category = newCategory;\n    }\n\n    function getReceived(\n        uint256 productId\n    ) public view validProductId(productId) returns (bool) {\n        return products[productId].received;\n    }\n\n    function setReceived(\n        uint256 productId,\n        bool newReceived\n    ) public ownerOnly(productId) validProductId(productId) {\n        products[productId].received = newReceived;\n    }\n\n    function getUsed(\n        uint256 productId\n    ) public view validProductId(productId) returns (bool) {\n        return products[productId].used;\n    }\n\n    function setUsed(\n        uint256 productId,\n        bool used\n    ) public ownerOnly(productId) validProductId(productId) {\n        products[productId].used = used;\n    }\n\n    function getPreviousLocation(\n        uint256 productId,\n        uint256 index\n    )\n        public\n        view\n        validProductId(productId)\n        returns (string memory, string memory, string memory)\n    {\n        require(\n            index < products[productId].previousLocationIds.length,\n            \"Invalid index\"\n        );\n        return (\n            location[products[productId].previousLocationIds[index]].location,\n            location[products[productId].previousLocationIds[index]].disbatchDate,\n            location[products[productId].previousLocationIds[index]].arrivalDate\n        );\n    }\n\n    function addPreviousLocation(\n        uint256 productId,\n        string memory prevLocation,\n        string memory prevDisbatchDate,\n        string memory prevArrivalDate\n    ) public ownerOnly(productId) validProductId(productId) {\n        uint256 newLocationId = noLocation++;\n        location[newLocationId] = productLocation({\n                location: prevLocation,\n                disbatchDate: prevDisbatchDate,\n                arrivalDate: prevArrivalDate\n            });\n        products[productId].previousLocationIds.push(newLocationId);\n    }\n\n    function getCurrentLocation(\n        uint256 productId\n    )\n        public\n        view\n        validProductId(productId)\n        returns (string memory, string memory, string memory)\n    {\n        return (\n            products[productId].currentLocation.location,\n            products[productId].currentLocation.disbatchDate,\n            products[productId].currentLocation.arrivalDate\n        );\n    }\n\n    function setCurrentLocation(\n        uint256 productId,\n        string memory newLocation,\n        string memory newDisbatchDate,\n        string memory newArrivalDate\n    ) public ownerOnly(productId) validProductId(productId) {\n        products[productId].currentLocation = productLocation({\n            location: newLocation,\n            disbatchDate: newDisbatchDate,\n            arrivalDate: newArrivalDate\n        });\n    }\n\n    function getReadyToShip(\n        uint256 productId\n    ) public view ownerOnly(productId) returns (bool) {\n        products[productId].readyToShip;\n    }\n\n    function setReadyToShip(\n        uint256 productId,\n        bool shipStatus\n    ) public ownerOnly(productId) validProductId(productId) {\n        products[productId].readyToShip = shipStatus;\n    }\n}\n",
  "sourcePath": "/Users/jarrentoh/Documents/GitHub/Wine Supplychain Blockchain/contracts/Product.sol",
  "compiler": {
    "name": "solc",
    "version": "0.5.16+commit.9c3226ce.Emscripten.clang"
  },
  "schemaVersion": "3.4.11",
  "updatedAt": "2023-03-31T13:13:02.599Z",
  "devdoc": {
    "methods": {}
  },
  "userdoc": {
    "methods": {}
  }
}