{
  "contractName": "Product",
  "abi": [
    {
      "anonymous": false,
      "inputs": [
        {
          "indexed": false,
          "internalType": "uint256",
          "name": "newProductId",
          "type": "uint256"
        },
        {
          "indexed": false,
          "internalType": "string",
          "name": "name",
          "type": "string"
        },
        {
          "indexed": false,
          "internalType": "address",
          "name": "currentContractAddress",
          "type": "address"
        }
      ],
      "name": "ProductCreated",
      "type": "event"
    },
    {
      "constant": true,
      "inputs": [],
      "name": "noLocation",
      "outputs": [
        {
          "internalType": "uint256",
          "name": "",
          "type": "uint256"
        }
      ],
      "payable": false,
      "stateMutability": "view",
      "type": "function"
    },
    {
      "constant": true,
      "inputs": [],
      "name": "noProduct",
      "outputs": [
        {
          "internalType": "uint256",
          "name": "",
          "type": "uint256"
        }
      ],
      "payable": false,
      "stateMutability": "view",
      "type": "function"
    },
    {
      "constant": false,
      "inputs": [
        {
          "internalType": "string",
          "name": "name",
          "type": "string"
        },
        {
          "internalType": "address",
          "name": "currentContractAddress",
          "type": "address"
        },
        {
          "internalType": "uint256",
          "name": "unitQuantity",
          "type": "uint256"
        },
        {
          "internalType": "string",
          "name": "unitQuantityType",
          "type": "string"
        },
        {
          "internalType": "uint256",
          "name": "batchQuantity",
          "type": "uint256"
        },
        {
          "internalType": "uint256",
          "name": "unitPrice",
          "type": "uint256"
        },
        {
          "internalType": "string",
          "name": "category",
          "type": "string"
        },
        {
          "internalType": "address",
          "name": "messageSender",
          "type": "address"
        }
      ],
      "name": "createProduct",
      "outputs": [
        {
          "internalType": "uint256",
          "name": "",
          "type": "uint256"
        }
      ],
      "payable": false,
      "stateMutability": "nonpayable",
      "type": "function"
    },
    {
      "constant": false,
      "inputs": [
        {
          "internalType": "uint256",
          "name": "mainProductId",
          "type": "uint256"
        },
        {
          "internalType": "uint256",
          "name": "productId",
          "type": "uint256"
        }
      ],
      "name": "addComponentProduct",
      "outputs": [],
      "payable": false,
      "stateMutability": "nonpayable",
      "type": "function"
    },
    {
      "constant": false,
      "inputs": [
        {
          "internalType": "uint256",
          "name": "productId",
          "type": "uint256"
        },
        {
          "internalType": "address",
          "name": "newOwner",
          "type": "address"
        },
        {
          "internalType": "address",
          "name": "newContractAdddress",
          "type": "address"
        }
      ],
      "name": "transferProduct",
      "outputs": [],
      "payable": false,
      "stateMutability": "nonpayable",
      "type": "function"
    },
    {
      "constant": false,
      "inputs": [
        {
          "internalType": "uint256",
          "name": "productId",
          "type": "uint256"
        }
      ],
      "name": "removeProduct",
      "outputs": [],
      "payable": false,
      "stateMutability": "nonpayable",
      "type": "function"
    },
    {
      "constant": true,
      "inputs": [
        {
          "internalType": "uint256",
          "name": "productId",
          "type": "uint256"
        }
      ],
      "name": "getProductName",
      "outputs": [
        {
          "internalType": "string",
          "name": "",
          "type": "string"
        }
      ],
      "payable": false,
      "stateMutability": "view",
      "type": "function"
    },
    {
      "constant": true,
      "inputs": [
        {
          "internalType": "uint256",
          "name": "productId",
          "type": "uint256"
        }
      ],
      "name": "getCurrentOwner",
      "outputs": [
        {
          "internalType": "address",
          "name": "",
          "type": "address"
        }
      ],
      "payable": false,
      "stateMutability": "view",
      "type": "function"
    },
    {
      "constant": false,
      "inputs": [
        {
          "internalType": "uint256",
          "name": "productId",
          "type": "uint256"
        },
        {
          "internalType": "address",
          "name": "newOwner",
          "type": "address"
        }
      ],
      "name": "setCurrentOwner",
      "outputs": [],
      "payable": false,
      "stateMutability": "nonpayable",
      "type": "function"
    },
    {
      "constant": true,
      "inputs": [
        {
          "internalType": "uint256",
          "name": "productId",
          "type": "uint256"
        }
      ],
      "name": "getCurrentContractAddress",
      "outputs": [
        {
          "internalType": "address",
          "name": "",
          "type": "address"
        }
      ],
      "payable": false,
      "stateMutability": "view",
      "type": "function"
    },
    {
      "constant": false,
      "inputs": [
        {
          "internalType": "uint256",
          "name": "productId",
          "type": "uint256"
        },
        {
          "internalType": "address",
          "name": "newContractAddress",
          "type": "address"
        }
      ],
      "name": "setCurrentContractAddress",
      "outputs": [],
      "payable": false,
      "stateMutability": "nonpayable",
      "type": "function"
    },
    {
      "constant": true,
      "inputs": [
        {
          "internalType": "uint256",
          "name": "productId",
          "type": "uint256"
        }
      ],
      "name": "getPreviousOwner",
      "outputs": [
        {
          "internalType": "address",
          "name": "",
          "type": "address"
        }
      ],
      "payable": false,
      "stateMutability": "view",
      "type": "function"
    },
    {
      "constant": false,
      "inputs": [
        {
          "internalType": "uint256",
          "name": "productId",
          "type": "uint256"
        },
        {
          "internalType": "address",
          "name": "newPreviousOwner",
          "type": "address"
        }
      ],
      "name": "setPreviousOwner",
      "outputs": [],
      "payable": false,
      "stateMutability": "nonpayable",
      "type": "function"
    },
    {
      "constant": true,
      "inputs": [
        {
          "internalType": "uint256",
          "name": "productId",
          "type": "uint256"
        }
      ],
      "name": "getPreviousContractAddress",
      "outputs": [
        {
          "internalType": "address",
          "name": "",
          "type": "address"
        }
      ],
      "payable": false,
      "stateMutability": "view",
      "type": "function"
    },
    {
      "constant": false,
      "inputs": [
        {
          "internalType": "uint256",
          "name": "productId",
          "type": "uint256"
        },
        {
          "internalType": "address",
          "name": "newPreviousContractAddress",
          "type": "address"
        }
      ],
      "name": "setPreviousContractAddress",
      "outputs": [],
      "payable": false,
      "stateMutability": "nonpayable",
      "type": "function"
    },
    {
      "constant": true,
      "inputs": [
        {
          "internalType": "uint256",
          "name": "productId",
          "type": "uint256"
        }
      ],
      "name": "getPlaceOfOrigin",
      "outputs": [
        {
          "internalType": "string",
          "name": "",
          "type": "string"
        }
      ],
      "payable": false,
      "stateMutability": "view",
      "type": "function"
    },
    {
      "constant": false,
      "inputs": [
        {
          "internalType": "uint256",
          "name": "productId",
          "type": "uint256"
        },
        {
          "internalType": "string",
          "name": "newPlaceOfOrigin",
          "type": "string"
        }
      ],
      "name": "setPlaceOfOrigin",
      "outputs": [],
      "payable": false,
      "stateMutability": "nonpayable",
      "type": "function"
    },
    {
      "constant": true,
      "inputs": [
        {
          "internalType": "uint256",
          "name": "productId",
          "type": "uint256"
        }
      ],
      "name": "getProductionDate",
      "outputs": [
        {
          "internalType": "string",
          "name": "",
          "type": "string"
        }
      ],
      "payable": false,
      "stateMutability": "view",
      "type": "function"
    },
    {
      "constant": false,
      "inputs": [
        {
          "internalType": "uint256",
          "name": "productId",
          "type": "uint256"
        },
        {
          "internalType": "string",
          "name": "newProductionDate",
          "type": "string"
        }
      ],
      "name": "setProductionDate",
      "outputs": [],
      "payable": false,
      "stateMutability": "nonpayable",
      "type": "function"
    },
    {
      "constant": true,
      "inputs": [
        {
          "internalType": "uint256",
          "name": "productId",
          "type": "uint256"
        }
      ],
      "name": "getExpirationDate",
      "outputs": [
        {
          "internalType": "string",
          "name": "",
          "type": "string"
        }
      ],
      "payable": false,
      "stateMutability": "view",
      "type": "function"
    },
    {
      "constant": false,
      "inputs": [
        {
          "internalType": "uint256",
          "name": "productId",
          "type": "uint256"
        },
        {
          "internalType": "string",
          "name": "newExpirationDate",
          "type": "string"
        }
      ],
      "name": "setExpirationDate",
      "outputs": [],
      "payable": false,
      "stateMutability": "nonpayable",
      "type": "function"
    },
    {
      "constant": true,
      "inputs": [
        {
          "internalType": "uint256",
          "name": "productId",
          "type": "uint256"
        }
      ],
      "name": "getUnitQuantity",
      "outputs": [
        {
          "internalType": "uint256",
          "name": "",
          "type": "uint256"
        }
      ],
      "payable": false,
      "stateMutability": "view",
      "type": "function"
    },
    {
      "constant": false,
      "inputs": [
        {
          "internalType": "uint256",
          "name": "productId",
          "type": "uint256"
        },
        {
          "internalType": "uint256",
          "name": "newUnitQuantity",
          "type": "uint256"
        }
      ],
      "name": "setUnitQuantity",
      "outputs": [],
      "payable": false,
      "stateMutability": "nonpayable",
      "type": "function"
    },
    {
      "constant": true,
      "inputs": [
        {
          "internalType": "uint256",
          "name": "productId",
          "type": "uint256"
        }
      ],
      "name": "getUnitQuantityType",
      "outputs": [
        {
          "internalType": "string",
          "name": "",
          "type": "string"
        }
      ],
      "payable": false,
      "stateMutability": "view",
      "type": "function"
    },
    {
      "constant": false,
      "inputs": [
        {
          "internalType": "uint256",
          "name": "productId",
          "type": "uint256"
        },
        {
          "internalType": "string",
          "name": "newUnitQuantityType",
          "type": "string"
        }
      ],
      "name": "setUnitQuantityType",
      "outputs": [],
      "payable": false,
      "stateMutability": "nonpayable",
      "type": "function"
    },
    {
      "constant": true,
      "inputs": [
        {
          "internalType": "uint256",
          "name": "productId",
          "type": "uint256"
        }
      ],
      "name": "getBatchQuantity",
      "outputs": [
        {
          "internalType": "uint256",
          "name": "",
          "type": "uint256"
        }
      ],
      "payable": false,
      "stateMutability": "view",
      "type": "function"
    },
    {
      "constant": false,
      "inputs": [
        {
          "internalType": "uint256",
          "name": "productId",
          "type": "uint256"
        },
        {
          "internalType": "uint256",
          "name": "newBatchQuantity",
          "type": "uint256"
        }
      ],
      "name": "setBatchQuantity",
      "outputs": [],
      "payable": false,
      "stateMutability": "nonpayable",
      "type": "function"
    },
    {
      "constant": true,
      "inputs": [
        {
          "internalType": "uint256",
          "name": "productId",
          "type": "uint256"
        }
      ],
      "name": "getUnitPrice",
      "outputs": [
        {
          "internalType": "uint256",
          "name": "",
          "type": "uint256"
        }
      ],
      "payable": false,
      "stateMutability": "view",
      "type": "function"
    },
    {
      "constant": false,
      "inputs": [
        {
          "internalType": "uint256",
          "name": "productId",
          "type": "uint256"
        },
        {
          "internalType": "uint256",
          "name": "newUnitPrice",
          "type": "uint256"
        }
      ],
      "name": "setUnitPrice",
      "outputs": [],
      "payable": false,
      "stateMutability": "nonpayable",
      "type": "function"
    },
    {
      "constant": true,
      "inputs": [
        {
          "internalType": "uint256",
          "name": "productId",
          "type": "uint256"
        }
      ],
      "name": "getCategory",
      "outputs": [
        {
          "internalType": "string",
          "name": "",
          "type": "string"
        }
      ],
      "payable": false,
      "stateMutability": "view",
      "type": "function"
    },
    {
      "constant": false,
      "inputs": [
        {
          "internalType": "uint256",
          "name": "productId",
          "type": "uint256"
        },
        {
          "internalType": "string",
          "name": "newCategory",
          "type": "string"
        }
      ],
      "name": "setCategory",
      "outputs": [],
      "payable": false,
      "stateMutability": "nonpayable",
      "type": "function"
    },
    {
      "constant": true,
      "inputs": [
        {
          "internalType": "uint256",
          "name": "productId",
          "type": "uint256"
        }
      ],
      "name": "getReceived",
      "outputs": [
        {
          "internalType": "bool",
          "name": "",
          "type": "bool"
        }
      ],
      "payable": false,
      "stateMutability": "view",
      "type": "function"
    },
    {
      "constant": false,
      "inputs": [
        {
          "internalType": "uint256",
          "name": "productId",
          "type": "uint256"
        },
        {
          "internalType": "bool",
          "name": "newReceived",
          "type": "bool"
        }
      ],
      "name": "setReceived",
      "outputs": [],
      "payable": false,
      "stateMutability": "nonpayable",
      "type": "function"
    },
    {
      "constant": true,
      "inputs": [
        {
          "internalType": "uint256",
          "name": "productId",
          "type": "uint256"
        }
      ],
      "name": "getUsed",
      "outputs": [
        {
          "internalType": "bool",
          "name": "",
          "type": "bool"
        }
      ],
      "payable": false,
      "stateMutability": "view",
      "type": "function"
    },
    {
      "constant": false,
      "inputs": [
        {
          "internalType": "uint256",
          "name": "productId",
          "type": "uint256"
        },
        {
          "internalType": "bool",
          "name": "used",
          "type": "bool"
        }
      ],
      "name": "setUsed",
      "outputs": [],
      "payable": false,
      "stateMutability": "nonpayable",
      "type": "function"
    },
    {
      "constant": true,
      "inputs": [
        {
          "internalType": "uint256",
          "name": "productId",
          "type": "uint256"
        },
        {
          "internalType": "uint256",
          "name": "index",
          "type": "uint256"
        }
      ],
      "name": "getPreviousLocation",
      "outputs": [
        {
          "internalType": "string",
          "name": "",
          "type": "string"
        },
        {
          "internalType": "string",
          "name": "",
          "type": "string"
        },
        {
          "internalType": "string",
          "name": "",
          "type": "string"
        }
      ],
      "payable": false,
      "stateMutability": "view",
      "type": "function"
    },
    {
      "constant": false,
      "inputs": [
        {
          "internalType": "uint256",
          "name": "productId",
          "type": "uint256"
        },
        {
          "internalType": "string",
          "name": "prevLocation",
          "type": "string"
        },
        {
          "internalType": "string",
          "name": "prevDisbatchDate",
          "type": "string"
        },
        {
          "internalType": "string",
          "name": "prevArrivalDate",
          "type": "string"
        }
      ],
      "name": "addPreviousLocation",
      "outputs": [],
      "payable": false,
      "stateMutability": "nonpayable",
      "type": "function"
    },
    {
      "constant": true,
      "inputs": [
        {
          "internalType": "uint256",
          "name": "productId",
          "type": "uint256"
        }
      ],
      "name": "getCurrentLocation",
      "outputs": [
        {
          "internalType": "string",
          "name": "",
          "type": "string"
        },
        {
          "internalType": "string",
          "name": "",
          "type": "string"
        },
        {
          "internalType": "string",
          "name": "",
          "type": "string"
        }
      ],
      "payable": false,
      "stateMutability": "view",
      "type": "function"
    },
    {
      "constant": false,
      "inputs": [
        {
          "internalType": "uint256",
          "name": "productId",
          "type": "uint256"
        },
        {
          "internalType": "string",
          "name": "newLocation",
          "type": "string"
        },
        {
          "internalType": "string",
          "name": "newDisbatchDate",
          "type": "string"
        },
        {
          "internalType": "string",
          "name": "newArrivalDate",
          "type": "string"
        }
      ],
      "name": "setCurrentLocation",
      "outputs": [],
      "payable": false,
      "stateMutability": "nonpayable",
      "type": "function"
    },
    {
      "constant": true,
      "inputs": [
        {
          "internalType": "uint256",
          "name": "productId",
          "type": "uint256"
        }
      ],
      "name": "getReadyToShip",
      "outputs": [
        {
          "internalType": "bool",
          "name": "",
          "type": "bool"
        }
      ],
      "payable": false,
      "stateMutability": "view",
      "type": "function"
    },
    {
      "constant": false,
      "inputs": [
        {
          "internalType": "uint256",
          "name": "productId",
          "type": "uint256"
        },
        {
          "internalType": "bool",
          "name": "shipStatus",
          "type": "bool"
        }
      ],
      "name": "setReadyToShip",
      "outputs": [],
      "payable": false,
      "stateMutability": "nonpayable",
      "type": "function"
    }
  ],
  "bytecode": "0x6080604052336000806101000a81548173ffffffffffffffffffffffffffffffffffffffff021916908373ffffffffffffffffffffffffffffffffffffffff1602179055506000600155600060025534801561005a57600080fd5b5061427e8061006a6000396000f3fe608060405234801561001057600080fd5b50600436106102525760003560e01c80636c125a6b11610146578063a86fd8cf116100c3578063d845000111610087578063d84500011461165d578063d88ee32914611704578063dc633839146118f7578063dcd9d2cb1461192f578063f3052d2614611969578063fe73e86c14611a1057610252565b8063a86fd8cf14611455578063c272137c14611473578063cb090a27146114b9578063cf42316d1461157e578063d38aaa5c146115b657610252565b806387f31bef1161010a57806387f31bef146111d6578063881dad941461129b57806391f4caca146112b95780639a154635146113075780639e62e795146113ae57610252565b80636c125a6b14610e285780636caff5dc14610e765780636d12687414610eb05780637ace341b14610f75578063809db2f814610fe357610252565b806340889b4f116101d45780635e478e6c116101985780635e478e6c14610b535780635ee95cae14610bc15780635f19c9b714610bef57806364c0e52f14610c5d578063650a48c614610c9f57610252565b806340889b4f146108fd57806343c92b6a14610943578063555cde1c14610a0857806358ff352a14610acd5780635b6f6a3b14610b1b57610252565b80632364d78b1161021b5780632364d78b1461040957806323bb18351461044157806326437c48146105c057806331260fd3146106675780633d30ffb8146108c357610252565b806256856a146102575780630772c45e146102c55780630cc91022146103335780631861d02e146103815780631becaefb146103c3575b600080fd5b6102836004803603602081101561026d57600080fd5b8101908080359060200190929190505050611a52565b604051808273ffffffffffffffffffffffffffffffffffffffff1673ffffffffffffffffffffffffffffffffffffffff16815260200191505060405180910390f35b6102f1600480360360208110156102db57600080fd5b8101908080359060200190929190505050611aa2565b604051808273ffffffffffffffffffffffffffffffffffffffff1673ffffffffffffffffffffffffffffffffffffffff16815260200191505060405180910390f35b61037f6004803603604081101561034957600080fd5b8101908080359060200190929190803573ffffffffffffffffffffffffffffffffffffffff169060200190929190505050611af2565b005b6103ad6004803603602081101561039757600080fd5b8101908080359060200190929190505050611bcb565b6040518082815260200191505060405180910390f35b6103ef600480360360208110156103d957600080fd5b8101908080359060200190929190505050611bfb565b604051808215151515815260200191505060405180910390f35b61043f6004803603604081101561041f57600080fd5b810190808035906020019092919080359060200190929190505050611c38565b005b61046d6004803603602081101561045757600080fd5b8101908080359060200190929190505050611cd7565b60405180806020018060200180602001848103845287818151815260200191508051906020019080838360005b838110156104b557808201518184015260208101905061049a565b50505050905090810190601f1680156104e25780820380516001836020036101000a031916815260200191505b50848103835286818151815260200191508051906020019080838360005b8381101561051b578082015181840152602081019050610500565b50505050905090810190601f1680156105485780820380516001836020036101000a031916815260200191505b50848103825285818151815260200191508051906020019080838360005b83811015610581578082015181840152602081019050610566565b50505050905090810190601f1680156105ae5780820380516001836020036101000a031916815260200191505b50965050505050505060405180910390f35b6105ec600480360360208110156105d657600080fd5b8101908080359060200190929190505050611f18565b6040518080602001828103825283818151815260200191508051906020019080838360005b8381101561062c578082015181840152602081019050610611565b50505050905090810190601f1680156106595780820380516001836020036101000a031916815260200191505b509250505060405180910390f35b6108ad600480360361010081101561067e57600080fd5b810190808035906020019064010000000081111561069b57600080fd5b8201836020820111156106ad57600080fd5b803590602001918460018302840111640100000000831117156106cf57600080fd5b91908080601f016020809104026020016040519081016040528093929190818152602001838380828437600081840152601f19601f820116905080830192505050505050509192919290803573ffffffffffffffffffffffffffffffffffffffff169060200190929190803590602001909291908035906020019064010000000081111561075c57600080fd5b82018360208201111561076e57600080fd5b8035906020019184600183028401116401000000008311171561079057600080fd5b91908080601f016020809104026020016040519081016040528093929190818152602001838380828437600081840152601f19601f82011690508083019250505050505050919291929080359060200190929190803590602001909291908035906020019064010000000081111561080757600080fd5b82018360208201111561081957600080fd5b8035906020019184600183028401116401000000008311171561083b57600080fd5b91908080601f016020809104026020016040519081016040528093929190818152602001838380828437600081840152601f19601f820116905080830192505050505050509192919290803573ffffffffffffffffffffffffffffffffffffffff169060200190929190505050611fe0565b6040518082815260200191505060405180910390f35b6108fb600480360360408110156108d957600080fd5b810190808035906020019092919080351515906020019092919050505061261e565b005b6109296004803603602081101561091357600080fd5b81019080803590602001909291905050506126ff565b604051808215151515815260200191505060405180910390f35b610a066004803603604081101561095957600080fd5b81019080803590602001909291908035906020019064010000000081111561098057600080fd5b82018360208201111561099257600080fd5b803590602001918460018302840111640100000000831117156109b457600080fd5b91908080601f016020809104026020016040519081016040528093929190818152602001838380828437600081840152601f19601f820116905080830192505050505050509192919290505050612798565b005b610acb60048036036040811015610a1e57600080fd5b810190808035906020019092919080359060200190640100000000811115610a4557600080fd5b820183602082011115610a5757600080fd5b80359060200191846001830284011164010000000083111715610a7957600080fd5b91908080601f016020809104026020016040519081016040528093929190818152602001838380828437600081840152601f19601f820116905080830192505050505050509192919290505050612847565b005b610b1960048036036040811015610ae357600080fd5b8101908080359060200190929190803573ffffffffffffffffffffffffffffffffffffffff1690602001909291905050506128f6565b005b610b5160048036036040811015610b3157600080fd5b8101908080359060200190929190803590602001909291905050506129cf565b005b610b7f60048036036020811015610b6957600080fd5b8101908080359060200190929190505050612a6e565b604051808273ffffffffffffffffffffffffffffffffffffffff1673ffffffffffffffffffffffffffffffffffffffff16815260200191505060405180910390f35b610bed60048036036020811015610bd757600080fd5b8101908080359060200190929190505050612abe565b005b610c5b60048036036060811015610c0557600080fd5b8101908080359060200190929190803573ffffffffffffffffffffffffffffffffffffffff169060200190929190803573ffffffffffffffffffffffffffffffffffffffff169060200190929190505050612d06565b005b610c8960048036036020811015610c7357600080fd5b8101908080359060200190929190505050612f4b565b6040518082815260200191505060405180910390f35b610cd560048036036040811015610cb557600080fd5b810190808035906020019092919080359060200190929190505050612f7b565b60405180806020018060200180602001848103845287818151815260200191508051906020019080838360005b83811015610d1d578082015181840152602081019050610d02565b50505050905090810190601f168015610d4a5780820380516001836020036101000a031916815260200191505b50848103835286818151815260200191508051906020019080838360005b83811015610d83578082015181840152602081019050610d68565b50505050905090810190601f168015610db05780820380516001836020036101000a031916815260200191505b50848103825285818151815260200191508051906020019080838360005b83811015610de9578082015181840152602081019050610dce565b50505050905090810190601f168015610e165780820380516001836020036101000a031916815260200191505b50965050505050505060405180910390f35b610e7460048036036040811015610e3e57600080fd5b8101908080359060200190929190803573ffffffffffffffffffffffffffffffffffffffff1690602001909291905050506132c2565b005b610eae60048036036040811015610e8c57600080fd5b810190808035906020019092919080351515906020019092919050505061339b565b005b610f7360048036036040811015610ec657600080fd5b810190808035906020019092919080359060200190640100000000811115610eed57600080fd5b820183602082011115610eff57600080fd5b80359060200191846001830284011164010000000083111715610f2157600080fd5b91908080601f016020809104026020016040519081016040528093929190818152602001838380828437600081840152601f19601f82011690508083019250505050505050919291929050505061344d565b005b610fa160048036036020811015610f8b57600080fd5b81019080803590602001909291905050506134fc565b604051808273ffffffffffffffffffffffffffffffffffffffff1673ffffffffffffffffffffffffffffffffffffffff16815260200191505060405180910390f35b6111d460048036036080811015610ff957600080fd5b81019080803590602001909291908035906020019064010000000081111561102057600080fd5b82018360208201111561103257600080fd5b8035906020019184600183028401116401000000008311171561105457600080fd5b91908080601f016020809104026020016040519081016040528093929190818152602001838380828437600081840152601f19601f820116905080830192505050505050509192919290803590602001906401000000008111156110b757600080fd5b8201836020820111156110c957600080fd5b803590602001918460018302840111640100000000831117156110eb57600080fd5b91908080601f016020809104026020016040519081016040528093929190818152602001838380828437600081840152601f19601f8201169050808301925050505050505091929192908035906020019064010000000081111561114e57600080fd5b82018360208201111561116057600080fd5b8035906020019184600183028401116401000000008311171561118257600080fd5b91908080601f016020809104026020016040519081016040528093929190818152602001838380828437600081840152601f19601f82011690508083019250505050505050919291929050505061354c565b005b611299600480360360408110156111ec57600080fd5b81019080803590602001909291908035906020019064010000000081111561121357600080fd5b82018360208201111561122557600080fd5b8035906020019184600183028401116401000000008311171561124757600080fd5b91908080601f016020809104026020016040519081016040528093929190818152602001838380828437600081840152601f19601f82011690508083019250505050505050919291929050505061365d565b005b6112a361370c565b6040518082815260200191505060405180910390f35b611305600480360360408110156112cf57600080fd5b8101908080359060200190929190803573ffffffffffffffffffffffffffffffffffffffff169060200190929190505050613712565b005b6113336004803603602081101561131d57600080fd5b81019080803590602001909291905050506137eb565b6040518080602001828103825283818151815260200191508051906020019080838360005b83811015611373578082015181840152602081019050611358565b50505050905090810190601f1680156113a05780820380516001836020036101000a031916815260200191505b509250505060405180910390f35b6113da600480360360208110156113c457600080fd5b81019080803590602001909291905050506138b3565b6040518080602001828103825283818151815260200191508051906020019080838360005b8381101561141a5780820151818401526020810190506113ff565b50505050905090810190601f1680156114475780820380516001836020036101000a031916815260200191505b509250505060405180910390f35b61145d61397b565b6040518082815260200191505060405180910390f35b61149f6004803603602081101561148957600080fd5b8101908080359060200190929190505050613981565b604051808215151515815260200191505060405180910390f35b61157c600480360360408110156114cf57600080fd5b8101908080359060200190929190803590602001906401000000008111156114f657600080fd5b82018360208201111561150857600080fd5b8035906020019184600183028401116401000000008311171561152a57600080fd5b91908080601f016020809104026020016040519081016040528093929190818152602001838380828437600081840152601f19601f8201169050808301925050505050505091929192905050506139be565b005b6115b46004803603604081101561159457600080fd5b810190808035906020019092919080359060200190929190505050613a6d565b005b6115e2600480360360208110156115cc57600080fd5b8101908080359060200190929190505050613b31565b6040518080602001828103825283818151815260200191508051906020019080838360005b83811015611622578082015181840152602081019050611607565b50505050905090810190601f16801561164f5780820380516001836020036101000a031916815260200191505b509250505060405180910390f35b6116896004803603602081101561167357600080fd5b8101908080359060200190929190505050613bf9565b6040518080602001828103825283818151815260200191508051906020019080838360005b838110156116c95780820151818401526020810190506116ae565b50505050905090810190601f1680156116f65780820380516001836020036101000a031916815260200191505b509250505060405180910390f35b6118f56004803603608081101561171a57600080fd5b81019080803590602001909291908035906020019064010000000081111561174157600080fd5b82018360208201111561175357600080fd5b8035906020019184600183028401116401000000008311171561177557600080fd5b91908080601f016020809104026020016040519081016040528093929190818152602001838380828437600081840152601f19601f820116905080830192505050505050509192919290803590602001906401000000008111156117d857600080fd5b8201836020820111156117ea57600080fd5b8035906020019184600183028401116401000000008311171561180c57600080fd5b91908080601f016020809104026020016040519081016040528093929190818152602001838380828437600081840152601f19601f8201169050808301925050505050505091929192908035906020019064010000000081111561186f57600080fd5b82018360208201111561188157600080fd5b803590602001918460018302840111640100000000831117156118a357600080fd5b91908080601f016020809104026020016040519081016040528093929190818152602001838380828437600081840152601f19601f820116905080830192505050505050509192919290505050613cc1565b005b61192d6004803603604081101561190d57600080fd5b810190808035906020019092919080359060200190929190505050613e25565b005b6119676004803603604081101561194557600080fd5b8101908080359060200190929190803515159060200190929190505050613ec4565b005b6119956004803603602081101561197f57600080fd5b8101908080359060200190929190505050613f76565b6040518080602001828103825283818151815260200191508051906020019080838360005b838110156119d55780820151818401526020810190506119ba565b50505050905090810190601f168015611a025780820380516001836020036101000a031916815260200191505b509250505060405180910390f35b611a3c60048036036020811015611a2657600080fd5b810190808035906020019092919050505061403e565b6040518082815260200191505060405180910390f35b6000816001548110611a6357600080fd5b6003600084815260200190815260200160002060050160009054906101000a900473ffffffffffffffffffffffffffffffffffffffff16915050919050565b6000816001548110611ab357600080fd5b6003600084815260200190815260200160002060040160009054906101000a900473ffffffffffffffffffffffffffffffffffffffff16915050919050565b813273ffffffffffffffffffffffffffffffffffffffff166003600083815260200190815260200160002060030160009054906101000a900473ffffffffffffffffffffffffffffffffffffffff1673ffffffffffffffffffffffffffffffffffffffff1614611b6157600080fd5b826001548110611b7057600080fd5b826003600086815260200190815260200160002060050160006101000a81548173ffffffffffffffffffffffffffffffffffffffff021916908373ffffffffffffffffffffffffffffffffffffffff16021790555050505050565b6000816001548110611bdc57600080fd5b60036000848152602001908152602001600020600a0154915050919050565b6000816001548110611c0c57600080fd5b60036000848152602001908152602001600020600f0160009054906101000a900460ff16915050919050565b813273ffffffffffffffffffffffffffffffffffffffff166003600083815260200190815260200160002060030160009054906101000a900473ffffffffffffffffffffffffffffffffffffffff1673ffffffffffffffffffffffffffffffffffffffff1614611ca757600080fd5b826001548110611cb657600080fd5b8260036000868152602001908152602001600020600c018190555050505050565b6060806060836001548110611ceb57600080fd5b600360008681526020019081526020016000206011016000016003600087815260200190815260200160002060110160010160036000888152602001908152602001600020601101600201828054600181600116156101000203166002900480601f016020809104026020016040519081016040528092919081815260200182805460018160011615610100020316600290048015611dcb5780601f10611da057610100808354040283529160200191611dcb565b820191906000526020600020905b815481529060010190602001808311611dae57829003601f168201915b50505050509250818054600181600116156101000203166002900480601f016020809104026020016040519081016040528092919081815260200182805460018160011615610100020316600290048015611e675780601f10611e3c57610100808354040283529160200191611e67565b820191906000526020600020905b815481529060010190602001808311611e4a57829003601f168201915b50505050509150808054600181600116156101000203166002900480601f016020809104026020016040519081016040528092919081815260200182805460018160011615610100020316600290048015611f035780601f10611ed857610100808354040283529160200191611f03565b820191906000526020600020905b815481529060010190602001808311611ee657829003601f168201915b50505050509050935093509350509193909250565b6060816001548110611f2957600080fd5b600360008481526020019081526020016000206008018054600181600116156101000203166002900480601f016020809104026020016040519081016040528092919081815260200182805460018160011615610100020316600290048015611fd35780601f10611fa857610100808354040283529160200191611fd3565b820191906000526020600020905b815481529060010190602001808311611fb657829003601f168201915b5050505050915050919050565b600080895111612058576040517f08c379a00000000000000000000000000000000000000000000000000000000081526004018080602001828103825260148152602001807f4e616d652063616e6e6f7420626520656d70747900000000000000000000000081525060200191505060405180910390fd5b60006001600081548092919060010191905055905060405180610280016040528060006040519080825280602002602001820160405280156120a95781602001602082028038833980820191505090505b5081526020018281526020018b81526020018473ffffffffffffffffffffffffffffffffffffffff1681526020018a73ffffffffffffffffffffffffffffffffffffffff168152602001600073ffffffffffffffffffffffffffffffffffffffff168152602001600073ffffffffffffffffffffffffffffffffffffffff16815260200160405180602001604052806000815250815260200160405180602001604052806000815250815260200160405180602001604052806000815250815260200189815260200188815260200187815260200186815260200185815260200160001515815260200160001515815260200160006040519080825280602002602001820160405280156121cc5781602001602082028038833980820191505090505b50815260200160405180606001604052806040518060200160405280600081525081526020016040518060200160405280600081525081526020016040518060200160405280600081525081525081526020016000151581525060036000838152602001908152602001600020600082015181600001908051906020019061225592919061406e565b5060208201518160010155604082015181600201908051906020019061227c9291906140bb565b5060608201518160030160006101000a81548173ffffffffffffffffffffffffffffffffffffffff021916908373ffffffffffffffffffffffffffffffffffffffff16021790555060808201518160040160006101000a81548173ffffffffffffffffffffffffffffffffffffffff021916908373ffffffffffffffffffffffffffffffffffffffff16021790555060a08201518160050160006101000a81548173ffffffffffffffffffffffffffffffffffffffff021916908373ffffffffffffffffffffffffffffffffffffffff16021790555060c08201518160060160006101000a81548173ffffffffffffffffffffffffffffffffffffffff021916908373ffffffffffffffffffffffffffffffffffffffff16021790555060e08201518160070190805190602001906123b59291906140bb565b506101008201518160080190805190602001906123d39291906140bb565b506101208201518160090190805190602001906123f19291906140bb565b5061014082015181600a015561016082015181600b01908051906020019061241a9291906140bb565b5061018082015181600c01556101a082015181600d01556101c082015181600e01908051906020019061244e9291906140bb565b506101e082015181600f0160006101000a81548160ff02191690831515021790555061020082015181600f0160016101000a81548160ff0219169083151502179055506102208201518160100190805190602001906124ae92919061406e565b506102408201518160110160008201518160000190805190602001906124d59291906140bb565b5060208201518160010190805190602001906124f29291906140bb565b50604082015181600201908051906020019061250f9291906140bb565b5050506102608201518160140160006101000a81548160ff0219169083151502179055509050507faf6ffb6277511513e7d579327cc1fc57f0266df2fb11a60b13487b8c9cd2c388818b8560405180848152602001806020018373ffffffffffffffffffffffffffffffffffffffff1673ffffffffffffffffffffffffffffffffffffffff168152602001828103825284818151815260200191508051906020019080838360005b838110156125d25780820151818401526020810190506125b7565b50505050905090810190601f1680156125ff5780820380516001836020036101000a031916815260200191505b5094505050505060405180910390a18091505098975050505050505050565b813273ffffffffffffffffffffffffffffffffffffffff166003600083815260200190815260200160002060030160009054906101000a900473ffffffffffffffffffffffffffffffffffffffff1673ffffffffffffffffffffffffffffffffffffffff161461268d57600080fd5b82600154811061269c57600080fd5b826003600086815260200190815260200160002060140160006101000a81548160ff02191690831515021790555060016003600086815260200190815260200160002060140160006101000a81548160ff02191690831515021790555050505050565b6000813273ffffffffffffffffffffffffffffffffffffffff166003600083815260200190815260200160002060030160009054906101000a900473ffffffffffffffffffffffffffffffffffffffff1673ffffffffffffffffffffffffffffffffffffffff161461277057600080fd5b6003600084815260200190815260200160002060140160009054906101000a90505050919050565b813273ffffffffffffffffffffffffffffffffffffffff166003600083815260200190815260200160002060030160009054906101000a900473ffffffffffffffffffffffffffffffffffffffff1673ffffffffffffffffffffffffffffffffffffffff161461280757600080fd5b82600154811061281657600080fd5b8260036000868152602001908152602001600020600901908051906020019061284092919061413b565b5050505050565b813273ffffffffffffffffffffffffffffffffffffffff166003600083815260200190815260200160002060030160009054906101000a900473ffffffffffffffffffffffffffffffffffffffff1673ffffffffffffffffffffffffffffffffffffffff16146128b657600080fd5b8260015481106128c557600080fd5b8260036000868152602001908152602001600020600b0190805190602001906128ef92919061413b565b5050505050565b813273ffffffffffffffffffffffffffffffffffffffff166003600083815260200190815260200160002060030160009054906101000a900473ffffffffffffffffffffffffffffffffffffffff1673ffffffffffffffffffffffffffffffffffffffff161461296557600080fd5b82600154811061297457600080fd5b826003600086815260200190815260200160002060040160006101000a81548173ffffffffffffffffffffffffffffffffffffffff021916908373ffffffffffffffffffffffffffffffffffffffff16021790555050505050565b813273ffffffffffffffffffffffffffffffffffffffff166003600083815260200190815260200160002060030160009054906101000a900473ffffffffffffffffffffffffffffffffffffffff1673ffffffffffffffffffffffffffffffffffffffff1614612a3e57600080fd5b826001548110612a4d57600080fd5b8260036000868152602001908152602001600020600a018190555050505050565b6000816001548110612a7f57600080fd5b6003600084815260200190815260200160002060060160009054906101000a900473ffffffffffffffffffffffffffffffffffffffff16915050919050565b803273ffffffffffffffffffffffffffffffffffffffff166003600083815260200190815260200160002060030160009054906101000a900473ffffffffffffffffffffffffffffffffffffffff1673ffffffffffffffffffffffffffffffffffffffff1614612b2d57600080fd5b816001548110612b3c57600080fd5b6003600084815260200190815260200160002060008082016000612b6091906141bb565b6001820160009055600282016000612b7891906141dc565b6003820160006101000a81549073ffffffffffffffffffffffffffffffffffffffff02191690556004820160006101000a81549073ffffffffffffffffffffffffffffffffffffffff02191690556005820160006101000a81549073ffffffffffffffffffffffffffffffffffffffff02191690556006820160006101000a81549073ffffffffffffffffffffffffffffffffffffffff0219169055600782016000612c2491906141dc565b600882016000612c3491906141dc565b600982016000612c4491906141dc565b600a820160009055600b82016000612c5c91906141dc565b600c820160009055600d820160009055600e82016000612c7c91906141dc565b600f820160006101000a81549060ff0219169055600f820160016101000a81549060ff0219169055601082016000612cb491906141bb565b6011820160008082016000612cc991906141dc565b600182016000612cd991906141dc565b600282016000612ce991906141dc565b50506014820160006101000a81549060ff02191690555050505050565b823273ffffffffffffffffffffffffffffffffffffffff166003600083815260200190815260200160002060030160009054906101000a900473ffffffffffffffffffffffffffffffffffffffff1673ffffffffffffffffffffffffffffffffffffffff1614612d7557600080fd5b836001548110612d8457600080fd5b6003600086815260200190815260200160002060030160009054906101000a900473ffffffffffffffffffffffffffffffffffffffff166003600087815260200190815260200160002060050160006101000a81548173ffffffffffffffffffffffffffffffffffffffff021916908373ffffffffffffffffffffffffffffffffffffffff160217905550836003600087815260200190815260200160002060030160006101000a81548173ffffffffffffffffffffffffffffffffffffffff021916908373ffffffffffffffffffffffffffffffffffffffff1602179055506003600086815260200190815260200160002060040160009054906101000a900473ffffffffffffffffffffffffffffffffffffffff166003600087815260200190815260200160002060060160006101000a81548173ffffffffffffffffffffffffffffffffffffffff021916908373ffffffffffffffffffffffffffffffffffffffff160217905550826003600087815260200190815260200160002060040160006101000a81548173ffffffffffffffffffffffffffffffffffffffff021916908373ffffffffffffffffffffffffffffffffffffffff1602179055505050505050565b6000816001548110612f5c57600080fd5b60036000848152602001908152602001600020600d0154915050919050565b6060806060846001548110612f8f57600080fd5b6003600087815260200190815260200160002060100180549050851061301d576040517f08c379a000000000000000000000000000000000000000000000000000000000815260040180806020018281038252600d8152602001807f496e76616c696420696e6465780000000000000000000000000000000000000081525060200191505060405180910390fd5b6004600060036000898152602001908152602001600020601001878154811061304257fe5b9060005260206000200154815260200190815260200160002060000160046000600360008a8152602001908152602001600020601001888154811061308357fe5b9060005260206000200154815260200190815260200160002060010160046000600360008b815260200190815260200160002060100189815481106130c457fe5b90600052602060002001548152602001908152602001600020600201828054600181600116156101000203166002900480601f0160208091040260200160405190810160405280929190818152602001828054600181600116156101000203166002900480156131755780601f1061314a57610100808354040283529160200191613175565b820191906000526020600020905b81548152906001019060200180831161315857829003601f168201915b50505050509250818054600181600116156101000203166002900480601f0160208091040260200160405190810160405280929190818152602001828054600181600116156101000203166002900480156132115780601f106131e657610100808354040283529160200191613211565b820191906000526020600020905b8154815290600101906020018083116131f457829003601f168201915b50505050509150808054600181600116156101000203166002900480601f0160208091040260200160405190810160405280929190818152602001828054600181600116156101000203166002900480156132ad5780601f10613282576101008083540402835291602001916132ad565b820191906000526020600020905b81548152906001019060200180831161329057829003601f168201915b50505050509050935093509350509250925092565b813273ffffffffffffffffffffffffffffffffffffffff166003600083815260200190815260200160002060030160009054906101000a900473ffffffffffffffffffffffffffffffffffffffff1673ffffffffffffffffffffffffffffffffffffffff161461333157600080fd5b82600154811061334057600080fd5b826003600086815260200190815260200160002060030160006101000a81548173ffffffffffffffffffffffffffffffffffffffff021916908373ffffffffffffffffffffffffffffffffffffffff16021790555050505050565b813273ffffffffffffffffffffffffffffffffffffffff166003600083815260200190815260200160002060030160009054906101000a900473ffffffffffffffffffffffffffffffffffffffff1673ffffffffffffffffffffffffffffffffffffffff161461340a57600080fd5b82600154811061341957600080fd5b8260036000868152602001908152602001600020600f0160016101000a81548160ff02191690831515021790555050505050565b813273ffffffffffffffffffffffffffffffffffffffff166003600083815260200190815260200160002060030160009054906101000a900473ffffffffffffffffffffffffffffffffffffffff1673ffffffffffffffffffffffffffffffffffffffff16146134bc57600080fd5b8260015481106134cb57600080fd5b826003600086815260200190815260200160002060080190805190602001906134f592919061413b565b5050505050565b600081600154811061350d57600080fd5b6003600084815260200190815260200160002060030160009054906101000a900473ffffffffffffffffffffffffffffffffffffffff16915050919050565b833273ffffffffffffffffffffffffffffffffffffffff166003600083815260200190815260200160002060030160009054906101000a900473ffffffffffffffffffffffffffffffffffffffff1673ffffffffffffffffffffffffffffffffffffffff16146135bb57600080fd5b8460015481106135ca57600080fd5b6040518060600160405280868152602001858152602001848152506003600088815260200190815260200160002060110160008201518160000190805190602001906136179291906140bb565b5060208201518160010190805190602001906136349291906140bb565b5060408201518160020190805190602001906136519291906140bb565b50905050505050505050565b813273ffffffffffffffffffffffffffffffffffffffff166003600083815260200190815260200160002060030160009054906101000a900473ffffffffffffffffffffffffffffffffffffffff1673ffffffffffffffffffffffffffffffffffffffff16146136cc57600080fd5b8260015481106136db57600080fd5b8260036000868152602001908152602001600020600701908051906020019061370592919061413b565b5050505050565b60015481565b813273ffffffffffffffffffffffffffffffffffffffff166003600083815260200190815260200160002060030160009054906101000a900473ffffffffffffffffffffffffffffffffffffffff1673ffffffffffffffffffffffffffffffffffffffff161461378157600080fd5b82600154811061379057600080fd5b826003600086815260200190815260200160002060060160006101000a81548173ffffffffffffffffffffffffffffffffffffffff021916908373ffffffffffffffffffffffffffffffffffffffff16021790555050505050565b60608160015481106137fc57600080fd5b600360008481526020019081526020016000206007018054600181600116156101000203166002900480601f0160208091040260200160405190810160405280929190818152602001828054600181600116156101000203166002900480156138a65780601f1061387b576101008083540402835291602001916138a6565b820191906000526020600020905b81548152906001019060200180831161388957829003601f168201915b5050505050915050919050565b60608160015481106138c457600080fd5b600360008481526020019081526020016000206002018054600181600116156101000203166002900480601f01602080910402602001604051908101604052809291908181526020018280546001816001161561010002031660029004801561396e5780601f106139435761010080835404028352916020019161396e565b820191906000526020600020905b81548152906001019060200180831161395157829003601f168201915b5050505050915050919050565b60025481565b600081600154811061399257600080fd5b60036000848152602001908152602001600020600f0160019054906101000a900460ff16915050919050565b813273ffffffffffffffffffffffffffffffffffffffff166003600083815260200190815260200160002060030160009054906101000a900473ffffffffffffffffffffffffffffffffffffffff1673ffffffffffffffffffffffffffffffffffffffff1614613a2d57600080fd5b826001548110613a3c57600080fd5b8260036000868152602001908152602001600020600e019080519060200190613a6692919061413b565b5050505050565b803273ffffffffffffffffffffffffffffffffffffffff166003600083815260200190815260200160002060030160009054906101000a900473ffffffffffffffffffffffffffffffffffffffff1673ffffffffffffffffffffffffffffffffffffffff1614613adc57600080fd5b816001548110613aeb57600080fd5b6003600085815260200190815260200160002060000183908060018154018082558091505090600182039060005260206000200160009091929091909150555050505050565b6060816001548110613b4257600080fd5b600360008481526020019081526020016000206009018054600181600116156101000203166002900480601f016020809104026020016040519081016040528092919081815260200182805460018160011615610100020316600290048015613bec5780601f10613bc157610100808354040283529160200191613bec565b820191906000526020600020905b815481529060010190602001808311613bcf57829003601f168201915b5050505050915050919050565b6060816001548110613c0a57600080fd5b60036000848152602001908152602001600020600b018054600181600116156101000203166002900480601f016020809104026020016040519081016040528092919081815260200182805460018160011615610100020316600290048015613cb45780601f10613c8957610100808354040283529160200191613cb4565b820191906000526020600020905b815481529060010190602001808311613c9757829003601f168201915b5050505050915050919050565b833273ffffffffffffffffffffffffffffffffffffffff166003600083815260200190815260200160002060030160009054906101000a900473ffffffffffffffffffffffffffffffffffffffff1673ffffffffffffffffffffffffffffffffffffffff1614613d3057600080fd5b846001548110613d3f57600080fd5b600060026000815480929190600101919050559050604051806060016040528087815260200186815260200185815250600460008381526020019081526020016000206000820151816000019080519060200190613d9e9291906140bb565b506020820151816001019080519060200190613dbb9291906140bb565b506040820151816002019080519060200190613dd89291906140bb565b509050506003600088815260200190815260200160002060100181908060018154018082558091505090600182039060005260206000200160009091929091909150555050505050505050565b813273ffffffffffffffffffffffffffffffffffffffff166003600083815260200190815260200160002060030160009054906101000a900473ffffffffffffffffffffffffffffffffffffffff1673ffffffffffffffffffffffffffffffffffffffff1614613e9457600080fd5b826001548110613ea357600080fd5b8260036000868152602001908152602001600020600d018190555050505050565b813273ffffffffffffffffffffffffffffffffffffffff166003600083815260200190815260200160002060030160009054906101000a900473ffffffffffffffffffffffffffffffffffffffff1673ffffffffffffffffffffffffffffffffffffffff1614613f3357600080fd5b826001548110613f4257600080fd5b8260036000868152602001908152602001600020600f0160006101000a81548160ff02191690831515021790555050505050565b6060816001548110613f8757600080fd5b60036000848152602001908152602001600020600e018054600181600116156101000203166002900480601f0160208091040260200160405190810160405280929190818152602001828054600181600116156101000203166002900480156140315780601f1061400657610100808354040283529160200191614031565b820191906000526020600020905b81548152906001019060200180831161401457829003601f168201915b5050505050915050919050565b600081600154811061404f57600080fd5b60036000848152602001908152602001600020600c0154915050919050565b8280548282559060005260206000209081019282156140aa579160200282015b828111156140a957825182559160200191906001019061408e565b5b5090506140b79190614224565b5090565b828054600181600116156101000203166002900490600052602060002090601f016020900481019282601f106140fc57805160ff191683800117855561412a565b8280016001018555821561412a579182015b8281111561412957825182559160200191906001019061410e565b5b5090506141379190614224565b5090565b828054600181600116156101000203166002900490600052602060002090601f016020900481019282601f1061417c57805160ff19168380011785556141aa565b828001600101855582156141aa579182015b828111156141a957825182559160200191906001019061418e565b5b5090506141b79190614224565b5090565b50805460008255906000526020600020908101906141d99190614224565b50565b50805460018160011615610100020316600290046000825580601f106142025750614221565b601f0160209004906000526020600020908101906142209190614224565b5b50565b61424691905b8082111561424257600081600090555060010161422a565b5090565b9056fea265627a7a7231582045967d6a8054762619046fee4b4b2d4a969c6e7a806aa18cb93353202f1fde7864736f6c63430005100032",
  "source": "pragma solidity ^0.5.0;\n\ncontract Product {\n    address contractOwner = msg.sender;\n    //struct\n    struct product {\n        uint256[] componentProductIds;\n        uint256 productId;\n        string name;\n        address currentOwner;\n        address currentContractAddress;\n        address previousOwner;\n        address previousContractAddress;\n        string placeOfOrigin;\n        string productionDate;\n        string expirationDate;\n        uint256 unitQuantity;\n        string unitQuantityType;\n        uint256 batchQuantity;\n        uint256 unitPrice;\n        string category;\n        bool received;\n        bool used;\n        uint256[] previousLocationIds;\n        productLocation currentLocation;\n        bool readyToShip;\n    }\n\n    struct productLocation {\n        string location;\n        string disbatchDate;\n        string arrivalDate;\n    }\n\n    //variables\n    uint256 public noProduct = 0;\n    uint256 public noLocation = 0;\n    mapping(uint256 => product) private products;\n    mapping(uint256 => productLocation) private location;\n\n    //Events\n    event ProductCreated(\n        uint256 newProductId,\n        string name,\n        address currentContractAddress\n    );\n\n    //modifiers\n    modifier ownerOnly(uint256 productId) {\n        require(products[productId].currentOwner == tx.origin);\n        _;\n    }\n\n    modifier validProductId(uint256 productId) {\n        require(productId < noProduct);\n        _;\n    }\n\n    //methods\n    // function createProduct(\n    //     string memory name,\n    //     address currentContractAddress,\n    //     string memory placeOfOrigin,\n    //     string memory productionDate,\n    //     string memory expirationDate,\n    //     uint256 unitQuantity,\n    //     string memory unitQuantityType,\n    //     uint256 batchQuantity,\n    //     uint256 unitPrice,\n    //     string memory category,\n    //     string memory currentPhysicalLocation\n    // ) public returns (uint256) {\n    //     require(bytes(name).length > 0, \"Name cannot be empty\");\n\n    //     //create new product\n    //     uint256 newProductId = noProduct++;\n    //     products[newProductId] = product({\n    //         componentProductIds: new uint256[](0),\n    //         productId: newProductId,\n    //         name: name,\n    //         currentOwner: msg.sender,\n    //         currentContractAddress: currentContractAddress,\n    //         previousOwner: address(0),\n    //         previousContractAddress: address(0),\n    //         placeOfOrigin: placeOfOrigin,\n    //         productionDate: productionDate,\n    //         expirationDate: expirationDate,\n    //         unitQuantity: unitQuantity,\n    //         unitQuantityType: unitQuantityType,\n    //         batchQuantity: batchQuantity,\n    //         unitPrice: unitPrice,\n    //         category: category,\n    //         received: false,\n    //         used: false,\n    //         previousLocationIds: new uint256[](0),\n    //         currentLocation: productLocation({\n    //             location: currentPhysicalLocation,\n    //             disbatchDate: \"null\",\n    //             arrivalDate: \"null\"\n    //         }),\n    //         readyToShip: false\n    //     });\n    //     emit ProductCreated(newProductId, name, msg.sender);\n    //     return newProductId;\n    // }\n\n    function createProduct(\n        string memory name,\n        address currentContractAddress,\n        uint256 unitQuantity,\n        string memory unitQuantityType,\n        uint256 batchQuantity,\n        uint256 unitPrice,\n        string memory category,\n        address messageSender\n    ) public returns (uint256) {\n        require(bytes(name).length > 0, \"Name cannot be empty\");\n\n        //create new product\n        uint256 newProductId = noProduct++;\n        products[newProductId] = product({\n            componentProductIds: new uint256[](0),\n            productId: newProductId,\n            name: name,\n            currentOwner: messageSender,\n            currentContractAddress: currentContractAddress,\n            previousOwner: address(0),\n            previousContractAddress: address(0),\n            placeOfOrigin: \"\",\n            productionDate: \"\",\n            expirationDate: \"\",\n            unitQuantity: unitQuantity,\n            unitQuantityType: unitQuantityType,\n            batchQuantity: batchQuantity,\n            unitPrice: unitPrice,\n            category: category,\n            received: false,\n            used: false,\n            previousLocationIds: new uint256[](0),\n            currentLocation: productLocation({\n                location: \"\",\n                disbatchDate: \"\",\n                arrivalDate: \"\"\n            }),\n            readyToShip: false\n        });\n        emit ProductCreated(newProductId, name, messageSender);\n        return newProductId;\n    }\n\n    function addComponentProduct(\n        uint256 mainProductId,\n        uint256 productId\n    ) public ownerOnly(productId) validProductId(productId) {\n        products[mainProductId].componentProductIds.push(productId);\n    }\n\n    //transfer ownership when it moves from one entity to another entity in the supplychain\n    function transferProduct(\n        uint256 productId,\n        address newOwner,\n        address newContractAdddress\n    ) public ownerOnly(productId) validProductId(productId) {\n        products[productId].previousOwner = products[productId].currentOwner;\n        products[productId].currentOwner = newOwner;\n\n        products[productId].previousContractAddress = products[productId]\n            .currentContractAddress;\n        products[productId].currentContractAddress = newContractAdddress;\n    }\n\n    function removeProduct(\n        uint256 productId\n    ) public ownerOnly(productId) validProductId(productId) {\n        delete products[productId];\n    }\n\n    function getProductName(\n        uint256 productId\n    ) public view validProductId(productId) returns (string memory) {\n        return products[productId].name;\n    }\n\n    function getCurrentOwner(\n        uint256 productId\n    ) public view validProductId(productId) returns (address) {\n        return products[productId].currentOwner;\n    }\n\n    function setCurrentOwner(\n        uint256 productId,\n        address newOwner\n    ) public ownerOnly(productId) validProductId(productId) {\n        products[productId].currentOwner = newOwner;\n    }\n\n    function getCurrentContractAddress(\n        uint256 productId\n    ) public view validProductId(productId) returns (address) {\n        return products[productId].currentContractAddress;\n    }\n\n    function setCurrentContractAddress(\n        uint256 productId,\n        address newContractAddress\n    ) public ownerOnly(productId) validProductId(productId) {\n        products[productId].currentContractAddress = newContractAddress;\n    }\n\n    function getPreviousOwner(\n        uint256 productId\n    ) public view validProductId(productId) returns (address) {\n        return products[productId].previousOwner;\n    }\n\n    function setPreviousOwner(\n        uint256 productId,\n        address newPreviousOwner\n    ) public ownerOnly(productId) validProductId(productId) {\n        products[productId].previousOwner = newPreviousOwner;\n    }\n\n    function getPreviousContractAddress(\n        uint256 productId\n    ) public view validProductId(productId) returns (address) {\n        return products[productId].previousContractAddress;\n    }\n\n    function setPreviousContractAddress(\n        uint256 productId,\n        address newPreviousContractAddress\n    ) public ownerOnly(productId) validProductId(productId) {\n        products[productId]\n            .previousContractAddress = newPreviousContractAddress;\n    }\n\n    function getPlaceOfOrigin(\n        uint256 productId\n    ) public view validProductId(productId) returns (string memory) {\n        return products[productId].placeOfOrigin;\n    }\n\n    function setPlaceOfOrigin(\n        uint256 productId,\n        string memory newPlaceOfOrigin\n    ) public ownerOnly(productId) validProductId(productId) {\n        products[productId].placeOfOrigin = newPlaceOfOrigin;\n    }\n\n    function getProductionDate(\n        uint256 productId\n    ) public view validProductId(productId) returns (string memory) {\n        return products[productId].productionDate;\n    }\n\n    function setProductionDate(\n        uint256 productId,\n        string memory newProductionDate\n    ) public ownerOnly(productId) validProductId(productId) {\n        products[productId].productionDate = newProductionDate;\n    }\n\n    function getExpirationDate(\n        uint256 productId\n    ) public view validProductId(productId) returns (string memory) {\n        return products[productId].expirationDate;\n    }\n\n    function setExpirationDate(\n        uint256 productId,\n        string memory newExpirationDate\n    ) public ownerOnly(productId) validProductId(productId) {\n        products[productId].expirationDate = newExpirationDate;\n    }\n\n    function getUnitQuantity(\n        uint256 productId\n    ) public view validProductId(productId) returns (uint256) {\n        return products[productId].unitQuantity;\n    }\n\n    function setUnitQuantity(\n        uint256 productId,\n        uint256 newUnitQuantity\n    ) public ownerOnly(productId) validProductId(productId) {\n        products[productId].unitQuantity = newUnitQuantity;\n    }\n\n    function getUnitQuantityType(\n        uint256 productId\n    ) public view validProductId(productId) returns (string memory) {\n        return products[productId].unitQuantityType;\n    }\n\n    function setUnitQuantityType(\n        uint256 productId,\n        string memory newUnitQuantityType\n    ) public ownerOnly(productId) validProductId(productId) {\n        products[productId].unitQuantityType = newUnitQuantityType;\n    }\n\n    function getBatchQuantity(\n        uint256 productId\n    ) public view validProductId(productId) returns (uint256) {\n        return products[productId].batchQuantity;\n    }\n\n    function setBatchQuantity(\n        uint256 productId,\n        uint256 newBatchQuantity\n    ) public ownerOnly(productId) validProductId(productId) {\n        products[productId].batchQuantity = newBatchQuantity;\n    }\n\n    function getUnitPrice(\n        uint256 productId\n    ) public view validProductId(productId) returns (uint256) {\n        return products[productId].unitPrice;\n    }\n\n    function setUnitPrice(\n        uint256 productId,\n        uint256 newUnitPrice\n    ) public ownerOnly(productId) validProductId(productId) {\n        products[productId].unitPrice = newUnitPrice;\n    }\n\n    function getCategory(\n        uint256 productId\n    ) public view validProductId(productId) returns (string memory) {\n        return products[productId].category;\n    }\n\n    function setCategory(\n        uint256 productId,\n        string memory newCategory\n    ) public ownerOnly(productId) validProductId(productId) {\n        products[productId].category = newCategory;\n    }\n\n    function getReceived(\n        uint256 productId\n    ) public view validProductId(productId) returns (bool) {\n        return products[productId].received;\n    }\n\n    function setReceived(\n        uint256 productId,\n        bool newReceived\n    ) public ownerOnly(productId) validProductId(productId) {\n        products[productId].received = newReceived;\n    }\n\n    function getUsed(\n        uint256 productId\n    ) public view validProductId(productId) returns (bool) {\n        return products[productId].used;\n    }\n\n    function setUsed(\n        uint256 productId,\n        bool used\n    ) public ownerOnly(productId) validProductId(productId) {\n        products[productId].used = used;\n    }\n\n    function getPreviousLocation(\n        uint256 productId,\n        uint256 index\n    )\n        public\n        view\n        validProductId(productId)\n        returns (string memory, string memory, string memory)\n    {\n        require(\n            index < products[productId].previousLocationIds.length,\n            \"Invalid index\"\n        );\n        return (\n            location[products[productId].previousLocationIds[index]].location,\n            location[products[productId].previousLocationIds[index]]\n                .disbatchDate,\n            location[products[productId].previousLocationIds[index]].arrivalDate\n        );\n    }\n\n    function addPreviousLocation(\n        uint256 productId,\n        string memory prevLocation,\n        string memory prevDisbatchDate,\n        string memory prevArrivalDate\n    ) public ownerOnly(productId) validProductId(productId) {\n        uint256 newLocationId = noLocation++;\n        location[newLocationId] = productLocation({\n            location: prevLocation,\n            disbatchDate: prevDisbatchDate,\n            arrivalDate: prevArrivalDate\n        });\n        products[productId].previousLocationIds.push(newLocationId);\n    }\n\n    function getCurrentLocation(\n        uint256 productId\n    )\n        public\n        view\n        validProductId(productId)\n        returns (string memory, string memory, string memory)\n    {\n        return (\n            products[productId].currentLocation.location,\n            products[productId].currentLocation.disbatchDate,\n            products[productId].currentLocation.arrivalDate\n        );\n    }\n\n    function setCurrentLocation(\n        uint256 productId,\n        string memory newLocation,\n        string memory newDisbatchDate,\n        string memory newArrivalDate\n    ) public ownerOnly(productId) validProductId(productId) {\n        products[productId].currentLocation = productLocation({\n            location: newLocation,\n            disbatchDate: newDisbatchDate,\n            arrivalDate: newArrivalDate\n        });\n    }\n\n    function getReadyToShip(\n        uint256 productId\n    ) public view ownerOnly(productId) returns (bool) {\n        products[productId].readyToShip;\n    }\n\n    function setReadyToShip(\n        uint256 productId,\n        bool shipStatus\n    ) public ownerOnly(productId) validProductId(productId) {\n        products[productId].readyToShip = shipStatus;\n        products[productId].readyToShip = true;\n    }\n}\n",
  "sourcePath": "/Users/kathleen/IS4302/Project/Wine-Supplychain-Blockchain/contracts/Product.sol",
  "compiler": {
    "name": "solc",
    "version": "0.5.16+commit.9c3226ce.Emscripten.clang"
  },
  "schemaVersion": "3.4.11",
  "updatedAt": "2023-04-08T04:13:37.046Z",
  "devdoc": {
    "methods": {}
  },
  "userdoc": {
    "methods": {}
  }
}