{
  "contractName": "RawMaterialSupplier",
  "abi": [
    {
      "inputs": [
        {
          "internalType": "contract Product",
          "name": "productContractddress",
          "type": "address"
        }
      ],
      "payable": false,
      "stateMutability": "nonpayable",
      "type": "constructor"
    },
    {
      "constant": false,
      "inputs": [
        {
          "internalType": "uint256",
          "name": "productId",
          "type": "uint256"
        }
      ],
      "name": "removeRawMaterial",
      "outputs": [],
      "payable": false,
      "stateMutability": "nonpayable",
      "type": "function"
    },
    {
      "constant": false,
      "inputs": [
        {
          "internalType": "uint256",
          "name": "productId",
          "type": "uint256"
        },
        {
          "internalType": "string",
          "name": "newDisbatchDate",
          "type": "string"
        },
        {
          "internalType": "address",
          "name": "wineProducerAddress",
          "type": "address"
        }
      ],
      "name": "disbatchRawMaterial",
      "outputs": [],
      "payable": false,
      "stateMutability": "nonpayable",
      "type": "function"
    }
  ],
  "bytecode": "0x608060405233600160006101000a81548173ffffffffffffffffffffffffffffffffffffffff021916908373ffffffffffffffffffffffffffffffffffffffff16021790555034801561005157600080fd5b50604051610c4b380380610c4b8339818101604052602081101561007457600080fd5b8101908080519060200190929190505050806000806101000a81548173ffffffffffffffffffffffffffffffffffffffff021916908373ffffffffffffffffffffffffffffffffffffffff16021790555050610b76806100d56000396000f3fe608060405234801561001057600080fd5b50600436106100365760003560e01c80633643f8dc1461003b5780635aff3e8214610120575b600080fd5b61011e6004803603606081101561005157600080fd5b81019080803590602001909291908035906020019064010000000081111561007857600080fd5b82018360208201111561008a57600080fd5b803590602001918460018302840111640100000000831117156100ac57600080fd5b91908080601f016020809104026020016040519081016040528093929190818152602001838380828437600081840152601f19601f820116905080830192505050505050509192919290803573ffffffffffffffffffffffffffffffffffffffff16906020019092919050505061014e565b005b61014c6004803603602081101561013657600080fd5b8101908080359060200190929190505050610a52565b005b600115156000809054906101000a900473ffffffffffffffffffffffffffffffffffffffff1673ffffffffffffffffffffffffffffffffffffffff166340889b4f856040518263ffffffff1660e01b81526004018082815260200191505060206040518083038186803b1580156101c457600080fd5b505afa1580156101d8573d6000803e3d6000fd5b505050506040513d60208110156101ee57600080fd5b8101908080519060200190929190505050151514610274576040517f08c379a000000000000000000000000000000000000000000000000000000000815260040180806020018281038252601e8152602001807f50726f64756374206e6f7420726561647920666f72207368697070696e67000081525060200191505060405180910390fd5b6000809054906101000a900473ffffffffffffffffffffffffffffffffffffffff1673ffffffffffffffffffffffffffffffffffffffff16636c125a6b84836040518363ffffffff1660e01b8152600401808381526020018273ffffffffffffffffffffffffffffffffffffffff1673ffffffffffffffffffffffffffffffffffffffff16815260200192505050600060405180830381600087803b15801561031c57600080fd5b505af1158015610330573d6000803e3d6000fd5b505050506000809054906101000a900473ffffffffffffffffffffffffffffffffffffffff1673ffffffffffffffffffffffffffffffffffffffff16630cc9102284306040518363ffffffff1660e01b8152600401808381526020018273ffffffffffffffffffffffffffffffffffffffff1673ffffffffffffffffffffffffffffffffffffffff16815260200192505050600060405180830381600087803b1580156103dc57600080fd5b505af11580156103f0573d6000803e3d6000fd5b5050505060608060606000809054906101000a900473ffffffffffffffffffffffffffffffffffffffff1673ffffffffffffffffffffffffffffffffffffffff166323bb1835876040518263ffffffff1660e01b81526004018082815260200191505060006040518083038186803b15801561046b57600080fd5b505afa15801561047f573d6000803e3d6000fd5b505050506040513d6000823e3d601f19601f8201168201806040525060608110156104a957600080fd5b81019080805160405193929190846401000000008211156104c957600080fd5b838201915060208201858111156104df57600080fd5b82518660018202830111640100000000821117156104fc57600080fd5b8083526020830192505050908051906020019080838360005b83811015610530578082015181840152602081019050610515565b50505050905090810190601f16801561055d5780820380516001836020036101000a031916815260200191505b506040526020018051604051939291908464010000000082111561058057600080fd5b8382019150602082018581111561059657600080fd5b82518660018202830111640100000000821117156105b357600080fd5b8083526020830192505050908051906020019080838360005b838110156105e75780820151818401526020810190506105cc565b50505050905090810190601f1680156106145780820380516001836020036101000a031916815260200191505b506040526020018051604051939291908464010000000082111561063757600080fd5b8382019150602082018581111561064d57600080fd5b825186600182028301116401000000008211171561066a57600080fd5b8083526020830192505050908051906020019080838360005b8381101561069e578082015181840152602081019050610683565b50505050905090810190601f1680156106cb5780820380516001836020036101000a031916815260200191505b506040525050509250925092506000809054906101000a900473ffffffffffffffffffffffffffffffffffffffff1673ffffffffffffffffffffffffffffffffffffffff1663d88ee329878585856040518563ffffffff1660e01b815260040180858152602001806020018060200180602001848103845287818151815260200191508051906020019080838360005b8381101561077657808201518184015260208101905061075b565b50505050905090810190601f1680156107a35780820380516001836020036101000a031916815260200191505b50848103835286818151815260200191508051906020019080838360005b838110156107dc5780820151818401526020810190506107c1565b50505050905090810190601f1680156108095780820380516001836020036101000a031916815260200191505b50848103825285818151815260200191508051906020019080838360005b83811015610842578082015181840152602081019050610827565b50505050905090810190601f16801561086f5780820380516001836020036101000a031916815260200191505b50975050505050505050600060405180830381600087803b15801561089357600080fd5b505af11580156108a7573d6000803e3d6000fd5b505050506000809054906101000a900473ffffffffffffffffffffffffffffffffffffffff1673ffffffffffffffffffffffffffffffffffffffff1663809db2f88785886040518463ffffffff1660e01b815260040180848152602001806020018060200180602001848103845286818151815260200191508051906020019080838360005b8381101561094857808201518184015260208101905061092d565b50505050905090810190601f1680156109755780820380516001836020036101000a031916815260200191505b50848103835285818151815260200191508051906020019080838360005b838110156109ae578082015181840152602081019050610993565b50505050905090810190601f1680156109db5780820380516001836020036101000a031916815260200191505b50848103825260048152602001807f6e756c6c000000000000000000000000000000000000000000000000000000008152506020019650505050505050600060405180830381600087803b158015610a3257600080fd5b505af1158015610a46573d6000803e3d6000fd5b50505050505050505050565b6000809054906101000a900473ffffffffffffffffffffffffffffffffffffffff1673ffffffffffffffffffffffffffffffffffffffff16635ee95cae826040518263ffffffff1660e01b815260040180828152602001915050600060405180830381600087803b158015610ac657600080fd5b505af1158015610ada573d6000803e3d6000fd5b5050505060008090505b600280549050811015610b3d578160028281548110610aff57fe5b90600052602060002001541415610b305760028181548110610b1d57fe5b9060005260206000200160009055610b3d565b8080600101915050610ae4565b505056fea265627a7a7231582020c0613aa0cec4be0193c73ebb4f50466120c599735602be751a220444011fca64736f6c63430005100032",
  "source": "pragma solidity ^0.5.0;\n\nimport \"./Product.sol\";\n\ncontract RawMaterialSupplier {\n    Product productContract;\n    address rawMaterialSupplierContractOwner = msg.sender;\n    uint256[] rawMaterialsOwned;\n    constructor(Product productContractddress) public {\n        productContract = productContractddress;\n    }\n\n\n    // function addRawMaterial(\n    //     string memory name,\n    //     string memory placeOfOrigin,\n    //     string memory productionDate,\n    //     string memory expirationDate,\n    //     uint256 unitQuantity,\n    //     string memory unitQuantityType,\n    //     uint256 batchQuantity,\n    //     uint256 unitPrice,\n    //     string memory category,\n    //     string memory currentPhysicalLocation\n\n    // ) public returns (uint256) {\n\n\n    //     uint256 productId = productContract.createProduct(\n    //         name, \n    //         address(this),\n    //         placeOfOrigin, \n    //         productionDate, \n    //         expirationDate, \n    //         unitQuantity, \n    //         unitQuantityType, \n    //         batchQuantity, \n    //         unitPrice, \n    //         category, \n    //         currentPhysicalLocation\n    //         );\n\n    //     rawMaterialsOwned.push(productId);\n    //     return productId;\n    // }\n\n      \n\n    function removeRawMaterial(uint256 productId) public {\n        productContract.removeProduct(productId);\n        for (uint256 i = 0; i < rawMaterialsOwned.length; i++) {\n            if (rawMaterialsOwned[i] == productId) {\n                delete rawMaterialsOwned[i];\n                break;\n            }\n        }\n    }\n    \n\n    // function materialReadyToShip(uint256 productId, string memory newLocation) public {\n    //     require(productContract.getReadyToShip(productId) == false, \"Product is already ready for shipping\");\n    //     productContract.setReadyToShip(productId, true);\n    //     (string memory location, string memory disbatchDate, string memory arrivalDate) = productContract.getCurrentLocation(productId);\n    //     // productContract.addPreviousLocation(productId, location, disbatchDate, arrivalDate);\n    //     productContract.setCurrentLocation(productId, newLocation, \"null\", \"null\");\n    // }\n\n    function disbatchRawMaterial(uint256 productId, string memory newDisbatchDate, address wineProducerAddress) public {\n        require(productContract.getReadyToShip(productId) == true, \"Product not ready for shipping\");\n        productContract.setCurrentOwner(productId, wineProducerAddress);\n        productContract.setPreviousOwner(productId, address(this));\n        (string memory location, string memory disbatchDate, string memory arrivalDate) = productContract.getCurrentLocation(productId);\n        productContract.addPreviousLocation(productId, location, disbatchDate, arrivalDate);\n        productContract.setCurrentLocation(productId, location, newDisbatchDate, \"null\");\n    }    \n}",
  "sourcePath": "/Users/jarrentoh/Documents/GitHub/Wine Supplychain Blockchain/contracts/RawMaterialSupplier.sol",
  "compiler": {
    "name": "solc",
    "version": "0.5.16+commit.9c3226ce.Emscripten.clang"
  },
  "schemaVersion": "3.4.11",
  "updatedAt": "2023-03-31T13:23:51.981Z",
  "devdoc": {
    "methods": {}
  },
  "userdoc": {
    "methods": {}
  }
}