{
  "contractName": "RawMaterialSupplier",
  "abi": [
    {
      "inputs": [
        {
          "internalType": "contract Product",
          "name": "productContractddress",
          "type": "address"
        }
      ],
      "payable": false,
      "stateMutability": "nonpayable",
      "type": "constructor"
    },
    {
      "anonymous": false,
      "inputs": [
        {
          "indexed": false,
          "internalType": "uint256",
          "name": "productId",
          "type": "uint256"
        }
      ],
      "name": "rawMaterialAdded",
      "type": "event"
    },
    {
      "anonymous": false,
      "inputs": [
        {
          "indexed": false,
          "internalType": "uint256",
          "name": "productId",
          "type": "uint256"
        }
      ],
      "name": "rawMaterialDisbatched",
      "type": "event"
    },
    {
      "anonymous": false,
      "inputs": [
        {
          "indexed": false,
          "internalType": "uint256",
          "name": "productId",
          "type": "uint256"
        }
      ],
      "name": "rawMaterialReadyToShip",
      "type": "event"
    },
    {
      "anonymous": false,
      "inputs": [
        {
          "indexed": false,
          "internalType": "uint256",
          "name": "productId",
          "type": "uint256"
        }
      ],
      "name": "rawMaterialRemoved",
      "type": "event"
    },
    {
      "constant": false,
      "inputs": [
        {
          "internalType": "string",
          "name": "name",
          "type": "string"
        },
        {
          "internalType": "string",
          "name": "placeOfOrigin",
          "type": "string"
        },
        {
          "internalType": "string",
          "name": "productionDate",
          "type": "string"
        },
        {
          "internalType": "string",
          "name": "expirationDate",
          "type": "string"
        },
        {
          "internalType": "uint256",
          "name": "unitQuantity",
          "type": "uint256"
        },
        {
          "internalType": "string",
          "name": "unitQuantityType",
          "type": "string"
        },
        {
          "internalType": "uint256",
          "name": "batchQuantity",
          "type": "uint256"
        },
        {
          "internalType": "uint256",
          "name": "unitPrice",
          "type": "uint256"
        },
        {
          "internalType": "string",
          "name": "category",
          "type": "string"
        },
        {
          "internalType": "string",
          "name": "currentPhysicalLocation",
          "type": "string"
        }
      ],
      "name": "addRawMaterial",
      "outputs": [
        {
          "internalType": "uint256",
          "name": "",
          "type": "uint256"
        }
      ],
      "payable": false,
      "stateMutability": "nonpayable",
      "type": "function"
    },
    {
      "constant": false,
      "inputs": [
        {
          "internalType": "uint256",
          "name": "productId",
          "type": "uint256"
        }
      ],
      "name": "removeRawMaterial",
      "outputs": [],
      "payable": false,
      "stateMutability": "nonpayable",
      "type": "function"
    },
    {
      "constant": false,
      "inputs": [
        {
          "internalType": "uint256",
          "name": "productId",
          "type": "uint256"
        }
      ],
      "name": "materialReadyToShip",
      "outputs": [],
      "payable": false,
      "stateMutability": "nonpayable",
      "type": "function"
    },
    {
      "constant": false,
      "inputs": [
        {
          "internalType": "uint256",
          "name": "productId",
          "type": "uint256"
        },
        {
          "internalType": "string",
          "name": "newDisbatchDate",
          "type": "string"
        },
        {
          "internalType": "address",
          "name": "wineProducerAddress",
          "type": "address"
        },
        {
          "internalType": "address",
          "name": "wineProducerContractAddress",
          "type": "address"
        }
      ],
      "name": "disbatchRawMaterial",
      "outputs": [],
      "payable": false,
      "stateMutability": "nonpayable",
      "type": "function"
    }
  ],
  "bytecode": "0x608060405233600160006101000a81548173ffffffffffffffffffffffffffffffffffffffff021916908373ffffffffffffffffffffffffffffffffffffffff16021790555034801561005157600080fd5b50604051611ed2380380611ed28339818101604052602081101561007457600080fd5b8101908080519060200190929190505050806000806101000a81548173ffffffffffffffffffffffffffffffffffffffff021916908373ffffffffffffffffffffffffffffffffffffffff16021790555050611dfd806100d56000396000f3fe608060405234801561001057600080fd5b506004361061004c5760003560e01c80635aff3e8214610051578063abfbafc21461007f578063ac4ce131146104f7578063bcb448b014610525575b600080fd5b61007d6004803603602081101561006757600080fd5b810190808035906020019092919050505061062a565b005b6104e1600480360361014081101561009657600080fd5b81019080803590602001906401000000008111156100b357600080fd5b8201836020820111156100c557600080fd5b803590602001918460018302840111640100000000831117156100e757600080fd5b91908080601f016020809104026020016040519081016040528093929190818152602001838380828437600081840152601f19601f8201169050808301925050505050505091929192908035906020019064010000000081111561014a57600080fd5b82018360208201111561015c57600080fd5b8035906020019184600183028401116401000000008311171561017e57600080fd5b91908080601f016020809104026020016040519081016040528093929190818152602001838380828437600081840152601f19601f820116905080830192505050505050509192919290803590602001906401000000008111156101e157600080fd5b8201836020820111156101f357600080fd5b8035906020019184600183028401116401000000008311171561021557600080fd5b91908080601f016020809104026020016040519081016040528093929190818152602001838380828437600081840152601f19601f8201169050808301925050505050505091929192908035906020019064010000000081111561027857600080fd5b82018360208201111561028a57600080fd5b803590602001918460018302840111640100000000831117156102ac57600080fd5b91908080601f016020809104026020016040519081016040528093929190818152602001838380828437600081840152601f19601f820116905080830192505050505050509192919290803590602001909291908035906020019064010000000081111561031957600080fd5b82018360208201111561032b57600080fd5b8035906020019184600183028401116401000000008311171561034d57600080fd5b91908080601f016020809104026020016040519081016040528093929190818152602001838380828437600081840152601f19601f8201169050808301925050505050505091929192908035906020019092919080359060200190929190803590602001906401000000008111156103c457600080fd5b8201836020820111156103d657600080fd5b803590602001918460018302840111640100000000831117156103f857600080fd5b91908080601f016020809104026020016040519081016040528093929190818152602001838380828437600081840152601f19601f8201169050808301925050505050505091929192908035906020019064010000000081111561045b57600080fd5b82018360208201111561046d57600080fd5b8035906020019184600183028401116401000000008311171561048f57600080fd5b91908080601f016020809104026020016040519081016040528093929190818152602001838380828437600081840152601f19601f820116905080830192505050505050509192919290505050610836565b6040518082815260200191505060405180910390f35b6105236004803603602081101561050d57600080fd5b8101908080359060200190929190505050610f8a565b005b6106286004803603608081101561053b57600080fd5b81019080803590602001909291908035906020019064010000000081111561056257600080fd5b82018360208201111561057457600080fd5b8035906020019184600183028401116401000000008311171561059657600080fd5b91908080601f016020809104026020016040519081016040528093929190818152602001838380828437600081840152601f19601f820116905080830192505050505050509192919290803573ffffffffffffffffffffffffffffffffffffffff169060200190929190803573ffffffffffffffffffffffffffffffffffffffff16906020019092919050505061124c565b005b803373ffffffffffffffffffffffffffffffffffffffff166000809054906101000a900473ffffffffffffffffffffffffffffffffffffffff1673ffffffffffffffffffffffffffffffffffffffff16637ace341b836040518263ffffffff1660e01b81526004018082815260200191505060206040518083038186803b1580156106b457600080fd5b505afa1580156106c8573d6000803e3d6000fd5b505050506040513d60208110156106de57600080fd5b810190808051906020019092919050505073ffffffffffffffffffffffffffffffffffffffff161461070f57600080fd5b6000809054906101000a900473ffffffffffffffffffffffffffffffffffffffff1673ffffffffffffffffffffffffffffffffffffffff16635ee95cae836040518263ffffffff1660e01b815260040180828152602001915050600060405180830381600087803b15801561078357600080fd5b505af1158015610797573d6000803e3d6000fd5b5050505060008090505b6002805490508110156107fa5782600282815481106107bc57fe5b906000526020600020015414156107ed57600281815481106107da57fe5b90600052602060002001600090556107fa565b80806001019150506107a1565b507f8f5b569bc8b8355654ee3cfb529224b3a8d55743516c179ee92092a0b343de13826040518082815260200191505060405180910390a15050565b6000806000809054906101000a900473ffffffffffffffffffffffffffffffffffffffff1673ffffffffffffffffffffffffffffffffffffffff1663d5e7986f8d308b8b8b8b8b6040518863ffffffff1660e01b815260040180806020018873ffffffffffffffffffffffffffffffffffffffff1673ffffffffffffffffffffffffffffffffffffffff168152602001878152602001806020018681526020018581526020018060200184810384528b818151815260200191508051906020019080838360005b838110156109185780820151818401526020810190506108fd565b50505050905090810190601f1680156109455780820380516001836020036101000a031916815260200191505b50848103835288818151815260200191508051906020019080838360005b8381101561097e578082015181840152602081019050610963565b50505050905090810190601f1680156109ab5780820380516001836020036101000a031916815260200191505b50848103825285818151815260200191508051906020019080838360005b838110156109e45780820151818401526020810190506109c9565b50505050905090810190601f168015610a115780820380516001836020036101000a031916815260200191505b509a5050505050505050505050602060405180830381600087803b158015610a3857600080fd5b505af1158015610a4c573d6000803e3d6000fd5b505050506040513d6020811015610a6257600080fd5b810190808051906020019092919050505090506000809054906101000a900473ffffffffffffffffffffffffffffffffffffffff1673ffffffffffffffffffffffffffffffffffffffff166387f31bef828d6040518363ffffffff1660e01b81526004018083815260200180602001828103825283818151815260200191508051906020019080838360005b83811015610b09578082015181840152602081019050610aee565b50505050905090810190601f168015610b365780820380516001836020036101000a031916815260200191505b509350505050600060405180830381600087803b158015610b5657600080fd5b505af1158015610b6a573d6000803e3d6000fd5b505050506000809054906101000a900473ffffffffffffffffffffffffffffffffffffffff1673ffffffffffffffffffffffffffffffffffffffff16636d126874828c6040518363ffffffff1660e01b81526004018083815260200180602001828103825283818151815260200191508051906020019080838360005b83811015610c02578082015181840152602081019050610be7565b50505050905090810190601f168015610c2f5780820380516001836020036101000a031916815260200191505b509350505050600060405180830381600087803b158015610c4f57600080fd5b505af1158015610c63573d6000803e3d6000fd5b505050506000809054906101000a900473ffffffffffffffffffffffffffffffffffffffff1673ffffffffffffffffffffffffffffffffffffffff16632364d78b82886040518363ffffffff1660e01b81526004018083815260200182815260200192505050600060405180830381600087803b158015610ce357600080fd5b505af1158015610cf7573d6000803e3d6000fd5b505050506000809054906101000a900473ffffffffffffffffffffffffffffffffffffffff1673ffffffffffffffffffffffffffffffffffffffff166343c92b6a828b6040518363ffffffff1660e01b81526004018083815260200180602001828103825283818151815260200191508051906020019080838360005b83811015610d8f578082015181840152602081019050610d74565b50505050905090810190601f168015610dbc5780820380516001836020036101000a031916815260200191505b509350505050600060405180830381600087803b158015610ddc57600080fd5b505af1158015610df0573d6000803e3d6000fd5b505050506000809054906101000a900473ffffffffffffffffffffffffffffffffffffffff1673ffffffffffffffffffffffffffffffffffffffff1663809db2f882856040518363ffffffff1660e01b815260040180838152602001806020018060200180602001848103845285818151815260200191508051906020019080838360005b83811015610e90578082015181840152602081019050610e75565b50505050905090810190601f168015610ebd5780820380516001836020036101000a031916815260200191505b5084810383526000815260200160200184810382526000815260200160200195505050505050600060405180830381600087803b158015610efd57600080fd5b505af1158015610f11573d6000803e3d6000fd5b5050505060028190806001815401808255809150509060018203906000526020600020016000909192909190915055507f943a12e5c63fba479b95e1f83af1a7f74a9eab6631358f09ac967fc91460f676816040518082815260200191505060405180910390a1809150509a9950505050505050505050565b803373ffffffffffffffffffffffffffffffffffffffff166000809054906101000a900473ffffffffffffffffffffffffffffffffffffffff1673ffffffffffffffffffffffffffffffffffffffff16637ace341b836040518263ffffffff1660e01b81526004018082815260200191505060206040518083038186803b15801561101457600080fd5b505afa158015611028573d6000803e3d6000fd5b505050506040513d602081101561103e57600080fd5b810190808051906020019092919050505073ffffffffffffffffffffffffffffffffffffffff161461106f57600080fd5b600015156000809054906101000a900473ffffffffffffffffffffffffffffffffffffffff1673ffffffffffffffffffffffffffffffffffffffff166340889b4f846040518263ffffffff1660e01b81526004018082815260200191505060206040518083038186803b1580156110e557600080fd5b505afa1580156110f9573d6000803e3d6000fd5b505050506040513d602081101561110f57600080fd5b8101908080519060200190929190505050151514611178576040517f08c379a0000000000000000000000000000000000000000000000000000000008152600401808060200182810382526025815260200180611da46025913960400191505060405180910390fd5b6000809054906101000a900473ffffffffffffffffffffffffffffffffffffffff1673ffffffffffffffffffffffffffffffffffffffff16633d30ffb88360016040518363ffffffff1660e01b8152600401808381526020018215151515815260200192505050600060405180830381600087803b1580156111f957600080fd5b505af115801561120d573d6000803e3d6000fd5b505050507fc0b30350697ec61b9c8647046033ad9bece06bf113a2d7012d69d0e52ed08632826040518082815260200191505060405180910390a15050565b833373ffffffffffffffffffffffffffffffffffffffff166000809054906101000a900473ffffffffffffffffffffffffffffffffffffffff1673ffffffffffffffffffffffffffffffffffffffff16637ace341b836040518263ffffffff1660e01b81526004018082815260200191505060206040518083038186803b1580156112d657600080fd5b505afa1580156112ea573d6000803e3d6000fd5b505050506040513d602081101561130057600080fd5b810190808051906020019092919050505073ffffffffffffffffffffffffffffffffffffffff161461133157600080fd5b600115156000809054906101000a900473ffffffffffffffffffffffffffffffffffffffff1673ffffffffffffffffffffffffffffffffffffffff166340889b4f876040518263ffffffff1660e01b81526004018082815260200191505060206040518083038186803b1580156113a757600080fd5b505afa1580156113bb573d6000803e3d6000fd5b505050506040513d60208110156113d157600080fd5b8101908080519060200190929190505050151514611457576040517f08c379a000000000000000000000000000000000000000000000000000000000815260040180806020018281038252601e8152602001807f50726f64756374206e6f7420726561647920666f72207368697070696e67000081525060200191505060405180910390fd5b6000809054906101000a900473ffffffffffffffffffffffffffffffffffffffff1673ffffffffffffffffffffffffffffffffffffffff16630cc91022866000809054906101000a900473ffffffffffffffffffffffffffffffffffffffff1673ffffffffffffffffffffffffffffffffffffffff16637ace341b896040518263ffffffff1660e01b81526004018082815260200191505060206040518083038186803b15801561150757600080fd5b505afa15801561151b573d6000803e3d6000fd5b505050506040513d602081101561153157600080fd5b81019080805190602001909291905050506040518363ffffffff1660e01b8152600401808381526020018273ffffffffffffffffffffffffffffffffffffffff1673ffffffffffffffffffffffffffffffffffffffff16815260200192505050600060405180830381600087803b1580156115ab57600080fd5b505af11580156115bf573d6000803e3d6000fd5b505050506000809054906101000a900473ffffffffffffffffffffffffffffffffffffffff1673ffffffffffffffffffffffffffffffffffffffff16636c125a6b86856040518363ffffffff1660e01b8152600401808381526020018273ffffffffffffffffffffffffffffffffffffffff1673ffffffffffffffffffffffffffffffffffffffff16815260200192505050600060405180830381600087803b15801561166b57600080fd5b505af115801561167f573d6000803e3d6000fd5b505050506000809054906101000a900473ffffffffffffffffffffffffffffffffffffffff1673ffffffffffffffffffffffffffffffffffffffff166391f4caca866000809054906101000a900473ffffffffffffffffffffffffffffffffffffffff1673ffffffffffffffffffffffffffffffffffffffff16630772c45e896040518263ffffffff1660e01b81526004018082815260200191505060206040518083038186803b15801561173357600080fd5b505afa158015611747573d6000803e3d6000fd5b505050506040513d602081101561175d57600080fd5b81019080805190602001909291905050506040518363ffffffff1660e01b8152600401808381526020018273ffffffffffffffffffffffffffffffffffffffff1673ffffffffffffffffffffffffffffffffffffffff16815260200192505050600060405180830381600087803b1580156117d757600080fd5b505af11580156117eb573d6000803e3d6000fd5b505050506000809054906101000a900473ffffffffffffffffffffffffffffffffffffffff1673ffffffffffffffffffffffffffffffffffffffff166358ff352a86846040518363ffffffff1660e01b8152600401808381526020018273ffffffffffffffffffffffffffffffffffffffff1673ffffffffffffffffffffffffffffffffffffffff16815260200192505050600060405180830381600087803b15801561189757600080fd5b505af11580156118ab573d6000803e3d6000fd5b505050506060806000809054906101000a900473ffffffffffffffffffffffffffffffffffffffff1673ffffffffffffffffffffffffffffffffffffffff166323bb1835886040518263ffffffff1660e01b81526004018082815260200191505060006040518083038186803b15801561192457600080fd5b505afa158015611938573d6000803e3d6000fd5b505050506040513d6000823e3d601f19601f82011682018060405250606081101561196257600080fd5b810190808051604051939291908464010000000082111561198257600080fd5b8382019150602082018581111561199857600080fd5b82518660018202830111640100000000821117156119b557600080fd5b8083526020830192505050908051906020019080838360005b838110156119e95780820151818401526020810190506119ce565b50505050905090810190601f168015611a165780820380516001836020036101000a031916815260200191505b5060405260200180516040519392919084640100000000821115611a3957600080fd5b83820191506020820185811115611a4f57600080fd5b8251866001820283011164010000000082111715611a6c57600080fd5b8083526020830192505050908051906020019080838360005b83811015611aa0578082015181840152602081019050611a85565b50505050905090810190601f168015611acd5780820380516001836020036101000a031916815260200191505b5060405260200180516040519392919084640100000000821115611af057600080fd5b83820191506020820185811115611b0657600080fd5b8251866001820283011164010000000082111715611b2357600080fd5b8083526020830192505050908051906020019080838360005b83811015611b57578082015181840152602081019050611b3c565b50505050905090810190601f168015611b845780820380516001836020036101000a031916815260200191505b5060405250505092505091506000809054906101000a900473ffffffffffffffffffffffffffffffffffffffff1673ffffffffffffffffffffffffffffffffffffffff1663809db2f8888489856040518563ffffffff1660e01b815260040180858152602001806020018060200180602001848103845287818151815260200191508051906020019080838360005b83811015611c2e578082015181840152602081019050611c13565b50505050905090810190601f168015611c5b5780820380516001836020036101000a031916815260200191505b50848103835286818151815260200191508051906020019080838360005b83811015611c94578082015181840152602081019050611c79565b50505050905090810190601f168015611cc15780820380516001836020036101000a031916815260200191505b50848103825285818151815260200191508051906020019080838360005b83811015611cfa578082015181840152602081019050611cdf565b50505050905090810190601f168015611d275780820380516001836020036101000a031916815260200191505b50975050505050505050600060405180830381600087803b158015611d4b57600080fd5b505af1158015611d5f573d6000803e3d6000fd5b505050507fbd2d5e141024914cd2e117224339fcbc6fbd0fe65e6deed6c251f308cb3e4569876040518082815260200191505060405180910390a15050505050505056fe50726f6475637420697320616c726561647920726561647920666f72207368697070696e67a265627a7a72315820a032f562c2f36afafc73673488a1987b344194ec1525f07aa8f6a560187d7da164736f6c63430005100032",
  "source": "pragma solidity ^0.5.0;\n\nimport \"./Product.sol\";\n\ncontract RawMaterialSupplier {\n    Product productContract;\n    address rawMaterialSupplierContractOwner = msg.sender;\n    uint256[] rawMaterialsOwned;\n    constructor(Product productContractddress) public {\n        productContract = productContractddress;\n    }\n\n    //events\n    event rawMaterialAdded(uint productId);\n    event rawMaterialRemoved(uint productId);\n    event rawMaterialReadyToShip(uint productId);\n    event rawMaterialDisbatched(uint productId);\n\n    //modifiers\n    modifier ownerOnly(uint256 productId) {\n        require(productContract.getCurrentOwner(productId) == msg.sender);\n        _;\n    }\n\n\n\n    function addRawMaterial(\n        string memory name,\n        string memory placeOfOrigin,\n        string memory productionDate,\n        string memory expirationDate,\n        uint256 unitQuantity,\n        string memory unitQuantityType,\n        uint256 batchQuantity,\n        uint256 unitPrice,\n        string memory category,\n        string memory currentPhysicalLocation\n\n    ) public returns (uint256) {\n\n\n        uint256 productId = productContract.createProduct(\n            name,\n            address(this),\n            unitQuantity, \n            unitQuantityType, \n            batchQuantity, \n            unitPrice, \n            category\n        );\n        productContract.setPlaceOfOrigin(productId, placeOfOrigin);\n        productContract.setProductionDate(productId, productionDate);\n        productContract.setBatchQuantity(productId, batchQuantity);\n        productContract.setExpirationDate(productId, expirationDate);\n        productContract.setCurrentLocation(productId, currentPhysicalLocation, \"\", \"\");\n\n\n        rawMaterialsOwned.push(productId);\n        emit rawMaterialAdded(productId);\n        return productId;\n    }\n\n\n    function removeRawMaterial(uint256 productId) public ownerOnly(productId) {\n        productContract.removeProduct(productId);\n        for (uint256 i = 0; i < rawMaterialsOwned.length; i++) {\n            if (rawMaterialsOwned[i] == productId) {\n                delete rawMaterialsOwned[i];\n                break;\n            }\n        }\n        emit rawMaterialRemoved(productId);\n    }\n    \n\n    function materialReadyToShip(uint256 productId) public ownerOnly(productId) {\n        require(productContract.getReadyToShip(productId) == false, \"Product is already ready for shipping\");\n        productContract.setReadyToShip(productId, true);\n        emit rawMaterialReadyToShip(productId);\n    }\n\n    function disbatchRawMaterial(uint256 productId, string memory newDisbatchDate, address wineProducerAddress, address wineProducerContractAddress) public ownerOnly(productId) {\n        require(productContract.getReadyToShip(productId) == true, \"Product not ready for shipping\");\n        productContract.setPreviousOwner(productId, productContract.getCurrentOwner(productId));\n        productContract.setCurrentOwner(productId, wineProducerAddress);\n        productContract.setPreviousContractAddress(productId, productContract.getCurrentContractAddress(productId));\n        productContract.setCurrentContractAddress(productId, wineProducerContractAddress);\n        (string memory location, , string memory arrivalDate) = productContract.getCurrentLocation(productId);\n        productContract.setCurrentLocation(productId, location, newDisbatchDate, arrivalDate);\n        emit rawMaterialDisbatched(productId);\n    }    \n}",
  "sourcePath": "/Users/alexye/Desktop/Wine-Supplychain-Blockchain/contracts/RawMaterialSupplier.sol",
  "compiler": {
    "name": "solc",
    "version": "0.5.16+commit.9c3226ce.Emscripten.clang"
  },
  "schemaVersion": "3.4.12",
  "updatedAt": "2023-04-07T07:25:20.258Z",
  "devdoc": {
    "methods": {}
  },
  "userdoc": {
    "methods": {}
  }
}