{
  "contractName": "RawMaterialSupplier",
  "abi": [
    {
      "inputs": [
        {
          "internalType": "contract Product",
          "name": "productContractddress",
          "type": "address"
        }
      ],
      "payable": false,
      "stateMutability": "nonpayable",
      "type": "constructor"
    },
    {
      "anonymous": false,
      "inputs": [
        {
          "indexed": false,
          "internalType": "uint256",
          "name": "productId",
          "type": "uint256"
        }
      ],
      "name": "rawMaterialAdded",
      "type": "event"
    },
    {
      "anonymous": false,
      "inputs": [
        {
          "indexed": false,
          "internalType": "uint256",
          "name": "productId",
          "type": "uint256"
        }
      ],
      "name": "rawMaterialDisbatched",
      "type": "event"
    },
    {
      "anonymous": false,
      "inputs": [
        {
          "indexed": false,
          "internalType": "uint256",
          "name": "productId",
          "type": "uint256"
        }
      ],
      "name": "rawMaterialReadyToShip",
      "type": "event"
    },
    {
      "anonymous": false,
      "inputs": [
        {
          "indexed": false,
          "internalType": "uint256",
          "name": "productId",
          "type": "uint256"
        }
      ],
      "name": "rawMaterialRemoved",
      "type": "event"
    },
    {
      "anonymous": false,
      "inputs": [
        {
          "indexed": false,
          "internalType": "uint256",
          "name": "productId",
          "type": "uint256"
        }
      ],
      "name": "returnedRawMaterial",
      "type": "event"
    },
    {
      "constant": false,
      "inputs": [
        {
          "internalType": "string",
          "name": "name",
          "type": "string"
        },
        {
          "internalType": "string",
          "name": "placeOfOrigin",
          "type": "string"
        },
        {
          "internalType": "string",
          "name": "productionDate",
          "type": "string"
        },
        {
          "internalType": "string",
          "name": "expirationDate",
          "type": "string"
        },
        {
          "internalType": "uint256",
          "name": "unitQuantity",
          "type": "uint256"
        },
        {
          "internalType": "string",
          "name": "unitQuantityType",
          "type": "string"
        },
        {
          "internalType": "uint256",
          "name": "batchQuantity",
          "type": "uint256"
        },
        {
          "internalType": "uint256",
          "name": "unitPrice",
          "type": "uint256"
        },
        {
          "internalType": "string",
          "name": "category",
          "type": "string"
        },
        {
          "internalType": "string",
          "name": "currentPhysicalLocation",
          "type": "string"
        }
      ],
      "name": "addRawMaterial",
      "outputs": [
        {
          "internalType": "uint256",
          "name": "",
          "type": "uint256"
        }
      ],
      "payable": false,
      "stateMutability": "nonpayable",
      "type": "function"
    },
    {
      "constant": false,
      "inputs": [
        {
          "internalType": "uint256",
          "name": "productId",
          "type": "uint256"
        }
      ],
      "name": "returnRawMaterials",
      "outputs": [],
      "payable": true,
      "stateMutability": "payable",
      "type": "function"
    },
    {
      "constant": false,
      "inputs": [
        {
          "internalType": "uint256",
          "name": "productId",
          "type": "uint256"
        }
      ],
      "name": "removeRawMaterial",
      "outputs": [],
      "payable": false,
      "stateMutability": "nonpayable",
      "type": "function"
    },
    {
      "constant": false,
      "inputs": [
        {
          "internalType": "uint256",
          "name": "productId",
          "type": "uint256"
        }
      ],
      "name": "materialReadyToShip",
      "outputs": [],
      "payable": false,
      "stateMutability": "nonpayable",
      "type": "function"
    },
    {
      "constant": false,
      "inputs": [
        {
          "internalType": "uint256",
          "name": "productId",
          "type": "uint256"
        },
        {
          "internalType": "string",
          "name": "newDisbatchDate",
          "type": "string"
        },
        {
          "internalType": "address",
          "name": "wineProducerAddress",
          "type": "address"
        },
        {
          "internalType": "address",
          "name": "wineProducerContractAddress",
          "type": "address"
        }
      ],
      "name": "dispatchRawMaterial",
      "outputs": [],
      "payable": false,
      "stateMutability": "nonpayable",
      "type": "function"
    }
  ],
  "bytecode": "0x608060405233600160006101000a81548173ffffffffffffffffffffffffffffffffffffffff021916908373ffffffffffffffffffffffffffffffffffffffff16021790555034801561005157600080fd5b50604051612a48380380612a488339818101604052602081101561007457600080fd5b8101908080519060200190929190505050806000806101000a81548173ffffffffffffffffffffffffffffffffffffffff021916908373ffffffffffffffffffffffffffffffffffffffff16021790555050612973806100d56000396000f3fe60806040526004361061004a5760003560e01c80635aff3e821461004f578063a9b2f38e1461008a578063abfbafc2146100b8578063ac4ce1311461053d578063acae934314610578575b600080fd5b34801561005b57600080fd5b506100886004803603602081101561007257600080fd5b810190808035906020019092919050505061068a565b005b6100b6600480360360208110156100a057600080fd5b8101908080359060200190929190505050610836565b005b3480156100c457600080fd5b5061052760048036036101408110156100dc57600080fd5b81019080803590602001906401000000008111156100f957600080fd5b82018360208201111561010b57600080fd5b8035906020019184600183028401116401000000008311171561012d57600080fd5b91908080601f016020809104026020016040519081016040528093929190818152602001838380828437600081840152601f19601f8201169050808301925050505050505091929192908035906020019064010000000081111561019057600080fd5b8201836020820111156101a257600080fd5b803590602001918460018302840111640100000000831117156101c457600080fd5b91908080601f016020809104026020016040519081016040528093929190818152602001838380828437600081840152601f19601f8201169050808301925050505050505091929192908035906020019064010000000081111561022757600080fd5b82018360208201111561023957600080fd5b8035906020019184600183028401116401000000008311171561025b57600080fd5b91908080601f016020809104026020016040519081016040528093929190818152602001838380828437600081840152601f19601f820116905080830192505050505050509192919290803590602001906401000000008111156102be57600080fd5b8201836020820111156102d057600080fd5b803590602001918460018302840111640100000000831117156102f257600080fd5b91908080601f016020809104026020016040519081016040528093929190818152602001838380828437600081840152601f19601f820116905080830192505050505050509192919290803590602001909291908035906020019064010000000081111561035f57600080fd5b82018360208201111561037157600080fd5b8035906020019184600183028401116401000000008311171561039357600080fd5b91908080601f016020809104026020016040519081016040528093929190818152602001838380828437600081840152601f19601f82011690508083019250505050505050919291929080359060200190929190803590602001909291908035906020019064010000000081111561040a57600080fd5b82018360208201111561041c57600080fd5b8035906020019184600183028401116401000000008311171561043e57600080fd5b91908080601f016020809104026020016040519081016040528093929190818152602001838380828437600081840152601f19601f820116905080830192505050505050509192919290803590602001906401000000008111156104a157600080fd5b8201836020820111156104b357600080fd5b803590602001918460018302840111640100000000831117156104d557600080fd5b91908080601f016020809104026020016040519081016040528093929190818152602001838380828437600081840152601f19601f82011690508083019250505050505050919291929050505061137e565b6040518082815260200191505060405180910390f35b34801561054957600080fd5b506105766004803603602081101561056057600080fd5b8101908080359060200190929190505050611ada565b005b34801561058457600080fd5b506106886004803603608081101561059b57600080fd5b8101908080359060200190929190803590602001906401000000008111156105c257600080fd5b8201836020820111156105d457600080fd5b803590602001918460018302840111640100000000831117156105f657600080fd5b91908080601f016020809104026020016040519081016040528093929190818152602001838380828437600081840152601f19601f820116905080830192505050505050509192919290803573ffffffffffffffffffffffffffffffffffffffff169060200190929190803573ffffffffffffffffffffffffffffffffffffffff169060200190929190505050611d9c565b005b803373ffffffffffffffffffffffffffffffffffffffff166000809054906101000a900473ffffffffffffffffffffffffffffffffffffffff1673ffffffffffffffffffffffffffffffffffffffff16637ace341b836040518263ffffffff1660e01b81526004018082815260200191505060206040518083038186803b15801561071457600080fd5b505afa158015610728573d6000803e3d6000fd5b505050506040513d602081101561073e57600080fd5b810190808051906020019092919050505073ffffffffffffffffffffffffffffffffffffffff161461076f57600080fd5b6000809054906101000a900473ffffffffffffffffffffffffffffffffffffffff1673ffffffffffffffffffffffffffffffffffffffff16635ee95cae836040518263ffffffff1660e01b815260040180828152602001915050600060405180830381600087803b1580156107e357600080fd5b505af11580156107f7573d6000803e3d6000fd5b505050507f8f5b569bc8b8355654ee3cfb529224b3a8d55743516c179ee92092a0b343de13826040518082815260200191505060405180910390a15050565b803373ffffffffffffffffffffffffffffffffffffffff166000809054906101000a900473ffffffffffffffffffffffffffffffffffffffff1673ffffffffffffffffffffffffffffffffffffffff16637ace341b836040518263ffffffff1660e01b81526004018082815260200191505060206040518083038186803b1580156108c057600080fd5b505afa1580156108d4573d6000803e3d6000fd5b505050506040513d60208110156108ea57600080fd5b810190808051906020019092919050505073ffffffffffffffffffffffffffffffffffffffff161461091b57600080fd5b600115156000809054906101000a900473ffffffffffffffffffffffffffffffffffffffff1673ffffffffffffffffffffffffffffffffffffffff16631becaefb846040518263ffffffff1660e01b81526004018082815260200191505060206040518083038186803b15801561099157600080fd5b505afa1580156109a5573d6000803e3d6000fd5b505050506040513d60208110156109bb57600080fd5b8101908080519060200190929190505050151514610a24576040517f08c379a00000000000000000000000000000000000000000000000000000000081526004018080602001828103825260268152602001806129196026913960400191505060405180910390fd5b3373ffffffffffffffffffffffffffffffffffffffff166000809054906101000a900473ffffffffffffffffffffffffffffffffffffffff1673ffffffffffffffffffffffffffffffffffffffff166256856a846040518263ffffffff1660e01b81526004018082815260200191505060206040518083038186803b158015610aac57600080fd5b505afa158015610ac0573d6000803e3d6000fd5b505050506040513d6020811015610ad657600080fd5b810190808051906020019092919050505073ffffffffffffffffffffffffffffffffffffffff1614610b70576040517f08c379a00000000000000000000000000000000000000000000000000000000081526004018080602001828103825260168152602001807f556e61626c6520746f20726566756e64206974656d730000000000000000000081525060200191505060405180910390fd5b60008060009054906101000a900473ffffffffffffffffffffffffffffffffffffffff1673ffffffffffffffffffffffffffffffffffffffff1663fe73e86c846040518263ffffffff1660e01b81526004018082815260200191505060206040518083038186803b158015610be457600080fd5b505afa158015610bf8573d6000803e3d6000fd5b505050506040513d6020811015610c0e57600080fd5b81019080805190602001909291905050506000809054906101000a900473ffffffffffffffffffffffffffffffffffffffff1673ffffffffffffffffffffffffffffffffffffffff166364c0e52f856040518263ffffffff1660e01b81526004018082815260200191505060206040518083038186803b158015610c9157600080fd5b505afa158015610ca5573d6000803e3d6000fd5b505050506040513d6020811015610cbb57600080fd5b810190808051906020019092919050505002905080341015610d45576040517f08c379a000000000000000000000000000000000000000000000000000000000815260040180806020018281038252601d8152602001807f496e737566666963656e7420616d6f756e7420666f7220726566756e6400000081525060200191505060405180910390fd5b60008060009054906101000a900473ffffffffffffffffffffffffffffffffffffffff1673ffffffffffffffffffffffffffffffffffffffff16637ace341b856040518263ffffffff1660e01b81526004018082815260200191505060206040518083038186803b158015610db957600080fd5b505afa158015610dcd573d6000803e3d6000fd5b505050506040513d6020811015610de357600080fd5b810190808051906020019092919050505090508073ffffffffffffffffffffffffffffffffffffffff166108fc839081150290604051600060405180830381858888f19350505050158015610e3c573d6000803e3d6000fd5b506000809054906101000a900473ffffffffffffffffffffffffffffffffffffffff1673ffffffffffffffffffffffffffffffffffffffff16630cc91022856000809054906101000a900473ffffffffffffffffffffffffffffffffffffffff1673ffffffffffffffffffffffffffffffffffffffff16637ace341b886040518263ffffffff1660e01b81526004018082815260200191505060206040518083038186803b158015610eed57600080fd5b505afa158015610f01573d6000803e3d6000fd5b505050506040513d6020811015610f1757600080fd5b81019080805190602001909291905050506040518363ffffffff1660e01b8152600401808381526020018273ffffffffffffffffffffffffffffffffffffffff1673ffffffffffffffffffffffffffffffffffffffff16815260200192505050600060405180830381600087803b158015610f9157600080fd5b505af1158015610fa5573d6000803e3d6000fd5b505050506000809054906101000a900473ffffffffffffffffffffffffffffffffffffffff1673ffffffffffffffffffffffffffffffffffffffff16636c125a6b85336040518363ffffffff1660e01b8152600401808381526020018273ffffffffffffffffffffffffffffffffffffffff1673ffffffffffffffffffffffffffffffffffffffff16815260200192505050600060405180830381600087803b15801561105157600080fd5b505af1158015611065573d6000803e3d6000fd5b505050506000809054906101000a900473ffffffffffffffffffffffffffffffffffffffff1673ffffffffffffffffffffffffffffffffffffffff166391f4caca856000809054906101000a900473ffffffffffffffffffffffffffffffffffffffff1673ffffffffffffffffffffffffffffffffffffffff16630772c45e886040518263ffffffff1660e01b81526004018082815260200191505060206040518083038186803b15801561111957600080fd5b505afa15801561112d573d6000803e3d6000fd5b505050506040513d602081101561114357600080fd5b81019080805190602001909291905050506040518363ffffffff1660e01b8152600401808381526020018273ffffffffffffffffffffffffffffffffffffffff1673ffffffffffffffffffffffffffffffffffffffff16815260200192505050600060405180830381600087803b1580156111bd57600080fd5b505af11580156111d1573d6000803e3d6000fd5b505050506000809054906101000a900473ffffffffffffffffffffffffffffffffffffffff1673ffffffffffffffffffffffffffffffffffffffff166358ff352a856000809054906101000a900473ffffffffffffffffffffffffffffffffffffffff1673ffffffffffffffffffffffffffffffffffffffff16635e478e6c886040518263ffffffff1660e01b81526004018082815260200191505060206040518083038186803b15801561128557600080fd5b505afa158015611299573d6000803e3d6000fd5b505050506040513d60208110156112af57600080fd5b81019080805190602001909291905050506040518363ffffffff1660e01b8152600401808381526020018273ffffffffffffffffffffffffffffffffffffffff1673ffffffffffffffffffffffffffffffffffffffff16815260200192505050600060405180830381600087803b15801561132957600080fd5b505af115801561133d573d6000803e3d6000fd5b505050507f3ab21a3ef461e2bef0069f128ddff2c56bfe1457aa3b7ff22b8691a38e0c61af846040518082815260200191505060405180910390a150505050565b6000806000809054906101000a900473ffffffffffffffffffffffffffffffffffffffff1673ffffffffffffffffffffffffffffffffffffffff166331260fd38d308b8b8b8b8b336040518963ffffffff1660e01b815260040180806020018973ffffffffffffffffffffffffffffffffffffffff1673ffffffffffffffffffffffffffffffffffffffff16815260200188815260200180602001878152602001868152602001806020018573ffffffffffffffffffffffffffffffffffffffff1673ffffffffffffffffffffffffffffffffffffffff16815260200184810384528c818151815260200191508051906020019080838360005b83811015611493578082015181840152602081019050611478565b50505050905090810190601f1680156114c05780820380516001836020036101000a031916815260200191505b50848103835289818151815260200191508051906020019080838360005b838110156114f95780820151818401526020810190506114de565b50505050905090810190601f1680156115265780820380516001836020036101000a031916815260200191505b50848103825286818151815260200191508051906020019080838360005b8381101561155f578082015181840152602081019050611544565b50505050905090810190601f16801561158c5780820380516001836020036101000a031916815260200191505b509b505050505050505050505050602060405180830381600087803b1580156115b457600080fd5b505af11580156115c8573d6000803e3d6000fd5b505050506040513d60208110156115de57600080fd5b810190808051906020019092919050505090506000809054906101000a900473ffffffffffffffffffffffffffffffffffffffff1673ffffffffffffffffffffffffffffffffffffffff166387f31bef828d6040518363ffffffff1660e01b81526004018083815260200180602001828103825283818151815260200191508051906020019080838360005b8381101561168557808201518184015260208101905061166a565b50505050905090810190601f1680156116b25780820380516001836020036101000a031916815260200191505b509350505050600060405180830381600087803b1580156116d257600080fd5b505af11580156116e6573d6000803e3d6000fd5b505050506000809054906101000a900473ffffffffffffffffffffffffffffffffffffffff1673ffffffffffffffffffffffffffffffffffffffff16636d126874828c6040518363ffffffff1660e01b81526004018083815260200180602001828103825283818151815260200191508051906020019080838360005b8381101561177e578082015181840152602081019050611763565b50505050905090810190601f1680156117ab5780820380516001836020036101000a031916815260200191505b509350505050600060405180830381600087803b1580156117cb57600080fd5b505af11580156117df573d6000803e3d6000fd5b505050506000809054906101000a900473ffffffffffffffffffffffffffffffffffffffff1673ffffffffffffffffffffffffffffffffffffffff16632364d78b82886040518363ffffffff1660e01b81526004018083815260200182815260200192505050600060405180830381600087803b15801561185f57600080fd5b505af1158015611873573d6000803e3d6000fd5b505050506000809054906101000a900473ffffffffffffffffffffffffffffffffffffffff1673ffffffffffffffffffffffffffffffffffffffff166343c92b6a828b6040518363ffffffff1660e01b81526004018083815260200180602001828103825283818151815260200191508051906020019080838360005b8381101561190b5780820151818401526020810190506118f0565b50505050905090810190601f1680156119385780820380516001836020036101000a031916815260200191505b509350505050600060405180830381600087803b15801561195857600080fd5b505af115801561196c573d6000803e3d6000fd5b505050506000809054906101000a900473ffffffffffffffffffffffffffffffffffffffff1673ffffffffffffffffffffffffffffffffffffffff1663809db2f882856040518363ffffffff1660e01b815260040180838152602001806020018060200180602001848103845285818151815260200191508051906020019080838360005b83811015611a0c5780820151818401526020810190506119f1565b50505050905090810190601f168015611a395780820380516001836020036101000a031916815260200191505b5084810383526000815260200160200184810382526000815260200160200195505050505050600060405180830381600087803b158015611a7957600080fd5b505af1158015611a8d573d6000803e3d6000fd5b505050507f943a12e5c63fba479b95e1f83af1a7f74a9eab6631358f09ac967fc91460f676816040518082815260200191505060405180910390a1809150509a9950505050505050505050565b803373ffffffffffffffffffffffffffffffffffffffff166000809054906101000a900473ffffffffffffffffffffffffffffffffffffffff1673ffffffffffffffffffffffffffffffffffffffff16637ace341b836040518263ffffffff1660e01b81526004018082815260200191505060206040518083038186803b158015611b6457600080fd5b505afa158015611b78573d6000803e3d6000fd5b505050506040513d6020811015611b8e57600080fd5b810190808051906020019092919050505073ffffffffffffffffffffffffffffffffffffffff1614611bbf57600080fd5b600015156000809054906101000a900473ffffffffffffffffffffffffffffffffffffffff1673ffffffffffffffffffffffffffffffffffffffff166340889b4f846040518263ffffffff1660e01b81526004018082815260200191505060206040518083038186803b158015611c3557600080fd5b505afa158015611c49573d6000803e3d6000fd5b505050506040513d6020811015611c5f57600080fd5b8101908080519060200190929190505050151514611cc8576040517f08c379a00000000000000000000000000000000000000000000000000000000081526004018080602001828103825260258152602001806128f46025913960400191505060405180910390fd5b6000809054906101000a900473ffffffffffffffffffffffffffffffffffffffff1673ffffffffffffffffffffffffffffffffffffffff16633d30ffb88360016040518363ffffffff1660e01b8152600401808381526020018215151515815260200192505050600060405180830381600087803b158015611d4957600080fd5b505af1158015611d5d573d6000803e3d6000fd5b505050507fc0b30350697ec61b9c8647046033ad9bece06bf113a2d7012d69d0e52ed08632826040518082815260200191505060405180910390a15050565b833373ffffffffffffffffffffffffffffffffffffffff166000809054906101000a900473ffffffffffffffffffffffffffffffffffffffff1673ffffffffffffffffffffffffffffffffffffffff16637ace341b836040518263ffffffff1660e01b81526004018082815260200191505060206040518083038186803b158015611e2657600080fd5b505afa158015611e3a573d6000803e3d6000fd5b505050506040513d6020811015611e5057600080fd5b810190808051906020019092919050505073ffffffffffffffffffffffffffffffffffffffff1614611e8157600080fd5b600115156000809054906101000a900473ffffffffffffffffffffffffffffffffffffffff1673ffffffffffffffffffffffffffffffffffffffff166340889b4f876040518263ffffffff1660e01b81526004018082815260200191505060206040518083038186803b158015611ef757600080fd5b505afa158015611f0b573d6000803e3d6000fd5b505050506040513d6020811015611f2157600080fd5b8101908080519060200190929190505050151514611fa7576040517f08c379a000000000000000000000000000000000000000000000000000000000815260040180806020018281038252601e8152602001807f50726f64756374206e6f7420726561647920666f72207368697070696e67000081525060200191505060405180910390fd5b6000809054906101000a900473ffffffffffffffffffffffffffffffffffffffff1673ffffffffffffffffffffffffffffffffffffffff16630cc91022866000809054906101000a900473ffffffffffffffffffffffffffffffffffffffff1673ffffffffffffffffffffffffffffffffffffffff16637ace341b896040518263ffffffff1660e01b81526004018082815260200191505060206040518083038186803b15801561205757600080fd5b505afa15801561206b573d6000803e3d6000fd5b505050506040513d602081101561208157600080fd5b81019080805190602001909291905050506040518363ffffffff1660e01b8152600401808381526020018273ffffffffffffffffffffffffffffffffffffffff1673ffffffffffffffffffffffffffffffffffffffff16815260200192505050600060405180830381600087803b1580156120fb57600080fd5b505af115801561210f573d6000803e3d6000fd5b505050506000809054906101000a900473ffffffffffffffffffffffffffffffffffffffff1673ffffffffffffffffffffffffffffffffffffffff16636c125a6b86856040518363ffffffff1660e01b8152600401808381526020018273ffffffffffffffffffffffffffffffffffffffff1673ffffffffffffffffffffffffffffffffffffffff16815260200192505050600060405180830381600087803b1580156121bb57600080fd5b505af11580156121cf573d6000803e3d6000fd5b505050506000809054906101000a900473ffffffffffffffffffffffffffffffffffffffff1673ffffffffffffffffffffffffffffffffffffffff166391f4caca866000809054906101000a900473ffffffffffffffffffffffffffffffffffffffff1673ffffffffffffffffffffffffffffffffffffffff16630772c45e896040518263ffffffff1660e01b81526004018082815260200191505060206040518083038186803b15801561228357600080fd5b505afa158015612297573d6000803e3d6000fd5b505050506040513d60208110156122ad57600080fd5b81019080805190602001909291905050506040518363ffffffff1660e01b8152600401808381526020018273ffffffffffffffffffffffffffffffffffffffff1673ffffffffffffffffffffffffffffffffffffffff16815260200192505050600060405180830381600087803b15801561232757600080fd5b505af115801561233b573d6000803e3d6000fd5b505050506000809054906101000a900473ffffffffffffffffffffffffffffffffffffffff1673ffffffffffffffffffffffffffffffffffffffff166358ff352a86846040518363ffffffff1660e01b8152600401808381526020018273ffffffffffffffffffffffffffffffffffffffff1673ffffffffffffffffffffffffffffffffffffffff16815260200192505050600060405180830381600087803b1580156123e757600080fd5b505af11580156123fb573d6000803e3d6000fd5b505050506060806000809054906101000a900473ffffffffffffffffffffffffffffffffffffffff1673ffffffffffffffffffffffffffffffffffffffff166323bb1835886040518263ffffffff1660e01b81526004018082815260200191505060006040518083038186803b15801561247457600080fd5b505afa158015612488573d6000803e3d6000fd5b505050506040513d6000823e3d601f19601f8201168201806040525060608110156124b257600080fd5b81019080805160405193929190846401000000008211156124d257600080fd5b838201915060208201858111156124e857600080fd5b825186600182028301116401000000008211171561250557600080fd5b8083526020830192505050908051906020019080838360005b8381101561253957808201518184015260208101905061251e565b50505050905090810190601f1680156125665780820380516001836020036101000a031916815260200191505b506040526020018051604051939291908464010000000082111561258957600080fd5b8382019150602082018581111561259f57600080fd5b82518660018202830111640100000000821117156125bc57600080fd5b8083526020830192505050908051906020019080838360005b838110156125f05780820151818401526020810190506125d5565b50505050905090810190601f16801561261d5780820380516001836020036101000a031916815260200191505b506040526020018051604051939291908464010000000082111561264057600080fd5b8382019150602082018581111561265657600080fd5b825186600182028301116401000000008211171561267357600080fd5b8083526020830192505050908051906020019080838360005b838110156126a757808201518184015260208101905061268c565b50505050905090810190601f1680156126d45780820380516001836020036101000a031916815260200191505b5060405250505092505091506000809054906101000a900473ffffffffffffffffffffffffffffffffffffffff1673ffffffffffffffffffffffffffffffffffffffff1663809db2f8888489856040518563ffffffff1660e01b815260040180858152602001806020018060200180602001848103845287818151815260200191508051906020019080838360005b8381101561277e578082015181840152602081019050612763565b50505050905090810190601f1680156127ab5780820380516001836020036101000a031916815260200191505b50848103835286818151815260200191508051906020019080838360005b838110156127e45780820151818401526020810190506127c9565b50505050905090810190601f1680156128115780820380516001836020036101000a031916815260200191505b50848103825285818151815260200191508051906020019080838360005b8381101561284a57808201518184015260208101905061282f565b50505050905090810190601f1680156128775780820380516001836020036101000a031916815260200191505b50975050505050505050600060405180830381600087803b15801561289b57600080fd5b505af11580156128af573d6000803e3d6000fd5b505050507fbd2d5e141024914cd2e117224339fcbc6fbd0fe65e6deed6c251f308cb3e4569876040518082815260200191505060405180910390a15050505050505056fe50726f6475637420697320616c726561647920726561647920666f72207368697070696e6750726f64756374206973206e6f742079657420726563656976656420666f722072657475726ea265627a7a72315820e9a0373fc01ff451db1668e532506df53dc575797ba740a332bc8439888d827f64736f6c63430005100032",
  "source": "pragma solidity ^0.5.0;\n\nimport \"./Product.sol\";\n\ncontract RawMaterialSupplier {\n    Product productContract;\n    address rawMaterialSupplierContractOwner = msg.sender;\n    constructor(Product productContractddress) public {\n        productContract = productContractddress;\n    }\n\n    //events\n    event rawMaterialAdded(uint productId);\n    event rawMaterialRemoved(uint productId);\n    event rawMaterialReadyToShip(uint productId);\n    event rawMaterialDisbatched(uint productId);\n    event returnedRawMaterial(uint productId);\n    \n\n    //modifiers\n    modifier ownerOnly(uint256 productId) {\n        require(productContract.getCurrentOwner(productId) == msg.sender);\n        _;\n    }\n\n    function addRawMaterial(\n        string memory name,\n        string memory placeOfOrigin,\n        string memory productionDate,\n        string memory expirationDate,\n        uint256 unitQuantity,\n        string memory unitQuantityType,\n        uint256 batchQuantity,\n        uint256 unitPrice,\n        string memory category,\n        string memory currentPhysicalLocation\n\n    ) public returns (uint256) {\n\n\n        uint256 productId = productContract.createProduct(\n            name,\n            address(this),\n            unitQuantity, \n            unitQuantityType, \n            batchQuantity, \n            unitPrice, \n            category,\n            address(msg.sender)\n        );\n        productContract.setPlaceOfOrigin(productId, placeOfOrigin);\n        productContract.setProductionDate(productId, productionDate);\n        productContract.setBatchQuantity(productId, batchQuantity);\n        productContract.setExpirationDate(productId, expirationDate);\n        productContract.setCurrentLocation(productId, currentPhysicalLocation, \"\", \"\");\n\n        emit rawMaterialAdded(productId);\n        return productId;\n    }\n\n\n    function returnRawMaterials(uint256 productId) public payable ownerOnly(productId) {\n\n        require(productContract.getReceived(productId) == true, \"Product is not yet received for return\");\n        require(productContract.getPreviousOwner(productId) == msg.sender, \"Unable to refund items\");\n\n        //Transfer back the amt\n        uint256 productPrice = productContract.getUnitPrice(productId) * productContract.getBatchQuantity(productId);\n        require(msg.value >= productPrice, \"Insufficent amount for refund\");\n        address payable targetAddress = address(uint160(productContract.getCurrentOwner(productId)));\n        targetAddress.transfer(productPrice);\n\n        productContract.setPreviousOwner(productId, productContract.getCurrentOwner(productId));\n        productContract.setCurrentOwner(productId, msg.sender);\n        productContract.setPreviousContractAddress(productId, productContract.getCurrentContractAddress(productId));\n        productContract.setCurrentContractAddress(productId, productContract.getPreviousContractAddress(productId));\n\n        emit returnedRawMaterial(productId);\n    }\n\n\n    function removeRawMaterial(uint256 productId) public ownerOnly(productId) {\n        productContract.removeProduct(productId);\n\n        emit rawMaterialRemoved(productId);\n    }\n    \n\n    function materialReadyToShip(uint256 productId) public ownerOnly(productId) {\n        require(productContract.getReadyToShip(productId) == false, \"Product is already ready for shipping\");\n        productContract.setReadyToShip(productId, true);\n        emit rawMaterialReadyToShip(productId);\n    }\n\n    function dispatchRawMaterial(uint256 productId, string memory newDisbatchDate, address wineProducerAddress, address wineProducerContractAddress) public ownerOnly(productId) {\n        require(productContract.getReadyToShip(productId) == true, \"Product not ready for shipping\");\n        productContract.setPreviousOwner(productId, productContract.getCurrentOwner(productId));\n        productContract.setCurrentOwner(productId, wineProducerAddress);\n        productContract.setPreviousContractAddress(productId, productContract.getCurrentContractAddress(productId));\n        productContract.setCurrentContractAddress(productId, wineProducerContractAddress);\n        (string memory location, , string memory arrivalDate) = productContract.getCurrentLocation(productId);\n        productContract.setCurrentLocation(productId, location, newDisbatchDate, arrivalDate);\n        emit rawMaterialDisbatched(productId);\n    }    \n}",
  "sourcePath": "/Users/kathleen/IS4302/Project/Wine-Supplychain-Blockchain/contracts/RawMaterialSupplier.sol",
  "compiler": {
    "name": "solc",
    "version": "0.5.16+commit.9c3226ce.Emscripten.clang"
  },
  "schemaVersion": "3.4.11",
  "updatedAt": "2023-04-08T06:17:21.294Z",
  "devdoc": {
    "methods": {}
  },
  "userdoc": {
    "methods": {}
  }
}