{
  "contractName": "RawMaterialSupplier",
  "abi": [
    {
      "inputs": [
        {
          "internalType": "contract Product",
          "name": "productContractddress",
          "type": "address"
        }
      ],
      "payable": false,
      "stateMutability": "nonpayable",
      "type": "constructor"
    },
    {
      "constant": false,
      "inputs": [
        {
          "internalType": "string",
          "name": "name",
          "type": "string"
        },
        {
          "internalType": "string",
          "name": "placeOfOrigin",
          "type": "string"
        },
        {
          "internalType": "string",
          "name": "productionDate",
          "type": "string"
        },
        {
          "internalType": "string",
          "name": "expirationDate",
          "type": "string"
        },
        {
          "internalType": "uint256",
          "name": "unitQuantity",
          "type": "uint256"
        },
        {
          "internalType": "string",
          "name": "unitQuantityType",
          "type": "string"
        },
        {
          "internalType": "uint256",
          "name": "batchQuantity",
          "type": "uint256"
        },
        {
          "internalType": "uint256",
          "name": "unitPrice",
          "type": "uint256"
        },
        {
          "internalType": "string",
          "name": "category",
          "type": "string"
        }
      ],
      "name": "addRawMaterial",
      "outputs": [
        {
          "internalType": "uint256",
          "name": "",
          "type": "uint256"
        }
      ],
      "payable": false,
      "stateMutability": "nonpayable",
      "type": "function"
    },
    {
      "constant": false,
      "inputs": [
        {
          "internalType": "string",
          "name": "name",
          "type": "string"
        },
        {
          "internalType": "uint256",
          "name": "unitQuantity",
          "type": "uint256"
        },
        {
          "internalType": "string",
          "name": "unitQuantityType",
          "type": "string"
        },
        {
          "internalType": "uint256",
          "name": "batchQuantity",
          "type": "uint256"
        },
        {
          "internalType": "uint256",
          "name": "unitPrice",
          "type": "uint256"
        },
        {
          "internalType": "string",
          "name": "category",
          "type": "string"
        }
      ],
      "name": "addRawMaterial",
      "outputs": [
        {
          "internalType": "uint256",
          "name": "",
          "type": "uint256"
        }
      ],
      "payable": false,
      "stateMutability": "nonpayable",
      "type": "function"
    },
    {
      "constant": false,
      "inputs": [
        {
          "internalType": "uint256",
          "name": "productId",
          "type": "uint256"
        }
      ],
      "name": "removeRawMaterial",
      "outputs": [],
      "payable": false,
      "stateMutability": "nonpayable",
      "type": "function"
    },
    {
      "constant": false,
      "inputs": [
        {
          "internalType": "uint256",
          "name": "productId",
          "type": "uint256"
        },
        {
          "internalType": "string",
          "name": "newDisbatchDate",
          "type": "string"
        },
        {
          "internalType": "address",
          "name": "wineProducerAddress",
          "type": "address"
        }
      ],
      "name": "disbatchRawMaterial",
      "outputs": [],
      "payable": false,
      "stateMutability": "nonpayable",
      "type": "function"
    }
  ],
  "bytecode": "0x608060405233600160006101000a81548173ffffffffffffffffffffffffffffffffffffffff021916908373ffffffffffffffffffffffffffffffffffffffff16021790555034801561005157600080fd5b50604051611ad1380380611ad18339818101604052602081101561007457600080fd5b8101908080519060200190929190505050806000806101000a81548173ffffffffffffffffffffffffffffffffffffffff021916908373ffffffffffffffffffffffffffffffffffffffff160217905550506119fc806100d56000396000f3fe608060405234801561001057600080fd5b506004361061004c5760003560e01c80633643f8dc146100515780635aff3e8214610136578063a8bc1ec114610164578063e1837b7114610545575b600080fd5b6101346004803603606081101561006757600080fd5b81019080803590602001909291908035906020019064010000000081111561008e57600080fd5b8201836020820111156100a057600080fd5b803590602001918460018302840111640100000000831117156100c257600080fd5b91908080601f016020809104026020016040519081016040528093929190818152602001838380828437600081840152601f19601f820116905080830192505050505050509192919290803573ffffffffffffffffffffffffffffffffffffffff169060200190929190505050610760565b005b6101626004803603602081101561014c57600080fd5b8101908080359060200190929190505050611064565b005b61052f600480360361012081101561017b57600080fd5b810190808035906020019064010000000081111561019857600080fd5b8201836020820111156101aa57600080fd5b803590602001918460018302840111640100000000831117156101cc57600080fd5b91908080601f016020809104026020016040519081016040528093929190818152602001838380828437600081840152601f19601f8201169050808301925050505050505091929192908035906020019064010000000081111561022f57600080fd5b82018360208201111561024157600080fd5b8035906020019184600183028401116401000000008311171561026357600080fd5b91908080601f016020809104026020016040519081016040528093929190818152602001838380828437600081840152601f19601f820116905080830192505050505050509192919290803590602001906401000000008111156102c657600080fd5b8201836020820111156102d857600080fd5b803590602001918460018302840111640100000000831117156102fa57600080fd5b91908080601f016020809104026020016040519081016040528093929190818152602001838380828437600081840152601f19601f8201169050808301925050505050505091929192908035906020019064010000000081111561035d57600080fd5b82018360208201111561036f57600080fd5b8035906020019184600183028401116401000000008311171561039157600080fd5b91908080601f016020809104026020016040519081016040528093929190818152602001838380828437600081840152601f19601f82011690508083019250505050505050919291929080359060200190929190803590602001906401000000008111156103fe57600080fd5b82018360208201111561041057600080fd5b8035906020019184600183028401116401000000008311171561043257600080fd5b91908080601f016020809104026020016040519081016040528093929190818152602001838380828437600081840152601f19601f8201169050808301925050505050505091929192908035906020019092919080359060200190929190803590602001906401000000008111156104a957600080fd5b8201836020820111156104bb57600080fd5b803590602001918460018302840111640100000000831117156104dd57600080fd5b91908080601f016020809104026020016040519081016040528093929190818152602001838380828437600081840152601f19601f820116905080830192505050505050509192919290505050611153565b6040518082815260200191505060405180910390f35b61074a600480360360c081101561055b57600080fd5b810190808035906020019064010000000081111561057857600080fd5b82018360208201111561058a57600080fd5b803590602001918460018302840111640100000000831117156105ac57600080fd5b91908080601f016020809104026020016040519081016040528093929190818152602001838380828437600081840152601f19601f820116905080830192505050505050509192919290803590602001909291908035906020019064010000000081111561061957600080fd5b82018360208201111561062b57600080fd5b8035906020019184600183028401116401000000008311171561064d57600080fd5b91908080601f016020809104026020016040519081016040528093929190818152602001838380828437600081840152601f19601f8201169050808301925050505050505091929192908035906020019092919080359060200190929190803590602001906401000000008111156106c457600080fd5b8201836020820111156106d657600080fd5b803590602001918460018302840111640100000000831117156106f857600080fd5b91908080601f016020809104026020016040519081016040528093929190818152602001838380828437600081840152601f19601f82011690508083019250505050505050919291929050505061174e565b6040518082815260200191505060405180910390f35b600115156000809054906101000a900473ffffffffffffffffffffffffffffffffffffffff1673ffffffffffffffffffffffffffffffffffffffff166340889b4f856040518263ffffffff1660e01b81526004018082815260200191505060206040518083038186803b1580156107d657600080fd5b505afa1580156107ea573d6000803e3d6000fd5b505050506040513d602081101561080057600080fd5b8101908080519060200190929190505050151514610886576040517f08c379a000000000000000000000000000000000000000000000000000000000815260040180806020018281038252601e8152602001807f50726f64756374206e6f7420726561647920666f72207368697070696e67000081525060200191505060405180910390fd5b6000809054906101000a900473ffffffffffffffffffffffffffffffffffffffff1673ffffffffffffffffffffffffffffffffffffffff16636c125a6b84836040518363ffffffff1660e01b8152600401808381526020018273ffffffffffffffffffffffffffffffffffffffff1673ffffffffffffffffffffffffffffffffffffffff16815260200192505050600060405180830381600087803b15801561092e57600080fd5b505af1158015610942573d6000803e3d6000fd5b505050506000809054906101000a900473ffffffffffffffffffffffffffffffffffffffff1673ffffffffffffffffffffffffffffffffffffffff16630cc9102284306040518363ffffffff1660e01b8152600401808381526020018273ffffffffffffffffffffffffffffffffffffffff1673ffffffffffffffffffffffffffffffffffffffff16815260200192505050600060405180830381600087803b1580156109ee57600080fd5b505af1158015610a02573d6000803e3d6000fd5b5050505060608060606000809054906101000a900473ffffffffffffffffffffffffffffffffffffffff1673ffffffffffffffffffffffffffffffffffffffff166323bb1835876040518263ffffffff1660e01b81526004018082815260200191505060006040518083038186803b158015610a7d57600080fd5b505afa158015610a91573d6000803e3d6000fd5b505050506040513d6000823e3d601f19601f820116820180604052506060811015610abb57600080fd5b8101908080516040519392919084640100000000821115610adb57600080fd5b83820191506020820185811115610af157600080fd5b8251866001820283011164010000000082111715610b0e57600080fd5b8083526020830192505050908051906020019080838360005b83811015610b42578082015181840152602081019050610b27565b50505050905090810190601f168015610b6f5780820380516001836020036101000a031916815260200191505b5060405260200180516040519392919084640100000000821115610b9257600080fd5b83820191506020820185811115610ba857600080fd5b8251866001820283011164010000000082111715610bc557600080fd5b8083526020830192505050908051906020019080838360005b83811015610bf9578082015181840152602081019050610bde565b50505050905090810190601f168015610c265780820380516001836020036101000a031916815260200191505b5060405260200180516040519392919084640100000000821115610c4957600080fd5b83820191506020820185811115610c5f57600080fd5b8251866001820283011164010000000082111715610c7c57600080fd5b8083526020830192505050908051906020019080838360005b83811015610cb0578082015181840152602081019050610c95565b50505050905090810190601f168015610cdd5780820380516001836020036101000a031916815260200191505b506040525050509250925092506000809054906101000a900473ffffffffffffffffffffffffffffffffffffffff1673ffffffffffffffffffffffffffffffffffffffff1663d88ee329878585856040518563ffffffff1660e01b815260040180858152602001806020018060200180602001848103845287818151815260200191508051906020019080838360005b83811015610d88578082015181840152602081019050610d6d565b50505050905090810190601f168015610db55780820380516001836020036101000a031916815260200191505b50848103835286818151815260200191508051906020019080838360005b83811015610dee578082015181840152602081019050610dd3565b50505050905090810190601f168015610e1b5780820380516001836020036101000a031916815260200191505b50848103825285818151815260200191508051906020019080838360005b83811015610e54578082015181840152602081019050610e39565b50505050905090810190601f168015610e815780820380516001836020036101000a031916815260200191505b50975050505050505050600060405180830381600087803b158015610ea557600080fd5b505af1158015610eb9573d6000803e3d6000fd5b505050506000809054906101000a900473ffffffffffffffffffffffffffffffffffffffff1673ffffffffffffffffffffffffffffffffffffffff1663809db2f88785886040518463ffffffff1660e01b815260040180848152602001806020018060200180602001848103845286818151815260200191508051906020019080838360005b83811015610f5a578082015181840152602081019050610f3f565b50505050905090810190601f168015610f875780820380516001836020036101000a031916815260200191505b50848103835285818151815260200191508051906020019080838360005b83811015610fc0578082015181840152602081019050610fa5565b50505050905090810190601f168015610fed5780820380516001836020036101000a031916815260200191505b50848103825260048152602001807f6e756c6c000000000000000000000000000000000000000000000000000000008152506020019650505050505050600060405180830381600087803b15801561104457600080fd5b505af1158015611058573d6000803e3d6000fd5b50505050505050505050565b6000809054906101000a900473ffffffffffffffffffffffffffffffffffffffff1673ffffffffffffffffffffffffffffffffffffffff16635ee95cae826040518263ffffffff1660e01b815260040180828152602001915050600060405180830381600087803b1580156110d857600080fd5b505af11580156110ec573d6000803e3d6000fd5b5050505060008090505b60028054905081101561114f57816002828154811061111157fe5b90600052602060002001541415611142576002818154811061112f57fe5b906000526020600020016000905561114f565b80806001019150506110f6565b5050565b6000806000809054906101000a900473ffffffffffffffffffffffffffffffffffffffff1673ffffffffffffffffffffffffffffffffffffffff1663d5e7986f8c308a8a8a8a8a6040518863ffffffff1660e01b815260040180806020018873ffffffffffffffffffffffffffffffffffffffff1673ffffffffffffffffffffffffffffffffffffffff168152602001878152602001806020018681526020018581526020018060200184810384528b818151815260200191508051906020019080838360005b8381101561123557808201518184015260208101905061121a565b50505050905090810190601f1680156112625780820380516001836020036101000a031916815260200191505b50848103835288818151815260200191508051906020019080838360005b8381101561129b578082015181840152602081019050611280565b50505050905090810190601f1680156112c85780820380516001836020036101000a031916815260200191505b50848103825285818151815260200191508051906020019080838360005b838110156113015780820151818401526020810190506112e6565b50505050905090810190601f16801561132e5780820380516001836020036101000a031916815260200191505b509a5050505050505050505050602060405180830381600087803b15801561135557600080fd5b505af1158015611369573d6000803e3d6000fd5b505050506040513d602081101561137f57600080fd5b810190808051906020019092919050505090506000809054906101000a900473ffffffffffffffffffffffffffffffffffffffff1673ffffffffffffffffffffffffffffffffffffffff166387f31bef828c6040518363ffffffff1660e01b81526004018083815260200180602001828103825283818151815260200191508051906020019080838360005b8381101561142657808201518184015260208101905061140b565b50505050905090810190601f1680156114535780820380516001836020036101000a031916815260200191505b509350505050600060405180830381600087803b15801561147357600080fd5b505af1158015611487573d6000803e3d6000fd5b505050506000809054906101000a900473ffffffffffffffffffffffffffffffffffffffff1673ffffffffffffffffffffffffffffffffffffffff16636d126874828b6040518363ffffffff1660e01b81526004018083815260200180602001828103825283818151815260200191508051906020019080838360005b8381101561151f578082015181840152602081019050611504565b50505050905090810190601f16801561154c5780820380516001836020036101000a031916815260200191505b509350505050600060405180830381600087803b15801561156c57600080fd5b505af1158015611580573d6000803e3d6000fd5b505050506000809054906101000a900473ffffffffffffffffffffffffffffffffffffffff1673ffffffffffffffffffffffffffffffffffffffff16632364d78b82876040518363ffffffff1660e01b81526004018083815260200182815260200192505050600060405180830381600087803b15801561160057600080fd5b505af1158015611614573d6000803e3d6000fd5b505050506000809054906101000a900473ffffffffffffffffffffffffffffffffffffffff1673ffffffffffffffffffffffffffffffffffffffff166343c92b6a828a6040518363ffffffff1660e01b81526004018083815260200180602001828103825283818151815260200191508051906020019080838360005b838110156116ac578082015181840152602081019050611691565b50505050905090810190601f1680156116d95780820380516001836020036101000a031916815260200191505b509350505050600060405180830381600087803b1580156116f957600080fd5b505af115801561170d573d6000803e3d6000fd5b505050506002819080600181540180825580915050906001820390600052602060002001600090919290919091505550809150509998505050505050505050565b6000806000809054906101000a900473ffffffffffffffffffffffffffffffffffffffff1673ffffffffffffffffffffffffffffffffffffffff1663d5e7986f89308a8a8a8a8a6040518863ffffffff1660e01b815260040180806020018873ffffffffffffffffffffffffffffffffffffffff1673ffffffffffffffffffffffffffffffffffffffff168152602001878152602001806020018681526020018581526020018060200184810384528b818151815260200191508051906020019080838360005b83811015611830578082015181840152602081019050611815565b50505050905090810190601f16801561185d5780820380516001836020036101000a031916815260200191505b50848103835288818151815260200191508051906020019080838360005b8381101561189657808201518184015260208101905061187b565b50505050905090810190601f1680156118c35780820380516001836020036101000a031916815260200191505b50848103825285818151815260200191508051906020019080838360005b838110156118fc5780820151818401526020810190506118e1565b50505050905090810190601f1680156119295780820380516001836020036101000a031916815260200191505b509a5050505050505050505050602060405180830381600087803b15801561195057600080fd5b505af1158015611964573d6000803e3d6000fd5b505050506040513d602081101561197a57600080fd5b81019080805190602001909291905050509050600281908060018154018082558091505090600182039060005260206000200160009091929091909150555080915050969550505050505056fea265627a7a723158208ca701b302c09de67d1dd6960f525b005e1cab4d83d6171222d8da0fe2339bb064736f6c63430005100032",
  "source": "pragma solidity ^0.5.0;\n\nimport \"./Product.sol\";\n\ncontract RawMaterialSupplier {\n    Product productContract;\n    address rawMaterialSupplierContractOwner = msg.sender;\n    uint256[] rawMaterialsOwned;\n    constructor(Product productContractddress) public {\n        productContract = productContractddress;\n    }\n\n\n    function addRawMaterial(\n        string memory name,\n        string memory placeOfOrigin,\n        string memory productionDate,\n        string memory expirationDate,\n        uint256 unitQuantity,\n        string memory unitQuantityType,\n        uint256 batchQuantity,\n        uint256 unitPrice,\n        string memory category\n        // string memory currentPhysicalLocation\n\n    ) public returns (uint256) {\n\n\n        uint256 productId = productContract.createProduct(\n            name,\n            address(this),\n            unitQuantity, \n            unitQuantityType, \n            batchQuantity, \n            unitPrice, \n            category\n        );\n        productContract.setPlaceOfOrigin(productId, placeOfOrigin);\n        productContract.setProductionDate(productId, productionDate);\n        productContract.setBatchQuantity(productId, batchQuantity);\n        productContract.setExpirationDate(productId, expirationDate);\n        // productContract.setCurrentLocation(productId, newLocation, newDisbatchDate, newArrivalDate);\n\n\n        rawMaterialsOwned.push(productId);\n        return productId;\n    }\n\n    function addRawMaterial(\n        string memory name,\n        uint256 unitQuantity,\n        string memory unitQuantityType,\n        uint256 batchQuantity,\n        uint256 unitPrice,\n        string memory category\n    ) public returns (uint256) {\n        uint256 productId = productContract.createProduct(\n            name,\n            address(this),\n            unitQuantity, \n            unitQuantityType, \n            batchQuantity, \n            unitPrice, \n            category\n        );\n        rawMaterialsOwned.push(productId);\n        return productId;\n    }\n      \n\n    function removeRawMaterial(uint256 productId) public {\n        productContract.removeProduct(productId);\n        for (uint256 i = 0; i < rawMaterialsOwned.length; i++) {\n            if (rawMaterialsOwned[i] == productId) {\n                delete rawMaterialsOwned[i];\n                break;\n            }\n        }\n    }\n    \n\n    // function materialReadyToShip(uint256 productId, string memory newLocation) public {\n    //     require(productContract.getReadyToShip(productId) == false, \"Product is already ready for shipping\");\n    //     productContract.setReadyToShip(productId, true);\n    //     (string memory location, string memory disbatchDate, string memory arrivalDate) = productContract.getCurrentLocation(productId);\n    //     // productContract.addPreviousLocation(productId, location, disbatchDate, arrivalDate);\n    //     productContract.setCurrentLocation(productId, newLocation, \"null\", \"null\");\n    // }\n\n    function disbatchRawMaterial(uint256 productId, string memory newDisbatchDate, address wineProducerAddress) public {\n        require(productContract.getReadyToShip(productId) == true, \"Product not ready for shipping\");\n        productContract.setCurrentOwner(productId, wineProducerAddress);\n        productContract.setPreviousOwner(productId, address(this));\n        (string memory location, string memory disbatchDate, string memory arrivalDate) = productContract.getCurrentLocation(productId);\n        productContract.addPreviousLocation(productId, location, disbatchDate, arrivalDate);\n        productContract.setCurrentLocation(productId, location, newDisbatchDate, \"null\");\n    }    \n}",
  "sourcePath": "/Users/jarrentoh/Documents/GitHub/Wine Supplychain Blockchain/contracts/RawMaterialSupplier.sol",
  "compiler": {
    "name": "solc",
    "version": "0.5.16+commit.9c3226ce.Emscripten.clang"
  },
  "schemaVersion": "3.4.11",
  "updatedAt": "2023-03-31T14:43:03.317Z",
  "devdoc": {
    "methods": {}
  },
  "userdoc": {
    "methods": {}
  }
}