{
  "contractName": "RawMaterialSupplier",
  "abi": [
    {
      "inputs": [
        {
          "internalType": "contract Product",
          "name": "productContractddress",
          "type": "address"
        }
      ],
      "payable": false,
      "stateMutability": "nonpayable",
      "type": "constructor"
    },
    {
      "constant": false,
      "inputs": [
        {
          "internalType": "string",
          "name": "name",
          "type": "string"
        },
        {
          "internalType": "uint256",
          "name": "unitQuantity",
          "type": "uint256"
        },
        {
          "internalType": "string",
          "name": "unitQuantityType",
          "type": "string"
        },
        {
          "internalType": "uint256",
          "name": "batchQuantity",
          "type": "uint256"
        },
        {
          "internalType": "uint256",
          "name": "unitPrice",
          "type": "uint256"
        },
        {
          "internalType": "string",
          "name": "category",
          "type": "string"
        }
      ],
      "name": "addRawMaterial",
      "outputs": [
        {
          "internalType": "uint256",
          "name": "",
          "type": "uint256"
        }
      ],
      "payable": false,
      "stateMutability": "nonpayable",
      "type": "function"
    },
    {
      "constant": false,
      "inputs": [
        {
          "internalType": "uint256",
          "name": "productId",
          "type": "uint256"
        }
      ],
      "name": "removeRawMaterial",
      "outputs": [],
      "payable": false,
      "stateMutability": "nonpayable",
      "type": "function"
    },
    {
      "constant": false,
      "inputs": [
        {
          "internalType": "uint256",
          "name": "productId",
          "type": "uint256"
        },
        {
          "internalType": "string",
          "name": "newDisbatchDate",
          "type": "string"
        },
        {
          "internalType": "address",
          "name": "wineProducerAddress",
          "type": "address"
        }
      ],
      "name": "disbatchRawMaterial",
      "outputs": [],
      "payable": false,
      "stateMutability": "nonpayable",
      "type": "function"
    }
  ],
  "bytecode": "0x608060405233600160006101000a81548173ffffffffffffffffffffffffffffffffffffffff021916908373ffffffffffffffffffffffffffffffffffffffff16021790555034801561005157600080fd5b506040516110ea3803806110ea8339818101604052602081101561007457600080fd5b8101908080519060200190929190505050806000806101000a81548173ffffffffffffffffffffffffffffffffffffffff021916908373ffffffffffffffffffffffffffffffffffffffff16021790555050611015806100d56000396000f3fe608060405234801561001057600080fd5b50600436106100415760003560e01c80633643f8dc146100465780635aff3e821461012b578063e1837b7114610159575b600080fd5b6101296004803603606081101561005c57600080fd5b81019080803590602001909291908035906020019064010000000081111561008357600080fd5b82018360208201111561009557600080fd5b803590602001918460018302840111640100000000831117156100b757600080fd5b91908080601f016020809104026020016040519081016040528093929190818152602001838380828437600081840152601f19601f820116905080830192505050505050509192919290803573ffffffffffffffffffffffffffffffffffffffff169060200190929190505050610374565b005b6101576004803603602081101561014157600080fd5b8101908080359060200190929190505050610c78565b005b61035e600480360360c081101561016f57600080fd5b810190808035906020019064010000000081111561018c57600080fd5b82018360208201111561019e57600080fd5b803590602001918460018302840111640100000000831117156101c057600080fd5b91908080601f016020809104026020016040519081016040528093929190818152602001838380828437600081840152601f19601f820116905080830192505050505050509192919290803590602001909291908035906020019064010000000081111561022d57600080fd5b82018360208201111561023f57600080fd5b8035906020019184600183028401116401000000008311171561026157600080fd5b91908080601f016020809104026020016040519081016040528093929190818152602001838380828437600081840152601f19601f8201169050808301925050505050505091929192908035906020019092919080359060200190929190803590602001906401000000008111156102d857600080fd5b8201836020820111156102ea57600080fd5b8035906020019184600183028401116401000000008311171561030c57600080fd5b91908080601f016020809104026020016040519081016040528093929190818152602001838380828437600081840152601f19601f820116905080830192505050505050509192919290505050610d67565b6040518082815260200191505060405180910390f35b600115156000809054906101000a900473ffffffffffffffffffffffffffffffffffffffff1673ffffffffffffffffffffffffffffffffffffffff166340889b4f856040518263ffffffff1660e01b81526004018082815260200191505060206040518083038186803b1580156103ea57600080fd5b505afa1580156103fe573d6000803e3d6000fd5b505050506040513d602081101561041457600080fd5b810190808051906020019092919050505015151461049a576040517f08c379a000000000000000000000000000000000000000000000000000000000815260040180806020018281038252601e8152602001807f50726f64756374206e6f7420726561647920666f72207368697070696e67000081525060200191505060405180910390fd5b6000809054906101000a900473ffffffffffffffffffffffffffffffffffffffff1673ffffffffffffffffffffffffffffffffffffffff16636c125a6b84836040518363ffffffff1660e01b8152600401808381526020018273ffffffffffffffffffffffffffffffffffffffff1673ffffffffffffffffffffffffffffffffffffffff16815260200192505050600060405180830381600087803b15801561054257600080fd5b505af1158015610556573d6000803e3d6000fd5b505050506000809054906101000a900473ffffffffffffffffffffffffffffffffffffffff1673ffffffffffffffffffffffffffffffffffffffff16630cc9102284306040518363ffffffff1660e01b8152600401808381526020018273ffffffffffffffffffffffffffffffffffffffff1673ffffffffffffffffffffffffffffffffffffffff16815260200192505050600060405180830381600087803b15801561060257600080fd5b505af1158015610616573d6000803e3d6000fd5b5050505060608060606000809054906101000a900473ffffffffffffffffffffffffffffffffffffffff1673ffffffffffffffffffffffffffffffffffffffff166323bb1835876040518263ffffffff1660e01b81526004018082815260200191505060006040518083038186803b15801561069157600080fd5b505afa1580156106a5573d6000803e3d6000fd5b505050506040513d6000823e3d601f19601f8201168201806040525060608110156106cf57600080fd5b81019080805160405193929190846401000000008211156106ef57600080fd5b8382019150602082018581111561070557600080fd5b825186600182028301116401000000008211171561072257600080fd5b8083526020830192505050908051906020019080838360005b8381101561075657808201518184015260208101905061073b565b50505050905090810190601f1680156107835780820380516001836020036101000a031916815260200191505b50604052602001805160405193929190846401000000008211156107a657600080fd5b838201915060208201858111156107bc57600080fd5b82518660018202830111640100000000821117156107d957600080fd5b8083526020830192505050908051906020019080838360005b8381101561080d5780820151818401526020810190506107f2565b50505050905090810190601f16801561083a5780820380516001836020036101000a031916815260200191505b506040526020018051604051939291908464010000000082111561085d57600080fd5b8382019150602082018581111561087357600080fd5b825186600182028301116401000000008211171561089057600080fd5b8083526020830192505050908051906020019080838360005b838110156108c45780820151818401526020810190506108a9565b50505050905090810190601f1680156108f15780820380516001836020036101000a031916815260200191505b506040525050509250925092506000809054906101000a900473ffffffffffffffffffffffffffffffffffffffff1673ffffffffffffffffffffffffffffffffffffffff1663d88ee329878585856040518563ffffffff1660e01b815260040180858152602001806020018060200180602001848103845287818151815260200191508051906020019080838360005b8381101561099c578082015181840152602081019050610981565b50505050905090810190601f1680156109c95780820380516001836020036101000a031916815260200191505b50848103835286818151815260200191508051906020019080838360005b83811015610a025780820151818401526020810190506109e7565b50505050905090810190601f168015610a2f5780820380516001836020036101000a031916815260200191505b50848103825285818151815260200191508051906020019080838360005b83811015610a68578082015181840152602081019050610a4d565b50505050905090810190601f168015610a955780820380516001836020036101000a031916815260200191505b50975050505050505050600060405180830381600087803b158015610ab957600080fd5b505af1158015610acd573d6000803e3d6000fd5b505050506000809054906101000a900473ffffffffffffffffffffffffffffffffffffffff1673ffffffffffffffffffffffffffffffffffffffff1663809db2f88785886040518463ffffffff1660e01b815260040180848152602001806020018060200180602001848103845286818151815260200191508051906020019080838360005b83811015610b6e578082015181840152602081019050610b53565b50505050905090810190601f168015610b9b5780820380516001836020036101000a031916815260200191505b50848103835285818151815260200191508051906020019080838360005b83811015610bd4578082015181840152602081019050610bb9565b50505050905090810190601f168015610c015780820380516001836020036101000a031916815260200191505b50848103825260048152602001807f6e756c6c000000000000000000000000000000000000000000000000000000008152506020019650505050505050600060405180830381600087803b158015610c5857600080fd5b505af1158015610c6c573d6000803e3d6000fd5b50505050505050505050565b6000809054906101000a900473ffffffffffffffffffffffffffffffffffffffff1673ffffffffffffffffffffffffffffffffffffffff16635ee95cae826040518263ffffffff1660e01b815260040180828152602001915050600060405180830381600087803b158015610cec57600080fd5b505af1158015610d00573d6000803e3d6000fd5b5050505060008090505b600280549050811015610d63578160028281548110610d2557fe5b90600052602060002001541415610d565760028181548110610d4357fe5b9060005260206000200160009055610d63565b8080600101915050610d0a565b5050565b6000806000809054906101000a900473ffffffffffffffffffffffffffffffffffffffff1673ffffffffffffffffffffffffffffffffffffffff1663d5e7986f89308a8a8a8a8a6040518863ffffffff1660e01b815260040180806020018873ffffffffffffffffffffffffffffffffffffffff1673ffffffffffffffffffffffffffffffffffffffff168152602001878152602001806020018681526020018581526020018060200184810384528b818151815260200191508051906020019080838360005b83811015610e49578082015181840152602081019050610e2e565b50505050905090810190601f168015610e765780820380516001836020036101000a031916815260200191505b50848103835288818151815260200191508051906020019080838360005b83811015610eaf578082015181840152602081019050610e94565b50505050905090810190601f168015610edc5780820380516001836020036101000a031916815260200191505b50848103825285818151815260200191508051906020019080838360005b83811015610f15578082015181840152602081019050610efa565b50505050905090810190601f168015610f425780820380516001836020036101000a031916815260200191505b509a5050505050505050505050602060405180830381600087803b158015610f6957600080fd5b505af1158015610f7d573d6000803e3d6000fd5b505050506040513d6020811015610f9357600080fd5b81019080805190602001909291905050509050600281908060018154018082558091505090600182039060005260206000200160009091929091909150555080915050969550505050505056fea265627a7a7231582035dd362753e05c0d63c5e1264a6158541ac875442c69602626df52bc57e6ec8d64736f6c63430005100032",
  "source": "pragma solidity ^0.5.0;\n\nimport \"./Product.sol\";\n\ncontract RawMaterialSupplier {\n    Product productContract;\n    address rawMaterialSupplierContractOwner = msg.sender;\n    uint256[] rawMaterialsOwned;\n    constructor(Product productContractddress) public {\n        productContract = productContractddress;\n    }\n\n\n    // function addRawMaterial(\n    //     string memory name,\n    //     string memory placeOfOrigin,\n    //     string memory productionDate,\n    //     string memory expirationDate,\n    //     uint256 unitQuantity,\n    //     string memory unitQuantityType,\n    //     uint256 batchQuantity,\n    //     uint256 unitPrice,\n    //     string memory category,\n    //     string memory currentPhysicalLocation\n\n    // ) public returns (uint256) {\n\n\n    //     uint256 productId = productContract.createProduct(\n    //         name, \n    //         address(this),\n    //         placeOfOrigin, \n    //         productionDate, \n    //         expirationDate, \n    //         unitQuantity, \n    //         unitQuantityType, \n    //         batchQuantity, \n    //         unitPrice, \n    //         category, \n    //         currentPhysicalLocation\n    //         );\n\n    //     rawMaterialsOwned.push(productId);\n    //     return productId;\n    // }\n\nfunction addRawMaterial(\n    string memory name,\n    uint256 unitQuantity,\n    string memory unitQuantityType,\n    uint256 batchQuantity,\n    uint256 unitPrice,\n    string memory category\n) public returns (uint256) {\n    uint256 productId = productContract.createProduct(\n        name,\n        address(this),\n        unitQuantity, \n        unitQuantityType, \n        batchQuantity, \n        unitPrice, \n        category\n    );\n    rawMaterialsOwned.push(productId);\n    return productId;\n}\n      \n\n    function removeRawMaterial(uint256 productId) public {\n        productContract.removeProduct(productId);\n        for (uint256 i = 0; i < rawMaterialsOwned.length; i++) {\n            if (rawMaterialsOwned[i] == productId) {\n                delete rawMaterialsOwned[i];\n                break;\n            }\n        }\n    }\n    \n\n    // function materialReadyToShip(uint256 productId, string memory newLocation) public {\n    //     require(productContract.getReadyToShip(productId) == false, \"Product is already ready for shipping\");\n    //     productContract.setReadyToShip(productId, true);\n    //     (string memory location, string memory disbatchDate, string memory arrivalDate) = productContract.getCurrentLocation(productId);\n    //     // productContract.addPreviousLocation(productId, location, disbatchDate, arrivalDate);\n    //     productContract.setCurrentLocation(productId, newLocation, \"null\", \"null\");\n    // }\n\n    function disbatchRawMaterial(uint256 productId, string memory newDisbatchDate, address wineProducerAddress) public {\n        require(productContract.getReadyToShip(productId) == true, \"Product not ready for shipping\");\n        productContract.setCurrentOwner(productId, wineProducerAddress);\n        productContract.setPreviousOwner(productId, address(this));\n        (string memory location, string memory disbatchDate, string memory arrivalDate) = productContract.getCurrentLocation(productId);\n        productContract.addPreviousLocation(productId, location, disbatchDate, arrivalDate);\n        productContract.setCurrentLocation(productId, location, newDisbatchDate, \"null\");\n    }    \n}",
  "sourcePath": "/Users/jarrentoh/Documents/GitHub/Wine Supplychain Blockchain/contracts/RawMaterialSupplier.sol",
  "compiler": {
    "name": "solc",
    "version": "0.5.16+commit.9c3226ce.Emscripten.clang"
  },
  "schemaVersion": "3.4.11",
  "updatedAt": "2023-03-31T14:23:10.703Z",
  "devdoc": {
    "methods": {}
  },
  "userdoc": {
    "methods": {}
  }
}