{
  "contractName": "RawMaterialSupplier",
  "abi": [
    {
      "inputs": [
        {
          "internalType": "contract Product",
          "name": "productContractddress",
          "type": "address"
        }
      ],
      "payable": false,
      "stateMutability": "nonpayable",
      "type": "constructor"
    },
    {
      "constant": false,
      "inputs": [
        {
          "internalType": "string",
          "name": "name",
          "type": "string"
        },
        {
          "internalType": "string",
          "name": "placeOfOrigin",
          "type": "string"
        },
        {
          "internalType": "string",
          "name": "productionDate",
          "type": "string"
        },
        {
          "internalType": "string",
          "name": "expirationDate",
          "type": "string"
        },
        {
          "internalType": "uint256",
          "name": "unitQuantity",
          "type": "uint256"
        },
        {
          "internalType": "string",
          "name": "unitQuantityType",
          "type": "string"
        },
        {
          "internalType": "uint256",
          "name": "batchQuantity",
          "type": "uint256"
        },
        {
          "internalType": "uint256",
          "name": "unitPrice",
          "type": "uint256"
        },
        {
          "internalType": "string",
          "name": "category",
          "type": "string"
        },
        {
          "internalType": "string",
          "name": "currentPhysicalLocation",
          "type": "string"
        }
      ],
      "name": "addRawMaterial",
      "outputs": [
        {
          "internalType": "uint256",
          "name": "",
          "type": "uint256"
        }
      ],
      "payable": false,
      "stateMutability": "nonpayable",
      "type": "function"
    },
    {
      "constant": false,
      "inputs": [
        {
          "internalType": "string",
          "name": "name",
          "type": "string"
        },
        {
          "internalType": "uint256",
          "name": "unitQuantity",
          "type": "uint256"
        },
        {
          "internalType": "string",
          "name": "unitQuantityType",
          "type": "string"
        },
        {
          "internalType": "uint256",
          "name": "batchQuantity",
          "type": "uint256"
        },
        {
          "internalType": "uint256",
          "name": "unitPrice",
          "type": "uint256"
        },
        {
          "internalType": "string",
          "name": "category",
          "type": "string"
        }
      ],
      "name": "addRawMaterial",
      "outputs": [
        {
          "internalType": "uint256",
          "name": "",
          "type": "uint256"
        }
      ],
      "payable": false,
      "stateMutability": "nonpayable",
      "type": "function"
    },
    {
      "constant": false,
      "inputs": [
        {
          "internalType": "uint256",
          "name": "productId",
          "type": "uint256"
        }
      ],
      "name": "removeRawMaterial",
      "outputs": [],
      "payable": false,
      "stateMutability": "nonpayable",
      "type": "function"
    },
    {
      "constant": false,
      "inputs": [
        {
          "internalType": "uint256",
          "name": "productId",
          "type": "uint256"
        },
        {
          "internalType": "string",
          "name": "newDisbatchDate",
          "type": "string"
        },
        {
          "internalType": "address",
          "name": "wineProducerAddress",
          "type": "address"
        }
      ],
      "name": "disbatchRawMaterial",
      "outputs": [],
      "payable": false,
      "stateMutability": "nonpayable",
      "type": "function"
    }
  ],
  "bytecode": "0x608060405233600160006101000a81548173ffffffffffffffffffffffffffffffffffffffff021916908373ffffffffffffffffffffffffffffffffffffffff16021790555034801561005157600080fd5b50604051611c8a380380611c8a8339818101604052602081101561007457600080fd5b8101908080519060200190929190505050806000806101000a81548173ffffffffffffffffffffffffffffffffffffffff021916908373ffffffffffffffffffffffffffffffffffffffff16021790555050611bb5806100d56000396000f3fe608060405234801561001057600080fd5b506004361061004c5760003560e01c80633643f8dc146100515780635aff3e8214610136578063abfbafc214610164578063e1837b71146105dc575b600080fd5b6101346004803603606081101561006757600080fd5b81019080803590602001909291908035906020019064010000000081111561008e57600080fd5b8201836020820111156100a057600080fd5b803590602001918460018302840111640100000000831117156100c257600080fd5b91908080601f016020809104026020016040519081016040528093929190818152602001838380828437600081840152601f19601f820116905080830192505050505050509192919290803573ffffffffffffffffffffffffffffffffffffffff1690602001909291905050506107f7565b005b6101626004803603602081101561014c57600080fd5b81019080803590602001909291905050506110fb565b005b6105c6600480360361014081101561017b57600080fd5b810190808035906020019064010000000081111561019857600080fd5b8201836020820111156101aa57600080fd5b803590602001918460018302840111640100000000831117156101cc57600080fd5b91908080601f016020809104026020016040519081016040528093929190818152602001838380828437600081840152601f19601f8201169050808301925050505050505091929192908035906020019064010000000081111561022f57600080fd5b82018360208201111561024157600080fd5b8035906020019184600183028401116401000000008311171561026357600080fd5b91908080601f016020809104026020016040519081016040528093929190818152602001838380828437600081840152601f19601f820116905080830192505050505050509192919290803590602001906401000000008111156102c657600080fd5b8201836020820111156102d857600080fd5b803590602001918460018302840111640100000000831117156102fa57600080fd5b91908080601f016020809104026020016040519081016040528093929190818152602001838380828437600081840152601f19601f8201169050808301925050505050505091929192908035906020019064010000000081111561035d57600080fd5b82018360208201111561036f57600080fd5b8035906020019184600183028401116401000000008311171561039157600080fd5b91908080601f016020809104026020016040519081016040528093929190818152602001838380828437600081840152601f19601f82011690508083019250505050505050919291929080359060200190929190803590602001906401000000008111156103fe57600080fd5b82018360208201111561041057600080fd5b8035906020019184600183028401116401000000008311171561043257600080fd5b91908080601f016020809104026020016040519081016040528093929190818152602001838380828437600081840152601f19601f8201169050808301925050505050505091929192908035906020019092919080359060200190929190803590602001906401000000008111156104a957600080fd5b8201836020820111156104bb57600080fd5b803590602001918460018302840111640100000000831117156104dd57600080fd5b91908080601f016020809104026020016040519081016040528093929190818152602001838380828437600081840152601f19601f8201169050808301925050505050505091929192908035906020019064010000000081111561054057600080fd5b82018360208201111561055257600080fd5b8035906020019184600183028401116401000000008311171561057457600080fd5b91908080601f016020809104026020016040519081016040528093929190818152602001838380828437600081840152601f19601f8201169050808301925050505050505091929192905050506111ea565b6040518082815260200191505060405180910390f35b6107e1600480360360c08110156105f257600080fd5b810190808035906020019064010000000081111561060f57600080fd5b82018360208201111561062157600080fd5b8035906020019184600183028401116401000000008311171561064357600080fd5b91908080601f016020809104026020016040519081016040528093929190818152602001838380828437600081840152601f19601f82011690508083019250505050505050919291929080359060200190929190803590602001906401000000008111156106b057600080fd5b8201836020820111156106c257600080fd5b803590602001918460018302840111640100000000831117156106e457600080fd5b91908080601f016020809104026020016040519081016040528093929190818152602001838380828437600081840152601f19601f82011690508083019250505050505050919291929080359060200190929190803590602001909291908035906020019064010000000081111561075b57600080fd5b82018360208201111561076d57600080fd5b8035906020019184600183028401116401000000008311171561078f57600080fd5b91908080601f016020809104026020016040519081016040528093929190818152602001838380828437600081840152601f19601f820116905080830192505050505050509192919290505050611907565b6040518082815260200191505060405180910390f35b600115156000809054906101000a900473ffffffffffffffffffffffffffffffffffffffff1673ffffffffffffffffffffffffffffffffffffffff166340889b4f856040518263ffffffff1660e01b81526004018082815260200191505060206040518083038186803b15801561086d57600080fd5b505afa158015610881573d6000803e3d6000fd5b505050506040513d602081101561089757600080fd5b810190808051906020019092919050505015151461091d576040517f08c379a000000000000000000000000000000000000000000000000000000000815260040180806020018281038252601e8152602001807f50726f64756374206e6f7420726561647920666f72207368697070696e67000081525060200191505060405180910390fd5b6000809054906101000a900473ffffffffffffffffffffffffffffffffffffffff1673ffffffffffffffffffffffffffffffffffffffff16636c125a6b84836040518363ffffffff1660e01b8152600401808381526020018273ffffffffffffffffffffffffffffffffffffffff1673ffffffffffffffffffffffffffffffffffffffff16815260200192505050600060405180830381600087803b1580156109c557600080fd5b505af11580156109d9573d6000803e3d6000fd5b505050506000809054906101000a900473ffffffffffffffffffffffffffffffffffffffff1673ffffffffffffffffffffffffffffffffffffffff16630cc9102284306040518363ffffffff1660e01b8152600401808381526020018273ffffffffffffffffffffffffffffffffffffffff1673ffffffffffffffffffffffffffffffffffffffff16815260200192505050600060405180830381600087803b158015610a8557600080fd5b505af1158015610a99573d6000803e3d6000fd5b5050505060608060606000809054906101000a900473ffffffffffffffffffffffffffffffffffffffff1673ffffffffffffffffffffffffffffffffffffffff166323bb1835876040518263ffffffff1660e01b81526004018082815260200191505060006040518083038186803b158015610b1457600080fd5b505afa158015610b28573d6000803e3d6000fd5b505050506040513d6000823e3d601f19601f820116820180604052506060811015610b5257600080fd5b8101908080516040519392919084640100000000821115610b7257600080fd5b83820191506020820185811115610b8857600080fd5b8251866001820283011164010000000082111715610ba557600080fd5b8083526020830192505050908051906020019080838360005b83811015610bd9578082015181840152602081019050610bbe565b50505050905090810190601f168015610c065780820380516001836020036101000a031916815260200191505b5060405260200180516040519392919084640100000000821115610c2957600080fd5b83820191506020820185811115610c3f57600080fd5b8251866001820283011164010000000082111715610c5c57600080fd5b8083526020830192505050908051906020019080838360005b83811015610c90578082015181840152602081019050610c75565b50505050905090810190601f168015610cbd5780820380516001836020036101000a031916815260200191505b5060405260200180516040519392919084640100000000821115610ce057600080fd5b83820191506020820185811115610cf657600080fd5b8251866001820283011164010000000082111715610d1357600080fd5b8083526020830192505050908051906020019080838360005b83811015610d47578082015181840152602081019050610d2c565b50505050905090810190601f168015610d745780820380516001836020036101000a031916815260200191505b506040525050509250925092506000809054906101000a900473ffffffffffffffffffffffffffffffffffffffff1673ffffffffffffffffffffffffffffffffffffffff1663d88ee329878585856040518563ffffffff1660e01b815260040180858152602001806020018060200180602001848103845287818151815260200191508051906020019080838360005b83811015610e1f578082015181840152602081019050610e04565b50505050905090810190601f168015610e4c5780820380516001836020036101000a031916815260200191505b50848103835286818151815260200191508051906020019080838360005b83811015610e85578082015181840152602081019050610e6a565b50505050905090810190601f168015610eb25780820380516001836020036101000a031916815260200191505b50848103825285818151815260200191508051906020019080838360005b83811015610eeb578082015181840152602081019050610ed0565b50505050905090810190601f168015610f185780820380516001836020036101000a031916815260200191505b50975050505050505050600060405180830381600087803b158015610f3c57600080fd5b505af1158015610f50573d6000803e3d6000fd5b505050506000809054906101000a900473ffffffffffffffffffffffffffffffffffffffff1673ffffffffffffffffffffffffffffffffffffffff1663809db2f88785886040518463ffffffff1660e01b815260040180848152602001806020018060200180602001848103845286818151815260200191508051906020019080838360005b83811015610ff1578082015181840152602081019050610fd6565b50505050905090810190601f16801561101e5780820380516001836020036101000a031916815260200191505b50848103835285818151815260200191508051906020019080838360005b8381101561105757808201518184015260208101905061103c565b50505050905090810190601f1680156110845780820380516001836020036101000a031916815260200191505b50848103825260048152602001807f6e756c6c000000000000000000000000000000000000000000000000000000008152506020019650505050505050600060405180830381600087803b1580156110db57600080fd5b505af11580156110ef573d6000803e3d6000fd5b50505050505050505050565b6000809054906101000a900473ffffffffffffffffffffffffffffffffffffffff1673ffffffffffffffffffffffffffffffffffffffff16635ee95cae826040518263ffffffff1660e01b815260040180828152602001915050600060405180830381600087803b15801561116f57600080fd5b505af1158015611183573d6000803e3d6000fd5b5050505060008090505b6002805490508110156111e65781600282815481106111a857fe5b906000526020600020015414156111d957600281815481106111c657fe5b90600052602060002001600090556111e6565b808060010191505061118d565b5050565b6000806000809054906101000a900473ffffffffffffffffffffffffffffffffffffffff1673ffffffffffffffffffffffffffffffffffffffff1663d5e7986f8d308b8b8b8b8b6040518863ffffffff1660e01b815260040180806020018873ffffffffffffffffffffffffffffffffffffffff1673ffffffffffffffffffffffffffffffffffffffff168152602001878152602001806020018681526020018581526020018060200184810384528b818151815260200191508051906020019080838360005b838110156112cc5780820151818401526020810190506112b1565b50505050905090810190601f1680156112f95780820380516001836020036101000a031916815260200191505b50848103835288818151815260200191508051906020019080838360005b83811015611332578082015181840152602081019050611317565b50505050905090810190601f16801561135f5780820380516001836020036101000a031916815260200191505b50848103825285818151815260200191508051906020019080838360005b8381101561139857808201518184015260208101905061137d565b50505050905090810190601f1680156113c55780820380516001836020036101000a031916815260200191505b509a5050505050505050505050602060405180830381600087803b1580156113ec57600080fd5b505af1158015611400573d6000803e3d6000fd5b505050506040513d602081101561141657600080fd5b810190808051906020019092919050505090506000809054906101000a900473ffffffffffffffffffffffffffffffffffffffff1673ffffffffffffffffffffffffffffffffffffffff166387f31bef828d6040518363ffffffff1660e01b81526004018083815260200180602001828103825283818151815260200191508051906020019080838360005b838110156114bd5780820151818401526020810190506114a2565b50505050905090810190601f1680156114ea5780820380516001836020036101000a031916815260200191505b509350505050600060405180830381600087803b15801561150a57600080fd5b505af115801561151e573d6000803e3d6000fd5b505050506000809054906101000a900473ffffffffffffffffffffffffffffffffffffffff1673ffffffffffffffffffffffffffffffffffffffff16636d126874828c6040518363ffffffff1660e01b81526004018083815260200180602001828103825283818151815260200191508051906020019080838360005b838110156115b657808201518184015260208101905061159b565b50505050905090810190601f1680156115e35780820380516001836020036101000a031916815260200191505b509350505050600060405180830381600087803b15801561160357600080fd5b505af1158015611617573d6000803e3d6000fd5b505050506000809054906101000a900473ffffffffffffffffffffffffffffffffffffffff1673ffffffffffffffffffffffffffffffffffffffff16632364d78b82886040518363ffffffff1660e01b81526004018083815260200182815260200192505050600060405180830381600087803b15801561169757600080fd5b505af11580156116ab573d6000803e3d6000fd5b505050506000809054906101000a900473ffffffffffffffffffffffffffffffffffffffff1673ffffffffffffffffffffffffffffffffffffffff166343c92b6a828b6040518363ffffffff1660e01b81526004018083815260200180602001828103825283818151815260200191508051906020019080838360005b83811015611743578082015181840152602081019050611728565b50505050905090810190601f1680156117705780820380516001836020036101000a031916815260200191505b509350505050600060405180830381600087803b15801561179057600080fd5b505af11580156117a4573d6000803e3d6000fd5b505050506000809054906101000a900473ffffffffffffffffffffffffffffffffffffffff1673ffffffffffffffffffffffffffffffffffffffff1663809db2f882856040518363ffffffff1660e01b815260040180838152602001806020018060200180602001848103845285818151815260200191508051906020019080838360005b83811015611844578082015181840152602081019050611829565b50505050905090810190601f1680156118715780820380516001836020036101000a031916815260200191505b5084810383526000815260200160200184810382526000815260200160200195505050505050600060405180830381600087803b1580156118b157600080fd5b505af11580156118c5573d6000803e3d6000fd5b505050506002819080600181540180825580915050906001820390600052602060002001600090919290919091505550809150509a9950505050505050505050565b6000806000809054906101000a900473ffffffffffffffffffffffffffffffffffffffff1673ffffffffffffffffffffffffffffffffffffffff1663d5e7986f89308a8a8a8a8a6040518863ffffffff1660e01b815260040180806020018873ffffffffffffffffffffffffffffffffffffffff1673ffffffffffffffffffffffffffffffffffffffff168152602001878152602001806020018681526020018581526020018060200184810384528b818151815260200191508051906020019080838360005b838110156119e95780820151818401526020810190506119ce565b50505050905090810190601f168015611a165780820380516001836020036101000a031916815260200191505b50848103835288818151815260200191508051906020019080838360005b83811015611a4f578082015181840152602081019050611a34565b50505050905090810190601f168015611a7c5780820380516001836020036101000a031916815260200191505b50848103825285818151815260200191508051906020019080838360005b83811015611ab5578082015181840152602081019050611a9a565b50505050905090810190601f168015611ae25780820380516001836020036101000a031916815260200191505b509a5050505050505050505050602060405180830381600087803b158015611b0957600080fd5b505af1158015611b1d573d6000803e3d6000fd5b505050506040513d6020811015611b3357600080fd5b81019080805190602001909291905050509050600281908060018154018082558091505090600182039060005260206000200160009091929091909150555080915050969550505050505056fea265627a7a7231582048389e3ae58fc9fb17503e232acdcf734d5f4d238ec49ba8bfb4738a228a7e4664736f6c63430005100032",
  "source": "pragma solidity ^0.5.0;\n\nimport \"./Product.sol\";\n\ncontract RawMaterialSupplier {\n    Product productContract;\n    address rawMaterialSupplierContractOwner = msg.sender;\n    uint256[] rawMaterialsOwned;\n    constructor(Product productContractddress) public {\n        productContract = productContractddress;\n    }\n\n\n    function addRawMaterial(\n        string memory name,\n        string memory placeOfOrigin,\n        string memory productionDate,\n        string memory expirationDate,\n        uint256 unitQuantity,\n        string memory unitQuantityType,\n        uint256 batchQuantity,\n        uint256 unitPrice,\n        string memory category,\n        string memory currentPhysicalLocation\n\n    ) public returns (uint256) {\n\n\n        uint256 productId = productContract.createProduct(\n            name,\n            address(this),\n            unitQuantity, \n            unitQuantityType, \n            batchQuantity, \n            unitPrice, \n            category\n        );\n        productContract.setPlaceOfOrigin(productId, placeOfOrigin);\n        productContract.setProductionDate(productId, productionDate);\n        productContract.setBatchQuantity(productId, batchQuantity);\n        productContract.setExpirationDate(productId, expirationDate);\n        productContract.setCurrentLocation(productId, currentPhysicalLocation, \"\", \"\");\n\n\n        rawMaterialsOwned.push(productId);\n        return productId;\n    }\n\n    function addRawMaterial(\n        string memory name,\n        uint256 unitQuantity,\n        string memory unitQuantityType,\n        uint256 batchQuantity,\n        uint256 unitPrice,\n        string memory category\n    ) public returns (uint256) {\n        uint256 productId = productContract.createProduct(\n            name,\n            address(this),\n            unitQuantity, \n            unitQuantityType, \n            batchQuantity, \n            unitPrice, \n            category\n        );\n        rawMaterialsOwned.push(productId);\n        return productId;\n    }\n      \n\n    function removeRawMaterial(uint256 productId) public {\n        productContract.removeProduct(productId);\n        for (uint256 i = 0; i < rawMaterialsOwned.length; i++) {\n            if (rawMaterialsOwned[i] == productId) {\n                delete rawMaterialsOwned[i];\n                break;\n            }\n        }\n    }\n    \n\n    // function materialReadyToShip(uint256 productId, string memory newLocation) public {\n    //     require(productContract.getReadyToShip(productId) == false, \"Product is already ready for shipping\");\n    //     productContract.setReadyToShip(productId, true);\n    //     (string memory location, string memory disbatchDate, string memory arrivalDate) = productContract.getCurrentLocation(productId);\n    //     // productContract.addPreviousLocation(productId, location, disbatchDate, arrivalDate);\n    //     productContract.setCurrentLocation(productId, newLocation, \"null\", \"null\");\n    // }\n\n    function disbatchRawMaterial(uint256 productId, string memory newDisbatchDate, address wineProducerAddress) public {\n        require(productContract.getReadyToShip(productId) == true, \"Product not ready for shipping\");\n        productContract.setCurrentOwner(productId, wineProducerAddress);\n        productContract.setPreviousOwner(productId, address(this));\n        (string memory location, string memory disbatchDate, string memory arrivalDate) = productContract.getCurrentLocation(productId);\n        productContract.addPreviousLocation(productId, location, disbatchDate, arrivalDate);\n        productContract.setCurrentLocation(productId, location, newDisbatchDate, \"null\");\n    }    \n}",
  "sourcePath": "/Users/jarrentoh/Documents/GitHub/Wine Supplychain Blockchain/contracts/RawMaterialSupplier.sol",
  "compiler": {
    "name": "solc",
    "version": "0.5.16+commit.9c3226ce.Emscripten.clang"
  },
  "schemaVersion": "3.4.11",
  "updatedAt": "2023-03-31T14:46:36.956Z",
  "devdoc": {
    "methods": {}
  },
  "userdoc": {
    "methods": {}
  }
}