{
  "contractName": "Retailer",
  "abi": [
    {
      "anonymous": false,
      "inputs": [
        {
          "indexed": false,
          "internalType": "uint256",
          "name": "retailerId",
          "type": "uint256"
        }
      ],
      "name": "addedRetailer",
      "type": "event"
    },
    {
      "anonymous": false,
      "inputs": [
        {
          "indexed": false,
          "internalType": "uint256",
          "name": "wineBatchId",
          "type": "uint256"
        },
        {
          "indexed": false,
          "internalType": "address",
          "name": "retailer",
          "type": "address"
        }
      ],
      "name": "receivedWineBatch",
      "type": "event"
    },
    {
      "anonymous": false,
      "inputs": [
        {
          "indexed": false,
          "internalType": "uint256",
          "name": "retailerId",
          "type": "uint256"
        }
      ],
      "name": "removedRetailer",
      "type": "event"
    },
    {
      "anonymous": false,
      "inputs": [
        {
          "indexed": false,
          "internalType": "uint256",
          "name": "wineBatchId",
          "type": "uint256"
        },
        {
          "indexed": false,
          "internalType": "address",
          "name": "retailer",
          "type": "address"
        }
      ],
      "name": "soldWine",
      "type": "event"
    },
    {
      "constant": true,
      "inputs": [],
      "name": "numOfRetailers",
      "outputs": [
        {
          "internalType": "uint256",
          "name": "",
          "type": "uint256"
        }
      ],
      "payable": false,
      "stateMutability": "view",
      "type": "function"
    },
    {
      "constant": true,
      "inputs": [
        {
          "internalType": "uint256",
          "name": "",
          "type": "uint256"
        }
      ],
      "name": "retailers",
      "outputs": [
        {
          "internalType": "address",
          "name": "",
          "type": "address"
        }
      ],
      "payable": false,
      "stateMutability": "view",
      "type": "function"
    },
    {
      "constant": true,
      "inputs": [
        {
          "internalType": "uint256",
          "name": "",
          "type": "uint256"
        }
      ],
      "name": "wineRemainingInBatch",
      "outputs": [
        {
          "internalType": "uint256",
          "name": "",
          "type": "uint256"
        }
      ],
      "payable": false,
      "stateMutability": "view",
      "type": "function"
    },
    {
      "constant": false,
      "inputs": [
        {
          "internalType": "address",
          "name": "accountNumber",
          "type": "address"
        }
      ],
      "name": "addRetailer",
      "outputs": [
        {
          "internalType": "uint256",
          "name": "",
          "type": "uint256"
        }
      ],
      "payable": false,
      "stateMutability": "nonpayable",
      "type": "function"
    },
    {
      "constant": true,
      "inputs": [
        {
          "internalType": "address",
          "name": "accountNumber",
          "type": "address"
        }
      ],
      "name": "checkRetailerExist",
      "outputs": [
        {
          "internalType": "bool",
          "name": "",
          "type": "bool"
        }
      ],
      "payable": false,
      "stateMutability": "view",
      "type": "function"
    },
    {
      "constant": false,
      "inputs": [
        {
          "internalType": "address",
          "name": "accountNumber",
          "type": "address"
        }
      ],
      "name": "removeRetailer",
      "outputs": [
        {
          "internalType": "bool",
          "name": "",
          "type": "bool"
        }
      ],
      "payable": false,
      "stateMutability": "nonpayable",
      "type": "function"
    },
    {
      "constant": true,
      "inputs": [
        {
          "internalType": "address",
          "name": "accountNumber",
          "type": "address"
        }
      ],
      "name": "isGoodsDistributor",
      "outputs": [
        {
          "internalType": "bool",
          "name": "",
          "type": "bool"
        }
      ],
      "payable": false,
      "stateMutability": "view",
      "type": "function"
    },
    {
      "constant": false,
      "inputs": [
        {
          "internalType": "uint256",
          "name": "wineBatchId",
          "type": "uint256"
        },
        {
          "internalType": "address",
          "name": "retailer",
          "type": "address"
        }
      ],
      "name": "sellWineFromBatch",
      "outputs": [],
      "payable": false,
      "stateMutability": "nonpayable",
      "type": "function"
    }
  ],
  "bytecode": "0x6080604052600060015534801561001557600080fd5b506107d0806100256000396000f3fe608060405234801561001057600080fd5b50600436106100885760003560e01c8063897ec7df1161005b578063897ec7df146101d55780638ec4f50514610243578063919cb9bc1461029b578063c2edd707146102b957610088565b8063347b216f1461008d578063645c7d39146100db5780636d1e66c71461013757806370099ec814610179575b600080fd5b6100d9600480360360408110156100a357600080fd5b8101908080359060200190929190803573ffffffffffffffffffffffffffffffffffffffff169060200190929190505050610315565b005b61011d600480360360208110156100f157600080fd5b81019080803573ffffffffffffffffffffffffffffffffffffffff1690602001909291905050506103b2565b604051808215151515815260200191505060405180910390f35b6101636004803603602081101561014d57600080fd5b8101908080359060200190929190505050610457565b6040518082815260200191505060405180910390f35b6101bb6004803603602081101561018f57600080fd5b81019080803573ffffffffffffffffffffffffffffffffffffffff16906020019092919050505061046f565b604051808215151515815260200191505060405180910390f35b610201600480360360208110156101eb57600080fd5b8101908080359060200190929190505050610614565b604051808273ffffffffffffffffffffffffffffffffffffffff1673ffffffffffffffffffffffffffffffffffffffff16815260200191505060405180910390f35b6102856004803603602081101561025957600080fd5b81019080803573ffffffffffffffffffffffffffffffffffffffff169060200190929190505050610647565b6040518082815260200191505060405180910390f35b6102a361076c565b6040518082815260200191505060405180910390f35b6102fb600480360360208110156102cf57600080fd5b81019080803573ffffffffffffffffffffffffffffffffffffffff169060200190929190505050610772565b604051808215151515815260200191505060405180910390f35b600160026000848152602001908152602001600020540360026000848152602001908152602001600020819055507fa6c4a3ea54df94c4fe73f032b348f32b767c0a6c2d9c820fcede07a19c799c018282604051808381526020018273ffffffffffffffffffffffffffffffffffffffff1673ffffffffffffffffffffffffffffffffffffffff1681526020019250505060405180910390a15050565b600080600154111561044d5760008090505b600154811161044b578273ffffffffffffffffffffffffffffffffffffffff166003600083815260200190815260200160002060009054906101000a900473ffffffffffffffffffffffffffffffffffffffff1673ffffffffffffffffffffffffffffffffffffffff16141561043e576001915050610452565b80806001019150506103c4565b505b600090505b919050565b60026020528060005260406000206000915090505481565b60006001151561047e836103b2565b1515146104f3576040517f08c379a00000000000000000000000000000000000000000000000000000000081526004018080602001828103825260188152602001807f52657461696c657220646f6573206e6f7420657869737421000000000000000081525060200191505060405180910390fd5b600080905060008090505b60015481116105d6578373ffffffffffffffffffffffffffffffffffffffff166003600083815260200190815260200160002060009054906101000a900473ffffffffffffffffffffffffffffffffffffffff1673ffffffffffffffffffffffffffffffffffffffff1614156105c95760006003600083815260200190815260200160002060006101000a81548173ffffffffffffffffffffffffffffffffffffffff021916908373ffffffffffffffffffffffffffffffffffffffff1602179055508091506105d6565b80806001019150506104fe565b507f9021d2c3ea67c21791609857065af8422993a3373ff6bb6347b247abc55037b6816040518082815260200191505060405180910390a150919050565b60036020528060005260406000206000915054906101000a900473ffffffffffffffffffffffffffffffffffffffff1681565b6000801515610655836103b2565b1515146106ca576040517f08c379a00000000000000000000000000000000000000000000000000000000081526004018080602001828103825260178152602001807f52657461696c657220616c72656164792065786973742100000000000000000081525060200191505060405180910390fd5b8160036000600154815260200190815260200160002060006101000a81548173ffffffffffffffffffffffffffffffffffffffff021916908373ffffffffffffffffffffffffffffffffffffffff1602179055507f2c9f357704111b346f35c72624d756860ad3a30b0b8169fbc004665a767d1fef6001546040518082815260200191505060405180910390a160018060008282540192505081905550919050565b60015481565b60008061077e836103b2565b90508015610790576001915050610796565b60009150505b91905056fea265627a7a72315820301ef39a57e107442b428404a92106ecbc0acef2fda3a613e67da81151dad5ca64736f6c63430005100032",
  "source": "pragma solidity ^0.5.0;\n\nimport \"./Product.sol\";\n\ncontract Retailer {\n\n    event soldWine(uint256 wineBatchId, address retailer);\n    event addedRetailer(uint256 retailerId);\n    event removedRetailer(uint256 retailerId);\n    event receivedWineBatch(uint256 wineBatchId, address retailer);\n\n    Product productContract;\n    uint256 public numOfRetailers = 0;\n    mapping(uint256 => uint256) public wineRemainingInBatch;\n    mapping(uint256 => address) public retailers; //mapping id of retailers to their addresses\n\n    //function to add a new retailer\n    function addRetailer(\n        address accountNumber\n    ) public returns (uint256) {\n        require(\n            checkRetailerExist(accountNumber) == false,\n            \"Retailer already exist!\"\n        );\n        retailers[numOfRetailers] = accountNumber;\n        emit addedRetailer(numOfRetailers);\n        numOfRetailers += 1;\n    }\n\n    //check whether goods distributor already exist. Returns true if exist and false otherwise\n    function checkRetailerExist(\n        address accountNumber\n    ) public view returns (bool) {\n        if (numOfRetailers > 0) {\n            for (uint i = 0; i <= numOfRetailers; i++) {\n                if (retailers[i] == accountNumber) {\n                    return true;\n                }\n            }\n        }\n        return false;\n    }\n\n    function removeRetailer(\n        address accountNumber\n    ) public returns (bool) {\n        require(\n            checkRetailerExist(accountNumber) == true,\n            \"Retailer does not exist!\"\n        );\n        uint256 removedId = 0;\n        for (uint i = 0; i <= numOfRetailers; i++) {\n            if (retailers[i] == accountNumber) {\n                retailers[i] = address(0);\n                removedId = i;\n                break;\n            }\n        }\n        emit removedRetailer(removedId);\n    }\n\n    function isGoodsDistributor(\n        address accountNumber\n    ) public view returns (bool) {\n        bool exist = checkRetailerExist(accountNumber);\n        if (exist) {\n            return true;\n        } else {\n            return false;\n        }\n    }\n\n    // function receiveWineBatchFromWholeSaler(\n    //     uint256 wineBatchId,\n    //     address retailer,\n    //     string memory newLocation,\n    //     string memory newDisbatchDate,\n    //     string memory newExpectedArrivalDate,\n    //     string memory newArrivalDate,\n    //     string memory prevLocation, \n    //     string memory prevDisbatchDate, \n    //     string memory prevExpectedArrivalDate, \n    //     string memory prevArrivalDate\n    // ) public payable {\n    //     require(\n    //         msg.value == productContract.getUnitPrice(wineBatchId),\n    //         \"Insufficient payment!\"\n    //     );\n    //     //fillerPackerContract.sendWineToGoodsDistributor(wineBatchId);\n    //     productContract.setCurrentLocation(\n    //         wineBatchId,\n    //         newLocation,\n    //         newDisbatchDate,\n    //         newExpectedArrivalDate,\n    //         newArrivalDate\n    //     );\n    //     productContract.addPreviousLocation(\n    //         wineBatchId,\n    //         prevLocation,\n    //         prevDisbatchDate,\n    //         prevExpectedArrivalDate,\n    //         prevArrivalDate\n    //     );\n    //     productContract.setCurrentContractAddress(wineBatchId, address(this));\n    //     productContract.setReceived(wineBatchId, true);\n    //     wineRemainingInBatch[wineBatchId] = productContract.getBatchQuantity(wineBatchId);\n    //     emit receivedWineBatch(wineBatchId, retailer);\n    // }\n\n    function sellWineFromBatch(uint256 wineBatchId, address retailer) public {\n        wineRemainingInBatch[wineBatchId] = wineRemainingInBatch[wineBatchId] - 1;\n        emit soldWine(wineBatchId, retailer);\n    }\n}",
  "sourcePath": "/Users/jarrentoh/Documents/GitHub/Wine Supplychain Blockchain/contracts/Retailer.sol",
  "compiler": {
    "name": "solc",
    "version": "0.5.16+commit.9c3226ce.Emscripten.clang"
  },
  "schemaVersion": "3.4.11",
  "updatedAt": "2023-04-01T03:41:16.889Z",
  "networkType": "ethereum",
  "devdoc": {
    "methods": {}
  },
  "userdoc": {
    "methods": {}
  }
}