{
  "contractName": "Retailer",
  "abi": [
    {
      "inputs": [
        {
          "internalType": "contract Product",
          "name": "productAddress",
          "type": "address"
        },
        {
          "internalType": "contract Wholesaler",
          "name": "wholeSalerAddress",
          "type": "address"
        }
      ],
      "payable": false,
      "stateMutability": "nonpayable",
      "type": "constructor"
    },
    {
      "anonymous": false,
      "inputs": [
        {
          "indexed": false,
          "internalType": "uint256",
          "name": "wineBatchId",
          "type": "uint256"
        }
      ],
      "name": "buyWineBatch",
      "type": "event"
    },
    {
      "anonymous": false,
      "inputs": [
        {
          "indexed": false,
          "internalType": "uint256",
          "name": "wineBatchId",
          "type": "uint256"
        }
      ],
      "name": "returnedWine",
      "type": "event"
    },
    {
      "anonymous": false,
      "inputs": [
        {
          "indexed": false,
          "internalType": "uint256",
          "name": "wineBatchId",
          "type": "uint256"
        }
      ],
      "name": "soldWine",
      "type": "event"
    },
    {
      "anonymous": false,
      "inputs": [
        {
          "indexed": false,
          "internalType": "uint256",
          "name": "wineBatchId",
          "type": "uint256"
        }
      ],
      "name": "wineBatchReceived",
      "type": "event"
    },
    {
      "constant": true,
      "inputs": [
        {
          "internalType": "uint256",
          "name": "",
          "type": "uint256"
        }
      ],
      "name": "wineRemainingInBatch",
      "outputs": [
        {
          "internalType": "uint256",
          "name": "",
          "type": "uint256"
        }
      ],
      "payable": false,
      "stateMutability": "view",
      "type": "function"
    },
    {
      "constant": false,
      "inputs": [
        {
          "internalType": "uint256",
          "name": "productId",
          "type": "uint256"
        },
        {
          "internalType": "string",
          "name": "dispatchDate",
          "type": "string"
        }
      ],
      "name": "buyWineFromWholesaler",
      "outputs": [],
      "payable": true,
      "stateMutability": "payable",
      "type": "function"
    },
    {
      "constant": false,
      "inputs": [
        {
          "internalType": "uint256",
          "name": "productId",
          "type": "uint256"
        },
        {
          "internalType": "string",
          "name": "currentLocation",
          "type": "string"
        },
        {
          "internalType": "string",
          "name": "arrivalDate",
          "type": "string"
        }
      ],
      "name": "receiveWine",
      "outputs": [],
      "payable": false,
      "stateMutability": "nonpayable",
      "type": "function"
    },
    {
      "constant": false,
      "inputs": [
        {
          "internalType": "uint256",
          "name": "productId",
          "type": "uint256"
        }
      ],
      "name": "returnWine",
      "outputs": [],
      "payable": false,
      "stateMutability": "nonpayable",
      "type": "function"
    },
    {
      "constant": false,
      "inputs": [
        {
          "internalType": "uint256",
          "name": "productId",
          "type": "uint256"
        },
        {
          "internalType": "uint256",
          "name": "quantity",
          "type": "uint256"
        }
      ],
      "name": "sellWine",
      "outputs": [],
      "payable": false,
      "stateMutability": "nonpayable",
      "type": "function"
    }
  ],
  "bytecode": "0x608060405234801561001057600080fd5b50604051611c04380380611c048339818101604052604081101561003357600080fd5b810190808051906020019092919080519060200190929190505050816000806101000a81548173ffffffffffffffffffffffffffffffffffffffff021916908373ffffffffffffffffffffffffffffffffffffffff16021790555080600160006101000a81548173ffffffffffffffffffffffffffffffffffffffff021916908373ffffffffffffffffffffffffffffffffffffffff1602179055505050611b24806100e06000396000f3fe60806040526004361061004a5760003560e01c80631987884d1461004f5780634efefb98146100945780636d1e66c7146101595780639571e8e4146101a8578063c520924c146101e3575b600080fd5b34801561005b57600080fd5b506100926004803603604081101561007257600080fd5b81019080803590602001909291908035906020019092919050505061034c565b005b610157600480360360408110156100aa57600080fd5b8101908080359060200190929190803590602001906401000000008111156100d157600080fd5b8201836020820111156100e357600080fd5b8035906020019184600183028401116401000000008311171561010557600080fd5b91908080601f016020809104026020016040519081016040528093929190818152602001838380828437600081840152601f19601f820116905080830192505050505050509192919290505050610371565b005b34801561016557600080fd5b506101926004803603602081101561017c57600080fd5b81019080803590602001909291905050506107bf565b6040518082815260200191505060405180910390f35b3480156101b457600080fd5b506101e1600480360360208110156101cb57600080fd5b81019080803590602001909291905050506107d7565b005b3480156101ef57600080fd5b5061034a6004803603606081101561020657600080fd5b81019080803590602001909291908035906020019064010000000081111561022d57600080fd5b82018360208201111561023f57600080fd5b8035906020019184600183028401116401000000008311171561026157600080fd5b91908080601f016020809104026020016040519081016040528093929190818152602001838380828437600081840152601f19601f820116905080830192505050505050509192919290803590602001906401000000008111156102c457600080fd5b8201836020820111156102d657600080fd5b803590602001918460018302840111640100000000831117156102f857600080fd5b91908080601f016020809104026020016040519081016040528093929190818152602001838380828437600081840152601f19601f820116905080830192505050505050509192919290505050610fbb565b005b8060026000848152602001908152602001600020600082825403925050819055505050565b60008060009054906101000a900473ffffffffffffffffffffffffffffffffffffffff1673ffffffffffffffffffffffffffffffffffffffff1663fe73e86c846040518263ffffffff1660e01b81526004018082815260200191505060206040518083038186803b1580156103e557600080fd5b505afa1580156103f9573d6000803e3d6000fd5b505050506040513d602081101561040f57600080fd5b81019080805190602001909291905050506000809054906101000a900473ffffffffffffffffffffffffffffffffffffffff1673ffffffffffffffffffffffffffffffffffffffff166364c0e52f856040518263ffffffff1660e01b81526004018082815260200191505060206040518083038186803b15801561049257600080fd5b505afa1580156104a6573d6000803e3d6000fd5b505050506040513d60208110156104bc57600080fd5b8101908080519060200190929190505050029050803411610528576040517f08c379a0000000000000000000000000000000000000000000000000000000008152600401808060200182810382526028815260200180611aa26028913960400191505060405180910390fd5b60008060009054906101000a900473ffffffffffffffffffffffffffffffffffffffff1673ffffffffffffffffffffffffffffffffffffffff16637ace341b856040518263ffffffff1660e01b81526004018082815260200191505060206040518083038186803b15801561059c57600080fd5b505afa1580156105b0573d6000803e3d6000fd5b505050506040513d60208110156105c657600080fd5b810190808051906020019092919050505090508073ffffffffffffffffffffffffffffffffffffffff166108fc839081150290604051600060405180830381858888f1935050505015801561061f573d6000803e3d6000fd5b50600160009054906101000a900473ffffffffffffffffffffffffffffffffffffffff1673ffffffffffffffffffffffffffffffffffffffff16639b23d33e858533306040518563ffffffff1660e01b815260040180858152602001806020018473ffffffffffffffffffffffffffffffffffffffff1673ffffffffffffffffffffffffffffffffffffffff1681526020018373ffffffffffffffffffffffffffffffffffffffff1673ffffffffffffffffffffffffffffffffffffffff168152602001828103825285818151815260200191508051906020019080838360005b8381101561071b578082015181840152602081019050610700565b50505050905090810190601f1680156107485780820380516001836020036101000a031916815260200191505b5095505050505050600060405180830381600087803b15801561076a57600080fd5b505af115801561077e573d6000803e3d6000fd5b505050507f434286dd36291b90fc7b06f317bad22bb01ad82e0c1cba3e5072588a10d97f15846040518082815260200191505060405180910390a150505050565b60026020528060005260406000206000915090505481565b803373ffffffffffffffffffffffffffffffffffffffff166000809054906101000a900473ffffffffffffffffffffffffffffffffffffffff1673ffffffffffffffffffffffffffffffffffffffff16637ace341b836040518263ffffffff1660e01b81526004018082815260200191505060206040518083038186803b15801561086157600080fd5b505afa158015610875573d6000803e3d6000fd5b505050506040513d602081101561088b57600080fd5b810190808051906020019092919050505073ffffffffffffffffffffffffffffffffffffffff16146108bc57600080fd5b600115156000809054906101000a900473ffffffffffffffffffffffffffffffffffffffff1673ffffffffffffffffffffffffffffffffffffffff16631becaefb846040518263ffffffff1660e01b81526004018082815260200191505060206040518083038186803b15801561093257600080fd5b505afa158015610946573d6000803e3d6000fd5b505050506040513d602081101561095c57600080fd5b81019080805190602001909291905050501515146109c5576040517f08c379a0000000000000000000000000000000000000000000000000000000008152600401808060200182810382526026815260200180611aca6026913960400191505060405180910390fd5b60008060009054906101000a900473ffffffffffffffffffffffffffffffffffffffff1673ffffffffffffffffffffffffffffffffffffffff166256856a846040518263ffffffff1660e01b81526004018082815260200191505060206040518083038186803b158015610a3857600080fd5b505afa158015610a4c573d6000803e3d6000fd5b505050506040513d6020811015610a6257600080fd5b8101908080519060200190929190505050905060008060009054906101000a900473ffffffffffffffffffffffffffffffffffffffff1673ffffffffffffffffffffffffffffffffffffffff16635e478e6c856040518263ffffffff1660e01b81526004018082815260200191505060206040518083038186803b158015610ae957600080fd5b505afa158015610afd573d6000803e3d6000fd5b505050506040513d6020811015610b1357600080fd5b810190808051906020019092919050505090506000809054906101000a900473ffffffffffffffffffffffffffffffffffffffff1673ffffffffffffffffffffffffffffffffffffffff16630cc91022856000809054906101000a900473ffffffffffffffffffffffffffffffffffffffff1673ffffffffffffffffffffffffffffffffffffffff16637ace341b886040518263ffffffff1660e01b81526004018082815260200191505060206040518083038186803b158015610bd657600080fd5b505afa158015610bea573d6000803e3d6000fd5b505050506040513d6020811015610c0057600080fd5b81019080805190602001909291905050506040518363ffffffff1660e01b8152600401808381526020018273ffffffffffffffffffffffffffffffffffffffff1673ffffffffffffffffffffffffffffffffffffffff16815260200192505050600060405180830381600087803b158015610c7a57600080fd5b505af1158015610c8e573d6000803e3d6000fd5b505050506000809054906101000a900473ffffffffffffffffffffffffffffffffffffffff1673ffffffffffffffffffffffffffffffffffffffff166391f4caca856000809054906101000a900473ffffffffffffffffffffffffffffffffffffffff1673ffffffffffffffffffffffffffffffffffffffff16630772c45e886040518263ffffffff1660e01b81526004018082815260200191505060206040518083038186803b158015610d4257600080fd5b505afa158015610d56573d6000803e3d6000fd5b505050506040513d6020811015610d6c57600080fd5b81019080805190602001909291905050506040518363ffffffff1660e01b8152600401808381526020018273ffffffffffffffffffffffffffffffffffffffff1673ffffffffffffffffffffffffffffffffffffffff16815260200192505050600060405180830381600087803b158015610de657600080fd5b505af1158015610dfa573d6000803e3d6000fd5b505050506000809054906101000a900473ffffffffffffffffffffffffffffffffffffffff1673ffffffffffffffffffffffffffffffffffffffff166358ff352a85836040518363ffffffff1660e01b8152600401808381526020018273ffffffffffffffffffffffffffffffffffffffff1673ffffffffffffffffffffffffffffffffffffffff16815260200192505050600060405180830381600087803b158015610ea657600080fd5b505af1158015610eba573d6000803e3d6000fd5b505050506000809054906101000a900473ffffffffffffffffffffffffffffffffffffffff1673ffffffffffffffffffffffffffffffffffffffff16636c125a6b85846040518363ffffffff1660e01b8152600401808381526020018273ffffffffffffffffffffffffffffffffffffffff1673ffffffffffffffffffffffffffffffffffffffff16815260200192505050600060405180830381600087803b158015610f6657600080fd5b505af1158015610f7a573d6000803e3d6000fd5b505050507f5e9bb8415726e0b11d7b932dbb364eb215405ab788599166da87c7cb5ef7b589846040518082815260200191505060405180910390a150505050565b823373ffffffffffffffffffffffffffffffffffffffff166000809054906101000a900473ffffffffffffffffffffffffffffffffffffffff1673ffffffffffffffffffffffffffffffffffffffff16637ace341b836040518263ffffffff1660e01b81526004018082815260200191505060206040518083038186803b15801561104557600080fd5b505afa158015611059573d6000803e3d6000fd5b505050506040513d602081101561106f57600080fd5b810190808051906020019092919050505073ffffffffffffffffffffffffffffffffffffffff16146110a057600080fd5b600015156000809054906101000a900473ffffffffffffffffffffffffffffffffffffffff1673ffffffffffffffffffffffffffffffffffffffff16631becaefb866040518263ffffffff1660e01b81526004018082815260200191505060206040518083038186803b15801561111657600080fd5b505afa15801561112a573d6000803e3d6000fd5b505050506040513d602081101561114057600080fd5b810190808051906020019092919050505015151461115d57600080fd5b3073ffffffffffffffffffffffffffffffffffffffff166000809054906101000a900473ffffffffffffffffffffffffffffffffffffffff1673ffffffffffffffffffffffffffffffffffffffff16630772c45e866040518263ffffffff1660e01b81526004018082815260200191505060206040518083038186803b1580156111e657600080fd5b505afa1580156111fa573d6000803e3d6000fd5b505050506040513d602081101561121057600080fd5b810190808051906020019092919050505073ffffffffffffffffffffffffffffffffffffffff161461124157600080fd5b600115156000809054906101000a900473ffffffffffffffffffffffffffffffffffffffff1673ffffffffffffffffffffffffffffffffffffffff166340889b4f866040518263ffffffff1660e01b81526004018082815260200191505060206040518083038186803b1580156112b757600080fd5b505afa1580156112cb573d6000803e3d6000fd5b505050506040513d60208110156112e157600080fd5b81019080805190602001909291905050501515146112fe57600080fd5b60608060606000809054906101000a900473ffffffffffffffffffffffffffffffffffffffff1673ffffffffffffffffffffffffffffffffffffffff166323bb1835886040518263ffffffff1660e01b81526004018082815260200191505060006040518083038186803b15801561137557600080fd5b505afa158015611389573d6000803e3d6000fd5b505050506040513d6000823e3d601f19601f8201168201806040525060608110156113b357600080fd5b81019080805160405193929190846401000000008211156113d357600080fd5b838201915060208201858111156113e957600080fd5b825186600182028301116401000000008211171561140657600080fd5b8083526020830192505050908051906020019080838360005b8381101561143a57808201518184015260208101905061141f565b50505050905090810190601f1680156114675780820380516001836020036101000a031916815260200191505b506040526020018051604051939291908464010000000082111561148a57600080fd5b838201915060208201858111156114a057600080fd5b82518660018202830111640100000000821117156114bd57600080fd5b8083526020830192505050908051906020019080838360005b838110156114f15780820151818401526020810190506114d6565b50505050905090810190601f16801561151e5780820380516001836020036101000a031916815260200191505b506040526020018051604051939291908464010000000082111561154157600080fd5b8382019150602082018581111561155757600080fd5b825186600182028301116401000000008211171561157457600080fd5b8083526020830192505050908051906020019080838360005b838110156115a857808201518184015260208101905061158d565b50505050905090810190601f1680156115d55780820380516001836020036101000a031916815260200191505b506040525050509250925092506000809054906101000a900473ffffffffffffffffffffffffffffffffffffffff1673ffffffffffffffffffffffffffffffffffffffff1663d88ee329888585856040518563ffffffff1660e01b815260040180858152602001806020018060200180602001848103845287818151815260200191508051906020019080838360005b83811015611680578082015181840152602081019050611665565b50505050905090810190601f1680156116ad5780820380516001836020036101000a031916815260200191505b50848103835286818151815260200191508051906020019080838360005b838110156116e65780820151818401526020810190506116cb565b50505050905090810190601f1680156117135780820380516001836020036101000a031916815260200191505b50848103825285818151815260200191508051906020019080838360005b8381101561174c578082015181840152602081019050611731565b50505050905090810190601f1680156117795780820380516001836020036101000a031916815260200191505b50975050505050505050600060405180830381600087803b15801561179d57600080fd5b505af11580156117b1573d6000803e3d6000fd5b505050506000809054906101000a900473ffffffffffffffffffffffffffffffffffffffff1673ffffffffffffffffffffffffffffffffffffffff1663809db2f88888886040518463ffffffff1660e01b815260040180848152602001806020018060200180602001848103845286818151815260200191508051906020019080838360005b83811015611852578082015181840152602081019050611837565b50505050905090810190601f16801561187f5780820380516001836020036101000a031916815260200191505b50848103835260008152602001602001848103825285818151815260200191508051906020019080838360005b838110156118c75780820151818401526020810190506118ac565b50505050905090810190601f1680156118f45780820380516001836020036101000a031916815260200191505b509650505050505050600060405180830381600087803b15801561191757600080fd5b505af115801561192b573d6000803e3d6000fd5b505050506000809054906101000a900473ffffffffffffffffffffffffffffffffffffffff1673ffffffffffffffffffffffffffffffffffffffff1663dcd9d2cb8860016040518363ffffffff1660e01b8152600401808381526020018215151515815260200192505050600060405180830381600087803b1580156119b057600080fd5b505af11580156119c4573d6000803e3d6000fd5b505050506000809054906101000a900473ffffffffffffffffffffffffffffffffffffffff1673ffffffffffffffffffffffffffffffffffffffff16633d30ffb88860006040518363ffffffff1660e01b8152600401808381526020018215151515815260200192505050600060405180830381600087803b158015611a4957600080fd5b505af1158015611a5d573d6000803e3d6000fd5b505050507fc1f2690fd8f216be0a3ee31ec6b5d017d09403438e6e7be6d655350d5a63a461876040518082815260200191505060405180910390a15050505050505056fe496e737566666963656e7420616d6f756e7420746f20627579207468652077696e6520626174636850726f64756374206973206e6f742079657420726563656976656420666f722072657475726ea265627a7a72315820351abe193b48428c8ae38cf368b55961287eb4d45aec389d1fb029f2059975c164736f6c63430005100032",
  "source": "pragma solidity ^0.5.0;\r\n\r\nimport \"./Product.sol\";\r\nimport \"./WholeSaler.sol\";\r\n\r\ncontract Retailer {\r\n\r\n    Product productContract;\r\n    Wholesaler wholeSalerContract;\r\n\r\n    event soldWine(uint256 wineBatchId);\r\n    event buyWineBatch(uint256 wineBatchId);\r\n    event wineBatchReceived(uint256 wineBatchId);\r\n    event returnedWine(uint256 wineBatchId);\r\n\r\n    mapping(uint256 => uint256) public wineRemainingInBatch;\r\n\r\n    //modifiers\r\n    modifier ownerOnly(uint256 productId) {\r\n        require(productContract.getCurrentOwner(productId) == msg.sender);\r\n        _;\r\n    }\r\n\r\n    constructor(Product productAddress, Wholesaler wholeSalerAddress) public {\r\n        productContract = productAddress;\r\n        wholeSalerContract = wholeSalerAddress;\r\n    }\r\n\r\n    //buy wine batch from wholesaler\r\n    function buyWineFromWholesaler(uint256 productId, string memory dispatchDate) public payable {\r\n        uint256 productPrice = productContract.getUnitPrice(productId) * productContract.getBatchQuantity(productId);\r\n        require(msg.value > productPrice, \"Insufficent amount to buy the wine batch\");\r\n        address payable targetAddress = address(uint160(productContract.getCurrentOwner(productId)));\r\n        targetAddress.transfer(productPrice);\r\n\r\n        wholeSalerContract.disbatchWineToRetailer(productId, dispatchDate, msg.sender, address(this));\r\n        emit buyWineBatch(productId);\r\n    }\r\n\r\n    //Receive From fillerpacker\r\n    function receiveWine(\r\n        uint256 productId,\r\n        string memory currentLocation,\r\n        string memory arrivalDate\r\n    ) public ownerOnly(productId) {\r\n        require(productContract.getReceived(productId) == false);\r\n        require(productContract.getCurrentContractAddress(productId) == address(this));\r\n        require(productContract.getReadyToShip(productId) == true);\r\n        (string memory location, string memory dispatchDate, string memory prevArrivalDate) = productContract.getCurrentLocation(productId);\r\n        productContract.addPreviousLocation(productId, location, dispatchDate, prevArrivalDate);\r\n        productContract.setCurrentLocation(productId, currentLocation, \"\", arrivalDate);\r\n\r\n        productContract.setReceived(productId, true);\r\n        productContract.setReadyToShip(productId, false);\r\n\r\n        emit wineBatchReceived(productId);\r\n    }\r\n\r\n    function returnWine(uint256 productId) public ownerOnly(productId) {\r\n\r\n        require(productContract.getReceived(productId) == true, \"Product is not yet received for return\");\r\n\r\n        address prevOwner = productContract.getPreviousOwner(productId);\r\n        address prevContractAddress = productContract.getPreviousContractAddress(productId);\r\n\r\n        productContract.setPreviousOwner(productId, productContract.getCurrentOwner(productId));\r\n        productContract.setPreviousContractAddress(productId, productContract.getCurrentContractAddress(productId));\r\n        productContract.setCurrentContractAddress(productId, prevContractAddress);\r\n        productContract.setCurrentOwner(productId, prevOwner);\r\n\r\n        emit returnedWine(productId);\r\n    }\r\n\r\n    function sellWine(uint256 productId, uint256 quantity) public {\r\n        wineRemainingInBatch[productId] -= quantity;\r\n    }\r\n\r\n}",
  "sourcePath": "C:\\Users\\YC\\Documents\\shino\\IS4302\\Wine-Supplychain-Blockchain\\contracts\\Retailer.sol",
  "compiler": {
    "name": "solc",
    "version": "0.5.16+commit.9c3226ce.Emscripten.clang"
  },
  "schemaVersion": "3.4.11",
  "updatedAt": "2023-04-08T09:43:33.082Z",
  "networkType": "ethereum",
  "devdoc": {
    "methods": {}
  },
  "userdoc": {
    "methods": {}
  }
}