{
  "contractName": "Retailer",
  "abi": [
    {
      "anonymous": false,
      "inputs": [
        {
          "indexed": false,
          "internalType": "uint256",
          "name": "retailerId",
          "type": "uint256"
        }
      ],
      "name": "addedRetailer",
      "type": "event"
    },
    {
      "anonymous": false,
      "inputs": [
        {
          "indexed": false,
          "internalType": "uint256",
          "name": "wineBatchId",
          "type": "uint256"
        },
        {
          "indexed": false,
          "internalType": "address",
          "name": "retailer",
          "type": "address"
        }
      ],
      "name": "receivedWineBatch",
      "type": "event"
    },
    {
      "anonymous": false,
      "inputs": [
        {
          "indexed": false,
          "internalType": "uint256",
          "name": "retailerId",
          "type": "uint256"
        }
      ],
      "name": "removedRetailer",
      "type": "event"
    },
    {
      "anonymous": false,
      "inputs": [
        {
          "indexed": false,
          "internalType": "uint256",
          "name": "wineBatchId",
          "type": "uint256"
        },
        {
          "indexed": false,
          "internalType": "address",
          "name": "retailer",
          "type": "address"
        }
      ],
      "name": "soldWine",
      "type": "event"
    },
    {
      "constant": true,
      "inputs": [],
      "name": "numOfRetailers",
      "outputs": [
        {
          "internalType": "uint256",
          "name": "",
          "type": "uint256"
        }
      ],
      "payable": false,
      "stateMutability": "view",
      "type": "function"
    },
    {
      "constant": true,
      "inputs": [
        {
          "internalType": "uint256",
          "name": "",
          "type": "uint256"
        }
      ],
      "name": "retailers",
      "outputs": [
        {
          "internalType": "address",
          "name": "",
          "type": "address"
        }
      ],
      "payable": false,
      "stateMutability": "view",
      "type": "function"
    },
    {
      "constant": true,
      "inputs": [
        {
          "internalType": "uint256",
          "name": "",
          "type": "uint256"
        }
      ],
      "name": "wineRemainingInBatch",
      "outputs": [
        {
          "internalType": "uint256",
          "name": "",
          "type": "uint256"
        }
      ],
      "payable": false,
      "stateMutability": "view",
      "type": "function"
    },
    {
      "constant": false,
      "inputs": [
        {
          "internalType": "address",
          "name": "accountNumber",
          "type": "address"
        }
      ],
      "name": "addRetailer",
      "outputs": [
        {
          "internalType": "uint256",
          "name": "",
          "type": "uint256"
        }
      ],
      "payable": false,
      "stateMutability": "nonpayable",
      "type": "function"
    },
    {
      "constant": true,
      "inputs": [
        {
          "internalType": "address",
          "name": "accountNumber",
          "type": "address"
        }
      ],
      "name": "checkRetailerExist",
      "outputs": [
        {
          "internalType": "bool",
          "name": "",
          "type": "bool"
        }
      ],
      "payable": false,
      "stateMutability": "view",
      "type": "function"
    },
    {
      "constant": false,
      "inputs": [
        {
          "internalType": "address",
          "name": "accountNumber",
          "type": "address"
        }
      ],
      "name": "removeRetailer",
      "outputs": [
        {
          "internalType": "bool",
          "name": "",
          "type": "bool"
        }
      ],
      "payable": false,
      "stateMutability": "nonpayable",
      "type": "function"
    },
    {
      "constant": true,
      "inputs": [
        {
          "internalType": "address",
          "name": "accountNumber",
          "type": "address"
        }
      ],
      "name": "isGoodsDistributor",
      "outputs": [
        {
          "internalType": "bool",
          "name": "",
          "type": "bool"
        }
      ],
      "payable": false,
      "stateMutability": "view",
      "type": "function"
    },
    {
      "constant": false,
      "inputs": [
        {
          "internalType": "uint256",
          "name": "wineBatchId",
          "type": "uint256"
        },
        {
          "internalType": "address",
          "name": "retailer",
          "type": "address"
        }
      ],
      "name": "sellWineFromBatch",
      "outputs": [],
      "payable": false,
      "stateMutability": "nonpayable",
      "type": "function"
    }
  ],
  "bytecode": "0x6080604052600060015534801561001557600080fd5b506107d0806100256000396000f3fe608060405234801561001057600080fd5b50600436106100885760003560e01c8063897ec7df1161005b578063897ec7df146101d55780638ec4f50514610243578063919cb9bc1461029b578063c2edd707146102b957610088565b8063347b216f1461008d578063645c7d39146100db5780636d1e66c71461013757806370099ec814610179575b600080fd5b6100d9600480360360408110156100a357600080fd5b8101908080359060200190929190803573ffffffffffffffffffffffffffffffffffffffff169060200190929190505050610315565b005b61011d600480360360208110156100f157600080fd5b81019080803573ffffffffffffffffffffffffffffffffffffffff1690602001909291905050506103b2565b604051808215151515815260200191505060405180910390f35b6101636004803603602081101561014d57600080fd5b8101908080359060200190929190505050610457565b6040518082815260200191505060405180910390f35b6101bb6004803603602081101561018f57600080fd5b81019080803573ffffffffffffffffffffffffffffffffffffffff16906020019092919050505061046f565b604051808215151515815260200191505060405180910390f35b610201600480360360208110156101eb57600080fd5b8101908080359060200190929190505050610614565b604051808273ffffffffffffffffffffffffffffffffffffffff1673ffffffffffffffffffffffffffffffffffffffff16815260200191505060405180910390f35b6102856004803603602081101561025957600080fd5b81019080803573ffffffffffffffffffffffffffffffffffffffff169060200190929190505050610647565b6040518082815260200191505060405180910390f35b6102a361076c565b6040518082815260200191505060405180910390f35b6102fb600480360360208110156102cf57600080fd5b81019080803573ffffffffffffffffffffffffffffffffffffffff169060200190929190505050610772565b604051808215151515815260200191505060405180910390f35b600160026000848152602001908152602001600020540360026000848152602001908152602001600020819055507fa6c4a3ea54df94c4fe73f032b348f32b767c0a6c2d9c820fcede07a19c799c018282604051808381526020018273ffffffffffffffffffffffffffffffffffffffff1673ffffffffffffffffffffffffffffffffffffffff1681526020019250505060405180910390a15050565b600080600154111561044d5760008090505b600154811161044b578273ffffffffffffffffffffffffffffffffffffffff166003600083815260200190815260200160002060009054906101000a900473ffffffffffffffffffffffffffffffffffffffff1673ffffffffffffffffffffffffffffffffffffffff16141561043e576001915050610452565b80806001019150506103c4565b505b600090505b919050565b60026020528060005260406000206000915090505481565b60006001151561047e836103b2565b1515146104f3576040517f08c379a00000000000000000000000000000000000000000000000000000000081526004018080602001828103825260188152602001807f52657461696c657220646f6573206e6f7420657869737421000000000000000081525060200191505060405180910390fd5b600080905060008090505b60015481116105d6578373ffffffffffffffffffffffffffffffffffffffff166003600083815260200190815260200160002060009054906101000a900473ffffffffffffffffffffffffffffffffffffffff1673ffffffffffffffffffffffffffffffffffffffff1614156105c95760006003600083815260200190815260200160002060006101000a81548173ffffffffffffffffffffffffffffffffffffffff021916908373ffffffffffffffffffffffffffffffffffffffff1602179055508091506105d6565b80806001019150506104fe565b507f9021d2c3ea67c21791609857065af8422993a3373ff6bb6347b247abc55037b6816040518082815260200191505060405180910390a150919050565b60036020528060005260406000206000915054906101000a900473ffffffffffffffffffffffffffffffffffffffff1681565b6000801515610655836103b2565b1515146106ca576040517f08c379a00000000000000000000000000000000000000000000000000000000081526004018080602001828103825260178152602001807f52657461696c657220616c72656164792065786973742100000000000000000081525060200191505060405180910390fd5b8160036000600154815260200190815260200160002060006101000a81548173ffffffffffffffffffffffffffffffffffffffff021916908373ffffffffffffffffffffffffffffffffffffffff1602179055507f2c9f357704111b346f35c72624d756860ad3a30b0b8169fbc004665a767d1fef6001546040518082815260200191505060405180910390a160018060008282540192505081905550919050565b60015481565b60008061077e836103b2565b90508015610790576001915050610796565b60009150505b91905056fea265627a7a723158204bcf3e4028afd343f31476d78317695a0d09a2074f8da6fe144780a33137007964736f6c63430005100032",
  "source": "pragma solidity ^0.5.0;\r\n\r\nimport \"./Product.sol\";\r\n\r\ncontract Retailer {\r\n\r\n    event soldWine(uint256 wineBatchId, address retailer);\r\n    event addedRetailer(uint256 retailerId);\r\n    event removedRetailer(uint256 retailerId);\r\n    event receivedWineBatch(uint256 wineBatchId, address retailer);\r\n\r\n    Product productContract;\r\n    uint256 public numOfRetailers = 0;\r\n    mapping(uint256 => uint256) public wineRemainingInBatch;\r\n    mapping(uint256 => address) public retailers; //mapping id of retailers to their addresses\r\n\r\n    //function to add a new retailer\r\n    function addRetailer(\r\n        address accountNumber\r\n    ) public returns (uint256) {\r\n        require(\r\n            checkRetailerExist(accountNumber) == false,\r\n            \"Retailer already exist!\"\r\n        );\r\n        retailers[numOfRetailers] = accountNumber;\r\n        emit addedRetailer(numOfRetailers);\r\n        numOfRetailers += 1;\r\n    }\r\n\r\n    //check whether goods distributor already exist. Returns true if exist and false otherwise\r\n    function checkRetailerExist(\r\n        address accountNumber\r\n    ) public view returns (bool) {\r\n        if (numOfRetailers > 0) {\r\n            for (uint i = 0; i <= numOfRetailers; i++) {\r\n                if (retailers[i] == accountNumber) {\r\n                    return true;\r\n                }\r\n            }\r\n        }\r\n        return false;\r\n    }\r\n\r\n    function removeRetailer(\r\n        address accountNumber\r\n    ) public returns (bool) {\r\n        require(\r\n            checkRetailerExist(accountNumber) == true,\r\n            \"Retailer does not exist!\"\r\n        );\r\n        uint256 removedId = 0;\r\n        for (uint i = 0; i <= numOfRetailers; i++) {\r\n            if (retailers[i] == accountNumber) {\r\n                retailers[i] = address(0);\r\n                removedId = i;\r\n                break;\r\n            }\r\n        }\r\n        emit removedRetailer(removedId);\r\n    }\r\n\r\n    function isGoodsDistributor(\r\n        address accountNumber\r\n    ) public view returns (bool) {\r\n        bool exist = checkRetailerExist(accountNumber);\r\n        if (exist) {\r\n            return true;\r\n        } else {\r\n            return false;\r\n        }\r\n    }\r\n\r\n    // function receiveWineBatchFromWholeSaler(\r\n    //     uint256 wineBatchId,\r\n    //     address retailer,\r\n    //     string memory newLocation,\r\n    //     string memory newDisbatchDate,\r\n    //     string memory newExpectedArrivalDate,\r\n    //     string memory newArrivalDate,\r\n    //     string memory prevLocation, \r\n    //     string memory prevDisbatchDate, \r\n    //     string memory prevExpectedArrivalDate, \r\n    //     string memory prevArrivalDate\r\n    // ) public payable {\r\n    //     require(\r\n    //         msg.value == productContract.getUnitPrice(wineBatchId),\r\n    //         \"Insufficient payment!\"\r\n    //     );\r\n    //     //fillerPackerContract.sendWineToGoodsDistributor(wineBatchId);\r\n    //     productContract.setCurrentLocation(\r\n    //         wineBatchId,\r\n    //         newLocation,\r\n    //         newDisbatchDate,\r\n    //         newExpectedArrivalDate,\r\n    //         newArrivalDate\r\n    //     );\r\n    //     productContract.addPreviousLocation(\r\n    //         wineBatchId,\r\n    //         prevLocation,\r\n    //         prevDisbatchDate,\r\n    //         prevExpectedArrivalDate,\r\n    //         prevArrivalDate\r\n    //     );\r\n    //     productContract.setCurrentContractAddress(wineBatchId, address(this));\r\n    //     productContract.setReceived(wineBatchId, true);\r\n    //     wineRemainingInBatch[wineBatchId] = productContract.getBatchQuantity(wineBatchId);\r\n    //     emit receivedWineBatch(wineBatchId, retailer);\r\n    // }\r\n\r\n    function sellWineFromBatch(uint256 wineBatchId, address retailer) public {\r\n        wineRemainingInBatch[wineBatchId] = wineRemainingInBatch[wineBatchId] - 1;\r\n        emit soldWine(wineBatchId, retailer);\r\n    }\r\n}",
  "sourcePath": "C:\\Users\\YC\\Documents\\shino\\IS4302\\Wine-Supplychain-Blockchain\\contracts\\Retailer.sol",
  "compiler": {
    "name": "solc",
    "version": "0.5.16+commit.9c3226ce.Emscripten.clang"
  },
  "schemaVersion": "3.4.11",
  "updatedAt": "2023-04-03T06:49:53.270Z",
  "networkType": "ethereum",
  "devdoc": {
    "methods": {}
  },
  "userdoc": {
    "methods": {}
  }
}