{
  "contractName": "TransitCellar",
  "abi": [
    {
      "inputs": [
        {
          "internalType": "contract Product",
          "name": "productContractAddress",
          "type": "address"
        },
        {
          "internalType": "contract BulkDistributor",
          "name": "bulkDistributorAddress",
          "type": "address"
        }
      ],
      "payable": false,
      "stateMutability": "nonpayable",
      "type": "constructor"
    },
    {
      "anonymous": false,
      "inputs": [
        {
          "indexed": false,
          "internalType": "uint256",
          "name": "productId",
          "type": "uint256"
        }
      ],
      "name": "wineAnalysed",
      "type": "event"
    },
    {
      "anonymous": false,
      "inputs": [
        {
          "indexed": false,
          "internalType": "uint256",
          "name": "productId",
          "type": "uint256"
        }
      ],
      "name": "wineBought",
      "type": "event"
    },
    {
      "anonymous": false,
      "inputs": [
        {
          "indexed": false,
          "internalType": "uint256",
          "name": "productId",
          "type": "uint256"
        }
      ],
      "name": "wineDispatched",
      "type": "event"
    },
    {
      "anonymous": false,
      "inputs": [
        {
          "indexed": false,
          "internalType": "uint256",
          "name": "productId",
          "type": "uint256"
        }
      ],
      "name": "wineReceived",
      "type": "event"
    },
    {
      "anonymous": false,
      "inputs": [
        {
          "indexed": false,
          "internalType": "uint256",
          "name": "productId",
          "type": "uint256"
        }
      ],
      "name": "wineRefunded",
      "type": "event"
    },
    {
      "anonymous": false,
      "inputs": [
        {
          "indexed": false,
          "internalType": "uint256",
          "name": "productId",
          "type": "uint256"
        }
      ],
      "name": "wineRemoved",
      "type": "event"
    },
    {
      "anonymous": false,
      "inputs": [
        {
          "indexed": false,
          "internalType": "uint256",
          "name": "productId",
          "type": "uint256"
        }
      ],
      "name": "wineReturned",
      "type": "event"
    },
    {
      "constant": true,
      "inputs": [
        {
          "internalType": "uint256",
          "name": "productId",
          "type": "uint256"
        }
      ],
      "name": "getAnalysisDetails",
      "outputs": [
        {
          "internalType": "string",
          "name": "",
          "type": "string"
        }
      ],
      "payable": false,
      "stateMutability": "view",
      "type": "function"
    },
    {
      "constant": false,
      "inputs": [
        {
          "internalType": "uint256",
          "name": "productId",
          "type": "uint256"
        },
        {
          "internalType": "string",
          "name": "dispatchDate",
          "type": "string"
        }
      ],
      "name": "buyWineFromBulkDistributor",
      "outputs": [],
      "payable": true,
      "stateMutability": "payable",
      "type": "function"
    },
    {
      "constant": false,
      "inputs": [
        {
          "internalType": "uint256",
          "name": "productId",
          "type": "uint256"
        },
        {
          "internalType": "string",
          "name": "currentLocation",
          "type": "string"
        },
        {
          "internalType": "string",
          "name": "arrivalDate",
          "type": "string"
        }
      ],
      "name": "receiveWineFromBulkDistributor",
      "outputs": [],
      "payable": true,
      "stateMutability": "payable",
      "type": "function"
    },
    {
      "constant": false,
      "inputs": [
        {
          "internalType": "uint256",
          "name": "productId",
          "type": "uint256"
        }
      ],
      "name": "returnWine",
      "outputs": [],
      "payable": true,
      "stateMutability": "payable",
      "type": "function"
    },
    {
      "constant": false,
      "inputs": [
        {
          "internalType": "uint256",
          "name": "productId",
          "type": "uint256"
        }
      ],
      "name": "refundFillerPacker",
      "outputs": [],
      "payable": true,
      "stateMutability": "payable",
      "type": "function"
    },
    {
      "constant": false,
      "inputs": [
        {
          "internalType": "uint256",
          "name": "productId",
          "type": "uint256"
        }
      ],
      "name": "removeWine",
      "outputs": [],
      "payable": false,
      "stateMutability": "nonpayable",
      "type": "function"
    },
    {
      "constant": false,
      "inputs": [
        {
          "internalType": "uint256",
          "name": "productId",
          "type": "uint256"
        },
        {
          "internalType": "string",
          "name": "analysisDetail",
          "type": "string"
        }
      ],
      "name": "analyseWine",
      "outputs": [],
      "payable": false,
      "stateMutability": "nonpayable",
      "type": "function"
    },
    {
      "constant": false,
      "inputs": [
        {
          "internalType": "uint256",
          "name": "productId",
          "type": "uint256"
        }
      ],
      "name": "materialReadyToShip",
      "outputs": [],
      "payable": false,
      "stateMutability": "nonpayable",
      "type": "function"
    },
    {
      "constant": false,
      "inputs": [
        {
          "internalType": "uint256",
          "name": "productId",
          "type": "uint256"
        },
        {
          "internalType": "string",
          "name": "dispatchDate",
          "type": "string"
        },
        {
          "internalType": "address",
          "name": "newOwner",
          "type": "address"
        },
        {
          "internalType": "address",
          "name": "newContractAddress",
          "type": "address"
        }
      ],
      "name": "dispatchWineToFillerPacker",
      "outputs": [],
      "payable": false,
      "stateMutability": "nonpayable",
      "type": "function"
    }
  ],
  "bytecode": "0x608060405233600260006101000a81548173ffffffffffffffffffffffffffffffffffffffff021916908373ffffffffffffffffffffffffffffffffffffffff16021790555034801561005157600080fd5b5060405161360c38038061360c8339818101604052604081101561007457600080fd5b810190808051906020019092919080519060200190929190505050816000806101000a81548173ffffffffffffffffffffffffffffffffffffffff021916908373ffffffffffffffffffffffffffffffffffffffff16021790555080600160006101000a81548173ffffffffffffffffffffffffffffffffffffffff021916908373ffffffffffffffffffffffffffffffffffffffff16021790555050506134eb806101216000396000f3fe6080604052600436106100865760003560e01c80639571e8e4116100595780639571e8e41461026d578063ac4ce1311461029b578063d485dda9146102d6578063d793a395146103e8578063f0e9e1351461054457610086565b80631495ef7b1461008b5780631558eac5146100b957806315bb14411461017e5780637255a6a2146101b9575b600080fd5b6100b7600480360360208110156100a157600080fd5b8101908080359060200190929190505050610616565b005b61017c600480360360408110156100cf57600080fd5b8101908080359060200190929190803590602001906401000000008111156100f657600080fd5b82018360208201111561010857600080fd5b8035906020019184600183028401116401000000008311171561012a57600080fd5b91908080601f016020809104026020016040519081016040528093929190818152602001838380828437600081840152601f19601f820116905080830192505050505050509192919290505050610b52565b005b34801561018a57600080fd5b506101b7600480360360208110156101a157600080fd5b8101908080359060200190929190505050610fa0565b005b3480156101c557600080fd5b506101f2600480360360208110156101dc57600080fd5b810190808035906020019092919050505061114c565b6040518080602001828103825283818151815260200191508051906020019080838360005b83811015610232578082015181840152602081019050610217565b50505050905090810190601f16801561025f5780820380516001836020036101000a031916815260200191505b509250505060405180910390f35b6102996004803603602081101561028357600080fd5b8101908080359060200190929190505050611201565b005b3480156102a757600080fd5b506102d4600480360360208110156102be57600080fd5b81019080803590602001909291905050506118ff565b005b3480156102e257600080fd5b506103e6600480360360808110156102f957600080fd5b81019080803590602001909291908035906020019064010000000081111561032057600080fd5b82018360208201111561033257600080fd5b8035906020019184600183028401116401000000008311171561035457600080fd5b91908080601f016020809104026020016040519081016040528093929190818152602001838380828437600081840152601f19601f820116905080830192505050505050509192919290803573ffffffffffffffffffffffffffffffffffffffff169060200190929190803573ffffffffffffffffffffffffffffffffffffffff169060200190929190505050611b8a565b005b610542600480360360608110156103fe57600080fd5b81019080803590602001909291908035906020019064010000000081111561042557600080fd5b82018360208201111561043757600080fd5b8035906020019184600183028401116401000000008311171561045957600080fd5b91908080601f016020809104026020016040519081016040528093929190818152602001838380828437600081840152601f19601f820116905080830192505050505050509192919290803590602001906401000000008111156104bc57600080fd5b8201836020820111156104ce57600080fd5b803590602001918460018302840111640100000000831117156104f057600080fd5b91908080601f016020809104026020016040519081016040528093929190818152602001838380828437600081840152601f19601f82011690508083019250505050505050919291929050505061285e565b005b34801561055057600080fd5b506106146004803603604081101561056757600080fd5b81019080803590602001909291908035906020019064010000000081111561058e57600080fd5b8201836020820111156105a057600080fd5b803590602001918460018302840111640100000000831117156105c257600080fd5b91908080601f016020809104026020016040519081016040528093929190818152602001838380828437600081840152601f19601f820116905080830192505050505050509192919290505050613344565b005b803373ffffffffffffffffffffffffffffffffffffffff166000809054906101000a900473ffffffffffffffffffffffffffffffffffffffff1673ffffffffffffffffffffffffffffffffffffffff16637ace341b836040518263ffffffff1660e01b81526004018082815260200191505060206040518083038186803b1580156106a057600080fd5b505afa1580156106b4573d6000803e3d6000fd5b505050506040513d60208110156106ca57600080fd5b810190808051906020019092919050505073ffffffffffffffffffffffffffffffffffffffff16146106fb57600080fd5b3373ffffffffffffffffffffffffffffffffffffffff166000809054906101000a900473ffffffffffffffffffffffffffffffffffffffff1673ffffffffffffffffffffffffffffffffffffffff16637ace341b846040518263ffffffff1660e01b81526004018082815260200191505060206040518083038186803b15801561078457600080fd5b505afa158015610798573d6000803e3d6000fd5b505050506040513d60208110156107ae57600080fd5b810190808051906020019092919050505073ffffffffffffffffffffffffffffffffffffffff1614610848576040517f08c379a00000000000000000000000000000000000000000000000000000000081526004018080602001828103825260168152602001807f556e61626c6520746f20726566756e64206974656d730000000000000000000081525060200191505060405180910390fd5b60008060009054906101000a900473ffffffffffffffffffffffffffffffffffffffff1673ffffffffffffffffffffffffffffffffffffffff1663fe73e86c846040518263ffffffff1660e01b81526004018082815260200191505060206040518083038186803b1580156108bc57600080fd5b505afa1580156108d0573d6000803e3d6000fd5b505050506040513d60208110156108e657600080fd5b81019080805190602001909291905050506000809054906101000a900473ffffffffffffffffffffffffffffffffffffffff1673ffffffffffffffffffffffffffffffffffffffff166364c0e52f856040518263ffffffff1660e01b81526004018082815260200191505060206040518083038186803b15801561096957600080fd5b505afa15801561097d573d6000803e3d6000fd5b505050506040513d602081101561099357600080fd5b810190808051906020019092919050505002905080341015610a1d576040517f08c379a000000000000000000000000000000000000000000000000000000000815260040180806020018281038252601d8152602001807f496e737566666963656e7420616d6f756e7420666f7220726566756e6400000081525060200191505060405180910390fd5b60008060009054906101000a900473ffffffffffffffffffffffffffffffffffffffff1673ffffffffffffffffffffffffffffffffffffffff16637ace341b856040518263ffffffff1660e01b81526004018082815260200191505060206040518083038186803b158015610a9157600080fd5b505afa158015610aa5573d6000803e3d6000fd5b505050506040513d6020811015610abb57600080fd5b810190808051906020019092919050505090508073ffffffffffffffffffffffffffffffffffffffff166108fc839081150290604051600060405180830381858888f19350505050158015610b14573d6000803e3d6000fd5b507f74a82779032dc0d4e4f33201b54462b87864a2f492866a347556163e1688a169846040518082815260200191505060405180910390a150505050565b60008060009054906101000a900473ffffffffffffffffffffffffffffffffffffffff1673ffffffffffffffffffffffffffffffffffffffff1663fe73e86c846040518263ffffffff1660e01b81526004018082815260200191505060206040518083038186803b158015610bc657600080fd5b505afa158015610bda573d6000803e3d6000fd5b505050506040513d6020811015610bf057600080fd5b81019080805190602001909291905050506000809054906101000a900473ffffffffffffffffffffffffffffffffffffffff1673ffffffffffffffffffffffffffffffffffffffff166364c0e52f856040518263ffffffff1660e01b81526004018082815260200191505060206040518083038186803b158015610c7357600080fd5b505afa158015610c87573d6000803e3d6000fd5b505050506040513d6020811015610c9d57600080fd5b8101908080519060200190929190505050029050803411610d09576040517f08c379a00000000000000000000000000000000000000000000000000000000081526004018080602001828103825260228152602001806134956022913960400191505060405180910390fd5b60008060009054906101000a900473ffffffffffffffffffffffffffffffffffffffff1673ffffffffffffffffffffffffffffffffffffffff16637ace341b856040518263ffffffff1660e01b81526004018082815260200191505060206040518083038186803b158015610d7d57600080fd5b505afa158015610d91573d6000803e3d6000fd5b505050506040513d6020811015610da757600080fd5b810190808051906020019092919050505090508073ffffffffffffffffffffffffffffffffffffffff166108fc839081150290604051600060405180830381858888f19350505050158015610e00573d6000803e3d6000fd5b50600160009054906101000a900473ffffffffffffffffffffffffffffffffffffffff1673ffffffffffffffffffffffffffffffffffffffff16638b1f6fb8858533306040518563ffffffff1660e01b815260040180858152602001806020018473ffffffffffffffffffffffffffffffffffffffff1673ffffffffffffffffffffffffffffffffffffffff1681526020018373ffffffffffffffffffffffffffffffffffffffff1673ffffffffffffffffffffffffffffffffffffffff168152602001828103825285818151815260200191508051906020019080838360005b83811015610efc578082015181840152602081019050610ee1565b50505050905090810190601f168015610f295780820380516001836020036101000a031916815260200191505b5095505050505050600060405180830381600087803b158015610f4b57600080fd5b505af1158015610f5f573d6000803e3d6000fd5b505050507f3caacae9c8658b0489b04f3b2986b004a74567399a7055a37dfb6bc893eccc66846040518082815260200191505060405180910390a150505050565b803373ffffffffffffffffffffffffffffffffffffffff166000809054906101000a900473ffffffffffffffffffffffffffffffffffffffff1673ffffffffffffffffffffffffffffffffffffffff16637ace341b836040518263ffffffff1660e01b81526004018082815260200191505060206040518083038186803b15801561102a57600080fd5b505afa15801561103e573d6000803e3d6000fd5b505050506040513d602081101561105457600080fd5b810190808051906020019092919050505073ffffffffffffffffffffffffffffffffffffffff161461108557600080fd5b6000809054906101000a900473ffffffffffffffffffffffffffffffffffffffff1673ffffffffffffffffffffffffffffffffffffffff16635ee95cae836040518263ffffffff1660e01b815260040180828152602001915050600060405180830381600087803b1580156110f957600080fd5b505af115801561110d573d6000803e3d6000fd5b505050507fa75642e219535e71f3332decace37ca196480295106318c0be229f8a4f4ae4f1826040518082815260200191505060405180910390a15050565b6060600360008381526020019081526020016000208054600181600116156101000203166002900480601f0160208091040260200160405190810160405280929190818152602001828054600181600116156101000203166002900480156111f55780601f106111ca576101008083540402835291602001916111f5565b820191906000526020600020905b8154815290600101906020018083116111d857829003601f168201915b50505050509050919050565b600115156000809054906101000a900473ffffffffffffffffffffffffffffffffffffffff1673ffffffffffffffffffffffffffffffffffffffff16631becaefb836040518263ffffffff1660e01b81526004018082815260200191505060206040518083038186803b15801561127757600080fd5b505afa15801561128b573d6000803e3d6000fd5b505050506040513d60208110156112a157600080fd5b810190808051906020019092919050505015151461130a576040517f08c379a000000000000000000000000000000000000000000000000000000000815260040180806020018281038252602381526020018061344d6023913960400191505060405180910390fd5b60008060009054906101000a900473ffffffffffffffffffffffffffffffffffffffff1673ffffffffffffffffffffffffffffffffffffffff166256856a836040518263ffffffff1660e01b81526004018082815260200191505060206040518083038186803b15801561137d57600080fd5b505afa158015611391573d6000803e3d6000fd5b505050506040513d60208110156113a757600080fd5b8101908080519060200190929190505050905060008060009054906101000a900473ffffffffffffffffffffffffffffffffffffffff1673ffffffffffffffffffffffffffffffffffffffff16635e478e6c846040518263ffffffff1660e01b81526004018082815260200191505060206040518083038186803b15801561142e57600080fd5b505afa158015611442573d6000803e3d6000fd5b505050506040513d602081101561145857600080fd5b810190808051906020019092919050505090506000809054906101000a900473ffffffffffffffffffffffffffffffffffffffff1673ffffffffffffffffffffffffffffffffffffffff16630cc91022846000809054906101000a900473ffffffffffffffffffffffffffffffffffffffff1673ffffffffffffffffffffffffffffffffffffffff16637ace341b876040518263ffffffff1660e01b81526004018082815260200191505060206040518083038186803b15801561151b57600080fd5b505afa15801561152f573d6000803e3d6000fd5b505050506040513d602081101561154557600080fd5b81019080805190602001909291905050506040518363ffffffff1660e01b8152600401808381526020018273ffffffffffffffffffffffffffffffffffffffff1673ffffffffffffffffffffffffffffffffffffffff16815260200192505050600060405180830381600087803b1580156115bf57600080fd5b505af11580156115d3573d6000803e3d6000fd5b505050506000809054906101000a900473ffffffffffffffffffffffffffffffffffffffff1673ffffffffffffffffffffffffffffffffffffffff166391f4caca846000809054906101000a900473ffffffffffffffffffffffffffffffffffffffff1673ffffffffffffffffffffffffffffffffffffffff16630772c45e876040518263ffffffff1660e01b81526004018082815260200191505060206040518083038186803b15801561168757600080fd5b505afa15801561169b573d6000803e3d6000fd5b505050506040513d60208110156116b157600080fd5b81019080805190602001909291905050506040518363ffffffff1660e01b8152600401808381526020018273ffffffffffffffffffffffffffffffffffffffff1673ffffffffffffffffffffffffffffffffffffffff16815260200192505050600060405180830381600087803b15801561172b57600080fd5b505af115801561173f573d6000803e3d6000fd5b505050506000809054906101000a900473ffffffffffffffffffffffffffffffffffffffff1673ffffffffffffffffffffffffffffffffffffffff166358ff352a84836040518363ffffffff1660e01b8152600401808381526020018273ffffffffffffffffffffffffffffffffffffffff1673ffffffffffffffffffffffffffffffffffffffff16815260200192505050600060405180830381600087803b1580156117eb57600080fd5b505af11580156117ff573d6000803e3d6000fd5b505050506000809054906101000a900473ffffffffffffffffffffffffffffffffffffffff1673ffffffffffffffffffffffffffffffffffffffff16636c125a6b84846040518363ffffffff1660e01b8152600401808381526020018273ffffffffffffffffffffffffffffffffffffffff1673ffffffffffffffffffffffffffffffffffffffff16815260200192505050600060405180830381600087803b1580156118ab57600080fd5b505af11580156118bf573d6000803e3d6000fd5b505050507ff8ba9c01761e6df504ed06e2b35d20469f35c5efb98e72d57a731ce75b361b2a836040518082815260200191505060405180910390a1505050565b803373ffffffffffffffffffffffffffffffffffffffff166000809054906101000a900473ffffffffffffffffffffffffffffffffffffffff1673ffffffffffffffffffffffffffffffffffffffff16637ace341b836040518263ffffffff1660e01b81526004018082815260200191505060206040518083038186803b15801561198957600080fd5b505afa15801561199d573d6000803e3d6000fd5b505050506040513d60208110156119b357600080fd5b810190808051906020019092919050505073ffffffffffffffffffffffffffffffffffffffff16146119e457600080fd5b600015156000809054906101000a900473ffffffffffffffffffffffffffffffffffffffff1673ffffffffffffffffffffffffffffffffffffffff166340889b4f846040518263ffffffff1660e01b81526004018082815260200191505060206040518083038186803b158015611a5a57600080fd5b505afa158015611a6e573d6000803e3d6000fd5b505050506040513d6020811015611a8457600080fd5b8101908080519060200190929190505050151514611aed576040517f08c379a00000000000000000000000000000000000000000000000000000000081526004018080602001828103825260258152602001806134706025913960400191505060405180910390fd5b6000809054906101000a900473ffffffffffffffffffffffffffffffffffffffff1673ffffffffffffffffffffffffffffffffffffffff16633d30ffb88360016040518363ffffffff1660e01b8152600401808381526020018215151515815260200192505050600060405180830381600087803b158015611b6e57600080fd5b505af1158015611b82573d6000803e3d6000fd5b505050505050565b833373ffffffffffffffffffffffffffffffffffffffff166000809054906101000a900473ffffffffffffffffffffffffffffffffffffffff1673ffffffffffffffffffffffffffffffffffffffff16637ace341b836040518263ffffffff1660e01b81526004018082815260200191505060206040518083038186803b158015611c1457600080fd5b505afa158015611c28573d6000803e3d6000fd5b505050506040513d6020811015611c3e57600080fd5b810190808051906020019092919050505073ffffffffffffffffffffffffffffffffffffffff1614611c6f57600080fd5b600115156000809054906101000a900473ffffffffffffffffffffffffffffffffffffffff1673ffffffffffffffffffffffffffffffffffffffff166340889b4f876040518263ffffffff1660e01b81526004018082815260200191505060206040518083038186803b158015611ce557600080fd5b505afa158015611cf9573d6000803e3d6000fd5b505050506040513d6020811015611d0f57600080fd5b8101908080519060200190929190505050151514611d95576040517f08c379a000000000000000000000000000000000000000000000000000000000815260040180806020018281038252601e8152602001807f50726f64756374206e6f7420726561647920666f72207368697070696e67000081525060200191505060405180910390fd5b3073ffffffffffffffffffffffffffffffffffffffff166000809054906101000a900473ffffffffffffffffffffffffffffffffffffffff1673ffffffffffffffffffffffffffffffffffffffff16630772c45e876040518263ffffffff1660e01b81526004018082815260200191505060206040518083038186803b158015611e1e57600080fd5b505afa158015611e32573d6000803e3d6000fd5b505050506040513d6020811015611e4857600080fd5b810190808051906020019092919050505073ffffffffffffffffffffffffffffffffffffffff1614611e7957600080fd5b6060806000809054906101000a900473ffffffffffffffffffffffffffffffffffffffff1673ffffffffffffffffffffffffffffffffffffffff166323bb1835886040518263ffffffff1660e01b81526004018082815260200191505060006040518083038186803b158015611eee57600080fd5b505afa158015611f02573d6000803e3d6000fd5b505050506040513d6000823e3d601f19601f820116820180604052506060811015611f2c57600080fd5b8101908080516040519392919084640100000000821115611f4c57600080fd5b83820191506020820185811115611f6257600080fd5b8251866001820283011164010000000082111715611f7f57600080fd5b8083526020830192505050908051906020019080838360005b83811015611fb3578082015181840152602081019050611f98565b50505050905090810190601f168015611fe05780820380516001836020036101000a031916815260200191505b506040526020018051604051939291908464010000000082111561200357600080fd5b8382019150602082018581111561201957600080fd5b825186600182028301116401000000008211171561203657600080fd5b8083526020830192505050908051906020019080838360005b8381101561206a57808201518184015260208101905061204f565b50505050905090810190601f1680156120975780820380516001836020036101000a031916815260200191505b50604052602001805160405193929190846401000000008211156120ba57600080fd5b838201915060208201858111156120d057600080fd5b82518660018202830111640100000000821117156120ed57600080fd5b8083526020830192505050908051906020019080838360005b83811015612121578082015181840152602081019050612106565b50505050905090810190601f16801561214e5780820380516001836020036101000a031916815260200191505b5060405250505092505091506000809054906101000a900473ffffffffffffffffffffffffffffffffffffffff1673ffffffffffffffffffffffffffffffffffffffff1663809db2f8888489856040518563ffffffff1660e01b815260040180858152602001806020018060200180602001848103845287818151815260200191508051906020019080838360005b838110156121f85780820151818401526020810190506121dd565b50505050905090810190601f1680156122255780820380516001836020036101000a031916815260200191505b50848103835286818151815260200191508051906020019080838360005b8381101561225e578082015181840152602081019050612243565b50505050905090810190601f16801561228b5780820380516001836020036101000a031916815260200191505b50848103825285818151815260200191508051906020019080838360005b838110156122c45780820151818401526020810190506122a9565b50505050905090810190601f1680156122f15780820380516001836020036101000a031916815260200191505b50975050505050505050600060405180830381600087803b15801561231557600080fd5b505af1158015612329573d6000803e3d6000fd5b505050506000809054906101000a900473ffffffffffffffffffffffffffffffffffffffff1673ffffffffffffffffffffffffffffffffffffffff16630cc91022886000809054906101000a900473ffffffffffffffffffffffffffffffffffffffff1673ffffffffffffffffffffffffffffffffffffffff16637ace341b8b6040518263ffffffff1660e01b81526004018082815260200191505060206040518083038186803b1580156123dd57600080fd5b505afa1580156123f1573d6000803e3d6000fd5b505050506040513d602081101561240757600080fd5b81019080805190602001909291905050506040518363ffffffff1660e01b8152600401808381526020018273ffffffffffffffffffffffffffffffffffffffff1673ffffffffffffffffffffffffffffffffffffffff16815260200192505050600060405180830381600087803b15801561248157600080fd5b505af1158015612495573d6000803e3d6000fd5b505050506000809054906101000a900473ffffffffffffffffffffffffffffffffffffffff1673ffffffffffffffffffffffffffffffffffffffff166391f4caca886000809054906101000a900473ffffffffffffffffffffffffffffffffffffffff1673ffffffffffffffffffffffffffffffffffffffff16630772c45e8b6040518263ffffffff1660e01b81526004018082815260200191505060206040518083038186803b15801561254957600080fd5b505afa15801561255d573d6000803e3d6000fd5b505050506040513d602081101561257357600080fd5b81019080805190602001909291905050506040518363ffffffff1660e01b8152600401808381526020018273ffffffffffffffffffffffffffffffffffffffff1673ffffffffffffffffffffffffffffffffffffffff16815260200192505050600060405180830381600087803b1580156125ed57600080fd5b505af1158015612601573d6000803e3d6000fd5b505050506000809054906101000a900473ffffffffffffffffffffffffffffffffffffffff1673ffffffffffffffffffffffffffffffffffffffff166358ff352a88866040518363ffffffff1660e01b8152600401808381526020018273ffffffffffffffffffffffffffffffffffffffff1673ffffffffffffffffffffffffffffffffffffffff16815260200192505050600060405180830381600087803b1580156126ad57600080fd5b505af11580156126c1573d6000803e3d6000fd5b505050506000809054906101000a900473ffffffffffffffffffffffffffffffffffffffff1673ffffffffffffffffffffffffffffffffffffffff1663dcd9d2cb8860006040518363ffffffff1660e01b8152600401808381526020018215151515815260200192505050600060405180830381600087803b15801561274657600080fd5b505af115801561275a573d6000803e3d6000fd5b505050506000809054906101000a900473ffffffffffffffffffffffffffffffffffffffff1673ffffffffffffffffffffffffffffffffffffffff16636c125a6b88876040518363ffffffff1660e01b8152600401808381526020018273ffffffffffffffffffffffffffffffffffffffff1673ffffffffffffffffffffffffffffffffffffffff16815260200192505050600060405180830381600087803b15801561280657600080fd5b505af115801561281a573d6000803e3d6000fd5b505050507f10bc26283615ecfc30c957d932f4d6a3cca612fac49c29fdfce4b676596b503a876040518082815260200191505060405180910390a150505050505050565b823373ffffffffffffffffffffffffffffffffffffffff166000809054906101000a900473ffffffffffffffffffffffffffffffffffffffff1673ffffffffffffffffffffffffffffffffffffffff16637ace341b836040518263ffffffff1660e01b81526004018082815260200191505060206040518083038186803b1580156128e857600080fd5b505afa1580156128fc573d6000803e3d6000fd5b505050506040513d602081101561291257600080fd5b810190808051906020019092919050505073ffffffffffffffffffffffffffffffffffffffff161461294357600080fd5b600015156000809054906101000a900473ffffffffffffffffffffffffffffffffffffffff1673ffffffffffffffffffffffffffffffffffffffff16631becaefb866040518263ffffffff1660e01b81526004018082815260200191505060206040518083038186803b1580156129b957600080fd5b505afa1580156129cd573d6000803e3d6000fd5b505050506040513d60208110156129e357600080fd5b8101908080519060200190929190505050151514612a0057600080fd5b3073ffffffffffffffffffffffffffffffffffffffff166000809054906101000a900473ffffffffffffffffffffffffffffffffffffffff1673ffffffffffffffffffffffffffffffffffffffff16630772c45e866040518263ffffffff1660e01b81526004018082815260200191505060206040518083038186803b158015612a8957600080fd5b505afa158015612a9d573d6000803e3d6000fd5b505050506040513d6020811015612ab357600080fd5b810190808051906020019092919050505073ffffffffffffffffffffffffffffffffffffffff1614612ae457600080fd5b600115156000809054906101000a900473ffffffffffffffffffffffffffffffffffffffff1673ffffffffffffffffffffffffffffffffffffffff166340889b4f866040518263ffffffff1660e01b81526004018082815260200191505060206040518083038186803b158015612b5a57600080fd5b505afa158015612b6e573d6000803e3d6000fd5b505050506040513d6020811015612b8457600080fd5b8101908080519060200190929190505050151514612ba157600080fd5b60608060606000809054906101000a900473ffffffffffffffffffffffffffffffffffffffff1673ffffffffffffffffffffffffffffffffffffffff166323bb1835886040518263ffffffff1660e01b81526004018082815260200191505060006040518083038186803b158015612c1857600080fd5b505afa158015612c2c573d6000803e3d6000fd5b505050506040513d6000823e3d601f19601f820116820180604052506060811015612c5657600080fd5b8101908080516040519392919084640100000000821115612c7657600080fd5b83820191506020820185811115612c8c57600080fd5b8251866001820283011164010000000082111715612ca957600080fd5b8083526020830192505050908051906020019080838360005b83811015612cdd578082015181840152602081019050612cc2565b50505050905090810190601f168015612d0a5780820380516001836020036101000a031916815260200191505b5060405260200180516040519392919084640100000000821115612d2d57600080fd5b83820191506020820185811115612d4357600080fd5b8251866001820283011164010000000082111715612d6057600080fd5b8083526020830192505050908051906020019080838360005b83811015612d94578082015181840152602081019050612d79565b50505050905090810190601f168015612dc15780820380516001836020036101000a031916815260200191505b5060405260200180516040519392919084640100000000821115612de457600080fd5b83820191506020820185811115612dfa57600080fd5b8251866001820283011164010000000082111715612e1757600080fd5b8083526020830192505050908051906020019080838360005b83811015612e4b578082015181840152602081019050612e30565b50505050905090810190601f168015612e785780820380516001836020036101000a031916815260200191505b506040525050509250925092506000809054906101000a900473ffffffffffffffffffffffffffffffffffffffff1673ffffffffffffffffffffffffffffffffffffffff1663d88ee329888585856040518563ffffffff1660e01b815260040180858152602001806020018060200180602001848103845287818151815260200191508051906020019080838360005b83811015612f23578082015181840152602081019050612f08565b50505050905090810190601f168015612f505780820380516001836020036101000a031916815260200191505b50848103835286818151815260200191508051906020019080838360005b83811015612f89578082015181840152602081019050612f6e565b50505050905090810190601f168015612fb65780820380516001836020036101000a031916815260200191505b50848103825285818151815260200191508051906020019080838360005b83811015612fef578082015181840152602081019050612fd4565b50505050905090810190601f16801561301c5780820380516001836020036101000a031916815260200191505b50975050505050505050600060405180830381600087803b15801561304057600080fd5b505af1158015613054573d6000803e3d6000fd5b505050506000809054906101000a900473ffffffffffffffffffffffffffffffffffffffff1673ffffffffffffffffffffffffffffffffffffffff1663809db2f88888886040518463ffffffff1660e01b815260040180848152602001806020018060200180602001848103845286818151815260200191508051906020019080838360005b838110156130f55780820151818401526020810190506130da565b50505050905090810190601f1680156131225780820380516001836020036101000a031916815260200191505b50848103835260008152602001602001848103825285818151815260200191508051906020019080838360005b8381101561316a57808201518184015260208101905061314f565b50505050905090810190601f1680156131975780820380516001836020036101000a031916815260200191505b509650505050505050600060405180830381600087803b1580156131ba57600080fd5b505af11580156131ce573d6000803e3d6000fd5b505050506000809054906101000a900473ffffffffffffffffffffffffffffffffffffffff1673ffffffffffffffffffffffffffffffffffffffff1663dcd9d2cb8860016040518363ffffffff1660e01b8152600401808381526020018215151515815260200192505050600060405180830381600087803b15801561325357600080fd5b505af1158015613267573d6000803e3d6000fd5b505050506000809054906101000a900473ffffffffffffffffffffffffffffffffffffffff1673ffffffffffffffffffffffffffffffffffffffff16633d30ffb88860006040518363ffffffff1660e01b8152600401808381526020018215151515815260200192505050600060405180830381600087803b1580156132ec57600080fd5b505af1158015613300573d6000803e3d6000fd5b505050507f2ffc48f4ae90072b45426bc482d9ae940d820e9532910a3ca1d051006e3284d1876040518082815260200191505060405180910390a150505050505050565b8060036000848152602001908152602001600020908051906020019061336b9291906133a7565b507f867e735915f5500be56ea9c3703f9ec3c9916fb27995c5c6a2ad8cf7c482a2b1826040518082815260200191505060405180910390a15050565b828054600181600116156101000203166002900490600052602060002090601f016020900481019282601f106133e857805160ff1916838001178555613416565b82800160010185558215613416579182015b828111156134155782518255916020019190600101906133fa565b5b5090506134239190613427565b5090565b61344991905b8082111561344557600081600090555060010161342d565b5090565b9056fe57696e65206973206e6f742079657420726563656976656420666f722072657475726e50726f6475637420697320616c726561647920726561647920666f72207368697070696e67496e737566666963656e7420616d6f756e7420746f20627579207468652077696e65a265627a7a7231582095d0eccf3ae728bc2611e816df8eb1b1068df7816106f724af74b43e8b8d0f0764736f6c63430005100032",
  "source": "pragma solidity ^0.5.0;\r\n\r\nimport \"./Product.sol\";\r\nimport \"./BulkDistributor.sol\";\r\n\r\ncontract TransitCellar {\r\n    \r\n    //variables\r\n    Product productContract;\r\n    BulkDistributor bulkDistributorContract;\r\n    address owner = msg.sender;\r\n    mapping(uint256 => string) private analysisDetails; // Analysis details of each product\r\n\r\n    constructor(Product productContractAddress, BulkDistributor bulkDistributorAddress) public {\r\n        productContract = productContractAddress;\r\n        bulkDistributorContract = bulkDistributorAddress;\r\n    }\r\n\r\n    //events\r\n    event wineBought(uint productId);\r\n    event wineReceived(uint productId);\r\n    event wineAnalysed(uint productId); \r\n    event wineDispatched(uint productId);\r\n    event wineReturned(uint productId);\r\n    event wineRefunded(uint productId);\r\n    event wineRemoved(uint productId);\r\n\r\n    //modifiers\r\n    modifier ownerOnly(uint256 productId) {\r\n        require(productContract.getCurrentOwner(productId) == msg.sender);\r\n        _;\r\n    }\r\n\r\n    //methods\r\n    function getAnalysisDetails(uint256 productId) public view returns(string memory) {\r\n       return analysisDetails[productId];\r\n    }\r\n\r\n     //Buy wine from bulk distributor\r\n    function buyWineFromBulkDistributor(uint256 productId, string memory dispatchDate) public payable {\r\n        uint256 productPrice = productContract.getUnitPrice(productId) * productContract.getBatchQuantity(productId);\r\n        require(msg.value > productPrice, \"Insufficent amount to buy the wine\");\r\n        address payable targetAddress = address(uint160(productContract.getCurrentOwner(productId)));\r\n        targetAddress.transfer(productPrice);\r\n\r\n        bulkDistributorContract.dispatchWineToTransitCellar(productId, dispatchDate, msg.sender, address(this));\r\n        emit wineBought(productId);\r\n    }\r\n\r\n    //Receive wine from bulk distributor\r\n    function receiveWineFromBulkDistributor(uint256 productId, string memory currentLocation, string memory arrivalDate) public payable ownerOnly(productId) {\r\n        require(productContract.getReceived(productId) == false);\r\n        require(productContract.getCurrentContractAddress(productId) == address(this));\r\n        require(productContract.getReadyToShip(productId) == true);\r\n        (string memory location, string memory dispatchDate, string memory prevArrivalDate) = productContract.getCurrentLocation(productId);\r\n        productContract.addPreviousLocation(productId, location, dispatchDate, prevArrivalDate);\r\n        productContract.setCurrentLocation(productId, currentLocation, \"\", arrivalDate);\r\n        \r\n        productContract.setReceived(productId, true);\r\n        productContract.setReadyToShip(productId, false);\r\n        \r\n        emit wineReceived(productId);\r\n    }\r\n\r\n    //Return wine to bulk distributor\r\n     function returnWine(uint256 productId) public payable {\r\n\r\n        require(productContract.getReceived(productId) == true, \"Wine is not yet received for return\");\r\n        \r\n        address prevOwner = productContract.getPreviousOwner(productId);\r\n        address prevContractAddress = productContract.getPreviousContractAddress(productId);\r\n\r\n        productContract.setPreviousOwner(productId, productContract.getCurrentOwner(productId));\r\n        productContract.setPreviousContractAddress(productId, productContract.getCurrentContractAddress(productId));\r\n        productContract.setCurrentContractAddress(productId, prevContractAddress);\r\n        productContract.setCurrentOwner(productId, prevOwner);\r\n\r\n        emit wineReturned(productId);\r\n    }\r\n\r\n    //Refund money to filler packer\r\n    function refundFillerPacker(uint256 productId) public payable ownerOnly(productId) {\r\n\r\n        require(productContract.getCurrentOwner(productId) == msg.sender, \"Unable to refund items\");\r\n\r\n        //Transfer back the amt\r\n        uint256 productPrice = productContract.getUnitPrice(productId) * productContract.getBatchQuantity(productId);\r\n        require(msg.value >= productPrice, \"Insufficent amount for refund\");\r\n        address payable targetAddress = address(uint160(productContract.getCurrentOwner(productId)));\r\n        targetAddress.transfer(productPrice);\r\n\r\n        emit wineRefunded(productId);\r\n    }\r\n\r\n    //Remove wine from products\r\n    function removeWine(uint256 productId) public ownerOnly(productId) {\r\n        productContract.removeProduct(productId);\r\n        emit wineRemoved(productId);\r\n    }\r\n\r\n    //Analyse wine and store analysis details\r\n    function analyseWine(uint256 productId, string memory analysisDetail) public {\r\n        analysisDetails[productId] = analysisDetail;\r\n        emit wineAnalysed(productId);\r\n    }\r\n\r\n    //Set wine as ready to ship to filler packer\r\n    function materialReadyToShip(uint256 productId) public ownerOnly(productId) {\r\n        require(productContract.getReadyToShip(productId) == false, \"Product is already ready for shipping\");\r\n        productContract.setReadyToShip(productId, true);\r\n    }\r\n\r\n    //Dispatch wine to filler packer\r\n    function dispatchWineToFillerPacker(uint256 productId, string memory dispatchDate, address newOwner, address newContractAddress) public ownerOnly(productId) {\r\n        require(productContract.getReadyToShip(productId) == true, \"Product not ready for shipping\");\r\n        require(productContract.getCurrentContractAddress(productId) == address(this));\r\n        \r\n        (string memory location, , string memory arrivalDate) = productContract.getCurrentLocation(productId);\r\n        productContract.setCurrentLocation(productId, location, dispatchDate, arrivalDate);\r\n        productContract.setPreviousOwner(productId, productContract.getCurrentOwner(productId));\r\n        productContract.setPreviousContractAddress(productId, productContract.getCurrentContractAddress(productId));    \r\n        productContract.setCurrentContractAddress(productId, newContractAddress);\r\n        productContract.setReceived(productId, false);\r\n        productContract.setCurrentOwner(productId, newOwner);\r\n\r\n        emit wineDispatched(productId);\r\n    }\r\n\r\n}",
  "sourcePath": "C:\\Users\\YC\\Documents\\shino\\IS4302\\Wine-Supplychain-Blockchain\\contracts\\TransitCellar.sol",
  "compiler": {
    "name": "solc",
    "version": "0.5.16+commit.9c3226ce.Emscripten.clang"
  },
  "schemaVersion": "3.4.11",
  "updatedAt": "2023-04-08T10:22:42.550Z",
  "devdoc": {
    "methods": {}
  },
  "userdoc": {
    "methods": {}
  }
}