{
  "contractName": "Wholesaler",
  "abi": [
    {
      "inputs": [
        {
          "internalType": "contract Product",
          "name": "productAddress",
          "type": "address"
        },
        {
          "internalType": "contract GoodsDistributor",
          "name": "goodsDistributorAddress",
          "type": "address"
        }
      ],
      "payable": false,
      "stateMutability": "nonpayable",
      "type": "constructor"
    },
    {
      "anonymous": false,
      "inputs": [
        {
          "indexed": false,
          "internalType": "uint256",
          "name": "productId",
          "type": "uint256"
        }
      ],
      "name": "buyWine",
      "type": "event"
    },
    {
      "anonymous": false,
      "inputs": [
        {
          "indexed": false,
          "internalType": "uint256",
          "name": "productId",
          "type": "uint256"
        }
      ],
      "name": "dispatchWine",
      "type": "event"
    },
    {
      "anonymous": false,
      "inputs": [
        {
          "indexed": false,
          "internalType": "uint256",
          "name": "productId",
          "type": "uint256"
        }
      ],
      "name": "wineReceived",
      "type": "event"
    },
    {
      "constant": false,
      "inputs": [
        {
          "internalType": "uint256",
          "name": "productId",
          "type": "uint256"
        },
        {
          "internalType": "string",
          "name": "currentLocation",
          "type": "string"
        },
        {
          "internalType": "string",
          "name": "arrivalDate",
          "type": "string"
        }
      ],
      "name": "receiveWine",
      "outputs": [],
      "payable": false,
      "stateMutability": "nonpayable",
      "type": "function"
    },
    {
      "constant": false,
      "inputs": [
        {
          "internalType": "uint256",
          "name": "productId",
          "type": "uint256"
        },
        {
          "internalType": "string",
          "name": "newDisbatchDate",
          "type": "string"
        },
        {
          "internalType": "address",
          "name": "retailerAddress",
          "type": "address"
        },
        {
          "internalType": "address",
          "name": "retailerContractAddress",
          "type": "address"
        }
      ],
      "name": "disbatchWineToRetailer",
      "outputs": [],
      "payable": false,
      "stateMutability": "nonpayable",
      "type": "function"
    }
  ],
  "bytecode": "0x608060405233600260006101000a81548173ffffffffffffffffffffffffffffffffffffffff021916908373ffffffffffffffffffffffffffffffffffffffff16021790555034801561005157600080fd5b50604051611b13380380611b138339818101604052604081101561007457600080fd5b810190808051906020019092919080519060200190929190505050816000806101000a81548173ffffffffffffffffffffffffffffffffffffffff021916908373ffffffffffffffffffffffffffffffffffffffff16021790555080600160006101000a81548173ffffffffffffffffffffffffffffffffffffffff021916908373ffffffffffffffffffffffffffffffffffffffff16021790555050506119f2806101216000396000f3fe608060405234801561001057600080fd5b50600436106100365760003560e01c80639b23d33e1461003b578063c520924c14610140575b600080fd5b61013e6004803603608081101561005157600080fd5b81019080803590602001909291908035906020019064010000000081111561007857600080fd5b82018360208201111561008a57600080fd5b803590602001918460018302840111640100000000831117156100ac57600080fd5b91908080601f016020809104026020016040519081016040528093929190818152602001838380828437600081840152601f19601f820116905080830192505050505050509192919290803573ffffffffffffffffffffffffffffffffffffffff169060200190929190803573ffffffffffffffffffffffffffffffffffffffff16906020019092919050505061029c565b005b61029a6004803603606081101561015657600080fd5b81019080803590602001909291908035906020019064010000000081111561017d57600080fd5b82018360208201111561018f57600080fd5b803590602001918460018302840111640100000000831117156101b157600080fd5b91908080601f016020809104026020016040519081016040528093929190818152602001838380828437600081840152601f19601f8201169050808301925050505050505091929192908035906020019064010000000081111561021457600080fd5b82018360208201111561022657600080fd5b8035906020019184600183028401116401000000008311171561024857600080fd5b91908080601f016020809104026020016040519081016040528093929190818152602001838380828437600081840152601f19601f820116905080830192505050505050509192919290505050610ed7565b005b833373ffffffffffffffffffffffffffffffffffffffff166000809054906101000a900473ffffffffffffffffffffffffffffffffffffffff1673ffffffffffffffffffffffffffffffffffffffff16637ace341b836040518263ffffffff1660e01b81526004018082815260200191505060206040518083038186803b15801561032657600080fd5b505afa15801561033a573d6000803e3d6000fd5b505050506040513d602081101561035057600080fd5b810190808051906020019092919050505073ffffffffffffffffffffffffffffffffffffffff161461038157600080fd5b600115156000809054906101000a900473ffffffffffffffffffffffffffffffffffffffff1673ffffffffffffffffffffffffffffffffffffffff166340889b4f876040518263ffffffff1660e01b81526004018082815260200191505060206040518083038186803b1580156103f757600080fd5b505afa15801561040b573d6000803e3d6000fd5b505050506040513d602081101561042157600080fd5b81019080805190602001909291905050501515146104a7576040517f08c379a000000000000000000000000000000000000000000000000000000000815260040180806020018281038252601e8152602001807f50726f64756374206e6f7420726561647920666f72207368697070696e67000081525060200191505060405180910390fd5b3073ffffffffffffffffffffffffffffffffffffffff166000809054906101000a900473ffffffffffffffffffffffffffffffffffffffff1673ffffffffffffffffffffffffffffffffffffffff16630772c45e876040518263ffffffff1660e01b81526004018082815260200191505060206040518083038186803b15801561053057600080fd5b505afa158015610544573d6000803e3d6000fd5b505050506040513d602081101561055a57600080fd5b810190808051906020019092919050505073ffffffffffffffffffffffffffffffffffffffff161461058b57600080fd5b6000809054906101000a900473ffffffffffffffffffffffffffffffffffffffff1673ffffffffffffffffffffffffffffffffffffffff16630cc91022866000809054906101000a900473ffffffffffffffffffffffffffffffffffffffff1673ffffffffffffffffffffffffffffffffffffffff16637ace341b896040518263ffffffff1660e01b81526004018082815260200191505060206040518083038186803b15801561063b57600080fd5b505afa15801561064f573d6000803e3d6000fd5b505050506040513d602081101561066557600080fd5b81019080805190602001909291905050506040518363ffffffff1660e01b8152600401808381526020018273ffffffffffffffffffffffffffffffffffffffff1673ffffffffffffffffffffffffffffffffffffffff16815260200192505050600060405180830381600087803b1580156106df57600080fd5b505af11580156106f3573d6000803e3d6000fd5b505050506000809054906101000a900473ffffffffffffffffffffffffffffffffffffffff1673ffffffffffffffffffffffffffffffffffffffff16636c125a6b86856040518363ffffffff1660e01b8152600401808381526020018273ffffffffffffffffffffffffffffffffffffffff1673ffffffffffffffffffffffffffffffffffffffff16815260200192505050600060405180830381600087803b15801561079f57600080fd5b505af11580156107b3573d6000803e3d6000fd5b505050506000809054906101000a900473ffffffffffffffffffffffffffffffffffffffff1673ffffffffffffffffffffffffffffffffffffffff166391f4caca866000809054906101000a900473ffffffffffffffffffffffffffffffffffffffff1673ffffffffffffffffffffffffffffffffffffffff16630772c45e896040518263ffffffff1660e01b81526004018082815260200191505060206040518083038186803b15801561086757600080fd5b505afa15801561087b573d6000803e3d6000fd5b505050506040513d602081101561089157600080fd5b81019080805190602001909291905050506040518363ffffffff1660e01b8152600401808381526020018273ffffffffffffffffffffffffffffffffffffffff1673ffffffffffffffffffffffffffffffffffffffff16815260200192505050600060405180830381600087803b15801561090b57600080fd5b505af115801561091f573d6000803e3d6000fd5b505050506000809054906101000a900473ffffffffffffffffffffffffffffffffffffffff1673ffffffffffffffffffffffffffffffffffffffff166358ff352a86846040518363ffffffff1660e01b8152600401808381526020018273ffffffffffffffffffffffffffffffffffffffff1673ffffffffffffffffffffffffffffffffffffffff16815260200192505050600060405180830381600087803b1580156109cb57600080fd5b505af11580156109df573d6000803e3d6000fd5b505050506060806000809054906101000a900473ffffffffffffffffffffffffffffffffffffffff1673ffffffffffffffffffffffffffffffffffffffff166323bb1835886040518263ffffffff1660e01b81526004018082815260200191505060006040518083038186803b158015610a5857600080fd5b505afa158015610a6c573d6000803e3d6000fd5b505050506040513d6000823e3d601f19601f820116820180604052506060811015610a9657600080fd5b8101908080516040519392919084640100000000821115610ab657600080fd5b83820191506020820185811115610acc57600080fd5b8251866001820283011164010000000082111715610ae957600080fd5b8083526020830192505050908051906020019080838360005b83811015610b1d578082015181840152602081019050610b02565b50505050905090810190601f168015610b4a5780820380516001836020036101000a031916815260200191505b5060405260200180516040519392919084640100000000821115610b6d57600080fd5b83820191506020820185811115610b8357600080fd5b8251866001820283011164010000000082111715610ba057600080fd5b8083526020830192505050908051906020019080838360005b83811015610bd4578082015181840152602081019050610bb9565b50505050905090810190601f168015610c015780820380516001836020036101000a031916815260200191505b5060405260200180516040519392919084640100000000821115610c2457600080fd5b83820191506020820185811115610c3a57600080fd5b8251866001820283011164010000000082111715610c5757600080fd5b8083526020830192505050908051906020019080838360005b83811015610c8b578082015181840152602081019050610c70565b50505050905090810190601f168015610cb85780820380516001836020036101000a031916815260200191505b5060405250505092505091506000809054906101000a900473ffffffffffffffffffffffffffffffffffffffff1673ffffffffffffffffffffffffffffffffffffffff1663809db2f8888489856040518563ffffffff1660e01b815260040180858152602001806020018060200180602001848103845287818151815260200191508051906020019080838360005b83811015610d62578082015181840152602081019050610d47565b50505050905090810190601f168015610d8f5780820380516001836020036101000a031916815260200191505b50848103835286818151815260200191508051906020019080838360005b83811015610dc8578082015181840152602081019050610dad565b50505050905090810190601f168015610df55780820380516001836020036101000a031916815260200191505b50848103825285818151815260200191508051906020019080838360005b83811015610e2e578082015181840152602081019050610e13565b50505050905090810190601f168015610e5b5780820380516001836020036101000a031916815260200191505b50975050505050505050600060405180830381600087803b158015610e7f57600080fd5b505af1158015610e93573d6000803e3d6000fd5b505050507f06d92c795d22bc2c448932e4aa8aca41db236001c756fef4e4d242c3e3c2e6d5876040518082815260200191505060405180910390a150505050505050565b823373ffffffffffffffffffffffffffffffffffffffff166000809054906101000a900473ffffffffffffffffffffffffffffffffffffffff1673ffffffffffffffffffffffffffffffffffffffff16637ace341b836040518263ffffffff1660e01b81526004018082815260200191505060206040518083038186803b158015610f6157600080fd5b505afa158015610f75573d6000803e3d6000fd5b505050506040513d6020811015610f8b57600080fd5b810190808051906020019092919050505073ffffffffffffffffffffffffffffffffffffffff1614610fbc57600080fd5b600015156000809054906101000a900473ffffffffffffffffffffffffffffffffffffffff1673ffffffffffffffffffffffffffffffffffffffff16631becaefb866040518263ffffffff1660e01b81526004018082815260200191505060206040518083038186803b15801561103257600080fd5b505afa158015611046573d6000803e3d6000fd5b505050506040513d602081101561105c57600080fd5b810190808051906020019092919050505015151461107957600080fd5b3073ffffffffffffffffffffffffffffffffffffffff166000809054906101000a900473ffffffffffffffffffffffffffffffffffffffff1673ffffffffffffffffffffffffffffffffffffffff16630772c45e866040518263ffffffff1660e01b81526004018082815260200191505060206040518083038186803b15801561110257600080fd5b505afa158015611116573d6000803e3d6000fd5b505050506040513d602081101561112c57600080fd5b810190808051906020019092919050505073ffffffffffffffffffffffffffffffffffffffff161461115d57600080fd5b600115156000809054906101000a900473ffffffffffffffffffffffffffffffffffffffff1673ffffffffffffffffffffffffffffffffffffffff166340889b4f866040518263ffffffff1660e01b81526004018082815260200191505060206040518083038186803b1580156111d357600080fd5b505afa1580156111e7573d6000803e3d6000fd5b505050506040513d60208110156111fd57600080fd5b810190808051906020019092919050505015151461121a57600080fd5b60608060606000809054906101000a900473ffffffffffffffffffffffffffffffffffffffff1673ffffffffffffffffffffffffffffffffffffffff166323bb1835886040518263ffffffff1660e01b81526004018082815260200191505060006040518083038186803b15801561129157600080fd5b505afa1580156112a5573d6000803e3d6000fd5b505050506040513d6000823e3d601f19601f8201168201806040525060608110156112cf57600080fd5b81019080805160405193929190846401000000008211156112ef57600080fd5b8382019150602082018581111561130557600080fd5b825186600182028301116401000000008211171561132257600080fd5b8083526020830192505050908051906020019080838360005b8381101561135657808201518184015260208101905061133b565b50505050905090810190601f1680156113835780820380516001836020036101000a031916815260200191505b50604052602001805160405193929190846401000000008211156113a657600080fd5b838201915060208201858111156113bc57600080fd5b82518660018202830111640100000000821117156113d957600080fd5b8083526020830192505050908051906020019080838360005b8381101561140d5780820151818401526020810190506113f2565b50505050905090810190601f16801561143a5780820380516001836020036101000a031916815260200191505b506040526020018051604051939291908464010000000082111561145d57600080fd5b8382019150602082018581111561147357600080fd5b825186600182028301116401000000008211171561149057600080fd5b8083526020830192505050908051906020019080838360005b838110156114c45780820151818401526020810190506114a9565b50505050905090810190601f1680156114f15780820380516001836020036101000a031916815260200191505b506040525050509250925092506000809054906101000a900473ffffffffffffffffffffffffffffffffffffffff1673ffffffffffffffffffffffffffffffffffffffff1663d88ee329888585856040518563ffffffff1660e01b815260040180858152602001806020018060200180602001848103845287818151815260200191508051906020019080838360005b8381101561159c578082015181840152602081019050611581565b50505050905090810190601f1680156115c95780820380516001836020036101000a031916815260200191505b50848103835286818151815260200191508051906020019080838360005b838110156116025780820151818401526020810190506115e7565b50505050905090810190601f16801561162f5780820380516001836020036101000a031916815260200191505b50848103825285818151815260200191508051906020019080838360005b8381101561166857808201518184015260208101905061164d565b50505050905090810190601f1680156116955780820380516001836020036101000a031916815260200191505b50975050505050505050600060405180830381600087803b1580156116b957600080fd5b505af11580156116cd573d6000803e3d6000fd5b505050506000809054906101000a900473ffffffffffffffffffffffffffffffffffffffff1673ffffffffffffffffffffffffffffffffffffffff1663809db2f88888886040518463ffffffff1660e01b815260040180848152602001806020018060200180602001848103845286818151815260200191508051906020019080838360005b8381101561176e578082015181840152602081019050611753565b50505050905090810190601f16801561179b5780820380516001836020036101000a031916815260200191505b50848103835260008152602001602001848103825285818151815260200191508051906020019080838360005b838110156117e35780820151818401526020810190506117c8565b50505050905090810190601f1680156118105780820380516001836020036101000a031916815260200191505b509650505050505050600060405180830381600087803b15801561183357600080fd5b505af1158015611847573d6000803e3d6000fd5b505050506000809054906101000a900473ffffffffffffffffffffffffffffffffffffffff1673ffffffffffffffffffffffffffffffffffffffff1663dcd9d2cb8860016040518363ffffffff1660e01b8152600401808381526020018215151515815260200192505050600060405180830381600087803b1580156118cc57600080fd5b505af11580156118e0573d6000803e3d6000fd5b505050506000809054906101000a900473ffffffffffffffffffffffffffffffffffffffff1673ffffffffffffffffffffffffffffffffffffffff16633d30ffb88860006040518363ffffffff1660e01b8152600401808381526020018215151515815260200192505050600060405180830381600087803b15801561196557600080fd5b505af1158015611979573d6000803e3d6000fd5b505050507f2ffc48f4ae90072b45426bc482d9ae940d820e9532910a3ca1d051006e3284d1876040518082815260200191505060405180910390a15050505050505056fea265627a7a72315820fc1f6cfe3f455d4f8f814e852272b6eb5726f5ad1b28baaff6ef1448657cf87564736f6c63430005100032",
  "source": "pragma solidity ^0.5.0;\n\nimport \"./Product.sol\";\nimport \"./GoodsDistributor.sol\";\n\ncontract Wholesaler {\n\n    //variables\n    Product productContract;\n    GoodsDistributor goodsDistributorContract;\n    address owner = msg.sender;\n\n    constructor(Product productAddress, GoodsDistributor goodsDistributorAddress) public {\n        productContract = productAddress;\n        goodsDistributorContract = goodsDistributorAddress;\n    }\n\n    //events\n    event buyWine(uint productId);\n    event wineReceived(uint productId);\n    event dispatchWine(uint productId);\n\n    //modifiers\n    modifier ownerOnly(uint256 productId) {\n        require(productContract.getCurrentOwner(productId) == msg.sender);\n        _;\n    }\n\n\n    //buy\n    // function buyWineFromGoodsDistributor(uint256 productId, string memory dispatchDate) public payable {\n    //     uint256 productPrice = productContract.getUnitPrice(productId) * productContract.getBatchQuantity(productId);\n    //     require(msg.value > productPrice, \"Insufficent amount to buy the wine\");\n    //     address payable targetAddress = address(uint160(productContract.getCurrentOwner(productId)));\n    //     targetAddress.transfer(productPrice);\n    // wineReceived(productId);\n\n    //     GoodsDistributorContract.disbatchWineToBulkDistributor(produceId, dispatchDate, msg.sender, address(this));\n\n    // }\n\n    //Receive From Filler/Packer\n    function receiveWine(\n        uint256 productId,\n        string memory currentLocation,\n        string memory arrivalDate\n    ) public ownerOnly(productId) {\n        require(productContract.getReceived(productId) == false);\n        require(productContract.getCurrentContractAddress(productId) == address(this));\n        require(productContract.getReadyToShip(productId) == true);\n        (string memory location, string memory dispatchDate, string memory prevArrivalDate) = productContract.getCurrentLocation(productId);\n        productContract.addPreviousLocation(productId, location, dispatchDate, prevArrivalDate);\n        productContract.setCurrentLocation(productId, currentLocation, \"\", arrivalDate);\n\n        productContract.setReceived(productId, true);\n        productContract.setReadyToShip(productId, false);\n\n        emit wineReceived(productId);\n    }\n\n    //Dispatch to Retailer\n    function disbatchWineToRetailer(uint256 productId, string memory newDisbatchDate, address retailerAddress, address retailerContractAddress) public ownerOnly(productId) {\n        require(productContract.getReadyToShip(productId) == true, \"Product not ready for shipping\");\n        require(productContract.getCurrentContractAddress(productId) == address(this));\n\n        productContract.setPreviousOwner(productId, productContract.getCurrentOwner(productId));\n        productContract.setCurrentOwner(productId, retailerAddress);\n\n        productContract.setPreviousContractAddress(productId, productContract.getCurrentContractAddress(productId));\n        productContract.setCurrentContractAddress(productId,retailerContractAddress);\n\n        (string memory location, ,string memory arrivalDate) = productContract.getCurrentLocation(productId);\n        productContract.setCurrentLocation(productId, location, newDisbatchDate, arrivalDate);\n\n        emit dispatchWine(productId);\n    }\n    \n}",
  "sourcePath": "/Users/jarrentoh/Documents/GitHub/Wine Supplychain Blockchain/contracts/Wholesaler.sol",
  "compiler": {
    "name": "solc",
    "version": "0.5.16+commit.9c3226ce.Emscripten.clang"
  },
  "schemaVersion": "3.4.11",
  "updatedAt": "2023-03-31T18:15:16.103Z",
  "devdoc": {
    "methods": {}
  },
  "userdoc": {
    "methods": {}
  }
}