{
  "contractName": "Wholesaler",
  "abi": [
    {
      "inputs": [
        {
          "internalType": "contract Product",
          "name": "productAddress",
          "type": "address"
        },
        {
          "internalType": "contract GoodsDistributor",
          "name": "goodsDistributorAddress",
          "type": "address"
        }
      ],
      "payable": false,
      "stateMutability": "nonpayable",
      "type": "constructor"
    },
    {
      "anonymous": false,
      "inputs": [
        {
          "indexed": false,
          "internalType": "uint256",
          "name": "productId",
          "type": "uint256"
        }
      ],
      "name": "buyWine",
      "type": "event"
    },
    {
      "anonymous": false,
      "inputs": [
        {
          "indexed": false,
          "internalType": "uint256",
          "name": "productId",
          "type": "uint256"
        }
      ],
      "name": "dispatchWine",
      "type": "event"
    },
    {
      "anonymous": false,
      "inputs": [
        {
          "indexed": false,
          "internalType": "uint256",
          "name": "productId",
          "type": "uint256"
        }
      ],
      "name": "readyToShip",
      "type": "event"
    },
    {
      "anonymous": false,
      "inputs": [
        {
          "indexed": false,
          "internalType": "uint256",
          "name": "productId",
          "type": "uint256"
        }
      ],
      "name": "returnedWine",
      "type": "event"
    },
    {
      "anonymous": false,
      "inputs": [
        {
          "indexed": false,
          "internalType": "uint256",
          "name": "productId",
          "type": "uint256"
        }
      ],
      "name": "wineReceived",
      "type": "event"
    },
    {
      "anonymous": false,
      "inputs": [
        {
          "indexed": false,
          "internalType": "uint256",
          "name": "productId",
          "type": "uint256"
        }
      ],
      "name": "wineRemoved",
      "type": "event"
    },
    {
      "constant": false,
      "inputs": [
        {
          "internalType": "uint256",
          "name": "productId",
          "type": "uint256"
        },
        {
          "internalType": "string",
          "name": "dispatchDate",
          "type": "string"
        }
      ],
      "name": "buyWineFromGoodsDistributor",
      "outputs": [],
      "payable": true,
      "stateMutability": "payable",
      "type": "function"
    },
    {
      "constant": false,
      "inputs": [
        {
          "internalType": "uint256",
          "name": "productId",
          "type": "uint256"
        }
      ],
      "name": "removeWine",
      "outputs": [],
      "payable": false,
      "stateMutability": "nonpayable",
      "type": "function"
    },
    {
      "constant": false,
      "inputs": [
        {
          "internalType": "uint256",
          "name": "productId",
          "type": "uint256"
        }
      ],
      "name": "materialReadyToShip",
      "outputs": [],
      "payable": false,
      "stateMutability": "nonpayable",
      "type": "function"
    },
    {
      "constant": false,
      "inputs": [
        {
          "internalType": "uint256",
          "name": "productId",
          "type": "uint256"
        },
        {
          "internalType": "string",
          "name": "currentLocation",
          "type": "string"
        },
        {
          "internalType": "string",
          "name": "arrivalDate",
          "type": "string"
        }
      ],
      "name": "receiveWine",
      "outputs": [],
      "payable": false,
      "stateMutability": "nonpayable",
      "type": "function"
    },
    {
      "constant": false,
      "inputs": [
        {
          "internalType": "uint256",
          "name": "productId",
          "type": "uint256"
        }
      ],
      "name": "returnWine",
      "outputs": [],
      "payable": true,
      "stateMutability": "payable",
      "type": "function"
    },
    {
      "constant": false,
      "inputs": [
        {
          "internalType": "uint256",
          "name": "productId",
          "type": "uint256"
        },
        {
          "internalType": "string",
          "name": "newDisbatchDate",
          "type": "string"
        },
        {
          "internalType": "address",
          "name": "retailerAddress",
          "type": "address"
        },
        {
          "internalType": "address",
          "name": "retailerContractAddress",
          "type": "address"
        }
      ],
      "name": "disbatchWineToRetailer",
      "outputs": [],
      "payable": false,
      "stateMutability": "nonpayable",
      "type": "function"
    }
  ],
  "bytecode": "0x608060405233600260006101000a81548173ffffffffffffffffffffffffffffffffffffffff021916908373ffffffffffffffffffffffffffffffffffffffff16021790555034801561005157600080fd5b506040516130d63803806130d68339818101604052604081101561007457600080fd5b810190808051906020019092919080519060200190929190505050816000806101000a81548173ffffffffffffffffffffffffffffffffffffffff021916908373ffffffffffffffffffffffffffffffffffffffff16021790555080600160006101000a81548173ffffffffffffffffffffffffffffffffffffffff021916908373ffffffffffffffffffffffffffffffffffffffff1602179055505050612fb5806101216000396000f3fe6080604052600436106100555760003560e01c806315bb14411461005a5780634cf29bbd146100955780639571e8e41461015a5780639b23d33e14610188578063ac4ce1311461029a578063c520924c146102d5575b600080fd5b34801561006657600080fd5b506100936004803603602081101561007d57600080fd5b810190808035906020019092919050505061043e565b005b610158600480360360408110156100ab57600080fd5b8101908080359060200190929190803590602001906401000000008111156100d257600080fd5b8201836020820111156100e457600080fd5b8035906020019184600183028401116401000000008311171561010657600080fd5b91908080601f016020809104026020016040519081016040528093929190818152602001838380828437600081840152601f19601f8201169050808301925050505050505091929192905050506105ea565b005b6101866004803603602081101561017057600080fd5b8101908080359060200190929190505050610a38565b005b34801561019457600080fd5b50610298600480360360808110156101ab57600080fd5b8101908080359060200190929190803590602001906401000000008111156101d257600080fd5b8201836020820111156101e457600080fd5b8035906020019184600183028401116401000000008311171561020657600080fd5b91908080601f016020809104026020016040519081016040528093929190818152602001838380828437600081840152601f19601f820116905080830192505050505050509192919290803573ffffffffffffffffffffffffffffffffffffffff169060200190929190803573ffffffffffffffffffffffffffffffffffffffff16906020019092919050505061149a565b005b3480156102a657600080fd5b506102d3600480360360208110156102bd57600080fd5b810190808035906020019092919050505061216e565b005b3480156102e157600080fd5b5061043c600480360360608110156102f857600080fd5b81019080803590602001909291908035906020019064010000000081111561031f57600080fd5b82018360208201111561033157600080fd5b8035906020019184600183028401116401000000008311171561035357600080fd5b91908080601f016020809104026020016040519081016040528093929190818152602001838380828437600081840152601f19601f820116905080830192505050505050509192919290803590602001906401000000008111156103b657600080fd5b8201836020820111156103c857600080fd5b803590602001918460018302840111640100000000831117156103ea57600080fd5b91908080601f016020809104026020016040519081016040528093929190818152602001838380828437600081840152601f19601f820116905080830192505050505050509192919290505050612430565b005b803373ffffffffffffffffffffffffffffffffffffffff166000809054906101000a900473ffffffffffffffffffffffffffffffffffffffff1673ffffffffffffffffffffffffffffffffffffffff16637ace341b836040518263ffffffff1660e01b81526004018082815260200191505060206040518083038186803b1580156104c857600080fd5b505afa1580156104dc573d6000803e3d6000fd5b505050506040513d60208110156104f257600080fd5b810190808051906020019092919050505073ffffffffffffffffffffffffffffffffffffffff161461052357600080fd5b6000809054906101000a900473ffffffffffffffffffffffffffffffffffffffff1673ffffffffffffffffffffffffffffffffffffffff16635ee95cae836040518263ffffffff1660e01b815260040180828152602001915050600060405180830381600087803b15801561059757600080fd5b505af11580156105ab573d6000803e3d6000fd5b505050507fa75642e219535e71f3332decace37ca196480295106318c0be229f8a4f4ae4f1826040518082815260200191505060405180910390a15050565b60008060009054906101000a900473ffffffffffffffffffffffffffffffffffffffff1673ffffffffffffffffffffffffffffffffffffffff1663fe73e86c846040518263ffffffff1660e01b81526004018082815260200191505060206040518083038186803b15801561065e57600080fd5b505afa158015610672573d6000803e3d6000fd5b505050506040513d602081101561068857600080fd5b81019080805190602001909291905050506000809054906101000a900473ffffffffffffffffffffffffffffffffffffffff1673ffffffffffffffffffffffffffffffffffffffff166364c0e52f856040518263ffffffff1660e01b81526004018082815260200191505060206040518083038186803b15801561070b57600080fd5b505afa15801561071f573d6000803e3d6000fd5b505050506040513d602081101561073557600080fd5b81019080805190602001909291905050500290508034116107a1576040517f08c379a0000000000000000000000000000000000000000000000000000000008152600401808060200182810382526022815260200180612f5f6022913960400191505060405180910390fd5b60008060009054906101000a900473ffffffffffffffffffffffffffffffffffffffff1673ffffffffffffffffffffffffffffffffffffffff16637ace341b856040518263ffffffff1660e01b81526004018082815260200191505060206040518083038186803b15801561081557600080fd5b505afa158015610829573d6000803e3d6000fd5b505050506040513d602081101561083f57600080fd5b810190808051906020019092919050505090508073ffffffffffffffffffffffffffffffffffffffff166108fc839081150290604051600060405180830381858888f19350505050158015610898573d6000803e3d6000fd5b50600160009054906101000a900473ffffffffffffffffffffffffffffffffffffffff1673ffffffffffffffffffffffffffffffffffffffff1663a4ac0239858533306040518563ffffffff1660e01b815260040180858152602001806020018473ffffffffffffffffffffffffffffffffffffffff1673ffffffffffffffffffffffffffffffffffffffff1681526020018373ffffffffffffffffffffffffffffffffffffffff1673ffffffffffffffffffffffffffffffffffffffff168152602001828103825285818151815260200191508051906020019080838360005b83811015610994578082015181840152602081019050610979565b50505050905090810190601f1680156109c15780820380516001836020036101000a031916815260200191505b5095505050505050600060405180830381600087803b1580156109e357600080fd5b505af11580156109f7573d6000803e3d6000fd5b505050507fcbcf23490ae6632fac22b556d6ce185e17c3f9b407892b6b2263979df21a60a6846040518082815260200191505060405180910390a150505050565b600115156000809054906101000a900473ffffffffffffffffffffffffffffffffffffffff1673ffffffffffffffffffffffffffffffffffffffff16631becaefb836040518263ffffffff1660e01b81526004018082815260200191505060206040518083038186803b158015610aae57600080fd5b505afa158015610ac2573d6000803e3d6000fd5b505050506040513d6020811015610ad857600080fd5b8101908080519060200190929190505050151514610b41576040517f08c379a0000000000000000000000000000000000000000000000000000000008152600401808060200182810382526023815260200180612f176023913960400191505060405180910390fd5b3373ffffffffffffffffffffffffffffffffffffffff166000809054906101000a900473ffffffffffffffffffffffffffffffffffffffff1673ffffffffffffffffffffffffffffffffffffffff166256856a836040518263ffffffff1660e01b81526004018082815260200191505060206040518083038186803b158015610bc957600080fd5b505afa158015610bdd573d6000803e3d6000fd5b505050506040513d6020811015610bf357600080fd5b810190808051906020019092919050505073ffffffffffffffffffffffffffffffffffffffff1614610c8d576040517f08c379a00000000000000000000000000000000000000000000000000000000081526004018080602001828103825260168152602001807f556e61626c6520746f20726566756e64206974656d730000000000000000000081525060200191505060405180910390fd5b60008060009054906101000a900473ffffffffffffffffffffffffffffffffffffffff1673ffffffffffffffffffffffffffffffffffffffff1663fe73e86c836040518263ffffffff1660e01b81526004018082815260200191505060206040518083038186803b158015610d0157600080fd5b505afa158015610d15573d6000803e3d6000fd5b505050506040513d6020811015610d2b57600080fd5b81019080805190602001909291905050506000809054906101000a900473ffffffffffffffffffffffffffffffffffffffff1673ffffffffffffffffffffffffffffffffffffffff166364c0e52f846040518263ffffffff1660e01b81526004018082815260200191505060206040518083038186803b158015610dae57600080fd5b505afa158015610dc2573d6000803e3d6000fd5b505050506040513d6020811015610dd857600080fd5b810190808051906020019092919050505002905080341015610e62576040517f08c379a000000000000000000000000000000000000000000000000000000000815260040180806020018281038252601d8152602001807f496e737566666963656e7420616d6f756e7420666f7220726566756e6400000081525060200191505060405180910390fd5b60008060009054906101000a900473ffffffffffffffffffffffffffffffffffffffff1673ffffffffffffffffffffffffffffffffffffffff16637ace341b846040518263ffffffff1660e01b81526004018082815260200191505060206040518083038186803b158015610ed657600080fd5b505afa158015610eea573d6000803e3d6000fd5b505050506040513d6020811015610f0057600080fd5b810190808051906020019092919050505090508073ffffffffffffffffffffffffffffffffffffffff166108fc839081150290604051600060405180830381858888f19350505050158015610f59573d6000803e3d6000fd5b506000809054906101000a900473ffffffffffffffffffffffffffffffffffffffff1673ffffffffffffffffffffffffffffffffffffffff16630cc91022846000809054906101000a900473ffffffffffffffffffffffffffffffffffffffff1673ffffffffffffffffffffffffffffffffffffffff16637ace341b876040518263ffffffff1660e01b81526004018082815260200191505060206040518083038186803b15801561100a57600080fd5b505afa15801561101e573d6000803e3d6000fd5b505050506040513d602081101561103457600080fd5b81019080805190602001909291905050506040518363ffffffff1660e01b8152600401808381526020018273ffffffffffffffffffffffffffffffffffffffff1673ffffffffffffffffffffffffffffffffffffffff16815260200192505050600060405180830381600087803b1580156110ae57600080fd5b505af11580156110c2573d6000803e3d6000fd5b505050506000809054906101000a900473ffffffffffffffffffffffffffffffffffffffff1673ffffffffffffffffffffffffffffffffffffffff16636c125a6b84336040518363ffffffff1660e01b8152600401808381526020018273ffffffffffffffffffffffffffffffffffffffff1673ffffffffffffffffffffffffffffffffffffffff16815260200192505050600060405180830381600087803b15801561116e57600080fd5b505af1158015611182573d6000803e3d6000fd5b505050506000809054906101000a900473ffffffffffffffffffffffffffffffffffffffff1673ffffffffffffffffffffffffffffffffffffffff166391f4caca846000809054906101000a900473ffffffffffffffffffffffffffffffffffffffff1673ffffffffffffffffffffffffffffffffffffffff16630772c45e876040518263ffffffff1660e01b81526004018082815260200191505060206040518083038186803b15801561123657600080fd5b505afa15801561124a573d6000803e3d6000fd5b505050506040513d602081101561126057600080fd5b81019080805190602001909291905050506040518363ffffffff1660e01b8152600401808381526020018273ffffffffffffffffffffffffffffffffffffffff1673ffffffffffffffffffffffffffffffffffffffff16815260200192505050600060405180830381600087803b1580156112da57600080fd5b505af11580156112ee573d6000803e3d6000fd5b505050506000809054906101000a900473ffffffffffffffffffffffffffffffffffffffff1673ffffffffffffffffffffffffffffffffffffffff166358ff352a846000809054906101000a900473ffffffffffffffffffffffffffffffffffffffff1673ffffffffffffffffffffffffffffffffffffffff16635e478e6c876040518263ffffffff1660e01b81526004018082815260200191505060206040518083038186803b1580156113a257600080fd5b505afa1580156113b6573d6000803e3d6000fd5b505050506040513d60208110156113cc57600080fd5b81019080805190602001909291905050506040518363ffffffff1660e01b8152600401808381526020018273ffffffffffffffffffffffffffffffffffffffff1673ffffffffffffffffffffffffffffffffffffffff16815260200192505050600060405180830381600087803b15801561144657600080fd5b505af115801561145a573d6000803e3d6000fd5b505050507f5e9bb8415726e0b11d7b932dbb364eb215405ab788599166da87c7cb5ef7b589836040518082815260200191505060405180910390a1505050565b833373ffffffffffffffffffffffffffffffffffffffff166000809054906101000a900473ffffffffffffffffffffffffffffffffffffffff1673ffffffffffffffffffffffffffffffffffffffff16637ace341b836040518263ffffffff1660e01b81526004018082815260200191505060206040518083038186803b15801561152457600080fd5b505afa158015611538573d6000803e3d6000fd5b505050506040513d602081101561154e57600080fd5b810190808051906020019092919050505073ffffffffffffffffffffffffffffffffffffffff161461157f57600080fd5b600115156000809054906101000a900473ffffffffffffffffffffffffffffffffffffffff1673ffffffffffffffffffffffffffffffffffffffff166340889b4f876040518263ffffffff1660e01b81526004018082815260200191505060206040518083038186803b1580156115f557600080fd5b505afa158015611609573d6000803e3d6000fd5b505050506040513d602081101561161f57600080fd5b81019080805190602001909291905050501515146116a5576040517f08c379a000000000000000000000000000000000000000000000000000000000815260040180806020018281038252601e8152602001807f50726f64756374206e6f7420726561647920666f72207368697070696e67000081525060200191505060405180910390fd5b3073ffffffffffffffffffffffffffffffffffffffff166000809054906101000a900473ffffffffffffffffffffffffffffffffffffffff1673ffffffffffffffffffffffffffffffffffffffff16630772c45e876040518263ffffffff1660e01b81526004018082815260200191505060206040518083038186803b15801561172e57600080fd5b505afa158015611742573d6000803e3d6000fd5b505050506040513d602081101561175857600080fd5b810190808051906020019092919050505073ffffffffffffffffffffffffffffffffffffffff161461178957600080fd5b6000809054906101000a900473ffffffffffffffffffffffffffffffffffffffff1673ffffffffffffffffffffffffffffffffffffffff16630cc91022866000809054906101000a900473ffffffffffffffffffffffffffffffffffffffff1673ffffffffffffffffffffffffffffffffffffffff16637ace341b896040518263ffffffff1660e01b81526004018082815260200191505060206040518083038186803b15801561183957600080fd5b505afa15801561184d573d6000803e3d6000fd5b505050506040513d602081101561186357600080fd5b81019080805190602001909291905050506040518363ffffffff1660e01b8152600401808381526020018273ffffffffffffffffffffffffffffffffffffffff1673ffffffffffffffffffffffffffffffffffffffff16815260200192505050600060405180830381600087803b1580156118dd57600080fd5b505af11580156118f1573d6000803e3d6000fd5b505050506000809054906101000a900473ffffffffffffffffffffffffffffffffffffffff1673ffffffffffffffffffffffffffffffffffffffff16636c125a6b86856040518363ffffffff1660e01b8152600401808381526020018273ffffffffffffffffffffffffffffffffffffffff1673ffffffffffffffffffffffffffffffffffffffff16815260200192505050600060405180830381600087803b15801561199d57600080fd5b505af11580156119b1573d6000803e3d6000fd5b505050506000809054906101000a900473ffffffffffffffffffffffffffffffffffffffff1673ffffffffffffffffffffffffffffffffffffffff166391f4caca866000809054906101000a900473ffffffffffffffffffffffffffffffffffffffff1673ffffffffffffffffffffffffffffffffffffffff16630772c45e896040518263ffffffff1660e01b81526004018082815260200191505060206040518083038186803b158015611a6557600080fd5b505afa158015611a79573d6000803e3d6000fd5b505050506040513d6020811015611a8f57600080fd5b81019080805190602001909291905050506040518363ffffffff1660e01b8152600401808381526020018273ffffffffffffffffffffffffffffffffffffffff1673ffffffffffffffffffffffffffffffffffffffff16815260200192505050600060405180830381600087803b158015611b0957600080fd5b505af1158015611b1d573d6000803e3d6000fd5b505050506000809054906101000a900473ffffffffffffffffffffffffffffffffffffffff1673ffffffffffffffffffffffffffffffffffffffff166358ff352a86846040518363ffffffff1660e01b8152600401808381526020018273ffffffffffffffffffffffffffffffffffffffff1673ffffffffffffffffffffffffffffffffffffffff16815260200192505050600060405180830381600087803b158015611bc957600080fd5b505af1158015611bdd573d6000803e3d6000fd5b505050506060806000809054906101000a900473ffffffffffffffffffffffffffffffffffffffff1673ffffffffffffffffffffffffffffffffffffffff166323bb1835886040518263ffffffff1660e01b81526004018082815260200191505060006040518083038186803b158015611c5657600080fd5b505afa158015611c6a573d6000803e3d6000fd5b505050506040513d6000823e3d601f19601f820116820180604052506060811015611c9457600080fd5b8101908080516040519392919084640100000000821115611cb457600080fd5b83820191506020820185811115611cca57600080fd5b8251866001820283011164010000000082111715611ce757600080fd5b8083526020830192505050908051906020019080838360005b83811015611d1b578082015181840152602081019050611d00565b50505050905090810190601f168015611d485780820380516001836020036101000a031916815260200191505b5060405260200180516040519392919084640100000000821115611d6b57600080fd5b83820191506020820185811115611d8157600080fd5b8251866001820283011164010000000082111715611d9e57600080fd5b8083526020830192505050908051906020019080838360005b83811015611dd2578082015181840152602081019050611db7565b50505050905090810190601f168015611dff5780820380516001836020036101000a031916815260200191505b5060405260200180516040519392919084640100000000821115611e2257600080fd5b83820191506020820185811115611e3857600080fd5b8251866001820283011164010000000082111715611e5557600080fd5b8083526020830192505050908051906020019080838360005b83811015611e89578082015181840152602081019050611e6e565b50505050905090810190601f168015611eb65780820380516001836020036101000a031916815260200191505b5060405250505092505091506000809054906101000a900473ffffffffffffffffffffffffffffffffffffffff1673ffffffffffffffffffffffffffffffffffffffff1663809db2f8888489856040518563ffffffff1660e01b815260040180858152602001806020018060200180602001848103845287818151815260200191508051906020019080838360005b83811015611f60578082015181840152602081019050611f45565b50505050905090810190601f168015611f8d5780820380516001836020036101000a031916815260200191505b50848103835286818151815260200191508051906020019080838360005b83811015611fc6578082015181840152602081019050611fab565b50505050905090810190601f168015611ff35780820380516001836020036101000a031916815260200191505b50848103825285818151815260200191508051906020019080838360005b8381101561202c578082015181840152602081019050612011565b50505050905090810190601f1680156120595780820380516001836020036101000a031916815260200191505b50975050505050505050600060405180830381600087803b15801561207d57600080fd5b505af1158015612091573d6000803e3d6000fd5b505050506000809054906101000a900473ffffffffffffffffffffffffffffffffffffffff1673ffffffffffffffffffffffffffffffffffffffff1663dcd9d2cb8860006040518363ffffffff1660e01b8152600401808381526020018215151515815260200192505050600060405180830381600087803b15801561211657600080fd5b505af115801561212a573d6000803e3d6000fd5b505050507f06d92c795d22bc2c448932e4aa8aca41db236001c756fef4e4d242c3e3c2e6d5876040518082815260200191505060405180910390a150505050505050565b803373ffffffffffffffffffffffffffffffffffffffff166000809054906101000a900473ffffffffffffffffffffffffffffffffffffffff1673ffffffffffffffffffffffffffffffffffffffff16637ace341b836040518263ffffffff1660e01b81526004018082815260200191505060206040518083038186803b1580156121f857600080fd5b505afa15801561220c573d6000803e3d6000fd5b505050506040513d602081101561222257600080fd5b810190808051906020019092919050505073ffffffffffffffffffffffffffffffffffffffff161461225357600080fd5b600015156000809054906101000a900473ffffffffffffffffffffffffffffffffffffffff1673ffffffffffffffffffffffffffffffffffffffff166340889b4f846040518263ffffffff1660e01b81526004018082815260200191505060206040518083038186803b1580156122c957600080fd5b505afa1580156122dd573d6000803e3d6000fd5b505050506040513d60208110156122f357600080fd5b810190808051906020019092919050505015151461235c576040517f08c379a0000000000000000000000000000000000000000000000000000000008152600401808060200182810382526025815260200180612f3a6025913960400191505060405180910390fd5b6000809054906101000a900473ffffffffffffffffffffffffffffffffffffffff1673ffffffffffffffffffffffffffffffffffffffff16633d30ffb88360016040518363ffffffff1660e01b8152600401808381526020018215151515815260200192505050600060405180830381600087803b1580156123dd57600080fd5b505af11580156123f1573d6000803e3d6000fd5b505050507fc76d524326b4807c4e4275ea4e58637bf5a24c4894b324420b362761ccd8fd16826040518082815260200191505060405180910390a15050565b823373ffffffffffffffffffffffffffffffffffffffff166000809054906101000a900473ffffffffffffffffffffffffffffffffffffffff1673ffffffffffffffffffffffffffffffffffffffff16637ace341b836040518263ffffffff1660e01b81526004018082815260200191505060206040518083038186803b1580156124ba57600080fd5b505afa1580156124ce573d6000803e3d6000fd5b505050506040513d60208110156124e457600080fd5b810190808051906020019092919050505073ffffffffffffffffffffffffffffffffffffffff161461251557600080fd5b600015156000809054906101000a900473ffffffffffffffffffffffffffffffffffffffff1673ffffffffffffffffffffffffffffffffffffffff16631becaefb866040518263ffffffff1660e01b81526004018082815260200191505060206040518083038186803b15801561258b57600080fd5b505afa15801561259f573d6000803e3d6000fd5b505050506040513d60208110156125b557600080fd5b81019080805190602001909291905050501515146125d257600080fd5b3073ffffffffffffffffffffffffffffffffffffffff166000809054906101000a900473ffffffffffffffffffffffffffffffffffffffff1673ffffffffffffffffffffffffffffffffffffffff16630772c45e866040518263ffffffff1660e01b81526004018082815260200191505060206040518083038186803b15801561265b57600080fd5b505afa15801561266f573d6000803e3d6000fd5b505050506040513d602081101561268557600080fd5b810190808051906020019092919050505073ffffffffffffffffffffffffffffffffffffffff16146126b657600080fd5b600115156000809054906101000a900473ffffffffffffffffffffffffffffffffffffffff1673ffffffffffffffffffffffffffffffffffffffff166340889b4f866040518263ffffffff1660e01b81526004018082815260200191505060206040518083038186803b15801561272c57600080fd5b505afa158015612740573d6000803e3d6000fd5b505050506040513d602081101561275657600080fd5b810190808051906020019092919050505015151461277357600080fd5b60608060606000809054906101000a900473ffffffffffffffffffffffffffffffffffffffff1673ffffffffffffffffffffffffffffffffffffffff166323bb1835886040518263ffffffff1660e01b81526004018082815260200191505060006040518083038186803b1580156127ea57600080fd5b505afa1580156127fe573d6000803e3d6000fd5b505050506040513d6000823e3d601f19601f82011682018060405250606081101561282857600080fd5b810190808051604051939291908464010000000082111561284857600080fd5b8382019150602082018581111561285e57600080fd5b825186600182028301116401000000008211171561287b57600080fd5b8083526020830192505050908051906020019080838360005b838110156128af578082015181840152602081019050612894565b50505050905090810190601f1680156128dc5780820380516001836020036101000a031916815260200191505b50604052602001805160405193929190846401000000008211156128ff57600080fd5b8382019150602082018581111561291557600080fd5b825186600182028301116401000000008211171561293257600080fd5b8083526020830192505050908051906020019080838360005b8381101561296657808201518184015260208101905061294b565b50505050905090810190601f1680156129935780820380516001836020036101000a031916815260200191505b50604052602001805160405193929190846401000000008211156129b657600080fd5b838201915060208201858111156129cc57600080fd5b82518660018202830111640100000000821117156129e957600080fd5b8083526020830192505050908051906020019080838360005b83811015612a1d578082015181840152602081019050612a02565b50505050905090810190601f168015612a4a5780820380516001836020036101000a031916815260200191505b506040525050509250925092506000809054906101000a900473ffffffffffffffffffffffffffffffffffffffff1673ffffffffffffffffffffffffffffffffffffffff1663d88ee329888585856040518563ffffffff1660e01b815260040180858152602001806020018060200180602001848103845287818151815260200191508051906020019080838360005b83811015612af5578082015181840152602081019050612ada565b50505050905090810190601f168015612b225780820380516001836020036101000a031916815260200191505b50848103835286818151815260200191508051906020019080838360005b83811015612b5b578082015181840152602081019050612b40565b50505050905090810190601f168015612b885780820380516001836020036101000a031916815260200191505b50848103825285818151815260200191508051906020019080838360005b83811015612bc1578082015181840152602081019050612ba6565b50505050905090810190601f168015612bee5780820380516001836020036101000a031916815260200191505b50975050505050505050600060405180830381600087803b158015612c1257600080fd5b505af1158015612c26573d6000803e3d6000fd5b505050506000809054906101000a900473ffffffffffffffffffffffffffffffffffffffff1673ffffffffffffffffffffffffffffffffffffffff1663809db2f88888886040518463ffffffff1660e01b815260040180848152602001806020018060200180602001848103845286818151815260200191508051906020019080838360005b83811015612cc7578082015181840152602081019050612cac565b50505050905090810190601f168015612cf45780820380516001836020036101000a031916815260200191505b50848103835260008152602001602001848103825285818151815260200191508051906020019080838360005b83811015612d3c578082015181840152602081019050612d21565b50505050905090810190601f168015612d695780820380516001836020036101000a031916815260200191505b509650505050505050600060405180830381600087803b158015612d8c57600080fd5b505af1158015612da0573d6000803e3d6000fd5b505050506000809054906101000a900473ffffffffffffffffffffffffffffffffffffffff1673ffffffffffffffffffffffffffffffffffffffff1663dcd9d2cb8860016040518363ffffffff1660e01b8152600401808381526020018215151515815260200192505050600060405180830381600087803b158015612e2557600080fd5b505af1158015612e39573d6000803e3d6000fd5b505050506000809054906101000a900473ffffffffffffffffffffffffffffffffffffffff1673ffffffffffffffffffffffffffffffffffffffff16633d30ffb88860006040518363ffffffff1660e01b8152600401808381526020018215151515815260200192505050600060405180830381600087803b158015612ebe57600080fd5b505af1158015612ed2573d6000803e3d6000fd5b505050507f2ffc48f4ae90072b45426bc482d9ae940d820e9532910a3ca1d051006e3284d1876040518082815260200191505060405180910390a15050505050505056fe57696e65206973206e6f742079657420726563656976656420666f722072657475726e50726f6475637420697320616c726561647920726561647920666f72207368697070696e67496e737566666963656e7420616d6f756e7420746f20627579207468652077696e65a265627a7a7231582076063a46146d9d6101cf01f83ab8f45b433bff05acd65d3aa76c886c9721639564736f6c63430005100032",
  "source": "pragma solidity ^0.5.0;\n\nimport \"./Product.sol\";\nimport \"./GoodsDistributor.sol\";\n\ncontract Wholesaler {\n\n    //variables\n    Product productContract;\n    GoodsDistributor goodsDistributorContract;\n    address owner = msg.sender;\n\n    constructor(Product productAddress, GoodsDistributor goodsDistributorAddress) public {\n        productContract = productAddress;\n        goodsDistributorContract = goodsDistributorAddress;\n    }\n\n    //events\n    event buyWine(uint productId);\n    event wineReceived(uint productId);\n    event dispatchWine(uint productId);\n    event readyToShip(uint productId);\n    event returnedWine(uint productId);\n    event wineRemoved(uint productId);\n    \n    //modifiers\n    modifier ownerOnly(uint256 productId) {\n        require(productContract.getCurrentOwner(productId) == msg.sender);\n        _;\n    }\n\n\n    //buy\n    function buyWineFromGoodsDistributor(uint256 productId, string memory dispatchDate) public payable {\n        uint256 productPrice = productContract.getUnitPrice(productId) * productContract.getBatchQuantity(productId);\n        require(msg.value > productPrice, \"Insufficent amount to buy the wine\");\n        address payable targetAddress = address(uint160(productContract.getCurrentOwner(productId)));\n        targetAddress.transfer(productPrice);\n\n        goodsDistributorContract.disbatchWineToWholesaler(productId, dispatchDate, msg.sender, address(this));\n        emit buyWine(productId);\n\n    }\n\n    function removeWine(uint256 productId) public ownerOnly(productId) {\n        productContract.removeProduct(productId);\n        emit wineRemoved(productId);\n    }\n\n    function materialReadyToShip(uint256 productId) public ownerOnly(productId) {\n        require(productContract.getReadyToShip(productId) == false, \"Product is already ready for shipping\");\n        productContract.setReadyToShip(productId, true);\n\n        emit readyToShip(productId);\n    }\n\n    //Receive From Filler/Packer\n    function receiveWine(\n        uint256 productId,\n        string memory currentLocation,\n        string memory arrivalDate\n    ) public ownerOnly(productId) {\n        require(productContract.getReceived(productId) == false);\n        require(productContract.getCurrentContractAddress(productId) == address(this));\n        require(productContract.getReadyToShip(productId) == true);\n        (string memory location, string memory dispatchDate, string memory prevArrivalDate) = productContract.getCurrentLocation(productId);\n        productContract.addPreviousLocation(productId, location, dispatchDate, prevArrivalDate);\n        productContract.setCurrentLocation(productId, currentLocation, \"\", arrivalDate);\n\n        productContract.setReceived(productId, true);\n        productContract.setReadyToShip(productId, false);\n\n        emit wineReceived(productId);\n    }\n\n    function returnWine(uint256 productId) public payable {\n\n        require(productContract.getReceived(productId) == true, \"Wine is not yet received for return\");\n        require(productContract.getPreviousOwner(productId) == msg.sender, \"Unable to refund items\");\n\n        uint256 productPrice = productContract.getUnitPrice(productId) * productContract.getBatchQuantity(productId);\n        require(msg.value >= productPrice, \"Insufficent amount for refund\");\n        address payable targetAddress = address(uint160(productContract.getCurrentOwner(productId)));\n        targetAddress.transfer(productPrice);\n\n        productContract.setPreviousOwner(productId, productContract.getCurrentOwner(productId));\n        productContract.setCurrentOwner(productId, msg.sender);\n        productContract.setPreviousContractAddress(productId, productContract.getCurrentContractAddress(productId));\n        productContract.setCurrentContractAddress(productId, productContract.getPreviousContractAddress(productId));\n\n        emit returnedWine(productId);\n    }\n\n    //Dispatch to Retailer\n    function disbatchWineToRetailer(uint256 productId, string memory newDisbatchDate, address retailerAddress, address retailerContractAddress) public ownerOnly(productId) {\n        require(productContract.getReadyToShip(productId) == true, \"Product not ready for shipping\");\n        require(productContract.getCurrentContractAddress(productId) == address(this));\n\n        productContract.setPreviousOwner(productId, productContract.getCurrentOwner(productId));\n        productContract.setCurrentOwner(productId, retailerAddress);\n\n        productContract.setPreviousContractAddress(productId, productContract.getCurrentContractAddress(productId));\n        productContract.setCurrentContractAddress(productId,retailerContractAddress);\n\n        (string memory location, ,string memory arrivalDate) = productContract.getCurrentLocation(productId);\n        productContract.setCurrentLocation(productId, location, newDisbatchDate, arrivalDate);\n\n        productContract.setReceived(productId, false);\n\n        emit dispatchWine(productId);\n    }\n    \n}",
  "sourcePath": "/Users/kathleen/IS4302/Project/Wine-Supplychain-Blockchain/contracts/Wholesaler.sol",
  "compiler": {
    "name": "solc",
    "version": "0.5.16+commit.9c3226ce.Emscripten.clang"
  },
  "schemaVersion": "3.4.11",
  "updatedAt": "2023-04-08T04:13:37.063Z",
  "devdoc": {
    "methods": {}
  },
  "userdoc": {
    "methods": {}
  }
}