{
  "contractName": "Wholesaler",
  "abi": [
    {
      "inputs": [
        {
          "internalType": "contract Product",
          "name": "productAddress",
          "type": "address"
        },
        {
          "internalType": "contract GoodsDistributor",
          "name": "goodsDistributorAddress",
          "type": "address"
        }
      ],
      "payable": false,
      "stateMutability": "nonpayable",
      "type": "constructor"
    },
    {
      "anonymous": false,
      "inputs": [
        {
          "indexed": false,
          "internalType": "uint256",
          "name": "productId",
          "type": "uint256"
        }
      ],
      "name": "buyWine",
      "type": "event"
    },
    {
      "anonymous": false,
      "inputs": [
        {
          "indexed": false,
          "internalType": "uint256",
          "name": "productId",
          "type": "uint256"
        }
      ],
      "name": "dispatchWine",
      "type": "event"
    },
    {
      "anonymous": false,
      "inputs": [
        {
          "indexed": false,
          "internalType": "uint256",
          "name": "productId",
          "type": "uint256"
        }
      ],
      "name": "wineReceived",
      "type": "event"
    },
    {
      "constant": false,
      "inputs": [
        {
          "internalType": "uint256",
          "name": "productId",
          "type": "uint256"
        }
      ],
      "name": "materialReadyToShip",
      "outputs": [],
      "payable": false,
      "stateMutability": "nonpayable",
      "type": "function"
    },
    {
      "constant": false,
      "inputs": [
        {
          "internalType": "uint256",
          "name": "productId",
          "type": "uint256"
        },
        {
          "internalType": "string",
          "name": "currentLocation",
          "type": "string"
        },
        {
          "internalType": "string",
          "name": "arrivalDate",
          "type": "string"
        }
      ],
      "name": "receiveWine",
      "outputs": [],
      "payable": false,
      "stateMutability": "nonpayable",
      "type": "function"
    },
    {
      "constant": false,
      "inputs": [
        {
          "internalType": "uint256",
          "name": "productId",
          "type": "uint256"
        },
        {
          "internalType": "string",
          "name": "newDisbatchDate",
          "type": "string"
        },
        {
          "internalType": "address",
          "name": "retailerAddress",
          "type": "address"
        },
        {
          "internalType": "address",
          "name": "retailerContractAddress",
          "type": "address"
        }
      ],
      "name": "disbatchWineToRetailer",
      "outputs": [],
      "payable": false,
      "stateMutability": "nonpayable",
      "type": "function"
    }
  ],
  "bytecode": "0x608060405233600260006101000a81548173ffffffffffffffffffffffffffffffffffffffff021916908373ffffffffffffffffffffffffffffffffffffffff16021790555034801561005157600080fd5b50604051611dfc380380611dfc8339818101604052604081101561007457600080fd5b810190808051906020019092919080519060200190929190505050816000806101000a81548173ffffffffffffffffffffffffffffffffffffffff021916908373ffffffffffffffffffffffffffffffffffffffff16021790555080600160006101000a81548173ffffffffffffffffffffffffffffffffffffffff021916908373ffffffffffffffffffffffffffffffffffffffff1602179055505050611cdb806101216000396000f3fe608060405234801561001057600080fd5b50600436106100415760003560e01c80639b23d33e14610046578063ac4ce1311461014b578063c520924c14610179575b600080fd5b6101496004803603608081101561005c57600080fd5b81019080803590602001909291908035906020019064010000000081111561008357600080fd5b82018360208201111561009557600080fd5b803590602001918460018302840111640100000000831117156100b757600080fd5b91908080601f016020809104026020016040519081016040528093929190818152602001838380828437600081840152601f19601f820116905080830192505050505050509192919290803573ffffffffffffffffffffffffffffffffffffffff169060200190929190803573ffffffffffffffffffffffffffffffffffffffff1690602001909291905050506102d5565b005b6101776004803603602081101561016157600080fd5b8101908080359060200190929190505050610f10565b005b6102d36004803603606081101561018f57600080fd5b8101908080359060200190929190803590602001906401000000008111156101b657600080fd5b8201836020820111156101c857600080fd5b803590602001918460018302840111640100000000831117156101ea57600080fd5b91908080601f016020809104026020016040519081016040528093929190818152602001838380828437600081840152601f19601f8201169050808301925050505050505091929192908035906020019064010000000081111561024d57600080fd5b82018360208201111561025f57600080fd5b8035906020019184600183028401116401000000008311171561028157600080fd5b91908080601f016020809104026020016040519081016040528093929190818152602001838380828437600081840152601f19601f82011690508083019250505050505050919291929050505061119b565b005b833373ffffffffffffffffffffffffffffffffffffffff166000809054906101000a900473ffffffffffffffffffffffffffffffffffffffff1673ffffffffffffffffffffffffffffffffffffffff16637ace341b836040518263ffffffff1660e01b81526004018082815260200191505060206040518083038186803b15801561035f57600080fd5b505afa158015610373573d6000803e3d6000fd5b505050506040513d602081101561038957600080fd5b810190808051906020019092919050505073ffffffffffffffffffffffffffffffffffffffff16146103ba57600080fd5b600115156000809054906101000a900473ffffffffffffffffffffffffffffffffffffffff1673ffffffffffffffffffffffffffffffffffffffff166340889b4f876040518263ffffffff1660e01b81526004018082815260200191505060206040518083038186803b15801561043057600080fd5b505afa158015610444573d6000803e3d6000fd5b505050506040513d602081101561045a57600080fd5b81019080805190602001909291905050501515146104e0576040517f08c379a000000000000000000000000000000000000000000000000000000000815260040180806020018281038252601e8152602001807f50726f64756374206e6f7420726561647920666f72207368697070696e67000081525060200191505060405180910390fd5b3073ffffffffffffffffffffffffffffffffffffffff166000809054906101000a900473ffffffffffffffffffffffffffffffffffffffff1673ffffffffffffffffffffffffffffffffffffffff16630772c45e876040518263ffffffff1660e01b81526004018082815260200191505060206040518083038186803b15801561056957600080fd5b505afa15801561057d573d6000803e3d6000fd5b505050506040513d602081101561059357600080fd5b810190808051906020019092919050505073ffffffffffffffffffffffffffffffffffffffff16146105c457600080fd5b6000809054906101000a900473ffffffffffffffffffffffffffffffffffffffff1673ffffffffffffffffffffffffffffffffffffffff16630cc91022866000809054906101000a900473ffffffffffffffffffffffffffffffffffffffff1673ffffffffffffffffffffffffffffffffffffffff16637ace341b896040518263ffffffff1660e01b81526004018082815260200191505060206040518083038186803b15801561067457600080fd5b505afa158015610688573d6000803e3d6000fd5b505050506040513d602081101561069e57600080fd5b81019080805190602001909291905050506040518363ffffffff1660e01b8152600401808381526020018273ffffffffffffffffffffffffffffffffffffffff1673ffffffffffffffffffffffffffffffffffffffff16815260200192505050600060405180830381600087803b15801561071857600080fd5b505af115801561072c573d6000803e3d6000fd5b505050506000809054906101000a900473ffffffffffffffffffffffffffffffffffffffff1673ffffffffffffffffffffffffffffffffffffffff16636c125a6b86856040518363ffffffff1660e01b8152600401808381526020018273ffffffffffffffffffffffffffffffffffffffff1673ffffffffffffffffffffffffffffffffffffffff16815260200192505050600060405180830381600087803b1580156107d857600080fd5b505af11580156107ec573d6000803e3d6000fd5b505050506000809054906101000a900473ffffffffffffffffffffffffffffffffffffffff1673ffffffffffffffffffffffffffffffffffffffff166391f4caca866000809054906101000a900473ffffffffffffffffffffffffffffffffffffffff1673ffffffffffffffffffffffffffffffffffffffff16630772c45e896040518263ffffffff1660e01b81526004018082815260200191505060206040518083038186803b1580156108a057600080fd5b505afa1580156108b4573d6000803e3d6000fd5b505050506040513d60208110156108ca57600080fd5b81019080805190602001909291905050506040518363ffffffff1660e01b8152600401808381526020018273ffffffffffffffffffffffffffffffffffffffff1673ffffffffffffffffffffffffffffffffffffffff16815260200192505050600060405180830381600087803b15801561094457600080fd5b505af1158015610958573d6000803e3d6000fd5b505050506000809054906101000a900473ffffffffffffffffffffffffffffffffffffffff1673ffffffffffffffffffffffffffffffffffffffff166358ff352a86846040518363ffffffff1660e01b8152600401808381526020018273ffffffffffffffffffffffffffffffffffffffff1673ffffffffffffffffffffffffffffffffffffffff16815260200192505050600060405180830381600087803b158015610a0457600080fd5b505af1158015610a18573d6000803e3d6000fd5b505050506060806000809054906101000a900473ffffffffffffffffffffffffffffffffffffffff1673ffffffffffffffffffffffffffffffffffffffff166323bb1835886040518263ffffffff1660e01b81526004018082815260200191505060006040518083038186803b158015610a9157600080fd5b505afa158015610aa5573d6000803e3d6000fd5b505050506040513d6000823e3d601f19601f820116820180604052506060811015610acf57600080fd5b8101908080516040519392919084640100000000821115610aef57600080fd5b83820191506020820185811115610b0557600080fd5b8251866001820283011164010000000082111715610b2257600080fd5b8083526020830192505050908051906020019080838360005b83811015610b56578082015181840152602081019050610b3b565b50505050905090810190601f168015610b835780820380516001836020036101000a031916815260200191505b5060405260200180516040519392919084640100000000821115610ba657600080fd5b83820191506020820185811115610bbc57600080fd5b8251866001820283011164010000000082111715610bd957600080fd5b8083526020830192505050908051906020019080838360005b83811015610c0d578082015181840152602081019050610bf2565b50505050905090810190601f168015610c3a5780820380516001836020036101000a031916815260200191505b5060405260200180516040519392919084640100000000821115610c5d57600080fd5b83820191506020820185811115610c7357600080fd5b8251866001820283011164010000000082111715610c9057600080fd5b8083526020830192505050908051906020019080838360005b83811015610cc4578082015181840152602081019050610ca9565b50505050905090810190601f168015610cf15780820380516001836020036101000a031916815260200191505b5060405250505092505091506000809054906101000a900473ffffffffffffffffffffffffffffffffffffffff1673ffffffffffffffffffffffffffffffffffffffff1663809db2f8888489856040518563ffffffff1660e01b815260040180858152602001806020018060200180602001848103845287818151815260200191508051906020019080838360005b83811015610d9b578082015181840152602081019050610d80565b50505050905090810190601f168015610dc85780820380516001836020036101000a031916815260200191505b50848103835286818151815260200191508051906020019080838360005b83811015610e01578082015181840152602081019050610de6565b50505050905090810190601f168015610e2e5780820380516001836020036101000a031916815260200191505b50848103825285818151815260200191508051906020019080838360005b83811015610e67578082015181840152602081019050610e4c565b50505050905090810190601f168015610e945780820380516001836020036101000a031916815260200191505b50975050505050505050600060405180830381600087803b158015610eb857600080fd5b505af1158015610ecc573d6000803e3d6000fd5b505050507f06d92c795d22bc2c448932e4aa8aca41db236001c756fef4e4d242c3e3c2e6d5876040518082815260200191505060405180910390a150505050505050565b803373ffffffffffffffffffffffffffffffffffffffff166000809054906101000a900473ffffffffffffffffffffffffffffffffffffffff1673ffffffffffffffffffffffffffffffffffffffff16637ace341b836040518263ffffffff1660e01b81526004018082815260200191505060206040518083038186803b158015610f9a57600080fd5b505afa158015610fae573d6000803e3d6000fd5b505050506040513d6020811015610fc457600080fd5b810190808051906020019092919050505073ffffffffffffffffffffffffffffffffffffffff1614610ff557600080fd5b600015156000809054906101000a900473ffffffffffffffffffffffffffffffffffffffff1673ffffffffffffffffffffffffffffffffffffffff166340889b4f846040518263ffffffff1660e01b81526004018082815260200191505060206040518083038186803b15801561106b57600080fd5b505afa15801561107f573d6000803e3d6000fd5b505050506040513d602081101561109557600080fd5b81019080805190602001909291905050501515146110fe576040517f08c379a0000000000000000000000000000000000000000000000000000000008152600401808060200182810382526025815260200180611c826025913960400191505060405180910390fd5b6000809054906101000a900473ffffffffffffffffffffffffffffffffffffffff1673ffffffffffffffffffffffffffffffffffffffff16633d30ffb88360016040518363ffffffff1660e01b8152600401808381526020018215151515815260200192505050600060405180830381600087803b15801561117f57600080fd5b505af1158015611193573d6000803e3d6000fd5b505050505050565b823373ffffffffffffffffffffffffffffffffffffffff166000809054906101000a900473ffffffffffffffffffffffffffffffffffffffff1673ffffffffffffffffffffffffffffffffffffffff16637ace341b836040518263ffffffff1660e01b81526004018082815260200191505060206040518083038186803b15801561122557600080fd5b505afa158015611239573d6000803e3d6000fd5b505050506040513d602081101561124f57600080fd5b810190808051906020019092919050505073ffffffffffffffffffffffffffffffffffffffff161461128057600080fd5b600015156000809054906101000a900473ffffffffffffffffffffffffffffffffffffffff1673ffffffffffffffffffffffffffffffffffffffff16631becaefb866040518263ffffffff1660e01b81526004018082815260200191505060206040518083038186803b1580156112f657600080fd5b505afa15801561130a573d6000803e3d6000fd5b505050506040513d602081101561132057600080fd5b810190808051906020019092919050505015151461133d57600080fd5b3073ffffffffffffffffffffffffffffffffffffffff166000809054906101000a900473ffffffffffffffffffffffffffffffffffffffff1673ffffffffffffffffffffffffffffffffffffffff16630772c45e866040518263ffffffff1660e01b81526004018082815260200191505060206040518083038186803b1580156113c657600080fd5b505afa1580156113da573d6000803e3d6000fd5b505050506040513d60208110156113f057600080fd5b810190808051906020019092919050505073ffffffffffffffffffffffffffffffffffffffff161461142157600080fd5b600115156000809054906101000a900473ffffffffffffffffffffffffffffffffffffffff1673ffffffffffffffffffffffffffffffffffffffff166340889b4f866040518263ffffffff1660e01b81526004018082815260200191505060206040518083038186803b15801561149757600080fd5b505afa1580156114ab573d6000803e3d6000fd5b505050506040513d60208110156114c157600080fd5b81019080805190602001909291905050501515146114de57600080fd5b60608060606000809054906101000a900473ffffffffffffffffffffffffffffffffffffffff1673ffffffffffffffffffffffffffffffffffffffff166323bb1835886040518263ffffffff1660e01b81526004018082815260200191505060006040518083038186803b15801561155557600080fd5b505afa158015611569573d6000803e3d6000fd5b505050506040513d6000823e3d601f19601f82011682018060405250606081101561159357600080fd5b81019080805160405193929190846401000000008211156115b357600080fd5b838201915060208201858111156115c957600080fd5b82518660018202830111640100000000821117156115e657600080fd5b8083526020830192505050908051906020019080838360005b8381101561161a5780820151818401526020810190506115ff565b50505050905090810190601f1680156116475780820380516001836020036101000a031916815260200191505b506040526020018051604051939291908464010000000082111561166a57600080fd5b8382019150602082018581111561168057600080fd5b825186600182028301116401000000008211171561169d57600080fd5b8083526020830192505050908051906020019080838360005b838110156116d15780820151818401526020810190506116b6565b50505050905090810190601f1680156116fe5780820380516001836020036101000a031916815260200191505b506040526020018051604051939291908464010000000082111561172157600080fd5b8382019150602082018581111561173757600080fd5b825186600182028301116401000000008211171561175457600080fd5b8083526020830192505050908051906020019080838360005b8381101561178857808201518184015260208101905061176d565b50505050905090810190601f1680156117b55780820380516001836020036101000a031916815260200191505b506040525050509250925092506000809054906101000a900473ffffffffffffffffffffffffffffffffffffffff1673ffffffffffffffffffffffffffffffffffffffff1663d88ee329888585856040518563ffffffff1660e01b815260040180858152602001806020018060200180602001848103845287818151815260200191508051906020019080838360005b83811015611860578082015181840152602081019050611845565b50505050905090810190601f16801561188d5780820380516001836020036101000a031916815260200191505b50848103835286818151815260200191508051906020019080838360005b838110156118c65780820151818401526020810190506118ab565b50505050905090810190601f1680156118f35780820380516001836020036101000a031916815260200191505b50848103825285818151815260200191508051906020019080838360005b8381101561192c578082015181840152602081019050611911565b50505050905090810190601f1680156119595780820380516001836020036101000a031916815260200191505b50975050505050505050600060405180830381600087803b15801561197d57600080fd5b505af1158015611991573d6000803e3d6000fd5b505050506000809054906101000a900473ffffffffffffffffffffffffffffffffffffffff1673ffffffffffffffffffffffffffffffffffffffff1663809db2f88888886040518463ffffffff1660e01b815260040180848152602001806020018060200180602001848103845286818151815260200191508051906020019080838360005b83811015611a32578082015181840152602081019050611a17565b50505050905090810190601f168015611a5f5780820380516001836020036101000a031916815260200191505b50848103835260008152602001602001848103825285818151815260200191508051906020019080838360005b83811015611aa7578082015181840152602081019050611a8c565b50505050905090810190601f168015611ad45780820380516001836020036101000a031916815260200191505b509650505050505050600060405180830381600087803b158015611af757600080fd5b505af1158015611b0b573d6000803e3d6000fd5b505050506000809054906101000a900473ffffffffffffffffffffffffffffffffffffffff1673ffffffffffffffffffffffffffffffffffffffff1663dcd9d2cb8860016040518363ffffffff1660e01b8152600401808381526020018215151515815260200192505050600060405180830381600087803b158015611b9057600080fd5b505af1158015611ba4573d6000803e3d6000fd5b505050506000809054906101000a900473ffffffffffffffffffffffffffffffffffffffff1673ffffffffffffffffffffffffffffffffffffffff16633d30ffb88860006040518363ffffffff1660e01b8152600401808381526020018215151515815260200192505050600060405180830381600087803b158015611c2957600080fd5b505af1158015611c3d573d6000803e3d6000fd5b505050507f2ffc48f4ae90072b45426bc482d9ae940d820e9532910a3ca1d051006e3284d1876040518082815260200191505060405180910390a15050505050505056fe50726f6475637420697320616c726561647920726561647920666f72207368697070696e67a265627a7a723158201ade4dc5f0b2fedce0e7b110d00751f77d1addd26fad074a671132683b961f3764736f6c63430005100032",
  "source": "pragma solidity ^0.5.0;\n\nimport \"./Product.sol\";\nimport \"./GoodsDistributor.sol\";\n\ncontract Wholesaler {\n\n    //variables\n    Product productContract;\n    GoodsDistributor goodsDistributorContract;\n    address owner = msg.sender;\n\n    constructor(Product productAddress, GoodsDistributor goodsDistributorAddress) public {\n        productContract = productAddress;\n        goodsDistributorContract = goodsDistributorAddress;\n    }\n\n    //events\n    event buyWine(uint productId);\n    event wineReceived(uint productId);\n    event dispatchWine(uint productId);\n\n    //modifiers\n    modifier ownerOnly(uint256 productId) {\n        require(productContract.getCurrentOwner(productId) == msg.sender);\n        _;\n    }\n\n\n    //buy\n    // function buyWineFromGoodsDistributor(uint256 productId, string memory dispatchDate) public payable {\n    //     uint256 productPrice = productContract.getUnitPrice(productId) * productContract.getBatchQuantity(productId);\n    //     require(msg.value > productPrice, \"Insufficent amount to buy the wine\");\n    //     address payable targetAddress = address(uint160(productContract.getCurrentOwner(productId)));\n    //     targetAddress.transfer(productPrice);\n    // wineReceived(productId);\n\n    //     GoodsDistributorContract.disbatchWineToBulkDistributor(produceId, dispatchDate, msg.sender, address(this));\n\n    // }\n\n    function materialReadyToShip(uint256 productId) public ownerOnly(productId) {\n        require(productContract.getReadyToShip(productId) == false, \"Product is already ready for shipping\");\n        productContract.setReadyToShip(productId, true);\n    }\n\n    //Receive From Filler/Packer\n    function receiveWine(\n        uint256 productId,\n        string memory currentLocation,\n        string memory arrivalDate\n    ) public ownerOnly(productId) {\n        require(productContract.getReceived(productId) == false);\n        require(productContract.getCurrentContractAddress(productId) == address(this));\n        require(productContract.getReadyToShip(productId) == true);\n        (string memory location, string memory dispatchDate, string memory prevArrivalDate) = productContract.getCurrentLocation(productId);\n        productContract.addPreviousLocation(productId, location, dispatchDate, prevArrivalDate);\n        productContract.setCurrentLocation(productId, currentLocation, \"\", arrivalDate);\n\n        productContract.setReceived(productId, true);\n        productContract.setReadyToShip(productId, false);\n\n        emit wineReceived(productId);\n    }\n\n    //Dispatch to Retailer\n    function disbatchWineToRetailer(uint256 productId, string memory newDisbatchDate, address retailerAddress, address retailerContractAddress) public ownerOnly(productId) {\n        require(productContract.getReadyToShip(productId) == true, \"Product not ready for shipping\");\n        require(productContract.getCurrentContractAddress(productId) == address(this));\n\n        productContract.setPreviousOwner(productId, productContract.getCurrentOwner(productId));\n        productContract.setCurrentOwner(productId, retailerAddress);\n\n        productContract.setPreviousContractAddress(productId, productContract.getCurrentContractAddress(productId));\n        productContract.setCurrentContractAddress(productId,retailerContractAddress);\n\n        (string memory location, ,string memory arrivalDate) = productContract.getCurrentLocation(productId);\n        productContract.setCurrentLocation(productId, location, newDisbatchDate, arrivalDate);\n\n        emit dispatchWine(productId);\n    }\n    \n}",
  "sourcePath": "/Users/alexye/Desktop/Wine-Supplychain-Blockchain/contracts/Wholesaler.sol",
  "compiler": {
    "name": "solc",
    "version": "0.5.16+commit.9c3226ce.Emscripten.clang"
  },
  "schemaVersion": "3.4.12",
  "updatedAt": "2023-03-31T18:38:40.379Z",
  "devdoc": {
    "methods": {}
  },
  "userdoc": {
    "methods": {}
  }
}