{
  "contractName": "WineProducer",
  "abi": [
    {
      "inputs": [
        {
          "internalType": "contract Product",
          "name": "productContractddress",
          "type": "address"
        },
        {
          "internalType": "contract RawMaterialSupplier",
          "name": "supplierContractAddress",
          "type": "address"
        }
      ],
      "payable": false,
      "stateMutability": "nonpayable",
      "type": "constructor"
    },
    {
      "constant": false,
      "inputs": [
        {
          "internalType": "uint256",
          "name": "productId",
          "type": "uint256"
        },
        {
          "internalType": "string",
          "name": "currentLocation",
          "type": "string"
        },
        {
          "internalType": "string",
          "name": "arrivalDate",
          "type": "string"
        }
      ],
      "name": "received",
      "outputs": [],
      "payable": false,
      "stateMutability": "nonpayable",
      "type": "function"
    },
    {
      "constant": false,
      "inputs": [
        {
          "internalType": "uint256",
          "name": "productId",
          "type": "uint256"
        },
        {
          "internalType": "string",
          "name": "newLocation",
          "type": "string"
        }
      ],
      "name": "wineReadyToShip",
      "outputs": [],
      "payable": false,
      "stateMutability": "nonpayable",
      "type": "function"
    }
  ],
  "bytecode": "0x608060405233600260006101000a81548173ffffffffffffffffffffffffffffffffffffffff021916908373ffffffffffffffffffffffffffffffffffffffff16021790555034801561005157600080fd5b506040516112cd3803806112cd8339818101604052604081101561007457600080fd5b810190808051906020019092919080519060200190929190505050816000806101000a81548173ffffffffffffffffffffffffffffffffffffffff021916908373ffffffffffffffffffffffffffffffffffffffff16021790555080600160006101000a81548173ffffffffffffffffffffffffffffffffffffffff021916908373ffffffffffffffffffffffffffffffffffffffff16021790555050506111ac806101216000396000f3fe608060405234801561001057600080fd5b50600436106100365760003560e01c80630ebe96df1461003b57806349d23fb714610100575b600080fd5b6100fe6004803603604081101561005157600080fd5b81019080803590602001909291908035906020019064010000000081111561007857600080fd5b82018360208201111561008a57600080fd5b803590602001918460018302840111640100000000831117156100ac57600080fd5b91908080601f016020809104026020016040519081016040528093929190818152602001838380828437600081840152601f19601f82011690508083019250505050505050919291929050505061025c565b005b61025a6004803603606081101561011657600080fd5b81019080803590602001909291908035906020019064010000000081111561013d57600080fd5b82018360208201111561014f57600080fd5b8035906020019184600183028401116401000000008311171561017157600080fd5b91908080601f016020809104026020016040519081016040528093929190818152602001838380828437600081840152601f19601f820116905080830192505050505050509192919290803590602001906401000000008111156101d457600080fd5b8201836020820111156101e657600080fd5b8035906020019184600183028401116401000000008311171561020857600080fd5b91908080601f016020809104026020016040519081016040528093929190818152602001838380828437600081840152601f19601f820116905080830192505050505050509192919290505050610a27565b005b600015156000809054906101000a900473ffffffffffffffffffffffffffffffffffffffff1673ffffffffffffffffffffffffffffffffffffffff166340889b4f846040518263ffffffff1660e01b81526004018082815260200191505060206040518083038186803b1580156102d257600080fd5b505afa1580156102e6573d6000803e3d6000fd5b505050506040513d60208110156102fc57600080fd5b8101908080519060200190929190505050151514610365576040517f08c379a00000000000000000000000000000000000000000000000000000000081526004018080602001828103825260258152602001806111536025913960400191505060405180910390fd5b6000809054906101000a900473ffffffffffffffffffffffffffffffffffffffff1673ffffffffffffffffffffffffffffffffffffffff16633d30ffb88360016040518363ffffffff1660e01b8152600401808381526020018215151515815260200192505050600060405180830381600087803b1580156103e657600080fd5b505af11580156103fa573d6000803e3d6000fd5b5050505060608060606000809054906101000a900473ffffffffffffffffffffffffffffffffffffffff1673ffffffffffffffffffffffffffffffffffffffff166323bb1835866040518263ffffffff1660e01b81526004018082815260200191505060006040518083038186803b15801561047557600080fd5b505afa158015610489573d6000803e3d6000fd5b505050506040513d6000823e3d601f19601f8201168201806040525060608110156104b357600080fd5b81019080805160405193929190846401000000008211156104d357600080fd5b838201915060208201858111156104e957600080fd5b825186600182028301116401000000008211171561050657600080fd5b8083526020830192505050908051906020019080838360005b8381101561053a57808201518184015260208101905061051f565b50505050905090810190601f1680156105675780820380516001836020036101000a031916815260200191505b506040526020018051604051939291908464010000000082111561058a57600080fd5b838201915060208201858111156105a057600080fd5b82518660018202830111640100000000821117156105bd57600080fd5b8083526020830192505050908051906020019080838360005b838110156105f15780820151818401526020810190506105d6565b50505050905090810190601f16801561061e5780820380516001836020036101000a031916815260200191505b506040526020018051604051939291908464010000000082111561064157600080fd5b8382019150602082018581111561065757600080fd5b825186600182028301116401000000008211171561067457600080fd5b8083526020830192505050908051906020019080838360005b838110156106a857808201518184015260208101905061068d565b50505050905090810190601f1680156106d55780820380516001836020036101000a031916815260200191505b506040525050509250925092506000809054906101000a900473ffffffffffffffffffffffffffffffffffffffff1673ffffffffffffffffffffffffffffffffffffffff1663d88ee329868585856040518563ffffffff1660e01b815260040180858152602001806020018060200180602001848103845287818151815260200191508051906020019080838360005b83811015610780578082015181840152602081019050610765565b50505050905090810190601f1680156107ad5780820380516001836020036101000a031916815260200191505b50848103835286818151815260200191508051906020019080838360005b838110156107e65780820151818401526020810190506107cb565b50505050905090810190601f1680156108135780820380516001836020036101000a031916815260200191505b50848103825285818151815260200191508051906020019080838360005b8381101561084c578082015181840152602081019050610831565b50505050905090810190601f1680156108795780820380516001836020036101000a031916815260200191505b50975050505050505050600060405180830381600087803b15801561089d57600080fd5b505af11580156108b1573d6000803e3d6000fd5b505050506000809054906101000a900473ffffffffffffffffffffffffffffffffffffffff1673ffffffffffffffffffffffffffffffffffffffff1663809db2f886866040518363ffffffff1660e01b815260040180838152602001806020018060200180602001848103845285818151815260200191508051906020019080838360005b83811015610951578082015181840152602081019050610936565b50505050905090810190601f16801561097e5780820380516001836020036101000a031916815260200191505b50848103835260048152602001807f6e756c6c00000000000000000000000000000000000000000000000000000000815250602001848103825260048152602001807f6e756c6c0000000000000000000000000000000000000000000000000000000081525060200195505050505050600060405180830381600087803b158015610a0857600080fd5b505af1158015610a1c573d6000803e3d6000fd5b505050505050505050565b6000809054906101000a900473ffffffffffffffffffffffffffffffffffffffff1673ffffffffffffffffffffffffffffffffffffffff1663dcd9d2cb8460016040518363ffffffff1660e01b8152600401808381526020018215151515815260200192505050600060405180830381600087803b158015610aa857600080fd5b505af1158015610abc573d6000803e3d6000fd5b5050505060608060606000809054906101000a900473ffffffffffffffffffffffffffffffffffffffff1673ffffffffffffffffffffffffffffffffffffffff166323bb1835876040518263ffffffff1660e01b81526004018082815260200191505060006040518083038186803b158015610b3757600080fd5b505afa158015610b4b573d6000803e3d6000fd5b505050506040513d6000823e3d601f19601f820116820180604052506060811015610b7557600080fd5b8101908080516040519392919084640100000000821115610b9557600080fd5b83820191506020820185811115610bab57600080fd5b8251866001820283011164010000000082111715610bc857600080fd5b8083526020830192505050908051906020019080838360005b83811015610bfc578082015181840152602081019050610be1565b50505050905090810190601f168015610c295780820380516001836020036101000a031916815260200191505b5060405260200180516040519392919084640100000000821115610c4c57600080fd5b83820191506020820185811115610c6257600080fd5b8251866001820283011164010000000082111715610c7f57600080fd5b8083526020830192505050908051906020019080838360005b83811015610cb3578082015181840152602081019050610c98565b50505050905090810190601f168015610ce05780820380516001836020036101000a031916815260200191505b5060405260200180516040519392919084640100000000821115610d0357600080fd5b83820191506020820185811115610d1957600080fd5b8251866001820283011164010000000082111715610d3657600080fd5b8083526020830192505050908051906020019080838360005b83811015610d6a578082015181840152602081019050610d4f565b50505050905090810190601f168015610d975780820380516001836020036101000a031916815260200191505b506040525050509250925092506000809054906101000a900473ffffffffffffffffffffffffffffffffffffffff1673ffffffffffffffffffffffffffffffffffffffff1663d88ee329878585856040518563ffffffff1660e01b815260040180858152602001806020018060200180602001848103845287818151815260200191508051906020019080838360005b83811015610e42578082015181840152602081019050610e27565b50505050905090810190601f168015610e6f5780820380516001836020036101000a031916815260200191505b50848103835286818151815260200191508051906020019080838360005b83811015610ea8578082015181840152602081019050610e8d565b50505050905090810190601f168015610ed55780820380516001836020036101000a031916815260200191505b50848103825285818151815260200191508051906020019080838360005b83811015610f0e578082015181840152602081019050610ef3565b50505050905090810190601f168015610f3b5780820380516001836020036101000a031916815260200191505b50975050505050505050600060405180830381600087803b158015610f5f57600080fd5b505af1158015610f73573d6000803e3d6000fd5b505050506000809054906101000a900473ffffffffffffffffffffffffffffffffffffffff1673ffffffffffffffffffffffffffffffffffffffff1663809db2f8878785886040518563ffffffff1660e01b815260040180858152602001806020018060200180602001848103845287818151815260200191508051906020019080838360005b83811015611015578082015181840152602081019050610ffa565b50505050905090810190601f1680156110425780820380516001836020036101000a031916815260200191505b50848103835286818151815260200191508051906020019080838360005b8381101561107b578082015181840152602081019050611060565b50505050905090810190601f1680156110a85780820380516001836020036101000a031916815260200191505b50848103825285818151815260200191508051906020019080838360005b838110156110e15780820151818401526020810190506110c6565b50505050905090810190601f16801561110e5780820380516001836020036101000a031916815260200191505b50975050505050505050600060405180830381600087803b15801561113257600080fd5b505af1158015611146573d6000803e3d6000fd5b5050505050505050505056fe50726f6475637420697320616c726561647920726561647920666f72207368697070696e67a265627a7a7231582051e051ac6d7aa53ad0142cacc68bb9aa3f8b38b70476ffd4efd3b2250250810964736f6c63430005100032",
  "source": "pragma solidity ^0.5.0;\n\nimport \"./Product.sol\";\nimport \"./RawMaterialSupplier.sol\";\n\ncontract WineProducer {\n    Product productContract;\n    RawMaterialSupplier rawMaterialSupplierContract;\n    address wineProducerAddress = msg.sender;\n    constructor(Product productContractddress, RawMaterialSupplier supplierContractAddress) public {\n        productContract = productContractddress;\n        rawMaterialSupplierContract = supplierContractAddress;\n    }\n\n    // function buy(\n    //     uint256 productId,\n    //     string memory disbatchDate\n    // ) public payable returns(uint256) {\n    //     uint256 productPrice = productContract.getUnitPrice(productId) * productContract.getBatchQuantity(productId);\n    //     require(msg.value > productPrice, \"Insufficent balance to buy the supply\");\n    //     // address payable targetAddress = payable(productContract.getCurrentOwner(productId));\n    //     // targetAddress.transfer(productPrice);\n\n    //     rawMaterialSupplierContract.disbatchRawMaterial(\n    //         productId, \n    //         disbatchDate, \n    //         msg.sender\n    //     );\n    // }\n\n    function received(\n        uint256 productId,\n        string memory currentLocation,\n        string memory arrivalDate\n    ) public {\n        productContract.setReceived(productId, true);\n        (string memory location, string memory disbatchDate, string memory prevArrivalDate) = productContract.getCurrentLocation(productId);\n        productContract.addPreviousLocation(productId, location, disbatchDate, prevArrivalDate);\n        productContract.setCurrentLocation(productId, currentLocation, disbatchDate, arrivalDate);\n    }\n\n\n    function wineReadyToShip(uint256 productId, string memory newLocation) public {\n        require(productContract.getReadyToShip(productId) == false, \"Product is already ready for shipping\");\n        // require(productContract.getProductName(productId) == \"Wine\", \"You can only ship wine products\");\n        productContract.setReadyToShip(productId, true);\n        (string memory location, string memory disbatchDate, string memory arrivalDate) = productContract.getCurrentLocation(productId);\n        productContract.addPreviousLocation(productId, location, disbatchDate, arrivalDate);\n        productContract.setCurrentLocation(productId, newLocation, \"null\", \"null\");\n    }\n\n    // function processWine(\n    //     uint256[] memory productIds,\n    //     string memory placeOfOrigin,\n    //     string memory productionDate,\n    //     string memory expirationDate, \n    //     uint256 unitQuantity, \n    //     string memory unitQuantityType, \n    //     uint256 batchQuantity, \n    //     uint256 unitPrice, \n    //     string memory category, \n    //     string memory currentPhysicalLocation\n    //     ) public returns (uint256) {\n\n\n    //     bool allAvailableToUse = true;\n    //     for (uint256 i = 0; i < productIds.length; i++) {\n    //         if (productContract.getUsed((productIds[i])) == true) {\n    //             allAvailableToUse == false;\n    //             break;\n    //         }\n    //     }\n\n    //     require(allAvailableToUse == true, \"You Do Not Have Sufficient Products To Process Wine\");\n\n    //     //CreateWine and add all the materials Inside\n\n    //     uint256 wineProductId = productContract.createProduct(\n    //         \"Wine\", \n    //         address(this),\n    //         placeOfOrigin, \n    //         productionDate, \n    //         expirationDate, \n    //         unitQuantity, \n    //         unitQuantityType, \n    //         batchQuantity, \n    //         unitPrice, \n    //         category, \n    //         currentPhysicalLocation\n    //         );\n\n    //     for (uint256 i = 0; i < productIds.length; i++) {\n    //         productContract.addComponentProduct(wineProductId, productIds[i]);\n    //     }\n    \n\n    //     //Use up all the materials, remove them from the product contract as well as materialsOwned array\n    //     for (uint256 i = 0; i < productIds.length; i++) {\n    //         productContract.setUsed(productIds[i], true);\n    //     }\n\n    //     return wineProductId;\n    //     }\n\n    // function disbatchWineToBulkDistributor(uint256 productId, string memory newDisbatchDate, address bulkDistributorAddress) public {\n    //     require(productContract.getReadyToShip(productId) == true, \"Product not ready for shipping\");\n    //     // require(keccak256(productContract.getProductName(productId)) == keccak256(\"Wine\"), \"You can only ship wine products\");\n\n    //     productContract.setCurrentOwner(productId, bulkDistributorAddress);\n    //     productContract.setPreviousOwner(productId, address(this));\n    //     (string memory location, string memory disbatchDate, string memory arrivalDate) = productContract.getCurrentLocation(productId);\n    //     productContract.addPreviousLocation(productId, location, disbatchDate, arrivalDate);\n    //     productContract.setCurrentLocation(productId, location, newDisbatchDate, \"null\");\n    // }\n}\n\n\n\n\n\n\n\n\n\n\n\n\n\n\n\n\n\n\n\n\n\n\n\n\n\n\n\n\n\n\n\n\n\n\n\n\n\n\n\n\n\n\n\n\n\n\n\n\n\n\n\n\n\n\n\n\n\n\n\n\n\n\n\n\n\n\n\n\n\n\n\n\n\n\n\n\n\n\n\n\n    ",
  "sourcePath": "/Users/jarrentoh/Documents/GitHub/Wine Supplychain Blockchain/contracts/WineProducer.sol",
  "compiler": {
    "name": "solc",
    "version": "0.5.16+commit.9c3226ce.Emscripten.clang"
  },
  "schemaVersion": "3.4.11",
  "updatedAt": "2023-03-31T13:23:51.983Z",
  "devdoc": {
    "methods": {}
  },
  "userdoc": {
    "methods": {}
  }
}