{
  "contractName": "WineProducer",
  "abi": [
    {
      "inputs": [
        {
          "internalType": "contract Product",
          "name": "productContractddress",
          "type": "address"
        },
        {
          "internalType": "contract RawMaterialSupplier",
          "name": "supplierContractAddress",
          "type": "address"
        }
      ],
      "payable": false,
      "stateMutability": "nonpayable",
      "type": "constructor"
    },
    {
      "constant": false,
      "inputs": [
        {
          "internalType": "uint256",
          "name": "productId",
          "type": "uint256"
        },
        {
          "internalType": "string",
          "name": "disbatchDate",
          "type": "string"
        }
      ],
      "name": "buy",
      "outputs": [
        {
          "internalType": "uint256",
          "name": "",
          "type": "uint256"
        }
      ],
      "payable": true,
      "stateMutability": "payable",
      "type": "function"
    },
    {
      "constant": false,
      "inputs": [
        {
          "internalType": "uint256",
          "name": "productId",
          "type": "uint256"
        },
        {
          "internalType": "string",
          "name": "currentLocation",
          "type": "string"
        },
        {
          "internalType": "string",
          "name": "arrivalDate",
          "type": "string"
        }
      ],
      "name": "received",
      "outputs": [],
      "payable": false,
      "stateMutability": "nonpayable",
      "type": "function"
    },
    {
      "constant": false,
      "inputs": [
        {
          "internalType": "uint256",
          "name": "productId",
          "type": "uint256"
        },
        {
          "internalType": "string",
          "name": "newLocation",
          "type": "string"
        }
      ],
      "name": "wineReadyToShip",
      "outputs": [],
      "payable": false,
      "stateMutability": "nonpayable",
      "type": "function"
    },
    {
      "constant": false,
      "inputs": [
        {
          "internalType": "uint256[]",
          "name": "productIds",
          "type": "uint256[]"
        },
        {
          "internalType": "string",
          "name": "placeOfOrigin",
          "type": "string"
        },
        {
          "internalType": "string",
          "name": "productionDate",
          "type": "string"
        },
        {
          "internalType": "string",
          "name": "expirationDate",
          "type": "string"
        },
        {
          "internalType": "uint256",
          "name": "unitQuantity",
          "type": "uint256"
        },
        {
          "internalType": "string",
          "name": "unitQuantityType",
          "type": "string"
        },
        {
          "internalType": "uint256",
          "name": "batchQuantity",
          "type": "uint256"
        },
        {
          "internalType": "uint256",
          "name": "unitPrice",
          "type": "uint256"
        },
        {
          "internalType": "string",
          "name": "category",
          "type": "string"
        },
        {
          "internalType": "string",
          "name": "currentPhysicalLocation",
          "type": "string"
        }
      ],
      "name": "processWine",
      "outputs": [
        {
          "internalType": "uint256",
          "name": "",
          "type": "uint256"
        }
      ],
      "payable": false,
      "stateMutability": "nonpayable",
      "type": "function"
    },
    {
      "constant": false,
      "inputs": [
        {
          "internalType": "uint256",
          "name": "productId",
          "type": "uint256"
        },
        {
          "internalType": "string",
          "name": "newDisbatchDate",
          "type": "string"
        },
        {
          "internalType": "address",
          "name": "bulkDistributorAddress",
          "type": "address"
        },
        {
          "internalType": "address",
          "name": "bulkDistributorContractAddress",
          "type": "address"
        }
      ],
      "name": "disbatchWineToBulkDistributor",
      "outputs": [],
      "payable": false,
      "stateMutability": "nonpayable",
      "type": "function"
    }
  ],
  "bytecode": "0x608060405233600260006101000a81548173ffffffffffffffffffffffffffffffffffffffff021916908373ffffffffffffffffffffffffffffffffffffffff16021790555034801561005157600080fd5b506040516138f13803806138f18339818101604052604081101561007457600080fd5b810190808051906020019092919080519060200190929190505050816000806101000a81548173ffffffffffffffffffffffffffffffffffffffff021916908373ffffffffffffffffffffffffffffffffffffffff16021790555080600160006101000a81548173ffffffffffffffffffffffffffffffffffffffff021916908373ffffffffffffffffffffffffffffffffffffffff16021790555050506137d0806101216000396000f3fe60806040526004361061004a5760003560e01c80630ebe96df1461004f5780632d6a0f941461012157806349d23fb71461023357806399ee508d1461039c578063b7dc3b181461081e575b600080fd5b34801561005b57600080fd5b5061011f6004803603604081101561007257600080fd5b81019080803590602001909291908035906020019064010000000081111561009957600080fd5b8201836020820111156100ab57600080fd5b803590602001918460018302840111640100000000831117156100cd57600080fd5b91908080601f016020809104026020016040519081016040528093929190818152602001838380828437600081840152601f19601f8201169050808301925050505050505091929192905050506108f7565b005b34801561012d57600080fd5b506102316004803603608081101561014457600080fd5b81019080803590602001909291908035906020019064010000000081111561016b57600080fd5b82018360208201111561017d57600080fd5b8035906020019184600183028401116401000000008311171561019f57600080fd5b91908080601f016020809104026020016040519081016040528093929190818152602001838380828437600081840152601f19601f820116905080830192505050505050509192919290803573ffffffffffffffffffffffffffffffffffffffff169060200190929190803573ffffffffffffffffffffffffffffffffffffffff1690602001909291905050506113f4565b005b34801561023f57600080fd5b5061039a6004803603606081101561025657600080fd5b81019080803590602001909291908035906020019064010000000081111561027d57600080fd5b82018360208201111561028f57600080fd5b803590602001918460018302840111640100000000831117156102b157600080fd5b91908080601f016020809104026020016040519081016040528093929190818152602001838380828437600081840152601f19601f8201169050808301925050505050505091929192908035906020019064010000000081111561031457600080fd5b82018360208201111561032657600080fd5b8035906020019184600183028401116401000000008311171561034857600080fd5b91908080601f016020809104026020016040519081016040528093929190818152602001838380828437600081840152601f19601f8201169050808301925050505050505091929192905050506121aa565b005b3480156103a857600080fd5b5061080860048036036101408110156103c057600080fd5b81019080803590602001906401000000008111156103dd57600080fd5b8201836020820111156103ef57600080fd5b8035906020019184602083028401116401000000008311171561041157600080fd5b919080806020026020016040519081016040528093929190818152602001838360200280828437600081840152601f19601f8201169050808301925050505050505091929192908035906020019064010000000081111561047157600080fd5b82018360208201111561048357600080fd5b803590602001918460018302840111640100000000831117156104a557600080fd5b91908080601f016020809104026020016040519081016040528093929190818152602001838380828437600081840152601f19601f8201169050808301925050505050505091929192908035906020019064010000000081111561050857600080fd5b82018360208201111561051a57600080fd5b8035906020019184600183028401116401000000008311171561053c57600080fd5b91908080601f016020809104026020016040519081016040528093929190818152602001838380828437600081840152601f19601f8201169050808301925050505050505091929192908035906020019064010000000081111561059f57600080fd5b8201836020820111156105b157600080fd5b803590602001918460018302840111640100000000831117156105d357600080fd5b91908080601f016020809104026020016040519081016040528093929190818152602001838380828437600081840152601f19601f820116905080830192505050505050509192919290803590602001909291908035906020019064010000000081111561064057600080fd5b82018360208201111561065257600080fd5b8035906020019184600183028401116401000000008311171561067457600080fd5b91908080601f016020809104026020016040519081016040528093929190818152602001838380828437600081840152601f19601f8201169050808301925050505050505091929192908035906020019092919080359060200190929190803590602001906401000000008111156106eb57600080fd5b8201836020820111156106fd57600080fd5b8035906020019184600183028401116401000000008311171561071f57600080fd5b91908080601f016020809104026020016040519081016040528093929190818152602001838380828437600081840152601f19601f8201169050808301925050505050505091929192908035906020019064010000000081111561078257600080fd5b82018360208201111561079457600080fd5b803590602001918460018302840111640100000000831117156107b657600080fd5b91908080601f016020809104026020016040519081016040528093929190818152602001838380828437600081840152601f19601f820116905080830192505050505050509192919290505050612962565b6040518082815260200191505060405180910390f35b6108e16004803603604081101561083457600080fd5b81019080803590602001909291908035906020019064010000000081111561085b57600080fd5b82018360208201111561086d57600080fd5b8035906020019184600183028401116401000000008311171561088f57600080fd5b91908080601f016020809104026020016040519081016040528093929190818152602001838380828437600081840152601f19601f820116905080830192505050505050509192919290505050613304565b6040518082815260200191505060405180910390f35b813373ffffffffffffffffffffffffffffffffffffffff166000809054906101000a900473ffffffffffffffffffffffffffffffffffffffff1673ffffffffffffffffffffffffffffffffffffffff16637ace341b836040518263ffffffff1660e01b81526004018082815260200191505060206040518083038186803b15801561098157600080fd5b505afa158015610995573d6000803e3d6000fd5b505050506040513d60208110156109ab57600080fd5b810190808051906020019092919050505073ffffffffffffffffffffffffffffffffffffffff16146109dc57600080fd5b600015156000809054906101000a900473ffffffffffffffffffffffffffffffffffffffff1673ffffffffffffffffffffffffffffffffffffffff166340889b4f856040518263ffffffff1660e01b81526004018082815260200191505060206040518083038186803b158015610a5257600080fd5b505afa158015610a66573d6000803e3d6000fd5b505050506040513d6020811015610a7c57600080fd5b8101908080519060200190929190505050151514610ae5576040517f08c379a000000000000000000000000000000000000000000000000000000000815260040180806020018281038252602581526020018061371f6025913960400191505060405180910390fd5b60405160200180807f57696e65000000000000000000000000000000000000000000000000000000008152506004019050604051602081830303815290604052805190602001206000809054906101000a900473ffffffffffffffffffffffffffffffffffffffff1673ffffffffffffffffffffffffffffffffffffffff16639e62e795856040518263ffffffff1660e01b81526004018082815260200191505060006040518083038186803b158015610b9e57600080fd5b505afa158015610bb2573d6000803e3d6000fd5b505050506040513d6000823e3d601f19601f820116820180604052506020811015610bdc57600080fd5b8101908080516040519392919084640100000000821115610bfc57600080fd5b83820191506020820185811115610c1257600080fd5b8251866001820283011164010000000082111715610c2f57600080fd5b8083526020830192505050908051906020019080838360005b83811015610c63578082015181840152602081019050610c48565b50505050905090810190601f168015610c905780820380516001836020036101000a031916815260200191505b506040525050506040516020018082805190602001908083835b60208310610ccd5780518252602082019150602081019050602083039250610caa565b6001836020036101000a0380198251168184511680821785525050505050509050019150506040516020818303038152906040528051906020012014610d7b576040517f08c379a000000000000000000000000000000000000000000000000000000000815260040180806020018281038252601f8152602001807f596f752063616e206f6e6c7920736869702077696e652070726f64756374730081525060200191505060405180910390fd5b6000809054906101000a900473ffffffffffffffffffffffffffffffffffffffff1673ffffffffffffffffffffffffffffffffffffffff16633d30ffb88460016040518363ffffffff1660e01b8152600401808381526020018215151515815260200192505050600060405180830381600087803b158015610dfc57600080fd5b505af1158015610e10573d6000803e3d6000fd5b5050505060608060606000809054906101000a900473ffffffffffffffffffffffffffffffffffffffff1673ffffffffffffffffffffffffffffffffffffffff166323bb1835876040518263ffffffff1660e01b81526004018082815260200191505060006040518083038186803b158015610e8b57600080fd5b505afa158015610e9f573d6000803e3d6000fd5b505050506040513d6000823e3d601f19601f820116820180604052506060811015610ec957600080fd5b8101908080516040519392919084640100000000821115610ee957600080fd5b83820191506020820185811115610eff57600080fd5b8251866001820283011164010000000082111715610f1c57600080fd5b8083526020830192505050908051906020019080838360005b83811015610f50578082015181840152602081019050610f35565b50505050905090810190601f168015610f7d5780820380516001836020036101000a031916815260200191505b5060405260200180516040519392919084640100000000821115610fa057600080fd5b83820191506020820185811115610fb657600080fd5b8251866001820283011164010000000082111715610fd357600080fd5b8083526020830192505050908051906020019080838360005b83811015611007578082015181840152602081019050610fec565b50505050905090810190601f1680156110345780820380516001836020036101000a031916815260200191505b506040526020018051604051939291908464010000000082111561105757600080fd5b8382019150602082018581111561106d57600080fd5b825186600182028301116401000000008211171561108a57600080fd5b8083526020830192505050908051906020019080838360005b838110156110be5780820151818401526020810190506110a3565b50505050905090810190601f1680156110eb5780820380516001836020036101000a031916815260200191505b506040525050509250925092506000809054906101000a900473ffffffffffffffffffffffffffffffffffffffff1673ffffffffffffffffffffffffffffffffffffffff1663d88ee329878585856040518563ffffffff1660e01b815260040180858152602001806020018060200180602001848103845287818151815260200191508051906020019080838360005b8381101561119657808201518184015260208101905061117b565b50505050905090810190601f1680156111c35780820380516001836020036101000a031916815260200191505b50848103835286818151815260200191508051906020019080838360005b838110156111fc5780820151818401526020810190506111e1565b50505050905090810190601f1680156112295780820380516001836020036101000a031916815260200191505b50848103825285818151815260200191508051906020019080838360005b83811015611262578082015181840152602081019050611247565b50505050905090810190601f16801561128f5780820380516001836020036101000a031916815260200191505b50975050505050505050600060405180830381600087803b1580156112b357600080fd5b505af11580156112c7573d6000803e3d6000fd5b505050506000809054906101000a900473ffffffffffffffffffffffffffffffffffffffff1673ffffffffffffffffffffffffffffffffffffffff1663809db2f887876040518363ffffffff1660e01b815260040180838152602001806020018060200180602001848103845285818151815260200191508051906020019080838360005b8381101561136757808201518184015260208101905061134c565b50505050905090810190601f1680156113945780820380516001836020036101000a031916815260200191505b5084810383526000815260200160200184810382526000815260200160200195505050505050600060405180830381600087803b1580156113d457600080fd5b505af11580156113e8573d6000803e3d6000fd5b50505050505050505050565b833373ffffffffffffffffffffffffffffffffffffffff166000809054906101000a900473ffffffffffffffffffffffffffffffffffffffff1673ffffffffffffffffffffffffffffffffffffffff16637ace341b836040518263ffffffff1660e01b81526004018082815260200191505060206040518083038186803b15801561147e57600080fd5b505afa158015611492573d6000803e3d6000fd5b505050506040513d60208110156114a857600080fd5b810190808051906020019092919050505073ffffffffffffffffffffffffffffffffffffffff16146114d957600080fd5b600115156000809054906101000a900473ffffffffffffffffffffffffffffffffffffffff1673ffffffffffffffffffffffffffffffffffffffff166340889b4f876040518263ffffffff1660e01b81526004018082815260200191505060206040518083038186803b15801561154f57600080fd5b505afa158015611563573d6000803e3d6000fd5b505050506040513d602081101561157957600080fd5b81019080805190602001909291905050501515146115ff576040517f08c379a000000000000000000000000000000000000000000000000000000000815260040180806020018281038252601e8152602001807f50726f64756374206e6f7420726561647920666f72207368697070696e67000081525060200191505060405180910390fd5b60405160200180807f57696e65000000000000000000000000000000000000000000000000000000008152506004019050604051602081830303815290604052805190602001206000809054906101000a900473ffffffffffffffffffffffffffffffffffffffff1673ffffffffffffffffffffffffffffffffffffffff16639e62e795876040518263ffffffff1660e01b81526004018082815260200191505060006040518083038186803b1580156116b857600080fd5b505afa1580156116cc573d6000803e3d6000fd5b505050506040513d6000823e3d601f19601f8201168201806040525060208110156116f657600080fd5b810190808051604051939291908464010000000082111561171657600080fd5b8382019150602082018581111561172c57600080fd5b825186600182028301116401000000008211171561174957600080fd5b8083526020830192505050908051906020019080838360005b8381101561177d578082015181840152602081019050611762565b50505050905090810190601f1680156117aa5780820380516001836020036101000a031916815260200191505b506040525050506040516020018082805190602001908083835b602083106117e757805182526020820191506020810190506020830392506117c4565b6001836020036101000a0380198251168184511680821785525050505050509050019150506040516020818303038152906040528051906020012014611895576040517f08c379a000000000000000000000000000000000000000000000000000000000815260040180806020018281038252601f8152602001807f596f752063616e206f6e6c7920736869702077696e652070726f64756374730081525060200191505060405180910390fd5b6000809054906101000a900473ffffffffffffffffffffffffffffffffffffffff1673ffffffffffffffffffffffffffffffffffffffff16630cc91022866000809054906101000a900473ffffffffffffffffffffffffffffffffffffffff1673ffffffffffffffffffffffffffffffffffffffff16637ace341b896040518263ffffffff1660e01b81526004018082815260200191505060206040518083038186803b15801561194557600080fd5b505afa158015611959573d6000803e3d6000fd5b505050506040513d602081101561196f57600080fd5b81019080805190602001909291905050506040518363ffffffff1660e01b8152600401808381526020018273ffffffffffffffffffffffffffffffffffffffff1673ffffffffffffffffffffffffffffffffffffffff16815260200192505050600060405180830381600087803b1580156119e957600080fd5b505af11580156119fd573d6000803e3d6000fd5b505050506000809054906101000a900473ffffffffffffffffffffffffffffffffffffffff1673ffffffffffffffffffffffffffffffffffffffff16636c125a6b86856040518363ffffffff1660e01b8152600401808381526020018273ffffffffffffffffffffffffffffffffffffffff1673ffffffffffffffffffffffffffffffffffffffff16815260200192505050600060405180830381600087803b158015611aa957600080fd5b505af1158015611abd573d6000803e3d6000fd5b505050506000809054906101000a900473ffffffffffffffffffffffffffffffffffffffff1673ffffffffffffffffffffffffffffffffffffffff166391f4caca866000809054906101000a900473ffffffffffffffffffffffffffffffffffffffff1673ffffffffffffffffffffffffffffffffffffffff16630772c45e896040518263ffffffff1660e01b81526004018082815260200191505060206040518083038186803b158015611b7157600080fd5b505afa158015611b85573d6000803e3d6000fd5b505050506040513d6020811015611b9b57600080fd5b81019080805190602001909291905050506040518363ffffffff1660e01b8152600401808381526020018273ffffffffffffffffffffffffffffffffffffffff1673ffffffffffffffffffffffffffffffffffffffff16815260200192505050600060405180830381600087803b158015611c1557600080fd5b505af1158015611c29573d6000803e3d6000fd5b505050506000809054906101000a900473ffffffffffffffffffffffffffffffffffffffff1673ffffffffffffffffffffffffffffffffffffffff166358ff352a86846040518363ffffffff1660e01b8152600401808381526020018273ffffffffffffffffffffffffffffffffffffffff1673ffffffffffffffffffffffffffffffffffffffff16815260200192505050600060405180830381600087803b158015611cd557600080fd5b505af1158015611ce9573d6000803e3d6000fd5b505050506060806000809054906101000a900473ffffffffffffffffffffffffffffffffffffffff1673ffffffffffffffffffffffffffffffffffffffff166323bb1835886040518263ffffffff1660e01b81526004018082815260200191505060006040518083038186803b158015611d6257600080fd5b505afa158015611d76573d6000803e3d6000fd5b505050506040513d6000823e3d601f19601f820116820180604052506060811015611da057600080fd5b8101908080516040519392919084640100000000821115611dc057600080fd5b83820191506020820185811115611dd657600080fd5b8251866001820283011164010000000082111715611df357600080fd5b8083526020830192505050908051906020019080838360005b83811015611e27578082015181840152602081019050611e0c565b50505050905090810190601f168015611e545780820380516001836020036101000a031916815260200191505b5060405260200180516040519392919084640100000000821115611e7757600080fd5b83820191506020820185811115611e8d57600080fd5b8251866001820283011164010000000082111715611eaa57600080fd5b8083526020830192505050908051906020019080838360005b83811015611ede578082015181840152602081019050611ec3565b50505050905090810190601f168015611f0b5780820380516001836020036101000a031916815260200191505b5060405260200180516040519392919084640100000000821115611f2e57600080fd5b83820191506020820185811115611f4457600080fd5b8251866001820283011164010000000082111715611f6157600080fd5b8083526020830192505050908051906020019080838360005b83811015611f95578082015181840152602081019050611f7a565b50505050905090810190601f168015611fc25780820380516001836020036101000a031916815260200191505b5060405250505092505091506000809054906101000a900473ffffffffffffffffffffffffffffffffffffffff1673ffffffffffffffffffffffffffffffffffffffff1663809db2f8888489856040518563ffffffff1660e01b815260040180858152602001806020018060200180602001848103845287818151815260200191508051906020019080838360005b8381101561206c578082015181840152602081019050612051565b50505050905090810190601f1680156120995780820380516001836020036101000a031916815260200191505b50848103835286818151815260200191508051906020019080838360005b838110156120d25780820151818401526020810190506120b7565b50505050905090810190601f1680156120ff5780820380516001836020036101000a031916815260200191505b50848103825285818151815260200191508051906020019080838360005b8381101561213857808201518184015260208101905061211d565b50505050905090810190601f1680156121655780820380516001836020036101000a031916815260200191505b50975050505050505050600060405180830381600087803b15801561218957600080fd5b505af115801561219d573d6000803e3d6000fd5b5050505050505050505050565b823373ffffffffffffffffffffffffffffffffffffffff166000809054906101000a900473ffffffffffffffffffffffffffffffffffffffff1673ffffffffffffffffffffffffffffffffffffffff16637ace341b836040518263ffffffff1660e01b81526004018082815260200191505060206040518083038186803b15801561223457600080fd5b505afa158015612248573d6000803e3d6000fd5b505050506040513d602081101561225e57600080fd5b810190808051906020019092919050505073ffffffffffffffffffffffffffffffffffffffff161461228f57600080fd5b6000809054906101000a900473ffffffffffffffffffffffffffffffffffffffff1673ffffffffffffffffffffffffffffffffffffffff1663dcd9d2cb8560016040518363ffffffff1660e01b8152600401808381526020018215151515815260200192505050600060405180830381600087803b15801561231057600080fd5b505af1158015612324573d6000803e3d6000fd5b5050505060608060606000809054906101000a900473ffffffffffffffffffffffffffffffffffffffff1673ffffffffffffffffffffffffffffffffffffffff166323bb1835886040518263ffffffff1660e01b81526004018082815260200191505060006040518083038186803b15801561239f57600080fd5b505afa1580156123b3573d6000803e3d6000fd5b505050506040513d6000823e3d601f19601f8201168201806040525060608110156123dd57600080fd5b81019080805160405193929190846401000000008211156123fd57600080fd5b8382019150602082018581111561241357600080fd5b825186600182028301116401000000008211171561243057600080fd5b8083526020830192505050908051906020019080838360005b83811015612464578082015181840152602081019050612449565b50505050905090810190601f1680156124915780820380516001836020036101000a031916815260200191505b50604052602001805160405193929190846401000000008211156124b457600080fd5b838201915060208201858111156124ca57600080fd5b82518660018202830111640100000000821117156124e757600080fd5b8083526020830192505050908051906020019080838360005b8381101561251b578082015181840152602081019050612500565b50505050905090810190601f1680156125485780820380516001836020036101000a031916815260200191505b506040526020018051604051939291908464010000000082111561256b57600080fd5b8382019150602082018581111561258157600080fd5b825186600182028301116401000000008211171561259e57600080fd5b8083526020830192505050908051906020019080838360005b838110156125d25780820151818401526020810190506125b7565b50505050905090810190601f1680156125ff5780820380516001836020036101000a031916815260200191505b506040525050509250925092506000809054906101000a900473ffffffffffffffffffffffffffffffffffffffff1673ffffffffffffffffffffffffffffffffffffffff1663d88ee329888585856040518563ffffffff1660e01b815260040180858152602001806020018060200180602001848103845287818151815260200191508051906020019080838360005b838110156126aa57808201518184015260208101905061268f565b50505050905090810190601f1680156126d75780820380516001836020036101000a031916815260200191505b50848103835286818151815260200191508051906020019080838360005b838110156127105780820151818401526020810190506126f5565b50505050905090810190601f16801561273d5780820380516001836020036101000a031916815260200191505b50848103825285818151815260200191508051906020019080838360005b8381101561277657808201518184015260208101905061275b565b50505050905090810190601f1680156127a35780820380516001836020036101000a031916815260200191505b50975050505050505050600060405180830381600087803b1580156127c757600080fd5b505af11580156127db573d6000803e3d6000fd5b505050506000809054906101000a900473ffffffffffffffffffffffffffffffffffffffff1673ffffffffffffffffffffffffffffffffffffffff1663809db2f88888886040518463ffffffff1660e01b815260040180848152602001806020018060200180602001848103845286818151815260200191508051906020019080838360005b8381101561287c578082015181840152602081019050612861565b50505050905090810190601f1680156128a95780820380516001836020036101000a031916815260200191505b50848103835260008152602001602001848103825285818151815260200191508051906020019080838360005b838110156128f15780820151818401526020810190506128d6565b50505050905090810190601f16801561291e5780820380516001836020036101000a031916815260200191505b509650505050505050600060405180830381600087803b15801561294157600080fd5b505af1158015612955573d6000803e3d6000fd5b5050505050505050505050565b6000806001905060008090505b8c51811015612a5657600115156000809054906101000a900473ffffffffffffffffffffffffffffffffffffffff1673ffffffffffffffffffffffffffffffffffffffff1663c272137c8f84815181106129c557fe5b60200260200101516040518263ffffffff1660e01b81526004018082815260200191505060206040518083038186803b158015612a0157600080fd5b505afa158015612a15573d6000803e3d6000fd5b505050506040513d6020811015612a2b57600080fd5b810190808051906020019092919050505015151415612a4957612a56565b808060010191505061296f565b506001151581151514612ab4576040517f08c379a00000000000000000000000000000000000000000000000000000000081526004018080602001828103825260338152602001806137696033913960400191505060405180910390fd5b60008060009054906101000a900473ffffffffffffffffffffffffffffffffffffffff1673ffffffffffffffffffffffffffffffffffffffff1663d5e7986f308b8b8b8b8b6040518763ffffffff1660e01b815260040180806020018873ffffffffffffffffffffffffffffffffffffffff1673ffffffffffffffffffffffffffffffffffffffff1681526020018781526020018060200186815260200185815260200180602001848103845260048152602001807f57696e6500000000000000000000000000000000000000000000000000000000815250602001848103835288818151815260200191508051906020019080838360005b83811015612bc8578082015181840152602081019050612bad565b50505050905090810190601f168015612bf55780820380516001836020036101000a031916815260200191505b50848103825285818151815260200191508051906020019080838360005b83811015612c2e578082015181840152602081019050612c13565b50505050905090810190601f168015612c5b5780820380516001836020036101000a031916815260200191505b509950505050505050505050602060405180830381600087803b158015612c8157600080fd5b505af1158015612c95573d6000803e3d6000fd5b505050506040513d6020811015612cab57600080fd5b810190808051906020019092919050505090506000809054906101000a900473ffffffffffffffffffffffffffffffffffffffff1673ffffffffffffffffffffffffffffffffffffffff166387f31bef828e6040518363ffffffff1660e01b81526004018083815260200180602001828103825283818151815260200191508051906020019080838360005b83811015612d52578082015181840152602081019050612d37565b50505050905090810190601f168015612d7f5780820380516001836020036101000a031916815260200191505b509350505050600060405180830381600087803b158015612d9f57600080fd5b505af1158015612db3573d6000803e3d6000fd5b505050506000809054906101000a900473ffffffffffffffffffffffffffffffffffffffff1673ffffffffffffffffffffffffffffffffffffffff16636d126874828d6040518363ffffffff1660e01b81526004018083815260200180602001828103825283818151815260200191508051906020019080838360005b83811015612e4b578082015181840152602081019050612e30565b50505050905090810190601f168015612e785780820380516001836020036101000a031916815260200191505b509350505050600060405180830381600087803b158015612e9857600080fd5b505af1158015612eac573d6000803e3d6000fd5b505050506000809054906101000a900473ffffffffffffffffffffffffffffffffffffffff1673ffffffffffffffffffffffffffffffffffffffff16632364d78b82896040518363ffffffff1660e01b81526004018083815260200182815260200192505050600060405180830381600087803b158015612f2c57600080fd5b505af1158015612f40573d6000803e3d6000fd5b505050506000809054906101000a900473ffffffffffffffffffffffffffffffffffffffff1673ffffffffffffffffffffffffffffffffffffffff166343c92b6a828c6040518363ffffffff1660e01b81526004018083815260200180602001828103825283818151815260200191508051906020019080838360005b83811015612fd8578082015181840152602081019050612fbd565b50505050905090810190601f1680156130055780820380516001836020036101000a031916815260200191505b509350505050600060405180830381600087803b15801561302557600080fd5b505af1158015613039573d6000803e3d6000fd5b505050506000809054906101000a900473ffffffffffffffffffffffffffffffffffffffff1673ffffffffffffffffffffffffffffffffffffffff1663809db2f882866040518363ffffffff1660e01b815260040180838152602001806020018060200180602001848103845285818151815260200191508051906020019080838360005b838110156130d95780820151818401526020810190506130be565b50505050905090810190601f1680156131065780820380516001836020036101000a031916815260200191505b5084810383526000815260200160200184810382526000815260200160200195505050505050600060405180830381600087803b15801561314657600080fd5b505af115801561315a573d6000803e3d6000fd5b5050505060008090505b8d518110156132275760008e828151811061317b57fe5b602002602001015190506000809054906101000a900473ffffffffffffffffffffffffffffffffffffffff1673ffffffffffffffffffffffffffffffffffffffff1663cf42316d84836040518363ffffffff1660e01b81526004018083815260200182815260200192505050600060405180830381600087803b15801561320157600080fd5b505af1158015613215573d6000803e3d6000fd5b50505050508080600101915050613164565b5060008090505b8d518110156132f0576000809054906101000a900473ffffffffffffffffffffffffffffffffffffffff1673ffffffffffffffffffffffffffffffffffffffff16636caff5dc8f838151811061328057fe5b602002602001015160016040518363ffffffff1660e01b8152600401808381526020018215151515815260200192505050600060405180830381600087803b1580156132cb57600080fd5b505af11580156132df573d6000803e3d6000fd5b50505050808060010191505061322e565b5080925050509a9950505050505050505050565b6000806000809054906101000a900473ffffffffffffffffffffffffffffffffffffffff1673ffffffffffffffffffffffffffffffffffffffff1663fe73e86c856040518263ffffffff1660e01b81526004018082815260200191505060206040518083038186803b15801561337957600080fd5b505afa15801561338d573d6000803e3d6000fd5b505050506040513d60208110156133a357600080fd5b81019080805190602001909291905050506000809054906101000a900473ffffffffffffffffffffffffffffffffffffffff1673ffffffffffffffffffffffffffffffffffffffff166364c0e52f866040518263ffffffff1660e01b81526004018082815260200191505060206040518083038186803b15801561342657600080fd5b505afa15801561343a573d6000803e3d6000fd5b505050506040513d602081101561345057600080fd5b81019080805190602001909291905050500290508034116134bc576040517f08c379a00000000000000000000000000000000000000000000000000000000081526004018080602001828103825260258152602001806137446025913960400191505060405180910390fd5b60008060009054906101000a900473ffffffffffffffffffffffffffffffffffffffff1673ffffffffffffffffffffffffffffffffffffffff16637ace341b866040518263ffffffff1660e01b81526004018082815260200191505060206040518083038186803b15801561353057600080fd5b505afa158015613544573d6000803e3d6000fd5b505050506040513d602081101561355a57600080fd5b810190808051906020019092919050505090508073ffffffffffffffffffffffffffffffffffffffff166108fc839081150290604051600060405180830381858888f193505050501580156135b3573d6000803e3d6000fd5b50600160009054906101000a900473ffffffffffffffffffffffffffffffffffffffff1673ffffffffffffffffffffffffffffffffffffffff1663bcb448b0868633306040518563ffffffff1660e01b815260040180858152602001806020018473ffffffffffffffffffffffffffffffffffffffff1673ffffffffffffffffffffffffffffffffffffffff1681526020018373ffffffffffffffffffffffffffffffffffffffff1673ffffffffffffffffffffffffffffffffffffffff168152602001828103825285818151815260200191508051906020019080838360005b838110156136af578082015181840152602081019050613694565b50505050905090810190601f1680156136dc5780820380516001836020036101000a031916815260200191505b5095505050505050600060405180830381600087803b1580156136fe57600080fd5b505af1158015613712573d6000803e3d6000fd5b5050505050509291505056fe50726f6475637420697320616c726561647920726561647920666f72207368697070696e67496e737566666963656e742062616c616e636520746f206275792074686520737570706c79596f7520446f204e6f7420486176652053756666696369656e742050726f647563747320546f2050726f636573732057696e65a265627a7a72315820c11bbbcde9c22cf7a7c4aaf16edca13b217cb467ee22269859b53b567184561164736f6c63430005100032",
  "source": "pragma solidity ^0.5.0;\n\nimport \"./Product.sol\";\nimport \"./RawMaterialSupplier.sol\";\n\ncontract WineProducer {\n    Product productContract;\n    RawMaterialSupplier rawMaterialSupplierContract;\n    address wineProducerAddress = msg.sender;\n    constructor(Product productContractddress, RawMaterialSupplier supplierContractAddress) public {\n        productContract = productContractddress;\n        rawMaterialSupplierContract = supplierContractAddress;\n    }\n\n    //modifiers\n    modifier ownerOnly(uint256 productId) {\n        require(productContract.getCurrentOwner(productId) == msg.sender);\n        _;\n    }\n\n\n    function buy(\n        uint256 productId,\n        string memory disbatchDate\n    ) public payable returns(uint256) {\n        uint256 productPrice = productContract.getUnitPrice(productId) * productContract.getBatchQuantity(productId);\n        require(msg.value > productPrice, \"Insufficent balance to buy the supply\");\n        address payable targetAddress = address(uint160(productContract.getCurrentOwner(productId)));\n        targetAddress.transfer(productPrice);\n\n        rawMaterialSupplierContract.disbatchRawMaterial(\n            productId, \n            disbatchDate, \n            msg.sender,\n            address(this)\n        );\n    }\n\n    function received(\n        uint256 productId,\n        string memory currentLocation,\n        string memory arrivalDate\n    ) public ownerOnly(productId) {\n        productContract.setReceived(productId, true);\n        (string memory location, string memory disbatchDate, string memory prevArrivalDate) = productContract.getCurrentLocation(productId);\n        productContract.addPreviousLocation(productId, location, disbatchDate, prevArrivalDate);\n        productContract.setCurrentLocation(productId, currentLocation, \"\", arrivalDate);\n    }\n\n\n    function wineReadyToShip(uint256 productId, string memory newLocation) public ownerOnly(productId) {\n        require(productContract.getReadyToShip(productId) == false, \"Product is already ready for shipping\");\n        require(keccak256(abi.encodePacked(productContract.getProductName(productId))) == keccak256(abi.encodePacked(\"Wine\")), \"You can only ship wine products\");\n\n        productContract.setReadyToShip(productId, true);\n        (string memory location, string memory disbatchDate, string memory arrivalDate) = productContract.getCurrentLocation(productId);\n        productContract.addPreviousLocation(productId, location, disbatchDate, arrivalDate);\n        productContract.setCurrentLocation(productId, newLocation, \"\", \"\");\n    }\n\n    function processWine(\n        uint256[] memory productIds,\n        string memory placeOfOrigin,\n        string memory productionDate,\n        string memory expirationDate, \n        uint256 unitQuantity, \n        string memory unitQuantityType, \n        uint256 batchQuantity, \n        uint256 unitPrice, \n        string memory category, \n        string memory currentPhysicalLocation\n        ) public returns (uint256) {\n\n\n        bool allAvailableToUse = true;\n        for (uint256 i = 0; i < productIds.length; i++) {\n            if (productContract.getUsed((productIds[i])) == true) {\n                allAvailableToUse == false;\n                break;\n            }\n        }\n\n        require(allAvailableToUse == true, \"You Do Not Have Sufficient Products To Process Wine\");\n\n        //CreateWine and add all the materials Inside\n\n        uint256 wineProductId = productContract.createProduct(\n            \"Wine\", \n            address(this),\n            unitQuantity, \n            unitQuantityType, \n            batchQuantity, \n            unitPrice, \n            category\n            );\n\n        productContract.setPlaceOfOrigin(wineProductId, placeOfOrigin);\n        productContract.setProductionDate(wineProductId, productionDate);\n        productContract.setBatchQuantity(wineProductId, batchQuantity);\n        productContract.setExpirationDate(wineProductId, expirationDate);\n        productContract.setCurrentLocation(wineProductId, currentPhysicalLocation, \"\", \"\");\n\n        for (uint256 i = 0; i < productIds.length; i++) {\n            uint256 productId = productIds[i];\n            productContract.addComponentProduct(wineProductId, productId);\n        }\n    \n\n        //Use up all the materials\n        for (uint256 i = 0; i < productIds.length; i++) {\n            productContract.setUsed(productIds[i], true);\n        }\n\n        return wineProductId;\n    }\n\n    function disbatchWineToBulkDistributor(uint256 productId, string memory newDisbatchDate, address bulkDistributorAddress, address bulkDistributorContractAddress) public ownerOnly(productId) {\n        require(productContract.getReadyToShip(productId) == true, \"Product not ready for shipping\");\n        require(keccak256(abi.encodePacked(productContract.getProductName(productId))) == keccak256(abi.encodePacked(\"Wine\")), \"You can only ship wine products\");\n        \n        productContract.setPreviousOwner(productId, productContract.getCurrentOwner(productId));\n        productContract.setCurrentOwner(productId, bulkDistributorAddress);\n        productContract.setPreviousContractAddress(productId, productContract.getCurrentContractAddress(productId));\n        productContract.setCurrentContractAddress(productId, bulkDistributorContractAddress);\n        (string memory location, , string memory arrivalDate) = productContract.getCurrentLocation(productId);\n        productContract.setCurrentLocation(productId, location, newDisbatchDate, arrivalDate);\n    }\n}\n\n\n\n\n\n\n\n\n\n\n\n\n\n\n\n\n\n\n\n\n\n\n\n\n\n\n\n\n\n\n\n\n\n\n\n\n\n\n\n\n\n\n\n\n\n\n\n\n\n\n\n\n\n\n\n\n\n\n\n\n\n\n\n\n\n\n\n\n\n\n\n\n\n\n\n\n\n\n\n\n    ",
  "sourcePath": "/Users/kathleen/IS4302/Project/Wine-Supplychain-Blockchain/contracts/WineProducer.sol",
  "compiler": {
    "name": "solc",
    "version": "0.5.16+commit.9c3226ce.Emscripten.clang"
  },
  "schemaVersion": "3.4.11",
  "updatedAt": "2023-04-05T03:08:26.136Z",
  "devdoc": {
    "methods": {}
  },
  "userdoc": {
    "methods": {}
  }
}