{
  "contractName": "WineProducer",
  "abi": [
    {
      "inputs": [
        {
          "internalType": "contract Product",
          "name": "productContractddress",
          "type": "address"
        },
        {
          "internalType": "contract RawMaterialSupplier",
          "name": "supplierContractAddress",
          "type": "address"
        }
      ],
      "payable": false,
      "stateMutability": "nonpayable",
      "type": "constructor"
    },
    {
      "anonymous": false,
      "inputs": [
        {
          "indexed": false,
          "internalType": "uint256",
          "name": "productId",
          "type": "uint256"
        }
      ],
      "name": "WineDisbatched",
      "type": "event"
    },
    {
      "anonymous": false,
      "inputs": [
        {
          "indexed": false,
          "internalType": "uint256",
          "name": "productId",
          "type": "uint256"
        }
      ],
      "name": "WineReadyToShip",
      "type": "event"
    },
    {
      "anonymous": false,
      "inputs": [
        {
          "indexed": false,
          "internalType": "uint256",
          "name": "productId",
          "type": "uint256"
        }
      ],
      "name": "buyRawMaterial",
      "type": "event"
    },
    {
      "anonymous": false,
      "inputs": [
        {
          "indexed": false,
          "internalType": "uint256",
          "name": "productId",
          "type": "uint256"
        }
      ],
      "name": "processedWine",
      "type": "event"
    },
    {
      "anonymous": false,
      "inputs": [
        {
          "indexed": false,
          "internalType": "uint256",
          "name": "productId",
          "type": "uint256"
        }
      ],
      "name": "rawMaterialReceived",
      "type": "event"
    },
    {
      "anonymous": false,
      "inputs": [
        {
          "indexed": false,
          "internalType": "uint256",
          "name": "productId",
          "type": "uint256"
        }
      ],
      "name": "refundWine",
      "type": "event"
    },
    {
      "anonymous": false,
      "inputs": [
        {
          "indexed": false,
          "internalType": "uint256",
          "name": "productId",
          "type": "uint256"
        }
      ],
      "name": "returnedRawMaterial",
      "type": "event"
    },
    {
      "anonymous": false,
      "inputs": [
        {
          "indexed": false,
          "internalType": "uint256",
          "name": "productId",
          "type": "uint256"
        }
      ],
      "name": "wineRemoved",
      "type": "event"
    },
    {
      "constant": false,
      "inputs": [
        {
          "internalType": "uint256",
          "name": "productId",
          "type": "uint256"
        }
      ],
      "name": "buy",
      "outputs": [
        {
          "internalType": "uint256",
          "name": "",
          "type": "uint256"
        }
      ],
      "payable": true,
      "stateMutability": "payable",
      "type": "function"
    },
    {
      "constant": false,
      "inputs": [
        {
          "internalType": "uint256",
          "name": "productId",
          "type": "uint256"
        },
        {
          "internalType": "string",
          "name": "currentLocation",
          "type": "string"
        },
        {
          "internalType": "string",
          "name": "arrivalDate",
          "type": "string"
        }
      ],
      "name": "received",
      "outputs": [],
      "payable": false,
      "stateMutability": "nonpayable",
      "type": "function"
    },
    {
      "constant": false,
      "inputs": [
        {
          "internalType": "uint256",
          "name": "productId",
          "type": "uint256"
        }
      ],
      "name": "removeWine",
      "outputs": [],
      "payable": false,
      "stateMutability": "nonpayable",
      "type": "function"
    },
    {
      "constant": false,
      "inputs": [
        {
          "internalType": "uint256",
          "name": "productId",
          "type": "uint256"
        }
      ],
      "name": "returnRawMaterials",
      "outputs": [],
      "payable": false,
      "stateMutability": "nonpayable",
      "type": "function"
    },
    {
      "constant": false,
      "inputs": [
        {
          "internalType": "uint256",
          "name": "productId",
          "type": "uint256"
        }
      ],
      "name": "refundBulkDistributor",
      "outputs": [],
      "payable": true,
      "stateMutability": "payable",
      "type": "function"
    },
    {
      "constant": false,
      "inputs": [
        {
          "internalType": "uint256",
          "name": "productId",
          "type": "uint256"
        }
      ],
      "name": "wineReadyToShip",
      "outputs": [],
      "payable": false,
      "stateMutability": "nonpayable",
      "type": "function"
    },
    {
      "constant": false,
      "inputs": [
        {
          "internalType": "uint256[]",
          "name": "productIds",
          "type": "uint256[]"
        },
        {
          "internalType": "string",
          "name": "placeOfOrigin",
          "type": "string"
        },
        {
          "internalType": "string",
          "name": "productionDate",
          "type": "string"
        },
        {
          "internalType": "string",
          "name": "expirationDate",
          "type": "string"
        },
        {
          "internalType": "uint256",
          "name": "unitQuantity",
          "type": "uint256"
        },
        {
          "internalType": "string",
          "name": "unitQuantityType",
          "type": "string"
        },
        {
          "internalType": "uint256",
          "name": "batchQuantity",
          "type": "uint256"
        },
        {
          "internalType": "uint256",
          "name": "unitPrice",
          "type": "uint256"
        },
        {
          "internalType": "string",
          "name": "category",
          "type": "string"
        },
        {
          "internalType": "string",
          "name": "currentPhysicalLocation",
          "type": "string"
        }
      ],
      "name": "processWine",
      "outputs": [
        {
          "internalType": "uint256",
          "name": "",
          "type": "uint256"
        }
      ],
      "payable": false,
      "stateMutability": "nonpayable",
      "type": "function"
    },
    {
      "constant": false,
      "inputs": [
        {
          "internalType": "uint256",
          "name": "productId",
          "type": "uint256"
        },
        {
          "internalType": "string",
          "name": "newDisbatchDate",
          "type": "string"
        },
        {
          "internalType": "address",
          "name": "bulkDistributorAddress",
          "type": "address"
        },
        {
          "internalType": "address",
          "name": "bulkDistributorContractAddress",
          "type": "address"
        }
      ],
      "name": "dispatchWineToBulkDistributor",
      "outputs": [],
      "payable": false,
      "stateMutability": "nonpayable",
      "type": "function"
    }
  ],
  "bytecode": "0x608060405233600260006101000a81548173ffffffffffffffffffffffffffffffffffffffff021916908373ffffffffffffffffffffffffffffffffffffffff16021790555034801561005157600080fd5b50604051613f00380380613f008339818101604052604081101561007457600080fd5b810190808051906020019092919080519060200190929190505050816000806101000a81548173ffffffffffffffffffffffffffffffffffffffff021916908373ffffffffffffffffffffffffffffffffffffffff16021790555080600160006101000a81548173ffffffffffffffffffffffffffffffffffffffff021916908373ffffffffffffffffffffffffffffffffffffffff1602179055505050613ddf806101216000396000f3fe60806040526004361061007b5760003560e01c8063798605ea1161004e578063798605ea1461028d57806399ee508d1461039f578063a9b2f38e14610821578063d96a094a1461085c5761007b565b806315bb14411461008057806349d23fb7146100bb5780635bd934891461022457806361abcc8d1461025f575b600080fd5b34801561008c57600080fd5b506100b9600480360360208110156100a357600080fd5b810190808035906020019092919050505061089e565b005b3480156100c757600080fd5b50610222600480360360608110156100de57600080fd5b81019080803590602001909291908035906020019064010000000081111561010557600080fd5b82018360208201111561011757600080fd5b8035906020019184600183028401116401000000008311171561013957600080fd5b91908080601f016020809104026020016040519081016040528093929190818152602001838380828437600081840152601f19601f8201169050808301925050505050505091929192908035906020019064010000000081111561019c57600080fd5b8201836020820111156101ae57600080fd5b803590602001918460018302840111640100000000831117156101d057600080fd5b91908080601f016020809104026020016040519081016040528093929190818152602001838380828437600081840152601f19601f820116905080830192505050505050509192919290505050610a4a565b005b34801561023057600080fd5b5061025d6004803603602081101561024757600080fd5b8101908080359060200190929190505050611239565b005b61028b6004803603602081101561027557600080fd5b81019080803590602001909291905050506114fb565b005b34801561029957600080fd5b5061039d600480360360808110156102b057600080fd5b8101908080359060200190929190803590602001906401000000008111156102d757600080fd5b8201836020820111156102e957600080fd5b8035906020019184600183028401116401000000008311171561030b57600080fd5b91908080601f016020809104026020016040519081016040528093929190818152602001838380828437600081840152601f19601f820116905080830192505050505050509192919290803573ffffffffffffffffffffffffffffffffffffffff169060200190929190803573ffffffffffffffffffffffffffffffffffffffff169060200190929190505050611a36565b005b3480156103ab57600080fd5b5061080b60048036036101408110156103c357600080fd5b81019080803590602001906401000000008111156103e057600080fd5b8201836020820111156103f257600080fd5b8035906020019184602083028401116401000000008311171561041457600080fd5b919080806020026020016040519081016040528093929190818152602001838360200280828437600081840152601f19601f8201169050808301925050505050505091929192908035906020019064010000000081111561047457600080fd5b82018360208201111561048657600080fd5b803590602001918460018302840111640100000000831117156104a857600080fd5b91908080601f016020809104026020016040519081016040528093929190818152602001838380828437600081840152601f19601f8201169050808301925050505050505091929192908035906020019064010000000081111561050b57600080fd5b82018360208201111561051d57600080fd5b8035906020019184600183028401116401000000008311171561053f57600080fd5b91908080601f016020809104026020016040519081016040528093929190818152602001838380828437600081840152601f19601f820116905080830192505050505050509192919290803590602001906401000000008111156105a257600080fd5b8201836020820111156105b457600080fd5b803590602001918460018302840111640100000000831117156105d657600080fd5b91908080601f016020809104026020016040519081016040528093929190818152602001838380828437600081840152601f19601f820116905080830192505050505050509192919290803590602001909291908035906020019064010000000081111561064357600080fd5b82018360208201111561065557600080fd5b8035906020019184600183028401116401000000008311171561067757600080fd5b91908080601f016020809104026020016040519081016040528093929190818152602001838380828437600081840152601f19601f8201169050808301925050505050505091929192908035906020019092919080359060200190929190803590602001906401000000008111156106ee57600080fd5b82018360208201111561070057600080fd5b8035906020019184600183028401116401000000008311171561072257600080fd5b91908080601f016020809104026020016040519081016040528093929190818152602001838380828437600081840152601f19601f8201169050808301925050505050505091929192908035906020019064010000000081111561078557600080fd5b82018360208201111561079757600080fd5b803590602001918460018302840111640100000000831117156107b957600080fd5b91908080601f016020809104026020016040519081016040528093929190818152602001838380828437600081840152601f19601f8201169050808301925050505050505091929192905050506128bc565b6040518082815260200191505060405180910390f35b34801561082d57600080fd5b5061085a6004803603602081101561084457600080fd5b8101908080359060200190929190505050613235565b005b6108886004803603602081101561087257600080fd5b8101908080359060200190929190505050613a19565b6040518082815260200191505060405180910390f35b803373ffffffffffffffffffffffffffffffffffffffff166000809054906101000a900473ffffffffffffffffffffffffffffffffffffffff1673ffffffffffffffffffffffffffffffffffffffff16637ace341b836040518263ffffffff1660e01b81526004018082815260200191505060206040518083038186803b15801561092857600080fd5b505afa15801561093c573d6000803e3d6000fd5b505050506040513d602081101561095257600080fd5b810190808051906020019092919050505073ffffffffffffffffffffffffffffffffffffffff161461098357600080fd5b6000809054906101000a900473ffffffffffffffffffffffffffffffffffffffff1673ffffffffffffffffffffffffffffffffffffffff16635ee95cae836040518263ffffffff1660e01b815260040180828152602001915050600060405180830381600087803b1580156109f757600080fd5b505af1158015610a0b573d6000803e3d6000fd5b505050507fa75642e219535e71f3332decace37ca196480295106318c0be229f8a4f4ae4f1826040518082815260200191505060405180910390a15050565b823373ffffffffffffffffffffffffffffffffffffffff166000809054906101000a900473ffffffffffffffffffffffffffffffffffffffff1673ffffffffffffffffffffffffffffffffffffffff16637ace341b836040518263ffffffff1660e01b81526004018082815260200191505060206040518083038186803b158015610ad457600080fd5b505afa158015610ae8573d6000803e3d6000fd5b505050506040513d6020811015610afe57600080fd5b810190808051906020019092919050505073ffffffffffffffffffffffffffffffffffffffff1614610b2f57600080fd5b6000809054906101000a900473ffffffffffffffffffffffffffffffffffffffff1673ffffffffffffffffffffffffffffffffffffffff1663dcd9d2cb8560016040518363ffffffff1660e01b8152600401808381526020018215151515815260200192505050600060405180830381600087803b158015610bb057600080fd5b505af1158015610bc4573d6000803e3d6000fd5b5050505060608060606000809054906101000a900473ffffffffffffffffffffffffffffffffffffffff1673ffffffffffffffffffffffffffffffffffffffff166323bb1835886040518263ffffffff1660e01b81526004018082815260200191505060006040518083038186803b158015610c3f57600080fd5b505afa158015610c53573d6000803e3d6000fd5b505050506040513d6000823e3d601f19601f820116820180604052506060811015610c7d57600080fd5b8101908080516040519392919084640100000000821115610c9d57600080fd5b83820191506020820185811115610cb357600080fd5b8251866001820283011164010000000082111715610cd057600080fd5b8083526020830192505050908051906020019080838360005b83811015610d04578082015181840152602081019050610ce9565b50505050905090810190601f168015610d315780820380516001836020036101000a031916815260200191505b5060405260200180516040519392919084640100000000821115610d5457600080fd5b83820191506020820185811115610d6a57600080fd5b8251866001820283011164010000000082111715610d8757600080fd5b8083526020830192505050908051906020019080838360005b83811015610dbb578082015181840152602081019050610da0565b50505050905090810190601f168015610de85780820380516001836020036101000a031916815260200191505b5060405260200180516040519392919084640100000000821115610e0b57600080fd5b83820191506020820185811115610e2157600080fd5b8251866001820283011164010000000082111715610e3e57600080fd5b8083526020830192505050908051906020019080838360005b83811015610e72578082015181840152602081019050610e57565b50505050905090810190601f168015610e9f5780820380516001836020036101000a031916815260200191505b506040525050509250925092506000809054906101000a900473ffffffffffffffffffffffffffffffffffffffff1673ffffffffffffffffffffffffffffffffffffffff1663d88ee329888585856040518563ffffffff1660e01b815260040180858152602001806020018060200180602001848103845287818151815260200191508051906020019080838360005b83811015610f4a578082015181840152602081019050610f2f565b50505050905090810190601f168015610f775780820380516001836020036101000a031916815260200191505b50848103835286818151815260200191508051906020019080838360005b83811015610fb0578082015181840152602081019050610f95565b50505050905090810190601f168015610fdd5780820380516001836020036101000a031916815260200191505b50848103825285818151815260200191508051906020019080838360005b83811015611016578082015181840152602081019050610ffb565b50505050905090810190601f1680156110435780820380516001836020036101000a031916815260200191505b50975050505050505050600060405180830381600087803b15801561106757600080fd5b505af115801561107b573d6000803e3d6000fd5b505050506000809054906101000a900473ffffffffffffffffffffffffffffffffffffffff1673ffffffffffffffffffffffffffffffffffffffff1663809db2f88888886040518463ffffffff1660e01b815260040180848152602001806020018060200180602001848103845286818151815260200191508051906020019080838360005b8381101561111c578082015181840152602081019050611101565b50505050905090810190601f1680156111495780820380516001836020036101000a031916815260200191505b50848103835260008152602001602001848103825285818151815260200191508051906020019080838360005b83811015611191578082015181840152602081019050611176565b50505050905090810190601f1680156111be5780820380516001836020036101000a031916815260200191505b509650505050505050600060405180830381600087803b1580156111e157600080fd5b505af11580156111f5573d6000803e3d6000fd5b505050507f241a6da8c76357bc41b8498a43bd67a7caf898a69f19aa9338d180ea4c7b684f876040518082815260200191505060405180910390a150505050505050565b803373ffffffffffffffffffffffffffffffffffffffff166000809054906101000a900473ffffffffffffffffffffffffffffffffffffffff1673ffffffffffffffffffffffffffffffffffffffff16637ace341b836040518263ffffffff1660e01b81526004018082815260200191505060206040518083038186803b1580156112c357600080fd5b505afa1580156112d7573d6000803e3d6000fd5b505050506040513d60208110156112ed57600080fd5b810190808051906020019092919050505073ffffffffffffffffffffffffffffffffffffffff161461131e57600080fd5b600015156000809054906101000a900473ffffffffffffffffffffffffffffffffffffffff1673ffffffffffffffffffffffffffffffffffffffff166340889b4f846040518263ffffffff1660e01b81526004018082815260200191505060206040518083038186803b15801561139457600080fd5b505afa1580156113a8573d6000803e3d6000fd5b505050506040513d60208110156113be57600080fd5b8101908080519060200190929190505050151514611427576040517f08c379a0000000000000000000000000000000000000000000000000000000008152600401808060200182810382526025815260200180613d086025913960400191505060405180910390fd5b6000809054906101000a900473ffffffffffffffffffffffffffffffffffffffff1673ffffffffffffffffffffffffffffffffffffffff16633d30ffb88360016040518363ffffffff1660e01b8152600401808381526020018215151515815260200192505050600060405180830381600087803b1580156114a857600080fd5b505af11580156114bc573d6000803e3d6000fd5b505050507f02fcf20b60cce521b0b7abd330c36f198af0697da0f66f3fb0869a8f00951404826040518082815260200191505060405180910390a15050565b803373ffffffffffffffffffffffffffffffffffffffff166000809054906101000a900473ffffffffffffffffffffffffffffffffffffffff1673ffffffffffffffffffffffffffffffffffffffff16637ace341b836040518263ffffffff1660e01b81526004018082815260200191505060206040518083038186803b15801561158557600080fd5b505afa158015611599573d6000803e3d6000fd5b505050506040513d60208110156115af57600080fd5b810190808051906020019092919050505073ffffffffffffffffffffffffffffffffffffffff16146115e057600080fd5b3373ffffffffffffffffffffffffffffffffffffffff166000809054906101000a900473ffffffffffffffffffffffffffffffffffffffff1673ffffffffffffffffffffffffffffffffffffffff16637ace341b846040518263ffffffff1660e01b81526004018082815260200191505060206040518083038186803b15801561166957600080fd5b505afa15801561167d573d6000803e3d6000fd5b505050506040513d602081101561169357600080fd5b810190808051906020019092919050505073ffffffffffffffffffffffffffffffffffffffff161461172d576040517f08c379a00000000000000000000000000000000000000000000000000000000081526004018080602001828103825260168152602001807f556e61626c6520746f20726566756e64206974656d730000000000000000000081525060200191505060405180910390fd5b60008060009054906101000a900473ffffffffffffffffffffffffffffffffffffffff1673ffffffffffffffffffffffffffffffffffffffff1663fe73e86c846040518263ffffffff1660e01b81526004018082815260200191505060206040518083038186803b1580156117a157600080fd5b505afa1580156117b5573d6000803e3d6000fd5b505050506040513d60208110156117cb57600080fd5b81019080805190602001909291905050506000809054906101000a900473ffffffffffffffffffffffffffffffffffffffff1673ffffffffffffffffffffffffffffffffffffffff166364c0e52f856040518263ffffffff1660e01b81526004018082815260200191505060206040518083038186803b15801561184e57600080fd5b505afa158015611862573d6000803e3d6000fd5b505050506040513d602081101561187857600080fd5b810190808051906020019092919050505002905080341015611902576040517f08c379a000000000000000000000000000000000000000000000000000000000815260040180806020018281038252601d8152602001807f496e737566666963656e7420616d6f756e7420666f7220726566756e6400000081525060200191505060405180910390fd5b60008060009054906101000a900473ffffffffffffffffffffffffffffffffffffffff1673ffffffffffffffffffffffffffffffffffffffff166256856a856040518263ffffffff1660e01b81526004018082815260200191505060206040518083038186803b15801561197557600080fd5b505afa158015611989573d6000803e3d6000fd5b505050506040513d602081101561199f57600080fd5b810190808051906020019092919050505090508073ffffffffffffffffffffffffffffffffffffffff166108fc839081150290604051600060405180830381858888f193505050501580156119f8573d6000803e3d6000fd5b507f376a28bb6c0a24411101d750f324a0b9a737da52d836c5231fa9cf0448efefec846040518082815260200191505060405180910390a150505050565b833373ffffffffffffffffffffffffffffffffffffffff166000809054906101000a900473ffffffffffffffffffffffffffffffffffffffff1673ffffffffffffffffffffffffffffffffffffffff16637ace341b836040518263ffffffff1660e01b81526004018082815260200191505060206040518083038186803b158015611ac057600080fd5b505afa158015611ad4573d6000803e3d6000fd5b505050506040513d6020811015611aea57600080fd5b810190808051906020019092919050505073ffffffffffffffffffffffffffffffffffffffff1614611b1b57600080fd5b600115156000809054906101000a900473ffffffffffffffffffffffffffffffffffffffff1673ffffffffffffffffffffffffffffffffffffffff166340889b4f876040518263ffffffff1660e01b81526004018082815260200191505060206040518083038186803b158015611b9157600080fd5b505afa158015611ba5573d6000803e3d6000fd5b505050506040513d6020811015611bbb57600080fd5b8101908080519060200190929190505050151514611c41576040517f08c379a000000000000000000000000000000000000000000000000000000000815260040180806020018281038252601e8152602001807f50726f64756374206e6f7420726561647920666f72207368697070696e67000081525060200191505060405180910390fd5b60405160200180807f57696e65000000000000000000000000000000000000000000000000000000008152506004019050604051602081830303815290604052805190602001206000809054906101000a900473ffffffffffffffffffffffffffffffffffffffff1673ffffffffffffffffffffffffffffffffffffffff16639e62e795876040518263ffffffff1660e01b81526004018082815260200191505060006040518083038186803b158015611cfa57600080fd5b505afa158015611d0e573d6000803e3d6000fd5b505050506040513d6000823e3d601f19601f820116820180604052506020811015611d3857600080fd5b8101908080516040519392919084640100000000821115611d5857600080fd5b83820191506020820185811115611d6e57600080fd5b8251866001820283011164010000000082111715611d8b57600080fd5b8083526020830192505050908051906020019080838360005b83811015611dbf578082015181840152602081019050611da4565b50505050905090810190601f168015611dec5780820380516001836020036101000a031916815260200191505b506040525050506040516020018082805190602001908083835b60208310611e295780518252602082019150602081019050602083039250611e06565b6001836020036101000a0380198251168184511680821785525050505050509050019150506040516020818303038152906040528051906020012014611ed7576040517f08c379a000000000000000000000000000000000000000000000000000000000815260040180806020018281038252601f8152602001807f596f752063616e206f6e6c7920736869702077696e652070726f64756374730081525060200191505060405180910390fd5b6000809054906101000a900473ffffffffffffffffffffffffffffffffffffffff1673ffffffffffffffffffffffffffffffffffffffff16630cc91022866000809054906101000a900473ffffffffffffffffffffffffffffffffffffffff1673ffffffffffffffffffffffffffffffffffffffff16637ace341b896040518263ffffffff1660e01b81526004018082815260200191505060206040518083038186803b158015611f8757600080fd5b505afa158015611f9b573d6000803e3d6000fd5b505050506040513d6020811015611fb157600080fd5b81019080805190602001909291905050506040518363ffffffff1660e01b8152600401808381526020018273ffffffffffffffffffffffffffffffffffffffff1673ffffffffffffffffffffffffffffffffffffffff16815260200192505050600060405180830381600087803b15801561202b57600080fd5b505af115801561203f573d6000803e3d6000fd5b505050506000809054906101000a900473ffffffffffffffffffffffffffffffffffffffff1673ffffffffffffffffffffffffffffffffffffffff166391f4caca866000809054906101000a900473ffffffffffffffffffffffffffffffffffffffff1673ffffffffffffffffffffffffffffffffffffffff16630772c45e896040518263ffffffff1660e01b81526004018082815260200191505060206040518083038186803b1580156120f357600080fd5b505afa158015612107573d6000803e3d6000fd5b505050506040513d602081101561211d57600080fd5b81019080805190602001909291905050506040518363ffffffff1660e01b8152600401808381526020018273ffffffffffffffffffffffffffffffffffffffff1673ffffffffffffffffffffffffffffffffffffffff16815260200192505050600060405180830381600087803b15801561219757600080fd5b505af11580156121ab573d6000803e3d6000fd5b505050506000809054906101000a900473ffffffffffffffffffffffffffffffffffffffff1673ffffffffffffffffffffffffffffffffffffffff166358ff352a86846040518363ffffffff1660e01b8152600401808381526020018273ffffffffffffffffffffffffffffffffffffffff1673ffffffffffffffffffffffffffffffffffffffff16815260200192505050600060405180830381600087803b15801561225757600080fd5b505af115801561226b573d6000803e3d6000fd5b505050506060806000809054906101000a900473ffffffffffffffffffffffffffffffffffffffff1673ffffffffffffffffffffffffffffffffffffffff166323bb1835886040518263ffffffff1660e01b81526004018082815260200191505060006040518083038186803b1580156122e457600080fd5b505afa1580156122f8573d6000803e3d6000fd5b505050506040513d6000823e3d601f19601f82011682018060405250606081101561232257600080fd5b810190808051604051939291908464010000000082111561234257600080fd5b8382019150602082018581111561235857600080fd5b825186600182028301116401000000008211171561237557600080fd5b8083526020830192505050908051906020019080838360005b838110156123a957808201518184015260208101905061238e565b50505050905090810190601f1680156123d65780820380516001836020036101000a031916815260200191505b50604052602001805160405193929190846401000000008211156123f957600080fd5b8382019150602082018581111561240f57600080fd5b825186600182028301116401000000008211171561242c57600080fd5b8083526020830192505050908051906020019080838360005b83811015612460578082015181840152602081019050612445565b50505050905090810190601f16801561248d5780820380516001836020036101000a031916815260200191505b50604052602001805160405193929190846401000000008211156124b057600080fd5b838201915060208201858111156124c657600080fd5b82518660018202830111640100000000821117156124e357600080fd5b8083526020830192505050908051906020019080838360005b838110156125175780820151818401526020810190506124fc565b50505050905090810190601f1680156125445780820380516001836020036101000a031916815260200191505b5060405250505092505091506000809054906101000a900473ffffffffffffffffffffffffffffffffffffffff1673ffffffffffffffffffffffffffffffffffffffff1663809db2f8888489856040518563ffffffff1660e01b815260040180858152602001806020018060200180602001848103845287818151815260200191508051906020019080838360005b838110156125ee5780820151818401526020810190506125d3565b50505050905090810190601f16801561261b5780820380516001836020036101000a031916815260200191505b50848103835286818151815260200191508051906020019080838360005b83811015612654578082015181840152602081019050612639565b50505050905090810190601f1680156126815780820380516001836020036101000a031916815260200191505b50848103825285818151815260200191508051906020019080838360005b838110156126ba57808201518184015260208101905061269f565b50505050905090810190601f1680156126e75780820380516001836020036101000a031916815260200191505b50975050505050505050600060405180830381600087803b15801561270b57600080fd5b505af115801561271f573d6000803e3d6000fd5b505050506000809054906101000a900473ffffffffffffffffffffffffffffffffffffffff1673ffffffffffffffffffffffffffffffffffffffff16636c125a6b88876040518363ffffffff1660e01b8152600401808381526020018273ffffffffffffffffffffffffffffffffffffffff1673ffffffffffffffffffffffffffffffffffffffff16815260200192505050600060405180830381600087803b1580156127cb57600080fd5b505af11580156127df573d6000803e3d6000fd5b505050506000809054906101000a900473ffffffffffffffffffffffffffffffffffffffff1673ffffffffffffffffffffffffffffffffffffffff1663dcd9d2cb8860006040518363ffffffff1660e01b8152600401808381526020018215151515815260200192505050600060405180830381600087803b15801561286457600080fd5b505af1158015612878573d6000803e3d6000fd5b505050507f77a4ec0c2621fb3bb948ac511faa170e3c33b178d4cb115cb53c9953008e05cc876040518082815260200191505060405180910390a150505050505050565b6000806001905060008090505b8c518110156129b057600115156000809054906101000a900473ffffffffffffffffffffffffffffffffffffffff1673ffffffffffffffffffffffffffffffffffffffff1663c272137c8f848151811061291f57fe5b60200260200101516040518263ffffffff1660e01b81526004018082815260200191505060206040518083038186803b15801561295b57600080fd5b505afa15801561296f573d6000803e3d6000fd5b505050506040513d602081101561298557600080fd5b8101908080519060200190929190505050151514156129a3576129b0565b80806001019150506128c9565b506001151581151514612a0e576040517f08c379a0000000000000000000000000000000000000000000000000000000008152600401808060200182810382526033815260200180613d526033913960400191505060405180910390fd5b60008060009054906101000a900473ffffffffffffffffffffffffffffffffffffffff1673ffffffffffffffffffffffffffffffffffffffff166331260fd3308b8b8b8b8b336040518863ffffffff1660e01b815260040180806020018973ffffffffffffffffffffffffffffffffffffffff1673ffffffffffffffffffffffffffffffffffffffff16815260200188815260200180602001878152602001868152602001806020018573ffffffffffffffffffffffffffffffffffffffff1673ffffffffffffffffffffffffffffffffffffffff168152602001848103845260048152602001807f57696e6500000000000000000000000000000000000000000000000000000000815250602001848103835289818151815260200191508051906020019080838360005b83811015612b55578082015181840152602081019050612b3a565b50505050905090810190601f168015612b825780820380516001836020036101000a031916815260200191505b50848103825286818151815260200191508051906020019080838360005b83811015612bbb578082015181840152602081019050612ba0565b50505050905090810190601f168015612be85780820380516001836020036101000a031916815260200191505b509a5050505050505050505050602060405180830381600087803b158015612c0f57600080fd5b505af1158015612c23573d6000803e3d6000fd5b505050506040513d6020811015612c3957600080fd5b810190808051906020019092919050505090506000809054906101000a900473ffffffffffffffffffffffffffffffffffffffff1673ffffffffffffffffffffffffffffffffffffffff166387f31bef828e6040518363ffffffff1660e01b81526004018083815260200180602001828103825283818151815260200191508051906020019080838360005b83811015612ce0578082015181840152602081019050612cc5565b50505050905090810190601f168015612d0d5780820380516001836020036101000a031916815260200191505b509350505050600060405180830381600087803b158015612d2d57600080fd5b505af1158015612d41573d6000803e3d6000fd5b505050506000809054906101000a900473ffffffffffffffffffffffffffffffffffffffff1673ffffffffffffffffffffffffffffffffffffffff16636d126874828d6040518363ffffffff1660e01b81526004018083815260200180602001828103825283818151815260200191508051906020019080838360005b83811015612dd9578082015181840152602081019050612dbe565b50505050905090810190601f168015612e065780820380516001836020036101000a031916815260200191505b509350505050600060405180830381600087803b158015612e2657600080fd5b505af1158015612e3a573d6000803e3d6000fd5b505050506000809054906101000a900473ffffffffffffffffffffffffffffffffffffffff1673ffffffffffffffffffffffffffffffffffffffff166343c92b6a828c6040518363ffffffff1660e01b81526004018083815260200180602001828103825283818151815260200191508051906020019080838360005b83811015612ed2578082015181840152602081019050612eb7565b50505050905090810190601f168015612eff5780820380516001836020036101000a031916815260200191505b509350505050600060405180830381600087803b158015612f1f57600080fd5b505af1158015612f33573d6000803e3d6000fd5b505050506000809054906101000a900473ffffffffffffffffffffffffffffffffffffffff1673ffffffffffffffffffffffffffffffffffffffff1663809db2f882866040518363ffffffff1660e01b815260040180838152602001806020018060200180602001848103845285818151815260200191508051906020019080838360005b83811015612fd3578082015181840152602081019050612fb8565b50505050905090810190601f1680156130005780820380516001836020036101000a031916815260200191505b5084810383526000815260200160200184810382526000815260200160200195505050505050600060405180830381600087803b15801561304057600080fd5b505af1158015613054573d6000803e3d6000fd5b5050505060008090505b8d518110156131215760008e828151811061307557fe5b602002602001015190506000809054906101000a900473ffffffffffffffffffffffffffffffffffffffff1673ffffffffffffffffffffffffffffffffffffffff1663cf42316d84836040518363ffffffff1660e01b81526004018083815260200182815260200192505050600060405180830381600087803b1580156130fb57600080fd5b505af115801561310f573d6000803e3d6000fd5b5050505050808060010191505061305e565b5060008090505b8d518110156131ea576000809054906101000a900473ffffffffffffffffffffffffffffffffffffffff1673ffffffffffffffffffffffffffffffffffffffff16636caff5dc8f838151811061317a57fe5b602002602001015160016040518363ffffffff1660e01b8152600401808381526020018215151515815260200192505050600060405180830381600087803b1580156131c557600080fd5b505af11580156131d9573d6000803e3d6000fd5b505050508080600101915050613128565b507feccac678a7eb965cd660e1d809d4856b4ce9c231b6bcca6e06247e1ee47e770e816040518082815260200191505060405180910390a180925050509a9950505050505050505050565b803373ffffffffffffffffffffffffffffffffffffffff166000809054906101000a900473ffffffffffffffffffffffffffffffffffffffff1673ffffffffffffffffffffffffffffffffffffffff16637ace341b836040518263ffffffff1660e01b81526004018082815260200191505060206040518083038186803b1580156132bf57600080fd5b505afa1580156132d3573d6000803e3d6000fd5b505050506040513d60208110156132e957600080fd5b810190808051906020019092919050505073ffffffffffffffffffffffffffffffffffffffff161461331a57600080fd5b600115156000809054906101000a900473ffffffffffffffffffffffffffffffffffffffff1673ffffffffffffffffffffffffffffffffffffffff16631becaefb846040518263ffffffff1660e01b81526004018082815260200191505060206040518083038186803b15801561339057600080fd5b505afa1580156133a4573d6000803e3d6000fd5b505050506040513d60208110156133ba57600080fd5b8101908080519060200190929190505050151514613423576040517f08c379a0000000000000000000000000000000000000000000000000000000008152600401808060200182810382526026815260200180613d856026913960400191505060405180910390fd5b60008060009054906101000a900473ffffffffffffffffffffffffffffffffffffffff1673ffffffffffffffffffffffffffffffffffffffff166256856a846040518263ffffffff1660e01b81526004018082815260200191505060206040518083038186803b15801561349657600080fd5b505afa1580156134aa573d6000803e3d6000fd5b505050506040513d60208110156134c057600080fd5b8101908080519060200190929190505050905060008060009054906101000a900473ffffffffffffffffffffffffffffffffffffffff1673ffffffffffffffffffffffffffffffffffffffff16635e478e6c856040518263ffffffff1660e01b81526004018082815260200191505060206040518083038186803b15801561354757600080fd5b505afa15801561355b573d6000803e3d6000fd5b505050506040513d602081101561357157600080fd5b810190808051906020019092919050505090506000809054906101000a900473ffffffffffffffffffffffffffffffffffffffff1673ffffffffffffffffffffffffffffffffffffffff16630cc91022856000809054906101000a900473ffffffffffffffffffffffffffffffffffffffff1673ffffffffffffffffffffffffffffffffffffffff16637ace341b886040518263ffffffff1660e01b81526004018082815260200191505060206040518083038186803b15801561363457600080fd5b505afa158015613648573d6000803e3d6000fd5b505050506040513d602081101561365e57600080fd5b81019080805190602001909291905050506040518363ffffffff1660e01b8152600401808381526020018273ffffffffffffffffffffffffffffffffffffffff1673ffffffffffffffffffffffffffffffffffffffff16815260200192505050600060405180830381600087803b1580156136d857600080fd5b505af11580156136ec573d6000803e3d6000fd5b505050506000809054906101000a900473ffffffffffffffffffffffffffffffffffffffff1673ffffffffffffffffffffffffffffffffffffffff166391f4caca856000809054906101000a900473ffffffffffffffffffffffffffffffffffffffff1673ffffffffffffffffffffffffffffffffffffffff16630772c45e886040518263ffffffff1660e01b81526004018082815260200191505060206040518083038186803b1580156137a057600080fd5b505afa1580156137b4573d6000803e3d6000fd5b505050506040513d60208110156137ca57600080fd5b81019080805190602001909291905050506040518363ffffffff1660e01b8152600401808381526020018273ffffffffffffffffffffffffffffffffffffffff1673ffffffffffffffffffffffffffffffffffffffff16815260200192505050600060405180830381600087803b15801561384457600080fd5b505af1158015613858573d6000803e3d6000fd5b505050506000809054906101000a900473ffffffffffffffffffffffffffffffffffffffff1673ffffffffffffffffffffffffffffffffffffffff166358ff352a85836040518363ffffffff1660e01b8152600401808381526020018273ffffffffffffffffffffffffffffffffffffffff1673ffffffffffffffffffffffffffffffffffffffff16815260200192505050600060405180830381600087803b15801561390457600080fd5b505af1158015613918573d6000803e3d6000fd5b505050506000809054906101000a900473ffffffffffffffffffffffffffffffffffffffff1673ffffffffffffffffffffffffffffffffffffffff16636c125a6b85846040518363ffffffff1660e01b8152600401808381526020018273ffffffffffffffffffffffffffffffffffffffff1673ffffffffffffffffffffffffffffffffffffffff16815260200192505050600060405180830381600087803b1580156139c457600080fd5b505af11580156139d8573d6000803e3d6000fd5b505050507f3ab21a3ef461e2bef0069f128ddff2c56bfe1457aa3b7ff22b8691a38e0c61af846040518082815260200191505060405180910390a150505050565b6000806000809054906101000a900473ffffffffffffffffffffffffffffffffffffffff1673ffffffffffffffffffffffffffffffffffffffff1663fe73e86c846040518263ffffffff1660e01b81526004018082815260200191505060206040518083038186803b158015613a8e57600080fd5b505afa158015613aa2573d6000803e3d6000fd5b505050506040513d6020811015613ab857600080fd5b81019080805190602001909291905050506000809054906101000a900473ffffffffffffffffffffffffffffffffffffffff1673ffffffffffffffffffffffffffffffffffffffff166364c0e52f856040518263ffffffff1660e01b81526004018082815260200191505060206040518083038186803b158015613b3b57600080fd5b505afa158015613b4f573d6000803e3d6000fd5b505050506040513d6020811015613b6557600080fd5b8101908080519060200190929190505050029050803411613bd1576040517f08c379a0000000000000000000000000000000000000000000000000000000008152600401808060200182810382526025815260200180613d2d6025913960400191505060405180910390fd5b60008060009054906101000a900473ffffffffffffffffffffffffffffffffffffffff1673ffffffffffffffffffffffffffffffffffffffff16637ace341b856040518263ffffffff1660e01b81526004018082815260200191505060206040518083038186803b158015613c4557600080fd5b505afa158015613c59573d6000803e3d6000fd5b505050506040513d6020811015613c6f57600080fd5b810190808051906020019092919050505090508073ffffffffffffffffffffffffffffffffffffffff166108fc839081150290604051600060405180830381858888f19350505050158015613cc8573d6000803e3d6000fd5b507fc96e8a6c4b73999b9ad3a8561e95096b7ab441e5f849ef1f0648b8a7d628cc3f846040518082815260200191505060405180910390a1505091905056fe50726f6475637420697320616c726561647920726561647920666f72207368697070696e67496e737566666963656e742062616c616e636520746f206275792074686520737570706c79596f7520446f204e6f7420486176652053756666696369656e742050726f647563747320546f2050726f636573732057696e6550726f64756374206973206e6f742079657420726563656976656420666f722072657475726ea265627a7a72315820ceb3196750eb6ddda704c85755a765f23729a479b575d18ea38b5425c7f4bf1764736f6c63430005100032",
  "source": "pragma solidity ^0.5.0;\n\nimport \"./Product.sol\";\nimport \"./RawMaterialSupplier.sol\";\n\ncontract WineProducer {\n    Product productContract;\n    RawMaterialSupplier rawMaterialSupplierContract;\n    address wineProducerAddress = msg.sender;\n    constructor(Product productContractddress, RawMaterialSupplier supplierContractAddress) public {\n        productContract = productContractddress;\n        rawMaterialSupplierContract = supplierContractAddress;\n    }\n\n    //events\n    event buyRawMaterial(uint productId);\n    event processedWine(uint productId);\n    event wineRemoved(uint productId);\n    event returnedRawMaterial(uint productId);\n    event refundWine(uint productId);\n    event WineReadyToShip(uint productId);\n    event WineDisbatched(uint productId);\n    event rawMaterialReceived(uint productId);\n\n    //modifiers\n    modifier ownerOnly(uint256 productId) {\n        require(productContract.getCurrentOwner(productId) == msg.sender);\n        _;\n    }\n\n\n    function buy(\n        uint256 productId\n    ) public payable returns(uint256) {\n\n        uint256 productPrice = productContract.getUnitPrice(productId) * productContract.getBatchQuantity(productId);\n        require(msg.value > productPrice, \"Insufficent balance to buy the supply\");\n        address payable targetAddress = address(uint160(productContract.getCurrentOwner(productId)));\n        targetAddress.transfer(productPrice);\n\n        emit buyRawMaterial(productId);\n    }\n\n    function received(\n        uint256 productId,\n        string memory currentLocation,\n        string memory arrivalDate\n    ) public ownerOnly(productId) {\n        productContract.setReceived(productId, true);\n        (string memory location, string memory disbatchDate, string memory prevArrivalDate) = productContract.getCurrentLocation(productId);\n        productContract.addPreviousLocation(productId, location, disbatchDate, prevArrivalDate);\n        productContract.setCurrentLocation(productId, currentLocation, \"\", arrivalDate);\n        emit rawMaterialReceived(productId);\n    }\n\n\n    function removeWine(uint256 productId) public ownerOnly(productId) {\n        productContract.removeProduct(productId);\n        emit wineRemoved(productId);\n    }\n    \n    //Setting of location is unncessary because the returned products would not be of used anymore in the supplychain.\n    function returnRawMaterials(uint256 productId) public ownerOnly(productId) {\n\n        require(productContract.getReceived(productId) == true, \"Product is not yet received for return\");\n\n        address prevOwner = productContract.getPreviousOwner(productId);\n        address prevContractAddress = productContract.getPreviousContractAddress(productId);\n\n        productContract.setPreviousOwner(productId, productContract.getCurrentOwner(productId));\n        productContract.setPreviousContractAddress(productId, productContract.getCurrentContractAddress(productId));\n        productContract.setCurrentContractAddress(productId, prevContractAddress);\n        productContract.setCurrentOwner(productId, prevOwner);\n\n        emit returnedRawMaterial(productId);\n    }\n\n    function refundBulkDistributor(uint256 productId) public payable ownerOnly(productId) {\n\n        require(productContract.getCurrentOwner(productId) == msg.sender, \"Unable to refund items\");\n\n        //Transfer back the amt\n        uint256 productPrice = productContract.getUnitPrice(productId) * productContract.getBatchQuantity(productId);\n        require(msg.value >= productPrice, \"Insufficent amount for refund\");\n        address payable targetAddress = address(uint160(productContract.getPreviousOwner(productId)));\n        targetAddress.transfer(productPrice);\n\n        emit refundWine(productId);\n    }\n\n\n    function wineReadyToShip(uint256 productId) public ownerOnly(productId) {\n        require(productContract.getReadyToShip(productId) == false, \"Product is already ready for shipping\");\n\n        productContract.setReadyToShip(productId, true);\n    \n        emit WineReadyToShip(productId);\n    }\n\n    function processWine(\n        uint256[] memory productIds,\n        string memory placeOfOrigin,\n        string memory productionDate,\n        string memory expirationDate, \n        uint256 unitQuantity, \n        string memory unitQuantityType, \n        uint256 batchQuantity, \n        uint256 unitPrice, \n        string memory category, \n        string memory currentPhysicalLocation\n\n        ) public returns (uint256) {\n\n\n        bool allAvailableToUse = true;\n        for (uint256 i = 0; i < productIds.length; i++) {\n            if (productContract.getUsed((productIds[i])) == true) {\n                allAvailableToUse == false;\n                break;\n            }\n        }\n\n        require(allAvailableToUse == true, \"You Do Not Have Sufficient Products To Process Wine\");\n\n        //CreateWine and add all the materials Inside\n\n        uint256 wineProductId = productContract.createProduct(\n            \"Wine\", \n            address(this),\n            unitQuantity, \n            unitQuantityType, \n            batchQuantity, \n            unitPrice, \n            category,\n            address(msg.sender)\n            );\n\n        productContract.setPlaceOfOrigin(wineProductId, placeOfOrigin);\n        productContract.setProductionDate(wineProductId, productionDate);\n        productContract.setExpirationDate(wineProductId, expirationDate);\n        productContract.setCurrentLocation(wineProductId, currentPhysicalLocation, \"\", \"\");\n\n        for (uint256 i = 0; i < productIds.length; i++) {\n            uint256 productId = productIds[i];\n            productContract.addComponentProduct(wineProductId, productId);\n        }\n\n        //Use up all the materials\n        for (uint256 i = 0; i < productIds.length; i++) {\n            productContract.setUsed(productIds[i], true);\n        }\n        emit processedWine(wineProductId);\n        return wineProductId;\n    }\n\n    function dispatchWineToBulkDistributor(uint256 productId, string memory newDisbatchDate, address bulkDistributorAddress, address bulkDistributorContractAddress) public ownerOnly(productId) {\n        require(productContract.getReadyToShip(productId) == true, \"Product not ready for shipping\");\n        require(keccak256(abi.encodePacked(productContract.getProductName(productId))) == keccak256(abi.encodePacked(\"Wine\")), \"You can only ship wine products\");\n        \n        productContract.setPreviousOwner(productId, productContract.getCurrentOwner(productId));\n        productContract.setPreviousContractAddress(productId, productContract.getCurrentContractAddress(productId));\n        productContract.setCurrentContractAddress(productId, bulkDistributorContractAddress);\n        (string memory location, , string memory arrivalDate) = productContract.getCurrentLocation(productId);\n        productContract.setCurrentLocation(productId, location, newDisbatchDate, arrivalDate);\n        productContract.setCurrentOwner(productId, bulkDistributorAddress);\n        productContract.setReceived(productId, false);\n        emit WineDisbatched(productId);\n    }\n}",
  "sourcePath": "/Users/kathleen/IS4302/Project/Wine-Supplychain-Blockchain/contracts/WineProducer.sol",
  "compiler": {
    "name": "solc",
    "version": "0.5.16+commit.9c3226ce.Emscripten.clang"
  },
  "schemaVersion": "3.4.11",
  "updatedAt": "2023-04-09T03:15:12.308Z",
  "networkType": "ethereum",
  "devdoc": {
    "methods": {}
  },
  "userdoc": {
    "methods": {}
  }
}