{
  "contractName": "WineProducer",
  "abi": [
    {
      "inputs": [
        {
          "internalType": "contract Product",
          "name": "productContractddress",
          "type": "address"
        },
        {
          "internalType": "contract RawMaterialSupplier",
          "name": "supplierContractAddress",
          "type": "address"
        }
      ],
      "payable": false,
      "stateMutability": "nonpayable",
      "type": "constructor"
    },
    {
      "anonymous": false,
      "inputs": [
        {
          "indexed": false,
          "internalType": "uint256",
          "name": "productId",
          "type": "uint256"
        }
      ],
      "name": "WineDisbatched",
      "type": "event"
    },
    {
      "anonymous": false,
      "inputs": [
        {
          "indexed": false,
          "internalType": "uint256",
          "name": "productId",
          "type": "uint256"
        }
      ],
      "name": "WineReadyToShip",
      "type": "event"
    },
    {
      "anonymous": false,
      "inputs": [
        {
          "indexed": false,
          "internalType": "uint256",
          "name": "productId",
          "type": "uint256"
        }
      ],
      "name": "buyRawMaterial",
      "type": "event"
    },
    {
      "anonymous": false,
      "inputs": [
        {
          "indexed": false,
          "internalType": "uint256",
          "name": "productId",
          "type": "uint256"
        }
      ],
      "name": "processedWine",
      "type": "event"
    },
    {
      "anonymous": false,
      "inputs": [
        {
          "indexed": false,
          "internalType": "uint256",
          "name": "productId",
          "type": "uint256"
        }
      ],
      "name": "rawMaterialReceived",
      "type": "event"
    },
    {
      "anonymous": false,
      "inputs": [
        {
          "indexed": false,
          "internalType": "uint256",
          "name": "productId",
          "type": "uint256"
        }
      ],
      "name": "returnedRawMaterial",
      "type": "event"
    },
    {
      "anonymous": false,
      "inputs": [
        {
          "indexed": false,
          "internalType": "uint256",
          "name": "productId",
          "type": "uint256"
        }
      ],
      "name": "wineRemoved",
      "type": "event"
    },
    {
      "constant": false,
      "inputs": [
        {
          "internalType": "uint256",
          "name": "productId",
          "type": "uint256"
        },
        {
          "internalType": "string",
          "name": "disbatchDate",
          "type": "string"
        }
      ],
      "name": "buy",
      "outputs": [
        {
          "internalType": "uint256",
          "name": "",
          "type": "uint256"
        }
      ],
      "payable": true,
      "stateMutability": "payable",
      "type": "function"
    },
    {
      "constant": false,
      "inputs": [
        {
          "internalType": "uint256",
          "name": "productId",
          "type": "uint256"
        },
        {
          "internalType": "string",
          "name": "currentLocation",
          "type": "string"
        },
        {
          "internalType": "string",
          "name": "arrivalDate",
          "type": "string"
        }
      ],
      "name": "received",
      "outputs": [],
      "payable": false,
      "stateMutability": "nonpayable",
      "type": "function"
    },
    {
      "constant": false,
      "inputs": [
        {
          "internalType": "uint256",
          "name": "productId",
          "type": "uint256"
        }
      ],
      "name": "removeWine",
      "outputs": [],
      "payable": false,
      "stateMutability": "nonpayable",
      "type": "function"
    },
    {
      "constant": false,
      "inputs": [
        {
          "internalType": "uint256",
          "name": "productId",
          "type": "uint256"
        }
      ],
      "name": "returnRawMaterials",
      "outputs": [],
      "payable": false,
      "stateMutability": "nonpayable",
      "type": "function"
    },
    {
      "constant": false,
      "inputs": [
        {
          "internalType": "uint256",
          "name": "productId",
          "type": "uint256"
        },
        {
          "internalType": "string",
          "name": "newLocation",
          "type": "string"
        }
      ],
      "name": "wineReadyToShip",
      "outputs": [],
      "payable": false,
      "stateMutability": "nonpayable",
      "type": "function"
    },
    {
      "constant": false,
      "inputs": [
        {
          "internalType": "uint256[]",
          "name": "productIds",
          "type": "uint256[]"
        },
        {
          "internalType": "string",
          "name": "placeOfOrigin",
          "type": "string"
        },
        {
          "internalType": "string",
          "name": "productionDate",
          "type": "string"
        },
        {
          "internalType": "string",
          "name": "expirationDate",
          "type": "string"
        },
        {
          "internalType": "uint256",
          "name": "unitQuantity",
          "type": "uint256"
        },
        {
          "internalType": "string",
          "name": "unitQuantityType",
          "type": "string"
        },
        {
          "internalType": "uint256",
          "name": "batchQuantity",
          "type": "uint256"
        },
        {
          "internalType": "uint256",
          "name": "unitPrice",
          "type": "uint256"
        },
        {
          "internalType": "string",
          "name": "category",
          "type": "string"
        },
        {
          "internalType": "string",
          "name": "currentPhysicalLocation",
          "type": "string"
        }
      ],
      "name": "processWine",
      "outputs": [
        {
          "internalType": "uint256",
          "name": "",
          "type": "uint256"
        }
      ],
      "payable": false,
      "stateMutability": "nonpayable",
      "type": "function"
    },
    {
      "constant": false,
      "inputs": [
        {
          "internalType": "uint256",
          "name": "productId",
          "type": "uint256"
        },
        {
          "internalType": "string",
          "name": "newDisbatchDate",
          "type": "string"
        },
        {
          "internalType": "address",
          "name": "bulkDistributorAddress",
          "type": "address"
        },
        {
          "internalType": "address",
          "name": "bulkDistributorContractAddress",
          "type": "address"
        }
      ],
      "name": "disbatchWineToBulkDistributor",
      "outputs": [],
      "payable": false,
      "stateMutability": "nonpayable",
      "type": "function"
    }
  ],
  "bytecode": "0x608060405233600360006101000a81548173ffffffffffffffffffffffffffffffffffffffff021916908373ffffffffffffffffffffffffffffffffffffffff16021790555034801561005157600080fd5b506040516200442d3803806200442d8339818101604052604081101561007657600080fd5b810190808051906020019092919080519060200190929190505050816000806101000a81548173ffffffffffffffffffffffffffffffffffffffff021916908373ffffffffffffffffffffffffffffffffffffffff16021790555080600160006101000a81548173ffffffffffffffffffffffffffffffffffffffff021916908373ffffffffffffffffffffffffffffffffffffffff160217905550505061430980620001246000396000f3fe6080604052600436106100705760003560e01c806349d23fb71161004e57806349d23fb71461029457806399ee508d146103fd578063a9b2f38e1461087f578063b7dc3b18146108ba57610070565b80630ebe96df1461007557806315bb1441146101475780632d6a0f9414610182575b600080fd5b34801561008157600080fd5b506101456004803603604081101561009857600080fd5b8101908080359060200190929190803590602001906401000000008111156100bf57600080fd5b8201836020820111156100d157600080fd5b803590602001918460018302840111640100000000831117156100f357600080fd5b91908080601f016020809104026020016040519081016040528093929190818152602001838380828437600081840152601f19601f820116905080830192505050505050509192919290505050610993565b005b34801561015357600080fd5b506101806004803603602081101561016a57600080fd5b81019080803590602001909291905050506114c7565b005b34801561018e57600080fd5b50610292600480360360808110156101a557600080fd5b8101908080359060200190929190803590602001906401000000008111156101cc57600080fd5b8201836020820111156101de57600080fd5b8035906020019184600183028401116401000000008311171561020057600080fd5b91908080601f016020809104026020016040519081016040528093929190818152602001838380828437600081840152601f19601f820116905080830192505050505050509192919290803573ffffffffffffffffffffffffffffffffffffffff169060200190929190803573ffffffffffffffffffffffffffffffffffffffff1690602001909291905050506116d3565b005b3480156102a057600080fd5b506103fb600480360360608110156102b757600080fd5b8101908080359060200190929190803590602001906401000000008111156102de57600080fd5b8201836020820111156102f057600080fd5b8035906020019184600183028401116401000000008311171561031257600080fd5b91908080601f016020809104026020016040519081016040528093929190818152602001838380828437600081840152601f19601f8201169050808301925050505050505091929192908035906020019064010000000081111561037557600080fd5b82018360208201111561038757600080fd5b803590602001918460018302840111640100000000831117156103a957600080fd5b91908080601f016020809104026020016040519081016040528093929190818152602001838380828437600081840152601f19601f8201169050808301925050505050505091929192905050506124c0565b005b34801561040957600080fd5b50610869600480360361014081101561042157600080fd5b810190808035906020019064010000000081111561043e57600080fd5b82018360208201111561045057600080fd5b8035906020019184602083028401116401000000008311171561047257600080fd5b919080806020026020016040519081016040528093929190818152602001838360200280828437600081840152601f19601f820116905080830192505050505050509192919290803590602001906401000000008111156104d257600080fd5b8201836020820111156104e457600080fd5b8035906020019184600183028401116401000000008311171561050657600080fd5b91908080601f016020809104026020016040519081016040528093929190818152602001838380828437600081840152601f19601f8201169050808301925050505050505091929192908035906020019064010000000081111561056957600080fd5b82018360208201111561057b57600080fd5b8035906020019184600183028401116401000000008311171561059d57600080fd5b91908080601f016020809104026020016040519081016040528093929190818152602001838380828437600081840152601f19601f8201169050808301925050505050505091929192908035906020019064010000000081111561060057600080fd5b82018360208201111561061257600080fd5b8035906020019184600183028401116401000000008311171561063457600080fd5b91908080601f016020809104026020016040519081016040528093929190818152602001838380828437600081840152601f19601f82011690508083019250505050505050919291929080359060200190929190803590602001906401000000008111156106a157600080fd5b8201836020820111156106b357600080fd5b803590602001918460018302840111640100000000831117156106d557600080fd5b91908080601f016020809104026020016040519081016040528093929190818152602001838380828437600081840152601f19601f82011690508083019250505050505050919291929080359060200190929190803590602001909291908035906020019064010000000081111561074c57600080fd5b82018360208201111561075e57600080fd5b8035906020019184600183028401116401000000008311171561078057600080fd5b91908080601f016020809104026020016040519081016040528093929190818152602001838380828437600081840152601f19601f820116905080830192505050505050509192919290803590602001906401000000008111156107e357600080fd5b8201836020820111156107f557600080fd5b8035906020019184600183028401116401000000008311171561081757600080fd5b91908080601f016020809104026020016040519081016040528093929190818152602001838380828437600081840152601f19601f820116905080830192505050505050509192919290505050612caf565b6040518082815260200191505060405180910390f35b34801561088b57600080fd5b506108b8600480360360208110156108a257600080fd5b81019080803590602001909291905050506136b4565b005b61097d600480360360408110156108d057600080fd5b8101908080359060200190929190803590602001906401000000008111156108f757600080fd5b82018360208201111561090957600080fd5b8035906020019184600183028401116401000000008311171561092b57600080fd5b91908080601f016020809104026020016040519081016040528093929190818152602001838380828437600081840152601f19601f820116905080830192505050505050509192919290505050613de0565b6040518082815260200191505060405180910390f35b813373ffffffffffffffffffffffffffffffffffffffff166000809054906101000a900473ffffffffffffffffffffffffffffffffffffffff1673ffffffffffffffffffffffffffffffffffffffff16637ace341b836040518263ffffffff1660e01b81526004018082815260200191505060206040518083038186803b158015610a1d57600080fd5b505afa158015610a31573d6000803e3d6000fd5b505050506040513d6020811015610a4757600080fd5b810190808051906020019092919050505073ffffffffffffffffffffffffffffffffffffffff1614610a7857600080fd5b600015156000809054906101000a900473ffffffffffffffffffffffffffffffffffffffff1673ffffffffffffffffffffffffffffffffffffffff166340889b4f856040518263ffffffff1660e01b81526004018082815260200191505060206040518083038186803b158015610aee57600080fd5b505afa158015610b02573d6000803e3d6000fd5b505050506040513d6020811015610b1857600080fd5b8101908080519060200190929190505050151514610b81576040517f08c379a00000000000000000000000000000000000000000000000000000000081526004018080602001828103825260258152602001806142326025913960400191505060405180910390fd5b60405160200180807f57696e65000000000000000000000000000000000000000000000000000000008152506004019050604051602081830303815290604052805190602001206000809054906101000a900473ffffffffffffffffffffffffffffffffffffffff1673ffffffffffffffffffffffffffffffffffffffff16639e62e795856040518263ffffffff1660e01b81526004018082815260200191505060006040518083038186803b158015610c3a57600080fd5b505afa158015610c4e573d6000803e3d6000fd5b505050506040513d6000823e3d601f19601f820116820180604052506020811015610c7857600080fd5b8101908080516040519392919084640100000000821115610c9857600080fd5b83820191506020820185811115610cae57600080fd5b8251866001820283011164010000000082111715610ccb57600080fd5b8083526020830192505050908051906020019080838360005b83811015610cff578082015181840152602081019050610ce4565b50505050905090810190601f168015610d2c5780820380516001836020036101000a031916815260200191505b506040525050506040516020018082805190602001908083835b60208310610d695780518252602082019150602081019050602083039250610d46565b6001836020036101000a0380198251168184511680821785525050505050509050019150506040516020818303038152906040528051906020012014610e17576040517f08c379a000000000000000000000000000000000000000000000000000000000815260040180806020018281038252601f8152602001807f596f752063616e206f6e6c7920736869702077696e652070726f64756374730081525060200191505060405180910390fd5b6000809054906101000a900473ffffffffffffffffffffffffffffffffffffffff1673ffffffffffffffffffffffffffffffffffffffff16633d30ffb88460016040518363ffffffff1660e01b8152600401808381526020018215151515815260200192505050600060405180830381600087803b158015610e9857600080fd5b505af1158015610eac573d6000803e3d6000fd5b5050505060608060606000809054906101000a900473ffffffffffffffffffffffffffffffffffffffff1673ffffffffffffffffffffffffffffffffffffffff166323bb1835876040518263ffffffff1660e01b81526004018082815260200191505060006040518083038186803b158015610f2757600080fd5b505afa158015610f3b573d6000803e3d6000fd5b505050506040513d6000823e3d601f19601f820116820180604052506060811015610f6557600080fd5b8101908080516040519392919084640100000000821115610f8557600080fd5b83820191506020820185811115610f9b57600080fd5b8251866001820283011164010000000082111715610fb857600080fd5b8083526020830192505050908051906020019080838360005b83811015610fec578082015181840152602081019050610fd1565b50505050905090810190601f1680156110195780820380516001836020036101000a031916815260200191505b506040526020018051604051939291908464010000000082111561103c57600080fd5b8382019150602082018581111561105257600080fd5b825186600182028301116401000000008211171561106f57600080fd5b8083526020830192505050908051906020019080838360005b838110156110a3578082015181840152602081019050611088565b50505050905090810190601f1680156110d05780820380516001836020036101000a031916815260200191505b50604052602001805160405193929190846401000000008211156110f357600080fd5b8382019150602082018581111561110957600080fd5b825186600182028301116401000000008211171561112657600080fd5b8083526020830192505050908051906020019080838360005b8381101561115a57808201518184015260208101905061113f565b50505050905090810190601f1680156111875780820380516001836020036101000a031916815260200191505b506040525050509250925092506000809054906101000a900473ffffffffffffffffffffffffffffffffffffffff1673ffffffffffffffffffffffffffffffffffffffff1663d88ee329878585856040518563ffffffff1660e01b815260040180858152602001806020018060200180602001848103845287818151815260200191508051906020019080838360005b83811015611232578082015181840152602081019050611217565b50505050905090810190601f16801561125f5780820380516001836020036101000a031916815260200191505b50848103835286818151815260200191508051906020019080838360005b8381101561129857808201518184015260208101905061127d565b50505050905090810190601f1680156112c55780820380516001836020036101000a031916815260200191505b50848103825285818151815260200191508051906020019080838360005b838110156112fe5780820151818401526020810190506112e3565b50505050905090810190601f16801561132b5780820380516001836020036101000a031916815260200191505b50975050505050505050600060405180830381600087803b15801561134f57600080fd5b505af1158015611363573d6000803e3d6000fd5b505050506000809054906101000a900473ffffffffffffffffffffffffffffffffffffffff1673ffffffffffffffffffffffffffffffffffffffff1663809db2f887876040518363ffffffff1660e01b815260040180838152602001806020018060200180602001848103845285818151815260200191508051906020019080838360005b838110156114035780820151818401526020810190506113e8565b50505050905090810190601f1680156114305780820380516001836020036101000a031916815260200191505b5084810383526000815260200160200184810382526000815260200160200195505050505050600060405180830381600087803b15801561147057600080fd5b505af1158015611484573d6000803e3d6000fd5b505050507f02fcf20b60cce521b0b7abd330c36f198af0697da0f66f3fb0869a8f00951404866040518082815260200191505060405180910390a1505050505050565b803373ffffffffffffffffffffffffffffffffffffffff166000809054906101000a900473ffffffffffffffffffffffffffffffffffffffff1673ffffffffffffffffffffffffffffffffffffffff16637ace341b836040518263ffffffff1660e01b81526004018082815260200191505060206040518083038186803b15801561155157600080fd5b505afa158015611565573d6000803e3d6000fd5b505050506040513d602081101561157b57600080fd5b810190808051906020019092919050505073ffffffffffffffffffffffffffffffffffffffff16146115ac57600080fd5b6000809054906101000a900473ffffffffffffffffffffffffffffffffffffffff1673ffffffffffffffffffffffffffffffffffffffff16635ee95cae836040518263ffffffff1660e01b815260040180828152602001915050600060405180830381600087803b15801561162057600080fd5b505af1158015611634573d6000803e3d6000fd5b5050505060008090505b60028054905081101561169757826002828154811061165957fe5b9060005260206000200154141561168a576002818154811061167757fe5b9060005260206000200160009055611697565b808060010191505061163e565b507fa75642e219535e71f3332decace37ca196480295106318c0be229f8a4f4ae4f1826040518082815260200191505060405180910390a15050565b833373ffffffffffffffffffffffffffffffffffffffff166000809054906101000a900473ffffffffffffffffffffffffffffffffffffffff1673ffffffffffffffffffffffffffffffffffffffff16637ace341b836040518263ffffffff1660e01b81526004018082815260200191505060206040518083038186803b15801561175d57600080fd5b505afa158015611771573d6000803e3d6000fd5b505050506040513d602081101561178757600080fd5b810190808051906020019092919050505073ffffffffffffffffffffffffffffffffffffffff16146117b857600080fd5b600115156000809054906101000a900473ffffffffffffffffffffffffffffffffffffffff1673ffffffffffffffffffffffffffffffffffffffff166340889b4f876040518263ffffffff1660e01b81526004018082815260200191505060206040518083038186803b15801561182e57600080fd5b505afa158015611842573d6000803e3d6000fd5b505050506040513d602081101561185857600080fd5b81019080805190602001909291905050501515146118de576040517f08c379a000000000000000000000000000000000000000000000000000000000815260040180806020018281038252601e8152602001807f50726f64756374206e6f7420726561647920666f72207368697070696e67000081525060200191505060405180910390fd5b60405160200180807f57696e65000000000000000000000000000000000000000000000000000000008152506004019050604051602081830303815290604052805190602001206000809054906101000a900473ffffffffffffffffffffffffffffffffffffffff1673ffffffffffffffffffffffffffffffffffffffff16639e62e795876040518263ffffffff1660e01b81526004018082815260200191505060006040518083038186803b15801561199757600080fd5b505afa1580156119ab573d6000803e3d6000fd5b505050506040513d6000823e3d601f19601f8201168201806040525060208110156119d557600080fd5b81019080805160405193929190846401000000008211156119f557600080fd5b83820191506020820185811115611a0b57600080fd5b8251866001820283011164010000000082111715611a2857600080fd5b8083526020830192505050908051906020019080838360005b83811015611a5c578082015181840152602081019050611a41565b50505050905090810190601f168015611a895780820380516001836020036101000a031916815260200191505b506040525050506040516020018082805190602001908083835b60208310611ac65780518252602082019150602081019050602083039250611aa3565b6001836020036101000a0380198251168184511680821785525050505050509050019150506040516020818303038152906040528051906020012014611b74576040517f08c379a000000000000000000000000000000000000000000000000000000000815260040180806020018281038252601f8152602001807f596f752063616e206f6e6c7920736869702077696e652070726f64756374730081525060200191505060405180910390fd5b6000809054906101000a900473ffffffffffffffffffffffffffffffffffffffff1673ffffffffffffffffffffffffffffffffffffffff16630cc91022866000809054906101000a900473ffffffffffffffffffffffffffffffffffffffff1673ffffffffffffffffffffffffffffffffffffffff16637ace341b896040518263ffffffff1660e01b81526004018082815260200191505060206040518083038186803b158015611c2457600080fd5b505afa158015611c38573d6000803e3d6000fd5b505050506040513d6020811015611c4e57600080fd5b81019080805190602001909291905050506040518363ffffffff1660e01b8152600401808381526020018273ffffffffffffffffffffffffffffffffffffffff1673ffffffffffffffffffffffffffffffffffffffff16815260200192505050600060405180830381600087803b158015611cc857600080fd5b505af1158015611cdc573d6000803e3d6000fd5b505050506000809054906101000a900473ffffffffffffffffffffffffffffffffffffffff1673ffffffffffffffffffffffffffffffffffffffff16636c125a6b86856040518363ffffffff1660e01b8152600401808381526020018273ffffffffffffffffffffffffffffffffffffffff1673ffffffffffffffffffffffffffffffffffffffff16815260200192505050600060405180830381600087803b158015611d8857600080fd5b505af1158015611d9c573d6000803e3d6000fd5b505050506000809054906101000a900473ffffffffffffffffffffffffffffffffffffffff1673ffffffffffffffffffffffffffffffffffffffff166391f4caca866000809054906101000a900473ffffffffffffffffffffffffffffffffffffffff1673ffffffffffffffffffffffffffffffffffffffff16630772c45e896040518263ffffffff1660e01b81526004018082815260200191505060206040518083038186803b158015611e5057600080fd5b505afa158015611e64573d6000803e3d6000fd5b505050506040513d6020811015611e7a57600080fd5b81019080805190602001909291905050506040518363ffffffff1660e01b8152600401808381526020018273ffffffffffffffffffffffffffffffffffffffff1673ffffffffffffffffffffffffffffffffffffffff16815260200192505050600060405180830381600087803b158015611ef457600080fd5b505af1158015611f08573d6000803e3d6000fd5b505050506000809054906101000a900473ffffffffffffffffffffffffffffffffffffffff1673ffffffffffffffffffffffffffffffffffffffff166358ff352a86846040518363ffffffff1660e01b8152600401808381526020018273ffffffffffffffffffffffffffffffffffffffff1673ffffffffffffffffffffffffffffffffffffffff16815260200192505050600060405180830381600087803b158015611fb457600080fd5b505af1158015611fc8573d6000803e3d6000fd5b505050506060806000809054906101000a900473ffffffffffffffffffffffffffffffffffffffff1673ffffffffffffffffffffffffffffffffffffffff166323bb1835886040518263ffffffff1660e01b81526004018082815260200191505060006040518083038186803b15801561204157600080fd5b505afa158015612055573d6000803e3d6000fd5b505050506040513d6000823e3d601f19601f82011682018060405250606081101561207f57600080fd5b810190808051604051939291908464010000000082111561209f57600080fd5b838201915060208201858111156120b557600080fd5b82518660018202830111640100000000821117156120d257600080fd5b8083526020830192505050908051906020019080838360005b838110156121065780820151818401526020810190506120eb565b50505050905090810190601f1680156121335780820380516001836020036101000a031916815260200191505b506040526020018051604051939291908464010000000082111561215657600080fd5b8382019150602082018581111561216c57600080fd5b825186600182028301116401000000008211171561218957600080fd5b8083526020830192505050908051906020019080838360005b838110156121bd5780820151818401526020810190506121a2565b50505050905090810190601f1680156121ea5780820380516001836020036101000a031916815260200191505b506040526020018051604051939291908464010000000082111561220d57600080fd5b8382019150602082018581111561222357600080fd5b825186600182028301116401000000008211171561224057600080fd5b8083526020830192505050908051906020019080838360005b83811015612274578082015181840152602081019050612259565b50505050905090810190601f1680156122a15780820380516001836020036101000a031916815260200191505b5060405250505092505091506000809054906101000a900473ffffffffffffffffffffffffffffffffffffffff1673ffffffffffffffffffffffffffffffffffffffff1663809db2f8888489856040518563ffffffff1660e01b815260040180858152602001806020018060200180602001848103845287818151815260200191508051906020019080838360005b8381101561234b578082015181840152602081019050612330565b50505050905090810190601f1680156123785780820380516001836020036101000a031916815260200191505b50848103835286818151815260200191508051906020019080838360005b838110156123b1578082015181840152602081019050612396565b50505050905090810190601f1680156123de5780820380516001836020036101000a031916815260200191505b50848103825285818151815260200191508051906020019080838360005b838110156124175780820151818401526020810190506123fc565b50505050905090810190601f1680156124445780820380516001836020036101000a031916815260200191505b50975050505050505050600060405180830381600087803b15801561246857600080fd5b505af115801561247c573d6000803e3d6000fd5b505050507f77a4ec0c2621fb3bb948ac511faa170e3c33b178d4cb115cb53c9953008e05cc876040518082815260200191505060405180910390a150505050505050565b823373ffffffffffffffffffffffffffffffffffffffff166000809054906101000a900473ffffffffffffffffffffffffffffffffffffffff1673ffffffffffffffffffffffffffffffffffffffff16637ace341b836040518263ffffffff1660e01b81526004018082815260200191505060206040518083038186803b15801561254a57600080fd5b505afa15801561255e573d6000803e3d6000fd5b505050506040513d602081101561257457600080fd5b810190808051906020019092919050505073ffffffffffffffffffffffffffffffffffffffff16146125a557600080fd5b6000809054906101000a900473ffffffffffffffffffffffffffffffffffffffff1673ffffffffffffffffffffffffffffffffffffffff1663dcd9d2cb8560016040518363ffffffff1660e01b8152600401808381526020018215151515815260200192505050600060405180830381600087803b15801561262657600080fd5b505af115801561263a573d6000803e3d6000fd5b5050505060608060606000809054906101000a900473ffffffffffffffffffffffffffffffffffffffff1673ffffffffffffffffffffffffffffffffffffffff166323bb1835886040518263ffffffff1660e01b81526004018082815260200191505060006040518083038186803b1580156126b557600080fd5b505afa1580156126c9573d6000803e3d6000fd5b505050506040513d6000823e3d601f19601f8201168201806040525060608110156126f357600080fd5b810190808051604051939291908464010000000082111561271357600080fd5b8382019150602082018581111561272957600080fd5b825186600182028301116401000000008211171561274657600080fd5b8083526020830192505050908051906020019080838360005b8381101561277a57808201518184015260208101905061275f565b50505050905090810190601f1680156127a75780820380516001836020036101000a031916815260200191505b50604052602001805160405193929190846401000000008211156127ca57600080fd5b838201915060208201858111156127e057600080fd5b82518660018202830111640100000000821117156127fd57600080fd5b8083526020830192505050908051906020019080838360005b83811015612831578082015181840152602081019050612816565b50505050905090810190601f16801561285e5780820380516001836020036101000a031916815260200191505b506040526020018051604051939291908464010000000082111561288157600080fd5b8382019150602082018581111561289757600080fd5b82518660018202830111640100000000821117156128b457600080fd5b8083526020830192505050908051906020019080838360005b838110156128e85780820151818401526020810190506128cd565b50505050905090810190601f1680156129155780820380516001836020036101000a031916815260200191505b506040525050509250925092506000809054906101000a900473ffffffffffffffffffffffffffffffffffffffff1673ffffffffffffffffffffffffffffffffffffffff1663d88ee329888585856040518563ffffffff1660e01b815260040180858152602001806020018060200180602001848103845287818151815260200191508051906020019080838360005b838110156129c05780820151818401526020810190506129a5565b50505050905090810190601f1680156129ed5780820380516001836020036101000a031916815260200191505b50848103835286818151815260200191508051906020019080838360005b83811015612a26578082015181840152602081019050612a0b565b50505050905090810190601f168015612a535780820380516001836020036101000a031916815260200191505b50848103825285818151815260200191508051906020019080838360005b83811015612a8c578082015181840152602081019050612a71565b50505050905090810190601f168015612ab95780820380516001836020036101000a031916815260200191505b50975050505050505050600060405180830381600087803b158015612add57600080fd5b505af1158015612af1573d6000803e3d6000fd5b505050506000809054906101000a900473ffffffffffffffffffffffffffffffffffffffff1673ffffffffffffffffffffffffffffffffffffffff1663809db2f88888886040518463ffffffff1660e01b815260040180848152602001806020018060200180602001848103845286818151815260200191508051906020019080838360005b83811015612b92578082015181840152602081019050612b77565b50505050905090810190601f168015612bbf5780820380516001836020036101000a031916815260200191505b50848103835260008152602001602001848103825285818151815260200191508051906020019080838360005b83811015612c07578082015181840152602081019050612bec565b50505050905090810190601f168015612c345780820380516001836020036101000a031916815260200191505b509650505050505050600060405180830381600087803b158015612c5757600080fd5b505af1158015612c6b573d6000803e3d6000fd5b505050507f241a6da8c76357bc41b8498a43bd67a7caf898a69f19aa9338d180ea4c7b684f876040518082815260200191505060405180910390a150505050505050565b6000806001905060008090505b8c51811015612da357600115156000809054906101000a900473ffffffffffffffffffffffffffffffffffffffff1673ffffffffffffffffffffffffffffffffffffffff1663c272137c8f8481518110612d1257fe5b60200260200101516040518263ffffffff1660e01b81526004018082815260200191505060206040518083038186803b158015612d4e57600080fd5b505afa158015612d62573d6000803e3d6000fd5b505050506040513d6020811015612d7857600080fd5b810190808051906020019092919050505015151415612d9657612da3565b8080600101915050612cbc565b506001151581151514612e01576040517f08c379a000000000000000000000000000000000000000000000000000000000815260040180806020018281038252603381526020018061427c6033913960400191505060405180910390fd5b60008060009054906101000a900473ffffffffffffffffffffffffffffffffffffffff1673ffffffffffffffffffffffffffffffffffffffff1663d5e7986f308b8b8b8b8b6040518763ffffffff1660e01b815260040180806020018873ffffffffffffffffffffffffffffffffffffffff1673ffffffffffffffffffffffffffffffffffffffff1681526020018781526020018060200186815260200185815260200180602001848103845260048152602001807f57696e6500000000000000000000000000000000000000000000000000000000815250602001848103835288818151815260200191508051906020019080838360005b83811015612f15578082015181840152602081019050612efa565b50505050905090810190601f168015612f425780820380516001836020036101000a031916815260200191505b50848103825285818151815260200191508051906020019080838360005b83811015612f7b578082015181840152602081019050612f60565b50505050905090810190601f168015612fa85780820380516001836020036101000a031916815260200191505b509950505050505050505050602060405180830381600087803b158015612fce57600080fd5b505af1158015612fe2573d6000803e3d6000fd5b505050506040513d6020811015612ff857600080fd5b810190808051906020019092919050505090506000809054906101000a900473ffffffffffffffffffffffffffffffffffffffff1673ffffffffffffffffffffffffffffffffffffffff166387f31bef828e6040518363ffffffff1660e01b81526004018083815260200180602001828103825283818151815260200191508051906020019080838360005b8381101561309f578082015181840152602081019050613084565b50505050905090810190601f1680156130cc5780820380516001836020036101000a031916815260200191505b509350505050600060405180830381600087803b1580156130ec57600080fd5b505af1158015613100573d6000803e3d6000fd5b505050506000809054906101000a900473ffffffffffffffffffffffffffffffffffffffff1673ffffffffffffffffffffffffffffffffffffffff16636d126874828d6040518363ffffffff1660e01b81526004018083815260200180602001828103825283818151815260200191508051906020019080838360005b8381101561319857808201518184015260208101905061317d565b50505050905090810190601f1680156131c55780820380516001836020036101000a031916815260200191505b509350505050600060405180830381600087803b1580156131e557600080fd5b505af11580156131f9573d6000803e3d6000fd5b505050506000809054906101000a900473ffffffffffffffffffffffffffffffffffffffff1673ffffffffffffffffffffffffffffffffffffffff16632364d78b82896040518363ffffffff1660e01b81526004018083815260200182815260200192505050600060405180830381600087803b15801561327957600080fd5b505af115801561328d573d6000803e3d6000fd5b505050506000809054906101000a900473ffffffffffffffffffffffffffffffffffffffff1673ffffffffffffffffffffffffffffffffffffffff166343c92b6a828c6040518363ffffffff1660e01b81526004018083815260200180602001828103825283818151815260200191508051906020019080838360005b8381101561332557808201518184015260208101905061330a565b50505050905090810190601f1680156133525780820380516001836020036101000a031916815260200191505b509350505050600060405180830381600087803b15801561337257600080fd5b505af1158015613386573d6000803e3d6000fd5b505050506000809054906101000a900473ffffffffffffffffffffffffffffffffffffffff1673ffffffffffffffffffffffffffffffffffffffff1663809db2f882866040518363ffffffff1660e01b815260040180838152602001806020018060200180602001848103845285818151815260200191508051906020019080838360005b8381101561342657808201518184015260208101905061340b565b50505050905090810190601f1680156134535780820380516001836020036101000a031916815260200191505b5084810383526000815260200160200184810382526000815260200160200195505050505050600060405180830381600087803b15801561349357600080fd5b505af11580156134a7573d6000803e3d6000fd5b5050505060008090505b8d518110156135745760008e82815181106134c857fe5b602002602001015190506000809054906101000a900473ffffffffffffffffffffffffffffffffffffffff1673ffffffffffffffffffffffffffffffffffffffff1663cf42316d84836040518363ffffffff1660e01b81526004018083815260200182815260200192505050600060405180830381600087803b15801561354e57600080fd5b505af1158015613562573d6000803e3d6000fd5b505050505080806001019150506134b1565b50600281908060018154018082558091505090600182039060005260206000200160009091929091909150555060008090505b8d51811015613669576000809054906101000a900473ffffffffffffffffffffffffffffffffffffffff1673ffffffffffffffffffffffffffffffffffffffff16636caff5dc8f83815181106135f957fe5b602002602001015160016040518363ffffffff1660e01b8152600401808381526020018215151515815260200192505050600060405180830381600087803b15801561364457600080fd5b505af1158015613658573d6000803e3d6000fd5b5050505080806001019150506135a7565b507feccac678a7eb965cd660e1d809d4856b4ce9c231b6bcca6e06247e1ee47e770e816040518082815260200191505060405180910390a180925050509a9950505050505050505050565b803373ffffffffffffffffffffffffffffffffffffffff166000809054906101000a900473ffffffffffffffffffffffffffffffffffffffff1673ffffffffffffffffffffffffffffffffffffffff16637ace341b836040518263ffffffff1660e01b81526004018082815260200191505060206040518083038186803b15801561373e57600080fd5b505afa158015613752573d6000803e3d6000fd5b505050506040513d602081101561376857600080fd5b810190808051906020019092919050505073ffffffffffffffffffffffffffffffffffffffff161461379957600080fd5b600115156000809054906101000a900473ffffffffffffffffffffffffffffffffffffffff1673ffffffffffffffffffffffffffffffffffffffff16631becaefb846040518263ffffffff1660e01b81526004018082815260200191505060206040518083038186803b15801561380f57600080fd5b505afa158015613823573d6000803e3d6000fd5b505050506040513d602081101561383957600080fd5b81019080805190602001909291905050501515146138a2576040517f08c379a00000000000000000000000000000000000000000000000000000000081526004018080602001828103825260268152602001806142af6026913960400191505060405180910390fd5b6000809054906101000a900473ffffffffffffffffffffffffffffffffffffffff1673ffffffffffffffffffffffffffffffffffffffff16630cc9102283336040518363ffffffff1660e01b8152600401808381526020018273ffffffffffffffffffffffffffffffffffffffff1673ffffffffffffffffffffffffffffffffffffffff16815260200192505050600060405180830381600087803b15801561394a57600080fd5b505af115801561395e573d6000803e3d6000fd5b505050506000809054906101000a900473ffffffffffffffffffffffffffffffffffffffff1673ffffffffffffffffffffffffffffffffffffffff16636c125a6b836000809054906101000a900473ffffffffffffffffffffffffffffffffffffffff1673ffffffffffffffffffffffffffffffffffffffff166256856a866040518263ffffffff1660e01b81526004018082815260200191505060206040518083038186803b158015613a1157600080fd5b505afa158015613a25573d6000803e3d6000fd5b505050506040513d6020811015613a3b57600080fd5b81019080805190602001909291905050506040518363ffffffff1660e01b8152600401808381526020018273ffffffffffffffffffffffffffffffffffffffff1673ffffffffffffffffffffffffffffffffffffffff16815260200192505050600060405180830381600087803b158015613ab557600080fd5b505af1158015613ac9573d6000803e3d6000fd5b505050506000809054906101000a900473ffffffffffffffffffffffffffffffffffffffff1673ffffffffffffffffffffffffffffffffffffffff166391f4caca836000809054906101000a900473ffffffffffffffffffffffffffffffffffffffff1673ffffffffffffffffffffffffffffffffffffffff16630772c45e866040518263ffffffff1660e01b81526004018082815260200191505060206040518083038186803b158015613b7d57600080fd5b505afa158015613b91573d6000803e3d6000fd5b505050506040513d6020811015613ba757600080fd5b81019080805190602001909291905050506040518363ffffffff1660e01b8152600401808381526020018273ffffffffffffffffffffffffffffffffffffffff1673ffffffffffffffffffffffffffffffffffffffff16815260200192505050600060405180830381600087803b158015613c2157600080fd5b505af1158015613c35573d6000803e3d6000fd5b505050506000809054906101000a900473ffffffffffffffffffffffffffffffffffffffff1673ffffffffffffffffffffffffffffffffffffffff166358ff352a836000809054906101000a900473ffffffffffffffffffffffffffffffffffffffff1673ffffffffffffffffffffffffffffffffffffffff16635e478e6c866040518263ffffffff1660e01b81526004018082815260200191505060206040518083038186803b158015613ce957600080fd5b505afa158015613cfd573d6000803e3d6000fd5b505050506040513d6020811015613d1357600080fd5b81019080805190602001909291905050506040518363ffffffff1660e01b8152600401808381526020018273ffffffffffffffffffffffffffffffffffffffff1673ffffffffffffffffffffffffffffffffffffffff16815260200192505050600060405180830381600087803b158015613d8d57600080fd5b505af1158015613da1573d6000803e3d6000fd5b505050507f3ab21a3ef461e2bef0069f128ddff2c56bfe1457aa3b7ff22b8691a38e0c61af826040518082815260200191505060405180910390a15050565b6000806000809054906101000a900473ffffffffffffffffffffffffffffffffffffffff1673ffffffffffffffffffffffffffffffffffffffff1663fe73e86c856040518263ffffffff1660e01b81526004018082815260200191505060206040518083038186803b158015613e5557600080fd5b505afa158015613e69573d6000803e3d6000fd5b505050506040513d6020811015613e7f57600080fd5b81019080805190602001909291905050506000809054906101000a900473ffffffffffffffffffffffffffffffffffffffff1673ffffffffffffffffffffffffffffffffffffffff166364c0e52f866040518263ffffffff1660e01b81526004018082815260200191505060206040518083038186803b158015613f0257600080fd5b505afa158015613f16573d6000803e3d6000fd5b505050506040513d6020811015613f2c57600080fd5b8101908080519060200190929190505050029050803411613f98576040517f08c379a00000000000000000000000000000000000000000000000000000000081526004018080602001828103825260258152602001806142576025913960400191505060405180910390fd5b60008060009054906101000a900473ffffffffffffffffffffffffffffffffffffffff1673ffffffffffffffffffffffffffffffffffffffff16637ace341b866040518263ffffffff1660e01b81526004018082815260200191505060206040518083038186803b15801561400c57600080fd5b505afa158015614020573d6000803e3d6000fd5b505050506040513d602081101561403657600080fd5b810190808051906020019092919050505090508073ffffffffffffffffffffffffffffffffffffffff166108fc839081150290604051600060405180830381858888f1935050505015801561408f573d6000803e3d6000fd5b50600160009054906101000a900473ffffffffffffffffffffffffffffffffffffffff1673ffffffffffffffffffffffffffffffffffffffff1663bcb448b0868633306040518563ffffffff1660e01b815260040180858152602001806020018473ffffffffffffffffffffffffffffffffffffffff1673ffffffffffffffffffffffffffffffffffffffff1681526020018373ffffffffffffffffffffffffffffffffffffffff1673ffffffffffffffffffffffffffffffffffffffff168152602001828103825285818151815260200191508051906020019080838360005b8381101561418b578082015181840152602081019050614170565b50505050905090810190601f1680156141b85780820380516001836020036101000a031916815260200191505b5095505050505050600060405180830381600087803b1580156141da57600080fd5b505af11580156141ee573d6000803e3d6000fd5b505050507fc96e8a6c4b73999b9ad3a8561e95096b7ab441e5f849ef1f0648b8a7d628cc3f856040518082815260200191505060405180910390a150509291505056fe50726f6475637420697320616c726561647920726561647920666f72207368697070696e67496e737566666963656e742062616c616e636520746f206275792074686520737570706c79596f7520446f204e6f7420486176652053756666696369656e742050726f647563747320546f2050726f636573732057696e6550726f64756374206973206e6f742079657420726563656976656420666f722072657475726ea265627a7a723158204ddc79ebfb54f0aa2d5f1bda16cc1d570ed2b1e9445353e9bcc86f8b053ba25d64736f6c63430005100032",
  "source": "pragma solidity ^0.5.0;\n\nimport \"./Product.sol\";\nimport \"./RawMaterialSupplier.sol\";\n\ncontract WineProducer {\n    Product productContract;\n    RawMaterialSupplier rawMaterialSupplierContract;\n    uint256[] wineOwned;\n    address wineProducerAddress = msg.sender;\n    constructor(Product productContractddress, RawMaterialSupplier supplierContractAddress) public {\n        productContract = productContractddress;\n        rawMaterialSupplierContract = supplierContractAddress;\n    }\n\n    //events\n    event buyRawMaterial(uint productId);\n    event processedWine(uint productId);\n    event wineRemoved(uint productId);\n    event returnedRawMaterial(uint productId);\n    event WineReadyToShip(uint productId);\n    event WineDisbatched(uint productId);\n    event rawMaterialReceived(uint productId);\n\n    //modifiers\n    modifier ownerOnly(uint256 productId) {\n        require(productContract.getCurrentOwner(productId) == msg.sender);\n        _;\n    }\n\n\n    function buy(\n        uint256 productId,\n        string memory disbatchDate\n    ) public payable returns(uint256) {\n        uint256 productPrice = productContract.getUnitPrice(productId) * productContract.getBatchQuantity(productId);\n        require(msg.value > productPrice, \"Insufficent balance to buy the supply\");\n        address payable targetAddress = address(uint160(productContract.getCurrentOwner(productId)));\n        targetAddress.transfer(productPrice);\n\n        rawMaterialSupplierContract.disbatchRawMaterial(\n            productId, \n            disbatchDate, \n            msg.sender,\n            address(this)\n        );\n        emit buyRawMaterial(productId);\n    }\n\n    function received(\n        uint256 productId,\n        string memory currentLocation,\n        string memory arrivalDate\n    ) public ownerOnly(productId) {\n        productContract.setReceived(productId, true);\n        (string memory location, string memory disbatchDate, string memory prevArrivalDate) = productContract.getCurrentLocation(productId);\n        productContract.addPreviousLocation(productId, location, disbatchDate, prevArrivalDate);\n        productContract.setCurrentLocation(productId, currentLocation, \"\", arrivalDate);\n        emit rawMaterialReceived(productId);\n    }\n\n\n    function removeWine(uint256 productId) public ownerOnly(productId) {\n        productContract.removeProduct(productId);\n        for (uint256 i = 0; i < wineOwned.length; i++) {\n            if (wineOwned[i] == productId) {\n                delete wineOwned[i];\n                break;\n            }\n        }\n        emit wineRemoved(productId);\n    }\n\n\n    //Setting of location is unncessary because the returned products would not be of used anymore in the supplychain.\n\n    function returnRawMaterials(uint256 productId) public ownerOnly(productId) {\n        require(productContract.getReceived(productId) == true, \"Product is not yet received for return\");\n        productContract.setPreviousOwner(productId, msg.sender);\n        productContract.setCurrentOwner(productId, productContract.getPreviousOwner(productId));\n        productContract.setPreviousContractAddress(productId, productContract.getCurrentContractAddress(productId));\n        productContract.setCurrentContractAddress(productId, productContract.getPreviousContractAddress(productId));\n\n        emit returnedRawMaterial(productId);\n    }\n\n\n    function wineReadyToShip(uint256 productId, string memory newLocation) public ownerOnly(productId) {\n        require(productContract.getReadyToShip(productId) == false, \"Product is already ready for shipping\");\n        require(keccak256(abi.encodePacked(productContract.getProductName(productId))) == keccak256(abi.encodePacked(\"Wine\")), \"You can only ship wine products\");\n\n        productContract.setReadyToShip(productId, true);\n        (string memory location, string memory disbatchDate, string memory arrivalDate) = productContract.getCurrentLocation(productId);\n        productContract.addPreviousLocation(productId, location, disbatchDate, arrivalDate);\n        productContract.setCurrentLocation(productId, newLocation, \"\", \"\");\n        emit WineReadyToShip(productId);\n    }\n\n    function processWine(\n        uint256[] memory productIds,\n        string memory placeOfOrigin,\n        string memory productionDate,\n        string memory expirationDate, \n        uint256 unitQuantity, \n        string memory unitQuantityType, \n        uint256 batchQuantity, \n        uint256 unitPrice, \n        string memory category, \n        string memory currentPhysicalLocation\n        ) public returns (uint256) {\n\n\n        bool allAvailableToUse = true;\n        for (uint256 i = 0; i < productIds.length; i++) {\n            if (productContract.getUsed((productIds[i])) == true) {\n                allAvailableToUse == false;\n                break;\n            }\n        }\n\n        require(allAvailableToUse == true, \"You Do Not Have Sufficient Products To Process Wine\");\n\n        //CreateWine and add all the materials Inside\n\n        uint256 wineProductId = productContract.createProduct(\n            \"Wine\", \n            address(this),\n            unitQuantity, \n            unitQuantityType, \n            batchQuantity, \n            unitPrice, \n            category\n            );\n\n        productContract.setPlaceOfOrigin(wineProductId, placeOfOrigin);\n        productContract.setProductionDate(wineProductId, productionDate);\n        productContract.setBatchQuantity(wineProductId, batchQuantity);\n        productContract.setExpirationDate(wineProductId, expirationDate);\n        productContract.setCurrentLocation(wineProductId, currentPhysicalLocation, \"\", \"\");\n\n        for (uint256 i = 0; i < productIds.length; i++) {\n            uint256 productId = productIds[i];\n            productContract.addComponentProduct(wineProductId, productId);\n        }\n\n        wineOwned.push(wineProductId);\n    \n\n        //Use up all the materials\n        for (uint256 i = 0; i < productIds.length; i++) {\n            productContract.setUsed(productIds[i], true);\n        }\n        emit processedWine(wineProductId);\n        return wineProductId;\n    }\n\n    function disbatchWineToBulkDistributor(uint256 productId, string memory newDisbatchDate, address bulkDistributorAddress, address bulkDistributorContractAddress) public ownerOnly(productId) {\n        require(productContract.getReadyToShip(productId) == true, \"Product not ready for shipping\");\n        require(keccak256(abi.encodePacked(productContract.getProductName(productId))) == keccak256(abi.encodePacked(\"Wine\")), \"You can only ship wine products\");\n        \n        productContract.setPreviousOwner(productId, productContract.getCurrentOwner(productId));\n        productContract.setCurrentOwner(productId, bulkDistributorAddress);\n        productContract.setPreviousContractAddress(productId, productContract.getCurrentContractAddress(productId));\n        productContract.setCurrentContractAddress(productId, bulkDistributorContractAddress);\n        (string memory location, , string memory arrivalDate) = productContract.getCurrentLocation(productId);\n        productContract.setCurrentLocation(productId, location, newDisbatchDate, arrivalDate);\n\n        emit WineDisbatched(productId);\n    }\n}\n\n\n\n\n\n\n\n\n\n\n\n\n\n\n\n\n\n\n\n\n\n\n\n\n\n\n\n\n\n\n\n\n\n\n\n\n\n\n\n\n\n\n\n\n\n\n\n\n\n\n\n\n\n\n\n\n\n\n\n\n\n\n\n\n\n\n\n\n\n\n\n\n\n\n\n\n\n\n\n\n    ",
  "sourcePath": "/Users/alexye/Desktop/Wine-Supplychain-Blockchain/contracts/WineProducer.sol",
  "compiler": {
    "name": "solc",
    "version": "0.5.16+commit.9c3226ce.Emscripten.clang"
  },
  "schemaVersion": "3.4.12",
  "updatedAt": "2023-04-07T07:25:20.267Z",
  "devdoc": {
    "methods": {}
  },
  "userdoc": {
    "methods": {}
  }
}