{
  "contractName": "WineProducer",
  "abi": [
    {
      "inputs": [
        {
          "internalType": "contract Product",
          "name": "productContractddress",
          "type": "address"
        },
        {
          "internalType": "contract RawMaterialSupplier",
          "name": "supplierContractAddress",
          "type": "address"
        }
      ],
      "payable": false,
      "stateMutability": "nonpayable",
      "type": "constructor"
    },
    {
      "anonymous": false,
      "inputs": [
        {
          "indexed": false,
          "internalType": "uint256",
          "name": "productId",
          "type": "uint256"
        }
      ],
      "name": "WineDisbatched",
      "type": "event"
    },
    {
      "anonymous": false,
      "inputs": [
        {
          "indexed": false,
          "internalType": "uint256",
          "name": "productId",
          "type": "uint256"
        }
      ],
      "name": "WineReadyToShip",
      "type": "event"
    },
    {
      "anonymous": false,
      "inputs": [
        {
          "indexed": false,
          "internalType": "uint256",
          "name": "productId",
          "type": "uint256"
        }
      ],
      "name": "buyRawMaterial",
      "type": "event"
    },
    {
      "anonymous": false,
      "inputs": [
        {
          "indexed": false,
          "internalType": "uint256",
          "name": "productId",
          "type": "uint256"
        }
      ],
      "name": "processedWine",
      "type": "event"
    },
    {
      "anonymous": false,
      "inputs": [
        {
          "indexed": false,
          "internalType": "uint256",
          "name": "productId",
          "type": "uint256"
        }
      ],
      "name": "rawMaterialReceived",
      "type": "event"
    },
    {
      "anonymous": false,
      "inputs": [
        {
          "indexed": false,
          "internalType": "uint256",
          "name": "productId",
          "type": "uint256"
        }
      ],
      "name": "refundWine",
      "type": "event"
    },
    {
      "anonymous": false,
      "inputs": [
        {
          "indexed": false,
          "internalType": "uint256",
          "name": "productId",
          "type": "uint256"
        }
      ],
      "name": "returnedRawMaterial",
      "type": "event"
    },
    {
      "anonymous": false,
      "inputs": [
        {
          "indexed": false,
          "internalType": "uint256",
          "name": "productId",
          "type": "uint256"
        }
      ],
      "name": "wineRemoved",
      "type": "event"
    },
    {
      "constant": false,
      "inputs": [
        {
          "internalType": "uint256",
          "name": "productId",
          "type": "uint256"
        }
      ],
      "name": "buy",
      "outputs": [],
      "payable": true,
      "stateMutability": "payable",
      "type": "function"
    },
    {
      "constant": false,
      "inputs": [
        {
          "internalType": "uint256",
          "name": "productId",
          "type": "uint256"
        },
        {
          "internalType": "string",
          "name": "currentLocation",
          "type": "string"
        },
        {
          "internalType": "string",
          "name": "arrivalDate",
          "type": "string"
        }
      ],
      "name": "received",
      "outputs": [],
      "payable": false,
      "stateMutability": "nonpayable",
      "type": "function"
    },
    {
      "constant": false,
      "inputs": [
        {
          "internalType": "uint256",
          "name": "productId",
          "type": "uint256"
        }
      ],
      "name": "removeWine",
      "outputs": [],
      "payable": false,
      "stateMutability": "nonpayable",
      "type": "function"
    },
    {
      "constant": false,
      "inputs": [
        {
          "internalType": "uint256",
          "name": "productId",
          "type": "uint256"
        }
      ],
      "name": "returnRawMaterials",
      "outputs": [],
      "payable": false,
      "stateMutability": "nonpayable",
      "type": "function"
    },
    {
      "constant": false,
      "inputs": [
        {
          "internalType": "uint256",
          "name": "productId",
          "type": "uint256"
        }
      ],
      "name": "refundBulkDistributor",
      "outputs": [],
      "payable": true,
      "stateMutability": "payable",
      "type": "function"
    },
    {
      "constant": false,
      "inputs": [
        {
          "internalType": "uint256",
          "name": "productId",
          "type": "uint256"
        },
        {
          "internalType": "string",
          "name": "newLocation",
          "type": "string"
        }
      ],
      "name": "wineReadyToShip",
      "outputs": [],
      "payable": false,
      "stateMutability": "nonpayable",
      "type": "function"
    },
    {
      "constant": false,
      "inputs": [
        {
          "internalType": "uint256[]",
          "name": "productIds",
          "type": "uint256[]"
        },
        {
          "internalType": "string",
          "name": "placeOfOrigin",
          "type": "string"
        },
        {
          "internalType": "string",
          "name": "productionDate",
          "type": "string"
        },
        {
          "internalType": "string",
          "name": "expirationDate",
          "type": "string"
        },
        {
          "internalType": "uint256",
          "name": "unitQuantity",
          "type": "uint256"
        },
        {
          "internalType": "string",
          "name": "unitQuantityType",
          "type": "string"
        },
        {
          "internalType": "uint256",
          "name": "batchQuantity",
          "type": "uint256"
        },
        {
          "internalType": "uint256",
          "name": "unitPrice",
          "type": "uint256"
        },
        {
          "internalType": "string",
          "name": "category",
          "type": "string"
        },
        {
          "internalType": "string",
          "name": "currentPhysicalLocation",
          "type": "string"
        }
      ],
      "name": "processWine",
      "outputs": [
        {
          "internalType": "uint256",
          "name": "",
          "type": "uint256"
        }
      ],
      "payable": false,
      "stateMutability": "nonpayable",
      "type": "function"
    },
    {
      "constant": false,
      "inputs": [
        {
          "internalType": "uint256",
          "name": "productId",
          "type": "uint256"
        },
        {
          "internalType": "string",
          "name": "newDisbatchDate",
          "type": "string"
        },
        {
          "internalType": "address",
          "name": "bulkDistributorAddress",
          "type": "address"
        },
        {
          "internalType": "address",
          "name": "bulkDistributorContractAddress",
          "type": "address"
        }
      ],
      "name": "dispatchWineToBulkDistributor",
      "outputs": [],
      "payable": false,
      "stateMutability": "nonpayable",
      "type": "function"
    }
  ],
  "bytecode": "0x608060405233600260006101000a81548173ffffffffffffffffffffffffffffffffffffffff021916908373ffffffffffffffffffffffffffffffffffffffff16021790555034801561005157600080fd5b506040516200475d3803806200475d8339818101604052604081101561007657600080fd5b810190808051906020019092919080519060200190929190505050816000806101000a81548173ffffffffffffffffffffffffffffffffffffffff021916908373ffffffffffffffffffffffffffffffffffffffff16021790555080600160006101000a81548173ffffffffffffffffffffffffffffffffffffffff021916908373ffffffffffffffffffffffffffffffffffffffff160217905550505061463980620001246000396000f3fe60806040526004361061007b5760003560e01c8063798605ea1161004e578063798605ea1461032457806399ee508d14610436578063a9b2f38e146108b8578063d96a094a146108f35761007b565b80630ebe96df1461008057806315bb14411461015257806349d23fb71461018d57806361abcc8d146102f6575b600080fd5b34801561008c57600080fd5b50610150600480360360408110156100a357600080fd5b8101908080359060200190929190803590602001906401000000008111156100ca57600080fd5b8201836020820111156100dc57600080fd5b803590602001918460018302840111640100000000831117156100fe57600080fd5b91908080601f016020809104026020016040519081016040528093929190818152602001838380828437600081840152601f19601f820116905080830192505050505050509192919290505050610921565b005b34801561015e57600080fd5b5061018b6004803603602081101561017557600080fd5b8101908080359060200190929190505050611455565b005b34801561019957600080fd5b506102f4600480360360608110156101b057600080fd5b8101908080359060200190929190803590602001906401000000008111156101d757600080fd5b8201836020820111156101e957600080fd5b8035906020019184600183028401116401000000008311171561020b57600080fd5b91908080601f016020809104026020016040519081016040528093929190818152602001838380828437600081840152601f19601f8201169050808301925050505050505091929192908035906020019064010000000081111561026e57600080fd5b82018360208201111561028057600080fd5b803590602001918460018302840111640100000000831117156102a257600080fd5b91908080601f016020809104026020016040519081016040528093929190818152602001838380828437600081840152601f19601f820116905080830192505050505050509192919290505050611601565b005b6103226004803603602081101561030c57600080fd5b8101908080359060200190929190505050611df0565b005b34801561033057600080fd5b506104346004803603608081101561034757600080fd5b81019080803590602001909291908035906020019064010000000081111561036e57600080fd5b82018360208201111561038057600080fd5b803590602001918460018302840111640100000000831117156103a257600080fd5b91908080601f016020809104026020016040519081016040528093929190818152602001838380828437600081840152601f19601f820116905080830192505050505050509192919290803573ffffffffffffffffffffffffffffffffffffffff169060200190929190803573ffffffffffffffffffffffffffffffffffffffff16906020019092919050505061232c565b005b34801561044257600080fd5b506108a2600480360361014081101561045a57600080fd5b810190808035906020019064010000000081111561047757600080fd5b82018360208201111561048957600080fd5b803590602001918460208302840111640100000000831117156104ab57600080fd5b919080806020026020016040519081016040528093929190818152602001838360200280828437600081840152601f19601f8201169050808301925050505050505091929192908035906020019064010000000081111561050b57600080fd5b82018360208201111561051d57600080fd5b8035906020019184600183028401116401000000008311171561053f57600080fd5b91908080601f016020809104026020016040519081016040528093929190818152602001838380828437600081840152601f19601f820116905080830192505050505050509192919290803590602001906401000000008111156105a257600080fd5b8201836020820111156105b457600080fd5b803590602001918460018302840111640100000000831117156105d657600080fd5b91908080601f016020809104026020016040519081016040528093929190818152602001838380828437600081840152601f19601f8201169050808301925050505050505091929192908035906020019064010000000081111561063957600080fd5b82018360208201111561064b57600080fd5b8035906020019184600183028401116401000000008311171561066d57600080fd5b91908080601f016020809104026020016040519081016040528093929190818152602001838380828437600081840152601f19601f82011690508083019250505050505050919291929080359060200190929190803590602001906401000000008111156106da57600080fd5b8201836020820111156106ec57600080fd5b8035906020019184600183028401116401000000008311171561070e57600080fd5b91908080601f016020809104026020016040519081016040528093929190818152602001838380828437600081840152601f19601f82011690508083019250505050505050919291929080359060200190929190803590602001909291908035906020019064010000000081111561078557600080fd5b82018360208201111561079757600080fd5b803590602001918460018302840111640100000000831117156107b957600080fd5b91908080601f016020809104026020016040519081016040528093929190818152602001838380828437600081840152601f19601f8201169050808301925050505050505091929192908035906020019064010000000081111561081c57600080fd5b82018360208201111561082e57600080fd5b8035906020019184600183028401116401000000008311171561085057600080fd5b91908080601f016020809104026020016040519081016040528093929190818152602001838380828437600081840152601f19601f820116905080830192505050505050509192919290505050613119565b6040518082815260200191505060405180910390f35b3480156108c457600080fd5b506108f1600480360360208110156108db57600080fd5b8101908080359060200190929190505050613a92565b005b61091f6004803603602081101561090957600080fd5b8101908080359060200190929190505050614276565b005b813373ffffffffffffffffffffffffffffffffffffffff166000809054906101000a900473ffffffffffffffffffffffffffffffffffffffff1673ffffffffffffffffffffffffffffffffffffffff16637ace341b836040518263ffffffff1660e01b81526004018082815260200191505060206040518083038186803b1580156109ab57600080fd5b505afa1580156109bf573d6000803e3d6000fd5b505050506040513d60208110156109d557600080fd5b810190808051906020019092919050505073ffffffffffffffffffffffffffffffffffffffff1614610a0657600080fd5b600015156000809054906101000a900473ffffffffffffffffffffffffffffffffffffffff1673ffffffffffffffffffffffffffffffffffffffff166340889b4f856040518263ffffffff1660e01b81526004018082815260200191505060206040518083038186803b158015610a7c57600080fd5b505afa158015610a90573d6000803e3d6000fd5b505050506040513d6020811015610aa657600080fd5b8101908080519060200190929190505050151514610b0f576040517f08c379a00000000000000000000000000000000000000000000000000000000081526004018080602001828103825260258152602001806145626025913960400191505060405180910390fd5b60405160200180807f57696e65000000000000000000000000000000000000000000000000000000008152506004019050604051602081830303815290604052805190602001206000809054906101000a900473ffffffffffffffffffffffffffffffffffffffff1673ffffffffffffffffffffffffffffffffffffffff16639e62e795856040518263ffffffff1660e01b81526004018082815260200191505060006040518083038186803b158015610bc857600080fd5b505afa158015610bdc573d6000803e3d6000fd5b505050506040513d6000823e3d601f19601f820116820180604052506020811015610c0657600080fd5b8101908080516040519392919084640100000000821115610c2657600080fd5b83820191506020820185811115610c3c57600080fd5b8251866001820283011164010000000082111715610c5957600080fd5b8083526020830192505050908051906020019080838360005b83811015610c8d578082015181840152602081019050610c72565b50505050905090810190601f168015610cba5780820380516001836020036101000a031916815260200191505b506040525050506040516020018082805190602001908083835b60208310610cf75780518252602082019150602081019050602083039250610cd4565b6001836020036101000a0380198251168184511680821785525050505050509050019150506040516020818303038152906040528051906020012014610da5576040517f08c379a000000000000000000000000000000000000000000000000000000000815260040180806020018281038252601f8152602001807f596f752063616e206f6e6c7920736869702077696e652070726f64756374730081525060200191505060405180910390fd5b6000809054906101000a900473ffffffffffffffffffffffffffffffffffffffff1673ffffffffffffffffffffffffffffffffffffffff16633d30ffb88460016040518363ffffffff1660e01b8152600401808381526020018215151515815260200192505050600060405180830381600087803b158015610e2657600080fd5b505af1158015610e3a573d6000803e3d6000fd5b5050505060608060606000809054906101000a900473ffffffffffffffffffffffffffffffffffffffff1673ffffffffffffffffffffffffffffffffffffffff166323bb1835876040518263ffffffff1660e01b81526004018082815260200191505060006040518083038186803b158015610eb557600080fd5b505afa158015610ec9573d6000803e3d6000fd5b505050506040513d6000823e3d601f19601f820116820180604052506060811015610ef357600080fd5b8101908080516040519392919084640100000000821115610f1357600080fd5b83820191506020820185811115610f2957600080fd5b8251866001820283011164010000000082111715610f4657600080fd5b8083526020830192505050908051906020019080838360005b83811015610f7a578082015181840152602081019050610f5f565b50505050905090810190601f168015610fa75780820380516001836020036101000a031916815260200191505b5060405260200180516040519392919084640100000000821115610fca57600080fd5b83820191506020820185811115610fe057600080fd5b8251866001820283011164010000000082111715610ffd57600080fd5b8083526020830192505050908051906020019080838360005b83811015611031578082015181840152602081019050611016565b50505050905090810190601f16801561105e5780820380516001836020036101000a031916815260200191505b506040526020018051604051939291908464010000000082111561108157600080fd5b8382019150602082018581111561109757600080fd5b82518660018202830111640100000000821117156110b457600080fd5b8083526020830192505050908051906020019080838360005b838110156110e85780820151818401526020810190506110cd565b50505050905090810190601f1680156111155780820380516001836020036101000a031916815260200191505b506040525050509250925092506000809054906101000a900473ffffffffffffffffffffffffffffffffffffffff1673ffffffffffffffffffffffffffffffffffffffff1663d88ee329878585856040518563ffffffff1660e01b815260040180858152602001806020018060200180602001848103845287818151815260200191508051906020019080838360005b838110156111c05780820151818401526020810190506111a5565b50505050905090810190601f1680156111ed5780820380516001836020036101000a031916815260200191505b50848103835286818151815260200191508051906020019080838360005b8381101561122657808201518184015260208101905061120b565b50505050905090810190601f1680156112535780820380516001836020036101000a031916815260200191505b50848103825285818151815260200191508051906020019080838360005b8381101561128c578082015181840152602081019050611271565b50505050905090810190601f1680156112b95780820380516001836020036101000a031916815260200191505b50975050505050505050600060405180830381600087803b1580156112dd57600080fd5b505af11580156112f1573d6000803e3d6000fd5b505050506000809054906101000a900473ffffffffffffffffffffffffffffffffffffffff1673ffffffffffffffffffffffffffffffffffffffff1663809db2f887876040518363ffffffff1660e01b815260040180838152602001806020018060200180602001848103845285818151815260200191508051906020019080838360005b83811015611391578082015181840152602081019050611376565b50505050905090810190601f1680156113be5780820380516001836020036101000a031916815260200191505b5084810383526000815260200160200184810382526000815260200160200195505050505050600060405180830381600087803b1580156113fe57600080fd5b505af1158015611412573d6000803e3d6000fd5b505050507f02fcf20b60cce521b0b7abd330c36f198af0697da0f66f3fb0869a8f00951404866040518082815260200191505060405180910390a1505050505050565b803373ffffffffffffffffffffffffffffffffffffffff166000809054906101000a900473ffffffffffffffffffffffffffffffffffffffff1673ffffffffffffffffffffffffffffffffffffffff16637ace341b836040518263ffffffff1660e01b81526004018082815260200191505060206040518083038186803b1580156114df57600080fd5b505afa1580156114f3573d6000803e3d6000fd5b505050506040513d602081101561150957600080fd5b810190808051906020019092919050505073ffffffffffffffffffffffffffffffffffffffff161461153a57600080fd5b6000809054906101000a900473ffffffffffffffffffffffffffffffffffffffff1673ffffffffffffffffffffffffffffffffffffffff16635ee95cae836040518263ffffffff1660e01b815260040180828152602001915050600060405180830381600087803b1580156115ae57600080fd5b505af11580156115c2573d6000803e3d6000fd5b505050507fa75642e219535e71f3332decace37ca196480295106318c0be229f8a4f4ae4f1826040518082815260200191505060405180910390a15050565b823373ffffffffffffffffffffffffffffffffffffffff166000809054906101000a900473ffffffffffffffffffffffffffffffffffffffff1673ffffffffffffffffffffffffffffffffffffffff16637ace341b836040518263ffffffff1660e01b81526004018082815260200191505060206040518083038186803b15801561168b57600080fd5b505afa15801561169f573d6000803e3d6000fd5b505050506040513d60208110156116b557600080fd5b810190808051906020019092919050505073ffffffffffffffffffffffffffffffffffffffff16146116e657600080fd5b6000809054906101000a900473ffffffffffffffffffffffffffffffffffffffff1673ffffffffffffffffffffffffffffffffffffffff1663dcd9d2cb8560016040518363ffffffff1660e01b8152600401808381526020018215151515815260200192505050600060405180830381600087803b15801561176757600080fd5b505af115801561177b573d6000803e3d6000fd5b5050505060608060606000809054906101000a900473ffffffffffffffffffffffffffffffffffffffff1673ffffffffffffffffffffffffffffffffffffffff166323bb1835886040518263ffffffff1660e01b81526004018082815260200191505060006040518083038186803b1580156117f657600080fd5b505afa15801561180a573d6000803e3d6000fd5b505050506040513d6000823e3d601f19601f82011682018060405250606081101561183457600080fd5b810190808051604051939291908464010000000082111561185457600080fd5b8382019150602082018581111561186a57600080fd5b825186600182028301116401000000008211171561188757600080fd5b8083526020830192505050908051906020019080838360005b838110156118bb5780820151818401526020810190506118a0565b50505050905090810190601f1680156118e85780820380516001836020036101000a031916815260200191505b506040526020018051604051939291908464010000000082111561190b57600080fd5b8382019150602082018581111561192157600080fd5b825186600182028301116401000000008211171561193e57600080fd5b8083526020830192505050908051906020019080838360005b83811015611972578082015181840152602081019050611957565b50505050905090810190601f16801561199f5780820380516001836020036101000a031916815260200191505b50604052602001805160405193929190846401000000008211156119c257600080fd5b838201915060208201858111156119d857600080fd5b82518660018202830111640100000000821117156119f557600080fd5b8083526020830192505050908051906020019080838360005b83811015611a29578082015181840152602081019050611a0e565b50505050905090810190601f168015611a565780820380516001836020036101000a031916815260200191505b506040525050509250925092506000809054906101000a900473ffffffffffffffffffffffffffffffffffffffff1673ffffffffffffffffffffffffffffffffffffffff1663d88ee329888585856040518563ffffffff1660e01b815260040180858152602001806020018060200180602001848103845287818151815260200191508051906020019080838360005b83811015611b01578082015181840152602081019050611ae6565b50505050905090810190601f168015611b2e5780820380516001836020036101000a031916815260200191505b50848103835286818151815260200191508051906020019080838360005b83811015611b67578082015181840152602081019050611b4c565b50505050905090810190601f168015611b945780820380516001836020036101000a031916815260200191505b50848103825285818151815260200191508051906020019080838360005b83811015611bcd578082015181840152602081019050611bb2565b50505050905090810190601f168015611bfa5780820380516001836020036101000a031916815260200191505b50975050505050505050600060405180830381600087803b158015611c1e57600080fd5b505af1158015611c32573d6000803e3d6000fd5b505050506000809054906101000a900473ffffffffffffffffffffffffffffffffffffffff1673ffffffffffffffffffffffffffffffffffffffff1663809db2f88888886040518463ffffffff1660e01b815260040180848152602001806020018060200180602001848103845286818151815260200191508051906020019080838360005b83811015611cd3578082015181840152602081019050611cb8565b50505050905090810190601f168015611d005780820380516001836020036101000a031916815260200191505b50848103835260008152602001602001848103825285818151815260200191508051906020019080838360005b83811015611d48578082015181840152602081019050611d2d565b50505050905090810190601f168015611d755780820380516001836020036101000a031916815260200191505b509650505050505050600060405180830381600087803b158015611d9857600080fd5b505af1158015611dac573d6000803e3d6000fd5b505050507f241a6da8c76357bc41b8498a43bd67a7caf898a69f19aa9338d180ea4c7b684f876040518082815260200191505060405180910390a150505050505050565b803373ffffffffffffffffffffffffffffffffffffffff166000809054906101000a900473ffffffffffffffffffffffffffffffffffffffff1673ffffffffffffffffffffffffffffffffffffffff16637ace341b836040518263ffffffff1660e01b81526004018082815260200191505060206040518083038186803b158015611e7a57600080fd5b505afa158015611e8e573d6000803e3d6000fd5b505050506040513d6020811015611ea457600080fd5b810190808051906020019092919050505073ffffffffffffffffffffffffffffffffffffffff1614611ed557600080fd5b3373ffffffffffffffffffffffffffffffffffffffff166000809054906101000a900473ffffffffffffffffffffffffffffffffffffffff1673ffffffffffffffffffffffffffffffffffffffff16637ace341b846040518263ffffffff1660e01b81526004018082815260200191505060206040518083038186803b158015611f5e57600080fd5b505afa158015611f72573d6000803e3d6000fd5b505050506040513d6020811015611f8857600080fd5b810190808051906020019092919050505073ffffffffffffffffffffffffffffffffffffffff1614612022576040517f08c379a00000000000000000000000000000000000000000000000000000000081526004018080602001828103825260168152602001807f556e61626c6520746f20726566756e64206974656d730000000000000000000081525060200191505060405180910390fd5b60008060009054906101000a900473ffffffffffffffffffffffffffffffffffffffff1673ffffffffffffffffffffffffffffffffffffffff1663fe73e86c846040518263ffffffff1660e01b81526004018082815260200191505060206040518083038186803b15801561209657600080fd5b505afa1580156120aa573d6000803e3d6000fd5b505050506040513d60208110156120c057600080fd5b81019080805190602001909291905050506000809054906101000a900473ffffffffffffffffffffffffffffffffffffffff1673ffffffffffffffffffffffffffffffffffffffff166364c0e52f856040518263ffffffff1660e01b81526004018082815260200191505060206040518083038186803b15801561214357600080fd5b505afa158015612157573d6000803e3d6000fd5b505050506040513d602081101561216d57600080fd5b8101908080519060200190929190505050029050803410156121f7576040517f08c379a000000000000000000000000000000000000000000000000000000000815260040180806020018281038252601d8152602001807f496e737566666963656e7420616d6f756e7420666f7220726566756e6400000081525060200191505060405180910390fd5b60008060009054906101000a900473ffffffffffffffffffffffffffffffffffffffff1673ffffffffffffffffffffffffffffffffffffffff16637ace341b856040518263ffffffff1660e01b81526004018082815260200191505060206040518083038186803b15801561226b57600080fd5b505afa15801561227f573d6000803e3d6000fd5b505050506040513d602081101561229557600080fd5b810190808051906020019092919050505090508073ffffffffffffffffffffffffffffffffffffffff166108fc839081150290604051600060405180830381858888f193505050501580156122ee573d6000803e3d6000fd5b507f376a28bb6c0a24411101d750f324a0b9a737da52d836c5231fa9cf0448efefec846040518082815260200191505060405180910390a150505050565b833373ffffffffffffffffffffffffffffffffffffffff166000809054906101000a900473ffffffffffffffffffffffffffffffffffffffff1673ffffffffffffffffffffffffffffffffffffffff16637ace341b836040518263ffffffff1660e01b81526004018082815260200191505060206040518083038186803b1580156123b657600080fd5b505afa1580156123ca573d6000803e3d6000fd5b505050506040513d60208110156123e057600080fd5b810190808051906020019092919050505073ffffffffffffffffffffffffffffffffffffffff161461241157600080fd5b600115156000809054906101000a900473ffffffffffffffffffffffffffffffffffffffff1673ffffffffffffffffffffffffffffffffffffffff166340889b4f876040518263ffffffff1660e01b81526004018082815260200191505060206040518083038186803b15801561248757600080fd5b505afa15801561249b573d6000803e3d6000fd5b505050506040513d60208110156124b157600080fd5b8101908080519060200190929190505050151514612537576040517f08c379a000000000000000000000000000000000000000000000000000000000815260040180806020018281038252601e8152602001807f50726f64756374206e6f7420726561647920666f72207368697070696e67000081525060200191505060405180910390fd5b60405160200180807f57696e65000000000000000000000000000000000000000000000000000000008152506004019050604051602081830303815290604052805190602001206000809054906101000a900473ffffffffffffffffffffffffffffffffffffffff1673ffffffffffffffffffffffffffffffffffffffff16639e62e795876040518263ffffffff1660e01b81526004018082815260200191505060006040518083038186803b1580156125f057600080fd5b505afa158015612604573d6000803e3d6000fd5b505050506040513d6000823e3d601f19601f82011682018060405250602081101561262e57600080fd5b810190808051604051939291908464010000000082111561264e57600080fd5b8382019150602082018581111561266457600080fd5b825186600182028301116401000000008211171561268157600080fd5b8083526020830192505050908051906020019080838360005b838110156126b557808201518184015260208101905061269a565b50505050905090810190601f1680156126e25780820380516001836020036101000a031916815260200191505b506040525050506040516020018082805190602001908083835b6020831061271f57805182526020820191506020810190506020830392506126fc565b6001836020036101000a03801982511681845116808217855250505050505090500191505060405160208183030381529060405280519060200120146127cd576040517f08c379a000000000000000000000000000000000000000000000000000000000815260040180806020018281038252601f8152602001807f596f752063616e206f6e6c7920736869702077696e652070726f64756374730081525060200191505060405180910390fd5b6000809054906101000a900473ffffffffffffffffffffffffffffffffffffffff1673ffffffffffffffffffffffffffffffffffffffff16630cc91022866000809054906101000a900473ffffffffffffffffffffffffffffffffffffffff1673ffffffffffffffffffffffffffffffffffffffff16637ace341b896040518263ffffffff1660e01b81526004018082815260200191505060206040518083038186803b15801561287d57600080fd5b505afa158015612891573d6000803e3d6000fd5b505050506040513d60208110156128a757600080fd5b81019080805190602001909291905050506040518363ffffffff1660e01b8152600401808381526020018273ffffffffffffffffffffffffffffffffffffffff1673ffffffffffffffffffffffffffffffffffffffff16815260200192505050600060405180830381600087803b15801561292157600080fd5b505af1158015612935573d6000803e3d6000fd5b505050506000809054906101000a900473ffffffffffffffffffffffffffffffffffffffff1673ffffffffffffffffffffffffffffffffffffffff16636c125a6b86856040518363ffffffff1660e01b8152600401808381526020018273ffffffffffffffffffffffffffffffffffffffff1673ffffffffffffffffffffffffffffffffffffffff16815260200192505050600060405180830381600087803b1580156129e157600080fd5b505af11580156129f5573d6000803e3d6000fd5b505050506000809054906101000a900473ffffffffffffffffffffffffffffffffffffffff1673ffffffffffffffffffffffffffffffffffffffff166391f4caca866000809054906101000a900473ffffffffffffffffffffffffffffffffffffffff1673ffffffffffffffffffffffffffffffffffffffff16630772c45e896040518263ffffffff1660e01b81526004018082815260200191505060206040518083038186803b158015612aa957600080fd5b505afa158015612abd573d6000803e3d6000fd5b505050506040513d6020811015612ad357600080fd5b81019080805190602001909291905050506040518363ffffffff1660e01b8152600401808381526020018273ffffffffffffffffffffffffffffffffffffffff1673ffffffffffffffffffffffffffffffffffffffff16815260200192505050600060405180830381600087803b158015612b4d57600080fd5b505af1158015612b61573d6000803e3d6000fd5b505050506000809054906101000a900473ffffffffffffffffffffffffffffffffffffffff1673ffffffffffffffffffffffffffffffffffffffff166358ff352a86846040518363ffffffff1660e01b8152600401808381526020018273ffffffffffffffffffffffffffffffffffffffff1673ffffffffffffffffffffffffffffffffffffffff16815260200192505050600060405180830381600087803b158015612c0d57600080fd5b505af1158015612c21573d6000803e3d6000fd5b505050506060806000809054906101000a900473ffffffffffffffffffffffffffffffffffffffff1673ffffffffffffffffffffffffffffffffffffffff166323bb1835886040518263ffffffff1660e01b81526004018082815260200191505060006040518083038186803b158015612c9a57600080fd5b505afa158015612cae573d6000803e3d6000fd5b505050506040513d6000823e3d601f19601f820116820180604052506060811015612cd857600080fd5b8101908080516040519392919084640100000000821115612cf857600080fd5b83820191506020820185811115612d0e57600080fd5b8251866001820283011164010000000082111715612d2b57600080fd5b8083526020830192505050908051906020019080838360005b83811015612d5f578082015181840152602081019050612d44565b50505050905090810190601f168015612d8c5780820380516001836020036101000a031916815260200191505b5060405260200180516040519392919084640100000000821115612daf57600080fd5b83820191506020820185811115612dc557600080fd5b8251866001820283011164010000000082111715612de257600080fd5b8083526020830192505050908051906020019080838360005b83811015612e16578082015181840152602081019050612dfb565b50505050905090810190601f168015612e435780820380516001836020036101000a031916815260200191505b5060405260200180516040519392919084640100000000821115612e6657600080fd5b83820191506020820185811115612e7c57600080fd5b8251866001820283011164010000000082111715612e9957600080fd5b8083526020830192505050908051906020019080838360005b83811015612ecd578082015181840152602081019050612eb2565b50505050905090810190601f168015612efa5780820380516001836020036101000a031916815260200191505b5060405250505092505091506000809054906101000a900473ffffffffffffffffffffffffffffffffffffffff1673ffffffffffffffffffffffffffffffffffffffff1663809db2f8888489856040518563ffffffff1660e01b815260040180858152602001806020018060200180602001848103845287818151815260200191508051906020019080838360005b83811015612fa4578082015181840152602081019050612f89565b50505050905090810190601f168015612fd15780820380516001836020036101000a031916815260200191505b50848103835286818151815260200191508051906020019080838360005b8381101561300a578082015181840152602081019050612fef565b50505050905090810190601f1680156130375780820380516001836020036101000a031916815260200191505b50848103825285818151815260200191508051906020019080838360005b83811015613070578082015181840152602081019050613055565b50505050905090810190601f16801561309d5780820380516001836020036101000a031916815260200191505b50975050505050505050600060405180830381600087803b1580156130c157600080fd5b505af11580156130d5573d6000803e3d6000fd5b505050507f77a4ec0c2621fb3bb948ac511faa170e3c33b178d4cb115cb53c9953008e05cc876040518082815260200191505060405180910390a150505050505050565b6000806001905060008090505b8c5181101561320d57600115156000809054906101000a900473ffffffffffffffffffffffffffffffffffffffff1673ffffffffffffffffffffffffffffffffffffffff1663c272137c8f848151811061317c57fe5b60200260200101516040518263ffffffff1660e01b81526004018082815260200191505060206040518083038186803b1580156131b857600080fd5b505afa1580156131cc573d6000803e3d6000fd5b505050506040513d60208110156131e257600080fd5b8101908080519060200190929190505050151514156132005761320d565b8080600101915050613126565b50600115158115151461326b576040517f08c379a00000000000000000000000000000000000000000000000000000000081526004018080602001828103825260338152602001806145ac6033913960400191505060405180910390fd5b60008060009054906101000a900473ffffffffffffffffffffffffffffffffffffffff1673ffffffffffffffffffffffffffffffffffffffff166331260fd3308b8b8b8b8b336040518863ffffffff1660e01b815260040180806020018973ffffffffffffffffffffffffffffffffffffffff1673ffffffffffffffffffffffffffffffffffffffff16815260200188815260200180602001878152602001868152602001806020018573ffffffffffffffffffffffffffffffffffffffff1673ffffffffffffffffffffffffffffffffffffffff168152602001848103845260048152602001807f57696e6500000000000000000000000000000000000000000000000000000000815250602001848103835289818151815260200191508051906020019080838360005b838110156133b2578082015181840152602081019050613397565b50505050905090810190601f1680156133df5780820380516001836020036101000a031916815260200191505b50848103825286818151815260200191508051906020019080838360005b838110156134185780820151818401526020810190506133fd565b50505050905090810190601f1680156134455780820380516001836020036101000a031916815260200191505b509a5050505050505050505050602060405180830381600087803b15801561346c57600080fd5b505af1158015613480573d6000803e3d6000fd5b505050506040513d602081101561349657600080fd5b810190808051906020019092919050505090506000809054906101000a900473ffffffffffffffffffffffffffffffffffffffff1673ffffffffffffffffffffffffffffffffffffffff166387f31bef828e6040518363ffffffff1660e01b81526004018083815260200180602001828103825283818151815260200191508051906020019080838360005b8381101561353d578082015181840152602081019050613522565b50505050905090810190601f16801561356a5780820380516001836020036101000a031916815260200191505b509350505050600060405180830381600087803b15801561358a57600080fd5b505af115801561359e573d6000803e3d6000fd5b505050506000809054906101000a900473ffffffffffffffffffffffffffffffffffffffff1673ffffffffffffffffffffffffffffffffffffffff16636d126874828d6040518363ffffffff1660e01b81526004018083815260200180602001828103825283818151815260200191508051906020019080838360005b8381101561363657808201518184015260208101905061361b565b50505050905090810190601f1680156136635780820380516001836020036101000a031916815260200191505b509350505050600060405180830381600087803b15801561368357600080fd5b505af1158015613697573d6000803e3d6000fd5b505050506000809054906101000a900473ffffffffffffffffffffffffffffffffffffffff1673ffffffffffffffffffffffffffffffffffffffff166343c92b6a828c6040518363ffffffff1660e01b81526004018083815260200180602001828103825283818151815260200191508051906020019080838360005b8381101561372f578082015181840152602081019050613714565b50505050905090810190601f16801561375c5780820380516001836020036101000a031916815260200191505b509350505050600060405180830381600087803b15801561377c57600080fd5b505af1158015613790573d6000803e3d6000fd5b505050506000809054906101000a900473ffffffffffffffffffffffffffffffffffffffff1673ffffffffffffffffffffffffffffffffffffffff1663809db2f882866040518363ffffffff1660e01b815260040180838152602001806020018060200180602001848103845285818151815260200191508051906020019080838360005b83811015613830578082015181840152602081019050613815565b50505050905090810190601f16801561385d5780820380516001836020036101000a031916815260200191505b5084810383526000815260200160200184810382526000815260200160200195505050505050600060405180830381600087803b15801561389d57600080fd5b505af11580156138b1573d6000803e3d6000fd5b5050505060008090505b8d5181101561397e5760008e82815181106138d257fe5b602002602001015190506000809054906101000a900473ffffffffffffffffffffffffffffffffffffffff1673ffffffffffffffffffffffffffffffffffffffff1663cf42316d84836040518363ffffffff1660e01b81526004018083815260200182815260200192505050600060405180830381600087803b15801561395857600080fd5b505af115801561396c573d6000803e3d6000fd5b505050505080806001019150506138bb565b5060008090505b8d51811015613a47576000809054906101000a900473ffffffffffffffffffffffffffffffffffffffff1673ffffffffffffffffffffffffffffffffffffffff16636caff5dc8f83815181106139d757fe5b602002602001015160016040518363ffffffff1660e01b8152600401808381526020018215151515815260200192505050600060405180830381600087803b158015613a2257600080fd5b505af1158015613a36573d6000803e3d6000fd5b505050508080600101915050613985565b507feccac678a7eb965cd660e1d809d4856b4ce9c231b6bcca6e06247e1ee47e770e816040518082815260200191505060405180910390a180925050509a9950505050505050505050565b803373ffffffffffffffffffffffffffffffffffffffff166000809054906101000a900473ffffffffffffffffffffffffffffffffffffffff1673ffffffffffffffffffffffffffffffffffffffff16637ace341b836040518263ffffffff1660e01b81526004018082815260200191505060206040518083038186803b158015613b1c57600080fd5b505afa158015613b30573d6000803e3d6000fd5b505050506040513d6020811015613b4657600080fd5b810190808051906020019092919050505073ffffffffffffffffffffffffffffffffffffffff1614613b7757600080fd5b600115156000809054906101000a900473ffffffffffffffffffffffffffffffffffffffff1673ffffffffffffffffffffffffffffffffffffffff16631becaefb846040518263ffffffff1660e01b81526004018082815260200191505060206040518083038186803b158015613bed57600080fd5b505afa158015613c01573d6000803e3d6000fd5b505050506040513d6020811015613c1757600080fd5b8101908080519060200190929190505050151514613c80576040517f08c379a00000000000000000000000000000000000000000000000000000000081526004018080602001828103825260268152602001806145df6026913960400191505060405180910390fd5b60008060009054906101000a900473ffffffffffffffffffffffffffffffffffffffff1673ffffffffffffffffffffffffffffffffffffffff166256856a846040518263ffffffff1660e01b81526004018082815260200191505060206040518083038186803b158015613cf357600080fd5b505afa158015613d07573d6000803e3d6000fd5b505050506040513d6020811015613d1d57600080fd5b8101908080519060200190929190505050905060008060009054906101000a900473ffffffffffffffffffffffffffffffffffffffff1673ffffffffffffffffffffffffffffffffffffffff16635e478e6c856040518263ffffffff1660e01b81526004018082815260200191505060206040518083038186803b158015613da457600080fd5b505afa158015613db8573d6000803e3d6000fd5b505050506040513d6020811015613dce57600080fd5b810190808051906020019092919050505090506000809054906101000a900473ffffffffffffffffffffffffffffffffffffffff1673ffffffffffffffffffffffffffffffffffffffff16630cc91022856000809054906101000a900473ffffffffffffffffffffffffffffffffffffffff1673ffffffffffffffffffffffffffffffffffffffff16637ace341b886040518263ffffffff1660e01b81526004018082815260200191505060206040518083038186803b158015613e9157600080fd5b505afa158015613ea5573d6000803e3d6000fd5b505050506040513d6020811015613ebb57600080fd5b81019080805190602001909291905050506040518363ffffffff1660e01b8152600401808381526020018273ffffffffffffffffffffffffffffffffffffffff1673ffffffffffffffffffffffffffffffffffffffff16815260200192505050600060405180830381600087803b158015613f3557600080fd5b505af1158015613f49573d6000803e3d6000fd5b505050506000809054906101000a900473ffffffffffffffffffffffffffffffffffffffff1673ffffffffffffffffffffffffffffffffffffffff166391f4caca856000809054906101000a900473ffffffffffffffffffffffffffffffffffffffff1673ffffffffffffffffffffffffffffffffffffffff16630772c45e886040518263ffffffff1660e01b81526004018082815260200191505060206040518083038186803b158015613ffd57600080fd5b505afa158015614011573d6000803e3d6000fd5b505050506040513d602081101561402757600080fd5b81019080805190602001909291905050506040518363ffffffff1660e01b8152600401808381526020018273ffffffffffffffffffffffffffffffffffffffff1673ffffffffffffffffffffffffffffffffffffffff16815260200192505050600060405180830381600087803b1580156140a157600080fd5b505af11580156140b5573d6000803e3d6000fd5b505050506000809054906101000a900473ffffffffffffffffffffffffffffffffffffffff1673ffffffffffffffffffffffffffffffffffffffff166358ff352a85836040518363ffffffff1660e01b8152600401808381526020018273ffffffffffffffffffffffffffffffffffffffff1673ffffffffffffffffffffffffffffffffffffffff16815260200192505050600060405180830381600087803b15801561416157600080fd5b505af1158015614175573d6000803e3d6000fd5b505050506000809054906101000a900473ffffffffffffffffffffffffffffffffffffffff1673ffffffffffffffffffffffffffffffffffffffff16636c125a6b85846040518363ffffffff1660e01b8152600401808381526020018273ffffffffffffffffffffffffffffffffffffffff1673ffffffffffffffffffffffffffffffffffffffff16815260200192505050600060405180830381600087803b15801561422157600080fd5b505af1158015614235573d6000803e3d6000fd5b505050507f3ab21a3ef461e2bef0069f128ddff2c56bfe1457aa3b7ff22b8691a38e0c61af846040518082815260200191505060405180910390a150505050565b60008060009054906101000a900473ffffffffffffffffffffffffffffffffffffffff1673ffffffffffffffffffffffffffffffffffffffff1663fe73e86c836040518263ffffffff1660e01b81526004018082815260200191505060206040518083038186803b1580156142ea57600080fd5b505afa1580156142fe573d6000803e3d6000fd5b505050506040513d602081101561431457600080fd5b81019080805190602001909291905050506000809054906101000a900473ffffffffffffffffffffffffffffffffffffffff1673ffffffffffffffffffffffffffffffffffffffff166364c0e52f846040518263ffffffff1660e01b81526004018082815260200191505060206040518083038186803b15801561439757600080fd5b505afa1580156143ab573d6000803e3d6000fd5b505050506040513d60208110156143c157600080fd5b810190808051906020019092919050505002905080341161442d576040517f08c379a00000000000000000000000000000000000000000000000000000000081526004018080602001828103825260258152602001806145876025913960400191505060405180910390fd5b60008060009054906101000a900473ffffffffffffffffffffffffffffffffffffffff1673ffffffffffffffffffffffffffffffffffffffff16637ace341b846040518263ffffffff1660e01b81526004018082815260200191505060206040518083038186803b1580156144a157600080fd5b505afa1580156144b5573d6000803e3d6000fd5b505050506040513d60208110156144cb57600080fd5b810190808051906020019092919050505090508073ffffffffffffffffffffffffffffffffffffffff166108fc839081150290604051600060405180830381858888f19350505050158015614524573d6000803e3d6000fd5b507fc96e8a6c4b73999b9ad3a8561e95096b7ab441e5f849ef1f0648b8a7d628cc3f836040518082815260200191505060405180910390a150505056fe50726f6475637420697320616c726561647920726561647920666f72207368697070696e67496e737566666963656e742062616c616e636520746f206275792074686520737570706c79596f7520446f204e6f7420486176652053756666696369656e742050726f647563747320546f2050726f636573732057696e6550726f64756374206973206e6f742079657420726563656976656420666f722072657475726ea265627a7a72315820cad002fc345f64487f5d006a74c2ad04b8527b21ead1d3ccb90f98444cfdf7bd64736f6c63430005100032",
  "source": "pragma solidity ^0.5.0;\r\n\r\nimport \"./Product.sol\";\r\nimport \"./RawMaterialSupplier.sol\";\r\n\r\ncontract WineProducer {\r\n    Product productContract;\r\n    RawMaterialSupplier rawMaterialSupplierContract;\r\n    address wineProducerAddress = msg.sender;\r\n    constructor(Product productContractddress, RawMaterialSupplier supplierContractAddress) public {\r\n        productContract = productContractddress;\r\n        rawMaterialSupplierContract = supplierContractAddress;\r\n    }\r\n\r\n    //events\r\n    event buyRawMaterial(uint productId);\r\n    event processedWine(uint productId);\r\n    event wineRemoved(uint productId);\r\n    event returnedRawMaterial(uint productId);\r\n    event refundWine(uint productId);\r\n    event WineReadyToShip(uint productId);\r\n    event WineDisbatched(uint productId);\r\n    event rawMaterialReceived(uint productId);\r\n\r\n    //modifiers\r\n    modifier ownerOnly(uint256 productId) {\r\n        require(productContract.getCurrentOwner(productId) == msg.sender);\r\n        _;\r\n    }\r\n\r\n\r\n    function buy(\r\n        uint256 productId\r\n    ) public payable {\r\n        uint256 productPrice = productContract.getUnitPrice(productId) * productContract.getBatchQuantity(productId);\r\n        require(msg.value > productPrice, \"Insufficent balance to buy the supply\");\r\n        address payable targetAddress = address(uint160(productContract.getCurrentOwner(productId)));\r\n        targetAddress.transfer(productPrice);\r\n\r\n        // rawMaterialSupplierContract.disbatchRawMaterial(\r\n        //     productId, \r\n        //     disbatchDate, \r\n        //     msg.sender,\r\n        //     address(this)\r\n        // );\r\n        emit buyRawMaterial(productId);\r\n    }\r\n\r\n    function received(\r\n        uint256 productId,\r\n        string memory currentLocation,\r\n        string memory arrivalDate\r\n    ) public ownerOnly(productId) {\r\n        productContract.setReceived(productId, true);\r\n        (string memory location, string memory disbatchDate, string memory prevArrivalDate) = productContract.getCurrentLocation(productId);\r\n        productContract.addPreviousLocation(productId, location, disbatchDate, prevArrivalDate);\r\n        productContract.setCurrentLocation(productId, currentLocation, \"\", arrivalDate);\r\n        emit rawMaterialReceived(productId);\r\n    }\r\n\r\n\r\n    function removeWine(uint256 productId) public ownerOnly(productId) {\r\n        productContract.removeProduct(productId);\r\n        emit wineRemoved(productId);\r\n    }\r\n    \r\n    //Setting of location is unncessary because the returned products would not be of used anymore in the supplychain.\r\n    function returnRawMaterials(uint256 productId) public ownerOnly(productId) {\r\n\r\n        require(productContract.getReceived(productId) == true, \"Product is not yet received for return\");\r\n\r\n        address prevOwner = productContract.getPreviousOwner(productId);\r\n        address prevContractAddress = productContract.getPreviousContractAddress(productId);\r\n\r\n        productContract.setPreviousOwner(productId, productContract.getCurrentOwner(productId));\r\n        productContract.setPreviousContractAddress(productId, productContract.getCurrentContractAddress(productId));\r\n        productContract.setCurrentContractAddress(productId, prevContractAddress);\r\n        productContract.setCurrentOwner(productId, prevOwner);\r\n\r\n        emit returnedRawMaterial(productId);\r\n    }\r\n\r\n    function refundBulkDistributor(uint256 productId) public payable ownerOnly(productId) {\r\n\r\n        require(productContract.getCurrentOwner(productId) == msg.sender, \"Unable to refund items\");\r\n\r\n        //Transfer back the amt\r\n        uint256 productPrice = productContract.getUnitPrice(productId) * productContract.getBatchQuantity(productId);\r\n        require(msg.value >= productPrice, \"Insufficent amount for refund\");\r\n        address payable targetAddress = address(uint160(productContract.getCurrentOwner(productId)));\r\n        targetAddress.transfer(productPrice);\r\n\r\n        emit refundWine(productId);\r\n    }\r\n\r\n\r\n    function wineReadyToShip(uint256 productId, string memory newLocation) public ownerOnly(productId) {\r\n        require(productContract.getReadyToShip(productId) == false, \"Product is already ready for shipping\");\r\n        require(keccak256(abi.encodePacked(productContract.getProductName(productId))) == keccak256(abi.encodePacked(\"Wine\")), \"You can only ship wine products\");\r\n\r\n        productContract.setReadyToShip(productId, true);\r\n        (string memory location, string memory disbatchDate, string memory arrivalDate) = productContract.getCurrentLocation(productId);\r\n        productContract.addPreviousLocation(productId, location, disbatchDate, arrivalDate);\r\n        productContract.setCurrentLocation(productId, newLocation, \"\", \"\");\r\n        emit WineReadyToShip(productId);\r\n    }\r\n\r\n    function processWine(\r\n        uint256[] memory productIds,\r\n        string memory placeOfOrigin,\r\n        string memory productionDate,\r\n        string memory expirationDate, \r\n        uint256 unitQuantity, \r\n        string memory unitQuantityType, \r\n        uint256 batchQuantity, \r\n        uint256 unitPrice, \r\n        string memory category, \r\n        string memory currentPhysicalLocation\r\n\r\n        ) public returns (uint256) {\r\n\r\n\r\n        bool allAvailableToUse = true;\r\n        for (uint256 i = 0; i < productIds.length; i++) {\r\n            if (productContract.getUsed((productIds[i])) == true) {\r\n                allAvailableToUse == false;\r\n                break;\r\n            }\r\n        }\r\n\r\n        require(allAvailableToUse == true, \"You Do Not Have Sufficient Products To Process Wine\");\r\n\r\n        //CreateWine and add all the materials Inside\r\n\r\n        uint256 wineProductId = productContract.createProduct(\r\n            \"Wine\", \r\n            address(this),\r\n            unitQuantity, \r\n            unitQuantityType, \r\n            batchQuantity, \r\n            unitPrice, \r\n            category,\r\n            address(msg.sender)\r\n            );\r\n\r\n        productContract.setPlaceOfOrigin(wineProductId, placeOfOrigin);\r\n        productContract.setProductionDate(wineProductId, productionDate);\r\n        productContract.setExpirationDate(wineProductId, expirationDate);\r\n        productContract.setCurrentLocation(wineProductId, currentPhysicalLocation, \"\", \"\");\r\n\r\n        for (uint256 i = 0; i < productIds.length; i++) {\r\n            uint256 productId = productIds[i];\r\n            productContract.addComponentProduct(wineProductId, productId);\r\n        }\r\n\r\n    \r\n\r\n        //Use up all the materials\r\n        for (uint256 i = 0; i < productIds.length; i++) {\r\n            productContract.setUsed(productIds[i], true);\r\n        }\r\n        emit processedWine(wineProductId);\r\n        return wineProductId;\r\n    }\r\n\r\n    function dispatchWineToBulkDistributor(uint256 productId, string memory newDisbatchDate, address bulkDistributorAddress, address bulkDistributorContractAddress) public ownerOnly(productId) {\r\n        require(productContract.getReadyToShip(productId) == true, \"Product not ready for shipping\");\r\n        require(keccak256(abi.encodePacked(productContract.getProductName(productId))) == keccak256(abi.encodePacked(\"Wine\")), \"You can only ship wine products\");\r\n        \r\n        productContract.setPreviousOwner(productId, productContract.getCurrentOwner(productId));\r\n        productContract.setCurrentOwner(productId, bulkDistributorAddress);\r\n        productContract.setPreviousContractAddress(productId, productContract.getCurrentContractAddress(productId));\r\n        productContract.setCurrentContractAddress(productId, bulkDistributorContractAddress);\r\n        (string memory location, , string memory arrivalDate) = productContract.getCurrentLocation(productId);\r\n        productContract.setCurrentLocation(productId, location, newDisbatchDate, arrivalDate);\r\n\r\n        emit WineDisbatched(productId);\r\n    }\r\n}",
  "sourcePath": "C:\\Users\\YC\\Documents\\shino\\IS4302\\Wine-Supplychain-Blockchain\\contracts\\WineProducer.sol",
  "compiler": {
    "name": "solc",
    "version": "0.5.16+commit.9c3226ce.Emscripten.clang"
  },
  "schemaVersion": "3.4.11",
  "updatedAt": "2023-04-08T10:22:42.577Z",
  "devdoc": {
    "methods": {}
  },
  "userdoc": {
    "methods": {}
  }
}